:100000000C942A000C947E100C94A7100C94D01021
:100010000C9447000C9447000C9447000C94470044
:100020000C9447000C9447000C9447000C94470034
:100030000C9447000C944F110C9447000C9447000B
:100040000C9447000C9447000C9447000C94470014
:100050000C94470011241FBECFE5D8E0DEBFCDBF12
:1000600012E0A0E6B0E0ECE6F4E202C005900D92EA
:10007000A435B107D9F724E0A4E5B2E001C01D9290
:10008000AF3AB207E1F70E949D010C9423120C9441
:100090000000CF93DF9300D000D0CDB7DEB78091C2
:1000A000F1029091F2026AE070E00E94DC11698333
:1000B0007A838B839C8360E080E00E94B60480E8B2
:1000C00090E00E94A3048091ED0290E00E94C3049E
:1000D00083E890E00E94A3048091EE0290E00E94E9
:1000E000C30488E890E00E94A30460E081E00E94DD
:1000F000B6048BE890E00E94A30489819A810E9453
:10010000C3048EE890E00E94A3048B819C810E942E
:10011000C30480E990E00E94A3048091F80280FF6C
:100120000AC085E990E00F900F900F900F90DF913B
:10013000CF910C94A30486E392E0F5CF80E00E9477
:10014000A00580E00C948E060F931F93CF93DF934E
:10015000CDB7DEB729970FB6F894DEBF0FBECDBF7F
:100160008E010B5F1F4FB80180E00E94C30EB801E3
:10017000892B31F48D819E818093E7029093E80270
:1001800081E00E94C30E892B31F48D819E81809382
:10019000E9029093EA028E01075F1F4FB80180E0E9
:1001A0000E941405B801892B19F489858093ED020A
:1001B00081E00E941405892B19F489858093EE0251
:1001C0008FEE92E00E94C303892B21F01092EF0280
:1001D0001092F0020E94F10A8093F1029093F202D1
:1001E0000E94060B28EE33E040E050E00E94F01140
:1001F0002093F3023093F4024093F5025093F602F9
:100200000E9410049091F80280FB92F99093F802FA
:100210000E9413049091F80280FB93F99093F802E6
:10022000CE0108960E94D705892B09F04DC088851C
:1002300081709091F80280FB90F99093F802CE01C2
:1002400007960E949F06892B09F040C08F8181701C
:100250009091F80280FB91F99093F8028E010F5F64
:100260001F4FC8010E94E305892B91F589819A816E
:100270008093FB029093FC028DEF92E00E94F805C0
:10028000892B41F01092FD021092FE021092FF02A3
:1002900010920003C8010E940D06892BE1F48981A8
:1002A0009A8180930103909302030E949E0D809394
:1002B000F90229960FB6F894DEBF0FBECDBFDF91CD
:1002C000CF911F910F91089580E0B3CF80E0C0CF10
:1002D00080E090E0CDCF80E090E0E3CF0E94220666
:1002E0000E94C80A8091030390910403A091050322
:1002F000B09106030196A11DB11D80930303909355
:100300000403A0930503B09306030C94A40083E0B8
:100310000E94A4020E94E8030E9450030E94A400CD
:1003200087EE92E00E944B0987EE92E00E94A50DB5
:100330000E949E0D8093F90208951092E702109298
:10034000E8021092E9021092EA021092ED02109275
:10035000EE021092EF021092F0021092F10210924F
:10036000F2021092F3021092F4021092F50210922F
:10037000F6021092FB021092FC021092FD02109203
:10038000FE021092FF0210920003109201031092DD
:1003900002031092030310920403109205031092BB
:1003A00006038091F802807F8093F8021092F90290
:1003B0000E94181180E00E94100581E00E94F9104F
:1003C0000E944F060E9477050E947D060E94D2037C
:1003D0000E942F0383E00E945C020E94AE0A60EA42
:1003E00076E881E090E00E94AD0F0E944F040E94E9
:1003F00046090E943C0B0E94870D84E592E00E9412
:10040000CD090E9458076EE970E080E00E946110FB
:1004100062E080E00E94041080E00E942E1080E0E4
:100420000E9443100E94FE0F0E94D40C4AE050E04C
:1004300060E070E087E891E00E94EC0C44EF51E04E
:1004400060E070E089E490E00E94EC0C48EE53E03C
:1004500060E070E08EE691E00E94EC0C0E94A40047
:100460000E949E0D8093F9028AE090E00E94231181
:100470000E943A0D0E94670D0E94ED080E949E0D99
:100480009C019091F802892F817091FD826092FD0C
:10049000846093FD88602530310521F480610E94DD
:1004A0005C06E2CF2630310511F48062F8CF2730A8
:1004B0003105A9F78064F3CFCF93DF9300D00F927B
:1004C000CDB7DEB7898340E064E00E94DB0E8A830B
:1004D0009B8340E065E089810E94DB0E2A813B819D
:1004E000282B392B2A833B8340E063E089810E94DB
:1004F000DB0E2A813B81282B392B2A833B8341E069
:1005000064E089810E944D0F2A813B81282B392B81
:100510002A833B8341E065E089810E944D0F2A8157
:100520003B81282B392B2A833B8341E063E089817F
:100530000E944D0F2A813B81822B932B0F900F90AD
:100540000F90DF91CF910895FF920F931F93CF9358
:10055000DF9300D0CDB7DEB78A8300E610E0F12C40
:10056000AE014F5F5F4FF80160818A810E948B0F5F
:1005700091E08981811190E0F8018181891336C071
:1005800084818530B0F58F5F8483853091F1F801E7
:1005900082819381891709F444C0813069F521E093
:1005A000208711861582168217828383F801858140
:1005B00096818436910518F4019685839683F2E03E
:1005C000FF1221C08091790090917A0084369105C4
:1005D000D0F080917B00811116C084E080937C0074
:1005E00010927D0081E080937B000DC09183148286
:1005F000CECFF8019283CBCF978123E0911122E0F7
:10060000208711868383F394065F1F4F83E0F812DF
:10061000A7CF0F900F90DF91CF911F910F91FF9077
:100620000895813081F7C2CF83309105A8F4611518
:10063000710591F02AE0289FF001299FF00D112407
:10064000E05AFF4F80859185DB018D939D93108645
:10065000118680E090E0089581E090E00895109286
:1006600014031092150310920B03109207031092BB
:1006700008031092090310920A0310920C031092BF
:100680000D0310920E0310920F031092100310929C
:100690001103109212031092130380E090E008956A
:1006A0008F929F92AF92BF92DF92EF92FF920F9341
:1006B0001F93CF93DF9300D0CDB7DEB719821A8294
:1006C000BE016F5F7F4F82E00E94C30E8C01892BB9
:1006D00009F04AC029813A81A0E1B7E20E94CD1118
:1006E0002FEF33E040E050E00E94F011D0900B0378
:1006F0006D2D70E0C901A0E0B0E07B01EE0CFF1CA5
:10070000F701E45FFC4F60817181861B970BA109A3
:10071000B1098090070390900803A0900903B0905E
:100720000A03880D991DAA1DBB1D61E06D0D643083
:1007300008F060E0F701E45FFC4F20833183809391
:10074000070390930803A0930903B0930A036093EF
:100750000B0322E0B695A795979587952A95D1F733
:100760008093140390931503C8010F900F90DF91AD
:10077000CF911F910F91FF90EF90DF90BF90AF90BE
:100780009F908F900895009751F02091140330911D
:100790001503FC012083318380E090E0089581E01F
:1007A00090E0089542E062E083E00E94DB0E892B36
:1007B00019F081E090E0089542E066E083E00E9455
:1007C000DB0E0097B1F710921703109216030895ED
:1007D000CF93DF9300D0CDB7DEB71A821982AE0176
:1007E0004E5F5F4F62E083E00E948B0FAE014F5F70
:1007F0005F4F66E083E00E948B0F81E09A81911148
:1008000080E08093170381E09981911180E08093CB
:10081000160380E090E00F900F90DF91CF91089544
:10082000809117030895809116030895CF93DF9365
:10083000D82FC62F0E94CE0F892B39F48EE30E9449
:10084000DF0F892B41F00E94DC0FC1E0D0E0CE0128
:10085000DF91CF9108958D2F0E94EF0F892B99F78B
:100860008C2F0E94EF0FEC01892B69F70E94DC0F9F
:10087000EECF682F80E00E941604EFE9FFE0319789
:10088000F1F700C000000895682F80E40E9416046C
:10089000EFECF7E03197F1F700C000000895CF9337
:1008A000DF932FE788E391E0215080409040E1F70B
:1008B00000C0000088E30E943904892B31F0C1E0B8
:1008C000D0E0CE01DF91CF9108958FE097E20197BC
:1008D000F1F700C0000089E30E943904892B79F701
:1008E0008FEC97E00197F1F700C0000084E10E94CF
:1008F0003904EC01892B19F780E70E94390486E559
:100900000E9439048CE60E9439049FEF21EE84E0B6
:10091000915020408040E1F700C0000088E30E9431
:1009200039048CE00E94390481E00E9439048FE090
:1009300097E20197F1F700C0000086E00E943904B9
:10094000C0CF0C944404CF93DF93EC01892B31F496
:1009500081E090E008C021960E94A1048881811165
:10096000FACF80E090E0DF91CF910895823040F49B
:10097000603130F48111605C862F80680C943904FA
:1009800081E090E00895EF92FF920F931F93CF9331
:10099000DF9300D000D000D0CDB7DEB79C01892B0B
:1009A00079F480E30F900F900F900F900F900F90BD
:1009B000DF91CF911F910F91FF90EF900C94440421
:1009C00040E0EAE0F0E07E018FEFE81AF80AC901A2
:1009D000BF010E94DC11D701A40FB11D805D8C9373
:1009E000C9019B014F5F0A9790F78701040F111D02
:1009F000E016F10679F480E090E00F900F900F90F0
:100A00000F900F900F90DF91CF911F910F91FF905A
:100A1000EF900895F80182918F010E94A104E8CF20
:100A200066E081E00C94AE0EEF92FF920F931F935D
:100A3000CF93DF9300D000D000D0CDB7DEB7182F12
:100A40007B01672B81F401E010E0C8010F900F904B
:100A50000F900F900F900F90DF91CF911F910F91FA
:100A6000FF90EF900895BE016F5F7F4F0E94C30E0D
:100A7000892B49F7BE016D5F7F4F812F0E94C30E06
:100A8000892B09F7BE016B5F7F4F812F0E94C30E38
:100A90008C01892BC1F649815A818B819C818417F5
:100AA000950728F0342F252FAC01832F922F2D810D
:100AB0003E814217530708F49A012817390708F4B2
:100AC0009C01A4E6B0E00E94CD116B3923E97207C6
:100AD00021E08207910548F42FEF33E040E050E039
:100AE0000E94F011F7012083B0CF24E6FBCF41E054
:100AF00060E081E00E94DB0E009709F540E060E0D5
:100B000081E00E944D0F0097D1F4109224031092BF
:100B100020031092210310922203109223031092BB
:100B20001C0310921D0310921E0310921F031092BB
:100B300018031092190310921A0310921B030895C0
:100B4000CF93C82F81E090E0C23018F54C2F60E0C1
:100B500081E00E944D0F0097E1F4209124032130A1
:100B6000D0F4C130A1F44091180350911903609161
:100B70001A0370911B034F5F5F4F6F4F7F4F40937E
:100B800018035093190360931A0370931B03C093C7
:100B90002403CF910895D9F7C111F9CF1092200302
:100BA000109221031092220310922303F0CF00979A
:100BB00039F020912403FC01208380E090E0089527
:100BC00081E090E00895009781F0409120035091DA
:100BD00021036091220370912303FC014083518320
:100BE0006283738380E090E0089581E090E008954F
:100BF000009781F040911C0350911D0360911E03EA
:100C000070911F03FC01408351836283738380E0F2
:100C100090E0089581E090E00895009781F0409180
:100C200018035091190360911A0370911B03FC0182
:100C3000408351836283738380E090E0089581E074
:100C400090E0089580912403813031F58091200354
:100C500090912103A0912203B09123030196A11D3D
:100C6000B11D8093200390932103A0932203B0939E
:100C7000230380911C0390911D03A0911E03B0914A
:100C80001F030196A11DB11D80931C0390931D03AA
:100C9000A0931E03B0931F0380E090E0089541E00D
:100CA00064E081E00E94DB0E009729F440E064E0FC
:100CB00081E00C944D0F08950F931F93CF93DF9312
:100CC0000F92CDB7DEB71982BE016F5F7F4F0E94D2
:100CD00009118C01892B51F441E064E081E00E940C
:100CE0004D0F40E064E081E00E944D0FC8010F907D
:100CF000DF91CF911F910F91089541E062E081E073
:100D00000E94DB0E009749F440E062E081E00E941F
:100D10004D0F009711F4109225030895CF93C82F1B
:100D200081E090E0C23048F44C2F62E081E00E9404
:100D30004D0F009711F4C0932503CF9108950097AC
:100D400039F020912503FC01208380E090E0089594
:100D500081E090E00895009741F0FC01E05CFF4FD6
:100D6000108231961082319610820895CF93DF93CE
:100D7000009749F02FB7F894FC01EE5BFF4F3081EC
:100D8000303430F02FBF81E090E0DF91CF910895B3
:100D9000DC01A05CBF4F3C91830F911DEC01688387
:100DA0008C918F5F803408F080E08C9380818F5F1E
:100DB00080832FBF80E090E0E8CFCF93DF93009750
:100DC00061F06115710549F02FB7F894FC01EE5BF5
:100DD000FF4F3081311106C02FBF81E090E0DF91DD
:100DE000CF910895DC01AF5BBF4F3C91830F911D04
:100DF000EC018881EB0188838C918F5F803408F04F
:100E000080E08C938081815080832FBF80E090E0D0
:100E1000E6CF009761F02FB7F894FC01EE5BFF4F2F
:100E200090812FBF81E0911519F080E0089581E055
:100E30000895AC0120E0892B51F480E008958FE9FA
:100E4000890F8A3108F490523913F7CF2F5FFB01D5
:100E5000E20FF11D3081FA01E20FF11D9081311195
:100E6000EECF9D3061F038F4911549F0995081E052
:100E7000923018F7089581E09032F9F6089581E0F4
:100E80000895DC01ED91FD911297309749F0908122
:100E9000903239F087EF890F823018F09D3009F0D9
:100EA00008953196ED93FD931297ECCF0C949B111E
:100EB000CF93DF9383EE93E00E94AB0680E593E04F
:100EC0000E94CD091092260360E875E280E090E070
:100ED0000E947A11EC01892B59F483EE93E00E9471
:100EE000C61181E00E94BA11CE01DF91CF91089521
:100EF000C1E0D0E0F9CF87ED90E00E94A1118EED26
:100F000090E00E94A11187EE90E00E94A11180EF75
:100F100090E00E94A11188EF90E00E94A11182E070
:100F200091E00E94A1118DE091E00E94A11184E165
:100F300091E00E94A1118AE191E00E94A11184E256
:100F400091E00C94A11180E593E00E94E7098111E2
:100F500007C080E391E00E94A11180E090E0089535
:100F600066E577E080E593E00E94F509F6CF0F9300
:100F70001F93CF93DF9300D000D000D0CDB7DEB762
:100F8000009789F48CE391E00E94A11181E090E048
:100F90000F900F900F900F900F900F90DF91CF91C7
:100FA0001F910F9108958D839E83CE0105960E9417
:100FB00041070D811E81F80198012F5D3F4F80810F
:100FC000811531F08D3021F0C0F489508230B8F4B1
:100FD00061E571E0C8010E941907811107C068E549
:100FE00071E0C8010E941907811581F089E990E03C
:100FF0000E94A11180E090E0CBCF803249F331967E
:101000002E173F07E1F686E491E0BECF60E671E07F
:10101000C8010E941907811519F00E947B07EACFC9
:1010200065E671E0C8010E941907811519F089E68B
:1010300091E0DECF6EE671E0C8010E9419078115CC
:1010400061F00F900F900F900F900F900F90DF9125
:10105000CF911F910F910C94A30766E771E0C8012F
:101060000E941907811529F080E593E00E94F0099C
:10107000DECF60E871E0C8010E941907811519F000
:1010800087E891E0B5CF61E971E0C8010E941907D6
:10109000811519F087E991E0ABCF62EA71E0C801F0
:1010A0000E941907811519F08AEA91E0A1CF65EB3A
:1010B00071E0C8010E941907811519F08EEB91E0CB
:1010C00097CF6AEC71E0C8010E941907811519F0E9
:1010D0008FEC91E08DCF69EE71E0C8010E94190795
:1010E0008111A5CF63EF71E0C8010E94190781113A
:1010F0009ECF6FEF71E0C8010E941907811197CF51
:1011000067E072E0C8010E941907811190CF60E189
:1011100072E0C8010E941907811189CF69E172E06C
:10112000C8010E941907811182CF63E272E0C801F1
:101130000E94190781117BCF6EE272E0C8010E9404
:101140001907811174CF6AE372E0C8010E94190780
:10115000811519F080E492E04BCFF80180818F7DFA
:10116000833509F00FCF81818F7D853409F00ACF57
:1011700082818F7D843509F005CF8381803219F01B
:10118000893009F0FFCEF80184818F7D833509F025
:10119000F9CE85818F7D843509F0F4CE095F1F4F2C
:1011A0000B831C83CE0103960E9441078B819C8197
:1011B00089839A83892B09F4E5CECE0101960E949A
:1011C0004107E981FA81808180538A3008F0DACEC4
:1011D000819180538A30E0F32ACF0F931F93CF93EE
:1011E000DF9300D00F92CDB7DEB78E010F5F1F4F98
:1011F00083EE93E00E940907811541F00F900F9054
:101200000F90DF91CF911F910F910895B80183EE58
:1012100093E00E94DD060A831B83892B79F789817D
:10122000E09126038D3011F08A3069F4E11501F365
:10123000F0E0E95DFC4F108287E293E00E94B7077F
:1012400010922603D5CFE83248F4AE2FB0E0A95D66
:10125000BC4F8C93EF5FE0932603CACF86E491E006
:101260000E94A11183EE93E00E9409078111E8CF4B
:101270006A817B8183EE93E00E94DD06892B01F772
:1012800089818D30E9F28A3069F7DACF109226042D
:1012900080E090E00895009779F0FC0186818E311E
:1012A00030F481E08093260480E090E008958B354F
:1012B000D8F310922604F8CF81E090E00895809151
:1012C000260408958F929F92AF92BF92CF92DF92A1
:1012D000EF92FF921F93CF93DF93CDB7DEB72A979C
:1012E0000FB6F894DEBF0FBECDBF6B017C014A0183
:1012F00041155105C9F1C114D104E104F104A1F46F
:1013000080E3FA012A960FB6F894DEBF0FBECDBF78
:10131000DF91CF911F91FF90EF90DF90CF90BF9022
:10132000AF909F908F90099410E05E01FFEFAF1A8D
:10133000BF0AB601C7012AE030E040E050E00E9459
:10134000F011F501E10FF11D6083C601D7016901BC
:101350007A011F5F0A97A105B10558F77501E10EE3
:10136000F11CAE14BF0491F42A960FB6F894DEBFB8
:101370000FBECDBFDF91CF911F91FF90EF90DF9017
:10138000CF90BF90AF909F908F900895F70182917A
:101390007F01805DF4010995E4CF0097B9F0FC016D
:1013A0009C0120573F4F10821182128213821482B7
:1013B00015821682178210863996E217F30799F77D
:1013C0001082FC01EF56FF4F119210820895009792
:1013D00029F0FC01EE56FF4F8081089580E00895CA
:1013E000009711F00C94CD0908956F927F928F921F
:1013F0009F92AF92BF92CF92DF92EF92FF920F93A4
:101400001F93CF93DF93CDB7DEB728970FB6F8942D
:10141000DEBF0FBECDBF8C016F8378870097A1F030
:10142000672B91F05C0182E9A80EB11CD5018C916B
:10143000811551F0912CF801E057FF4FED83FE83A9
:10144000D5018C919816A8F028960FB6F894DEBFB7
:101450000FBECDBFDF91CF911F910F91FF90EF9005
:10146000DF90CF90BF90AF909F908F907F906F90C4
:101470000895AD81BE818C91815F89198F70F801CB
:10148000B9E08B9FE00DF11D112480808181928154
:10149000A381B48189839A83AB83BC837580668082
:1014A000E780F0848EE4C82E82E0D82ED6018D919C
:1014B0006D01EF81F8850995F2E5CF16F2E0DF06C0
:1014C000A9F7692D70E080E090E04F8158850E9477
:1014D00062098CE2EF81F8850995682D70E080E063
:1014E00090E04F8158850E9462098CE2EF81F88577
:1014F00009954F81588569817A818B819C810E94F1
:1015000062098CE2EF81F8850995672D70E080E033
:1015100090E04F8158850E9462098CE2EF81F88546
:101520000995662D70E080E090E04F8158850E941B
:1015300062098CE2EF81F8850995B70180E090E0BF
:101540004F8158850E9462098DE0EF81F8850995E9
:101550008AE0EF81F8850995939472CF40E061E0CD
:1015600081E00E94DB0E009711F40E943B11109263
:101570002D0410922E0410922B0410922C04109221
:101580002704109228041092290410922A04089526
:101590000E944C1120912D0430912E04AC01421B6D
:1015A000530B9A0180932D0490932E0440932B04A7
:1015B00030932C048091270490912804A091290451
:1015C000B0912A04840F951FA11DB11D809327049B
:1015D00090932804A0932904B0932A0480E090E01B
:1015E000089560912B0470912C0480E090E022E03B
:1015F000660F771F881F991F2A95D1F723E030E0E7
:1016000040E050E00E94F011C901089520912704A4
:10161000309128044091290450912A04A8EEB3E0A7
:101620000E94181222EC31E040E050E00E94F011DC
:10163000B901CA01089510923E0410923F0410921D
:101640003C0410923D0410923A0410923B04109214
:101650003804109239041092360410923704109214
:101660003404109235041092320410923304109214
:1016700031041092300408951092400410924104F5
:1016800010922F040E941B0B80E090E0089580913F
:10169000400490914104892B19F081E080932F043C
:1016A00080E090E00895CF93DF93DC01C091400487
:1016B000D0914104892BC9F0209709F446C080914C
:1016C0002F04811591F0FE013197E930F10530F5D5
:1016D000EB5DFD4E0C94121216968C911697803687
:1016E00020F451968C9182FF19C0CE01DF91CF91E9
:1016F000089518968D919D911A97883E9340A8F76A
:1017000051968C9180FDF1CF09C017968C91179757
:10171000893158F351968C9183FDE7CF10924004A4
:101720001092410410922F040E941B0BC0E0D0E0E5
:10173000DCCF17968C918931C0F2F0CF8D919D91BD
:1017400001978E3F934088F6E9CF51969C9151972F
:1017500092FD15C016968C911697833698F02091BD
:101760003E0430913F04283C310548F42F5F3F4F41
:1017700020933E0430933F04283C310539F4C1E006
:10178000D0E016C010923E0410923F0418964D917E
:101790005D911A9741346FE1560708F43FC02091DC
:1017A0003C0430913D042233310598F0C2E0D0E092
:1017B00010923404109235041092320410923304C3
:1017C000C09340041092410410922F040E941B0BFE
:1017D0008CCF2F5F3F4F20933C0430933D04223346
:1017E000310521F393FDCCC017962C9117972A3021
:1017F00008F4C6C090FF33C01A962D913D911C97F6
:101800002A30310538F52091380430913904283ECA
:1018100063E0360740F0C4E0D0E0CACF10923C0449
:1018200010923D04DFCF2F5F3F4F20933804309359
:101830003904283E334079F3443F5140A0F42091CD
:101840003A0430913B042C3241E0340788F0C5E083
:10185000D0E0AECF1092380410923904EDCF109240
:1018600038041092390410923A0410923B0409C0D3
:101870002F5F3F4F20933A0430933B042C3231408A
:1018800031F354962D913D9156972538334008F009
:101890007AC02D913D9112972115310519F02F3FF6
:1018A000334009F52091360430913704243F41E05C
:1018B000340718F0C7E0D0E07BCF2F5F3F4F209375
:1018C000360430933704243F3140A1F352962C91D3
:1018D0003AEF320F323010F0233051F410923404CA
:1018E0001092350419C01092360410923704EECFCE
:1018F00090FD28C020913404309135042115310524
:1019000081F4809331042F5F3F4F20933404309350
:1019100035042037374149F01092320410923304D5
:10192000E4CE203797E1390770F39091310489179D
:10193000A8F6292F281B330B2630310578F2C8E092
:10194000D0E036CF10923404109235042091320446
:101950003091330421153105C9F0203E4EE23407A1
:10196000B8F0909130049817D0F4203E3E4208F42D
:10197000BCCE891B813009F0B8CEC9E0D0E020CFC1
:10198000C3E0D0E015CFC6E0D0E012CF80933004A2
:101990002F5F3F4F2093320430933304E2CF203E39
:1019A0003E4208F4A2CEE9CFE3E4F4E010821182D3
:1019B0001282138214821582168217821086118673
:1019C00012863C9684E0E33AF80781F781E0809341
:1019D000420480E090E00895CF92DF92EF92FF9270
:1019E000CF93DF93EC016A017B0180914204811562
:1019F000F1F12097E1F18AE0C816D104E104F10485
:101A0000B0F1BA01C7012AE030E040E050E00E94A6
:101A1000F011672B682B692B51F5E3E4F4E080E0CB
:101A200090E0228521111EC02CE0289FF001299F03
:101A3000F00D1124ED5BFB4FC083D183C282D382B2
:101A4000E482F582C682D782E086F186138681E041
:101A5000828780E090E0DF91CF91FF90EF90DF9060
:101A6000CF90089501963C9688309105D1F681E09B
:101A700090E0F1CF80914204811541F1E3E4F4E07C
:101A800021E082858130E9F486819781A085B18546
:101A90008A309105A105B10538F00A97A109B1096D
:101AA00086839783A087B187892B8A2B8B2B49F458
:101AB00082819381A481B58186839783A087B18732
:101AC00023873C9684E0E33AF807D9F60895CF934C
:101AD000DF9380914204811589F0C3E4D4E08A85C4
:101AE000813039F48B85813021F41B86E881F981BE
:101AF00009952C9684E0C33AD80789F7DF91CF91F6
:101B0000089580E00E94A00580E00C948E0610925B
:101B1000A5041092A6041092A3041092A40480E7D6
:101B200097E180937E0090937F0080E00E94A00563
:101B3000009719F480E00C948E0608958091A50416
:101B40009091A60408950C94470BEF92FF920F9387
:101B50001F93CF93DF9300D000D000D0CDB7DEB776
:101B60008C011D821E821B821C8219821A8281E0D6
:101B700090E00115110509F499C0F801818980FDF3
:101B80003BC080917E0090917F008037F7E19F07F6
:101B900028F4019680937E0090937F00BE016B5FD6
:101BA0007F4F80E090E00E941403BE016D5F7F4F85
:101BB00081E090E00E941403BE016F5F7F4F82E0DE
:101BC00090E00E941403C8010E94530B7C01892BF2
:101BD00039F00E94810D85E08093A5041092A6043F
:101BE00089819A810397029710F40E94A30DEF2830
:101BF00041F00E94810D58C010927E0010927F002B
:101C0000CDCFE091A504F091A6048D819E8103972C
:101C1000B9F5E630F10599F40E94810D81E08093D9
:101C2000A5041092A6040E94810D1092A3041092A4
:101C3000A404F8018781893198F584E04CC0CF0174
:101C400001970297E8F40E94810D86E08093A50435
:101C50001092A6048B819C81039769F480917E0089
:101C600090917F008037974130F081E00E94A0057D
:101C700081E00E948E06F801818980FF15C046C070
:101C8000E830F10508F066C0E25DFD4E0C941212DA
:101C90000E94810D1092A3041092A40481E01BC045
:101CA0000E945F0981110FC080E090E00F900F90BB
:101CB0000F900F900F900F90DF91CF911F910F9188
:101CC000FF90EF90089580917E0090917F00803783
:101CD000974150F382E08093A5041092A604E4CFCC
:101CE000F8018781893118F40E94810DA6CF0E94E6
:101CF0005F09811108C00E94810D1092A304109207
:101D0000A40483E0E8CF81E00E94A00581E00E9466
:101D10008E06CACF0E94810D8091A3049091A404E5
:101D2000843FF1E09F0708F0B5CF01968093A304AC
:101D30009093A404843F914009F0B6CFABCF0E94AA
:101D4000810DF8018781893108F4AECFA7CF0E94B9
:101D5000810DA4CF0E94810D85E0BDCF823010F0AF
:101D6000833071F49FEF960F973050F48295880F6F
:101D7000880F807C87B9606866B980E090E008953C
:101D800081E090E00895883098F46115710581F044
:101D900097B1907E982B97B9369A349BFECF349AA0
:101DA00084B125B1FB018083218380E090E0089518
:101DB00081E090E00895843008F06CC0683008F04D
:101DC00069C0433008F066C021E030E0F90101C08D
:101DD000EE0F6A95EAF76E2F413028F56095823054
:101DE000A1F08330C9F0813039F08AB386238ABBF1
:101DF0008BB386238BBB06C087B3862387BB88B390
:101E0000862388BB80E090E0089584B3862384BB5A
:101E100085B3862385BBF6CF81B3862381BB82B38E
:101E2000862382BBEFCFB1F4823061F0833071F052
:101E3000813021F08AB38E2B8ABBE4CF87B38E2BFF
:101E400087BBE0CF84B38E2B84BBDCCF81B38E2BDA
:101E500081BBD8CF9E2F9095823081F08330A1F046
:101E6000813031F08AB389238ABB8BB38E2BC2CFEA
:101E700087B3892387BB88B38E2BC3CF84B38923D1
:101E800084BB85B38E2BC6CF81B3892381BB82B33C
:101E90008E2BC7CF81E090E008958430C8F568307C
:101EA000B8F54230A8F521E030E0F90101C0EE0FAD
:101EB0006A95EAF76E2F4130C1F4823061F08330C9
:101EC00081F0813021F08BB38E2B8BBB07C088B3A0
:101ED0008E2B88BB03C085B38E2B85BB80E090E042
:101EE000089582B38E2B82BBF9CF6095823051F07A
:101EF000833059F0813019F08BB38623E6CF88B355
:101F00008623E7CF85B38623E8CF82B38623EBCF42
:101F100081E090E00895FA018430E0F46830D0F474
:101F20003097C1F0823091F0833091F0813061F0D0
:101F300089B390E002C0959587956A95E2F7817024
:101F4000808380E090E0089586B3F3CF83B3F1CF30
:101F500080B3EFCF81E090E008959B01AC012115A3
:101F6000310541055105B9F060E072E18AE790E082
:101F70000E94F011205131094109510956954795A8
:101F80003795279520B981B18C7F81B984E086BFD0
:101F900080E090E0089581E090E0089584EA86BFB3
:101FA00006B607FEFDCF91B1987F21E030E0983072
:101FB00009F420E0C901089584E986BF0895880FD7
:101FC00083B984E886BF06B607FEFDCF91B1987F3E
:101FD00021E030E0983109F420E0C901089583B987
:101FE00084E886BF06B607FEFDCF91B1987F21E059
:101FF00030E0983209F420E0C90108958FB7806875
:102000008FBF80E090E00895813079F08230C1F098
:10201000811121C06430F8F485B78C7F85BF85B706
:10202000862B85BF80E090E008956430A0F485B7EA
:10203000837F85BF85B7660F660F682B65BFF2CFBC
:10204000623021F484B78F7B84BFECCF633019F406
:1020500084B78064F9CF81E090E00895813051F039
:10206000823059F081110CC08AB780648ABF80E049
:1020700090E008958AB78068F9CF8AB78062F6CF7A
:1020800081E090E00895813069F0823089F081111B
:1020900015C08AB780648ABF8BB780648BBF80E02D
:1020A00090E008958AB780688ABF8BB78068F6CFC2
:1020B0008AB780628ABF8BB78062F0CF81E090E000
:1020C000089561157105B9F0813059F0823071F0D1
:1020D000811111C06093AB047093AC0480E090E078
:1020E00008956093A9047093AA04F8CF6093A7049D
:1020F0007093A804F3CF81E090E008951F920F92AF
:102100000FB60F9211242F933F934F935F936F93CA
:102110007F938F939F93AF93BF93EF93FF93E09140
:10212000AB04F091AC04309709F00995FF91EF9161
:10213000BF91AF919F918F917F916F915F914F91DF
:102140003F912F910F900FBE0F901F9018951F92E7
:102150000F920FB60F9211242F933F934F935F93DB
:102160006F937F938F939F93AF93BF93EF93FF935F
:10217000E091A904F091AA04309709F00995FF9124
:10218000EF91BF91AF919F918F917F916F915F91EF
:102190004F913F912F910F900FBE0F901F90189568
:1021A0001F920F920FB60F9211242F933F934F93CC
:1021B0005F936F937F938F939F93AF93BF93EF93AF
:1021C000FF93E091A704F091A804309709F00995D6
:1021D000FF91EF91BF91AF919F918F917F916F91FF
:1021E0005F914F913F912F910F900FBE0F901F90D5
:1021F0001895843058F4BC9ABD9ABE98BF9AC49A78
:1022000080658DB9709880E090E0089581E090E05D
:1022100008956115710549F08FB9779BFECF8FB195
:10222000FB01808380E090E0089581E090E00895D4
:1022300088E083BF8CE78CBF12BE83B7887F83BFE3
:1022400080E090E00895AC0182E088BF93B793608E
:1022500093BF20E030E02417350731F483B7887F3F
:1022600083BF80E090E0089508B601FEFDCF88BFEF
:102270002F5F3F4FF0CF8EB5887F8EBD8FB58C7F9F
:102280008FBD8EB5877E8EBD1DBC1CBC8EB5876094
:102290008EBD80E090E008958CB59DB508951F92A5
:1022A0000F920FB60F9211242F933F934F935F938A
:1022B0006F937F938F939F93AF93BF93EF93FF930E
:1022C0006CB18091AD049091AE04009711F00E9422
:1022D000B606FF91EF91BF91AF919F918F917F9142
:1022E0006F915F914F913F912F910F900FBE0F9083
:1022F0001F901895009770406040D1F09B01AC0191
:1023000084E0220F331F441F551F8A95D1F760E0E8
:1023100072E18AE790E00E94F0112150310930BD4E
:1023200029B986E880BD88E18AB980E090E0089507
:1023300081E090E008955D9BFECF8CB980E090E055
:1023400008950F931F93CF938C01C0E0892B31F434
:1023500081E090E00BC00E949B11CF5FF801EC0F71
:10236000F11D80818111F7CF80E090E0CF911F9126
:102370000F910895813021F4579A80E090E00895FC
:1023800010F45798FACF81E090E008958093AD045F
:102390009093AE0480E090E00895A29FB001B39FB7
:1023A000C001A39F700D811D1124911DB29F700D5E
:1023B000811D1124911D0895AA1BBB1B51E107C06B
:1023C000AA1FBB1FA617B70710F0A61BB70B881FC5
:1023D000991F5A95A9F780959095BC01CD01089554
:1023E000A1E21A2EAA1BBB1BFD010DC0AA1FBB1F19
:1023F000EE1FFF1FA217B307E407F50720F0A21B8B
:10240000B30BE40BF50B661F771F881F991F1A94F7
:1024100069F760957095809590959B01AC01BD0121
:10242000CF010895EE0FFF1F0590F491E02D099460
:102430000E94CD11A59F900DB49F900DA49F800D7B
:10244000911D11240895F894FFCF6C0B790B850B27
:10245000990B800B800B9E0B800B800B480E130E8C
:0C246000700E8A0E9F0EA70E2A0EF90DBA
:10246C000400000000000000000005000000000057
:10247C0000000000030000000000000000007017C6
:10248C004C3A002520523A00252000463A002E00F6
:10249C004C2F6D200052554E002457542C4C3D307F
:1024AC002C523D302C493D302C513D302C563D307A
:1024BC002C503D302C56323D302C53543D494E4916
:1024CC00542C54523D302C52554E3D302C55503DD1
:1024DC00302A33410D0A0048454C500D0A00535424
:1024EC00415455530D0A004C4556454C3F0D0A00BE
:1024FC00464C4F573F0D0A00564F4C554D453F0D1E
:10250C000A0043555252454E543F0D0A004346476C
:10251C003F0D0A0041434B0D0A004641554C5453A4
:10252C003F0D0A00434C524641554C54530D0A0082
:10253C004E4F204641554C54530D0A0045525220E3
:10254C00434D440D0A00455252204C4F4E470D0A44
:10255C0000535441545553005354415455533F0068
:10256C0048454C500041434B004F4B0D0A0046412F
:10257C00554C54533F00434C524641554C54530018
:10258C004C4556454C3F004C4556454C3D300D0A8C
:10259C0000464C4F573F00464C4F573D302E300DA8
:1025AC000A00564F4C554D453F00564F4C554D4526
:1025BC003D300D0A0043555252454E543F00435591
:1025CC005252454E543D300D0A004346473F00439E
:1025DC0046473D302C302C302C302C302C302C30CD
:1025EC002C302C302C300D0A004D4F4445204155D9
:1025FC00544F004D4F4445204D414E55414C0050D9
:10260C00554D50204F4E0050554D50204F464600D2
:10261C0056414C5645204F4E0056414C5645204F86
:10262C0046460053455256494345204F4E005345AC
:10263C005256494345204F464600545249503F009C
:10264C00545249503D302C4E4F4E450D0A00464CCD
:04265C00542C0000FA
:00000001FF
