:100000000C942A000C94E0100C9409110C943211F9
:100010000C9447000C9447000C9447000C94470044
:100020000C9447000C9447000C9447000C94470034
:100030000C9447000C94B1110C9447000C944700A9
:100040000C9447000C9447000C9447000C94470014
:100050000C94470011241FBECFE5D8E0DEBFCDBF12
:1000600012E0A0E6B0E0EAE2FDE202C005900D92E7
:10007000A835B107D9F724E0A8E5B2E001C01D9288
:10008000A33BB207E1F70E949F010C9482160C94E7
:100090000000CF93DF9300D000D0CDB7DEB78091C2
:1000A000F5029091F6026AE070E00E943E126983C8
:1000B0007A838B839C830E94CB0460E080E00E9463
:1000C000BE0480E890E00E94AB048091F10290E0D1
:1000D0000E94D50483E890E00E94AB048091F20274
:1000E00090E00E94D50488E890E00E94AB0460E0B4
:1000F00081E00E94BE048AE890E00E94AB048981FE
:100100009A810E94D5048DE890E00E94AB048B8117
:100110009C810E94D5048FE890E00E94AB048091FE
:10012000FC0280FF0AC084E990E00F900F900F90CE
:100130000F90DF91CF910C94AB048AE392E0F5CF5E
:1001400080E00E94B20580E00C94A0060F931F93FC
:10015000CF93DF93CDB7DEB729970FB6F894DEBF04
:100160000FBECDBF8E010B5F1F4FB80180E00E9414
:10017000250FB801892B31F48D819E818093EB028C
:100180009093EC0281E00E94250F892B31F48D8140
:100190009E818093ED029093EE028E01075F1F4FC8
:1001A000B80180E00E942605B801892B19F48985E1
:1001B0008093F10281E00E942605892B19F489853C
:1001C0008093F20283EF92E00E94CD03892B21F00D
:1001D0001092F3021092F4020E94530B8093F502E6
:1001E0009093F6020E94680B28EE33E040E050E066
:1001F0000E9452122093F7023093F8024093F902C2
:100200005093FA020E9418049091FC0280FB92F92C
:100210009093FC020E941B049091FC0280FB93F9D6
:100220009093FC02CE0108960E94E905892B09F003
:100230004DC0888581709091FC0280FB90F990936D
:10024000FC02CE0107960E94B106892B09F040C03E
:100250008F8181709091FC0280FB91F99093FC0258
:100260008E010F5F1F4FC8010E94F505892B91F584
:1002700089819A818093FF029093000381E093E04B
:100280000E940A06892B41F010920103109202038A
:100290001092030310920403C8010E941F06892BC9
:1002A000E1F489819A8180930503909306030E946B
:1002B000000E8093FD0229960FB6F894DEBF0FBEA4
:1002C000CDBFDF91CF911F910F91089580E0B3CF03
:1002D00080E0C0CF80E090E0CDCF80E090E0E3CF41
:1002E0000E9434060E942A0B809107039091080314
:1002F000A0910903B0910A030196A11DB11D80933D
:10030000070390930803A0930903B0930A030C9486
:10031000A60083E00E94AE020E94F0030E945A03EE
:100320000E94A6008BEE92E00E94AD098BEE92E057
:100330000E94070E0E94000E8093FD020895109205
:10034000EB021092EC021092ED021092EE0210926B
:10035000EF021092F0021092F1021092F20210924B
:10036000F3021092F4021092F5021092F60210922B
:10037000F7021092F8021092F9021092FA0210920B
:10038000FB028091FC02807F8093FC021092FD02B0
:100390001092FE021092FF021092000310920103CD
:1003A00010920203109203031092040310920503AB
:1003B000109206031092070310920803109209038B
:1003C00010920A030E947A1180E00E94220581E0C7
:1003D0000E945B110E9461060E9489050E948F069F
:1003E0000E94DA030E94390383E00E9466020E94A1
:1003F000100B60EA76E881E090E00E940F100E9406
:1004000057040E94A8090E949E0B0E94E90D88E5EE
:1004100092E00E942F0A0E946A0760EA70E080E082
:100420000E94C31062E080E00E94661080E00E949B
:10043000901080E00E94A5100E9460100E94360D6E
:100440004AE050E060E070E089E891E00E944E0DE3
:1004500044EF51E060E070E089E490E00E944E0DCE
:1004600048EE53E060E070E080E791E00E944E0DBE
:100470000E94A6000E94000E8093FD028AE090E098
:100480000E9485110E949C0D0E94C90D0E944F0977
:100490000E94000E9C019091FC02892F817091FDB9
:1004A000826092FD846093FD88602530310521F4DF
:1004B00080610E946E06E2CF2630310511F4806221
:1004C000F8CF27303105A9F78064F3CFCF93DF93BE
:1004D00000D00F92CDB7DEB7898340E064E00E9480
:1004E0003D0F8A839B8340E065E089810E943D0F38
:1004F0002A813B81282B392B2A833B8340E063E010
:1005000089810E943D0F2A813B81282B392B2A8328
:100510003B8341E064E089810E94AF0F2A813B81E7
:10052000282B392B2A833B8341E065E089810E9497
:10053000AF0F2A813B81282B392B2A833B8341E053
:1005400063E089810E94AF0F2A813B81822B932B2C
:100550000F900F900F90DF91CF910895FF920F931E
:100560001F93CF93DF9300D0CDB7DEB78A8300E629
:1005700010E0F12CAE014F5F5F4FF80160818A817E
:100580000E94ED0F91E08981811190E0F801818155
:10059000891336C084818530B0F58F5F84838530C0
:1005A00091F1F80182819381891709F444C0813067
:1005B00069F521E0208711861582168217828383D0
:1005C000F801858196818436910518F4019685831A
:1005D0009683F2E0FF1221C08091790090917A0019
:1005E00084369105D0F080917B00811116C084E0A3
:1005F00080937C0010927D0081E080937B000DC091
:1006000091831482CECFF8019283CBCF978123E0E0
:10061000911122E0208711868383F394065F1F4F98
:1006200083E0F812A7CF0F900F90DF91CF911F9129
:100630000F91FF900895813081F7C2CF83309105EB
:10064000A8F46115710591F02AE0289FF001299F17
:10065000F00D1124E05AFF4F80859185DB018D93C9
:100660009D931086118680E090E0089581E090E0EF
:100670000895109218031092190310920F0310920C
:100680000B0310920C0310920D0310920E031092A4
:100690001003109211031092120310921303109280
:1006A000140310921503109216031092170380E0A2
:1006B00090E008958F929F92AF92BF92DF92EF9257
:1006C000FF920F931F93CF93DF9300D0CDB7DEB788
:1006D00019821A82BE016F5F7F4F82E00E94250F50
:1006E0008C01892B09F04AC029813A81A0E1B7E247
:1006F0000E942F122FEF33E040E050E00E94521290
:10070000D0900F036D2D70E0C901A0E0B0E07B0137
:10071000EE0CFF1CF701E05FFC4F60817181861BCE
:10072000970BA109B10980900B0390900C03A09046
:100730000D03B0900E03880D991DAA1DBB1D61E02D
:100740006D0D643008F060E0F701E05FFC4F20833E
:10075000318380930B0390930C03A0930D03B0930C
:100760000E0360930F0322E0B695A79597958795A2
:100770002A95D1F78093180390931903C8010F901D
:100780000F90DF91CF911F910F91FF90EF90DF902D
:10079000BF90AF909F908F900895009741F024EC08
:1007A00039E0FC012083318380E090E0089581E00E
:1007B00090E0089542E062E083E00E943D0F892BC3
:1007C00019F081E090E0089542E066E083E00E9445
:1007D0003D0F0097B1F710921B0310921A03089572
:1007E000CF93DF9300D0CDB7DEB71A821982AE0166
:1007F0004E5F5F4F62E083E00E94ED0FAE014F5FFE
:100800005F4F66E083E00E94ED0F81E09A819111D5
:1008100080E080931B0381E09981911180E08093B7
:100820001A0380E090E00F900F90DF91CF91089530
:1008300080911B03089580911A030895CF93DF934D
:10084000D82FC62F0E943010892B39F48EE30E94D6
:100850004110892B41F00E943E10C1E0D0E0CE0152
:10086000DF91CF9108958D2F0E945110892B99F718
:100870008C2F0E945110EC01892B69F70E943E10C9
:10088000EECF682F80E00E941E04EFE9FFE0319771
:10089000F1F700C000000895682F80E40E941E0454
:1008A000EFECF7E03197F1F700C000000895CF9327
:1008B000DF932FE788E391E0215080409040E1F7FB
:1008C00000C0000088E30E944104892B31F0C1E0A0
:1008D000D0E0CE01DF91CF9108958FE097E20197AC
:1008E000F1F700C0000089E30E944104892B79F7E9
:1008F0008FEC97E00197F1F700C0000084E10E94BF
:100900004104EC01892B19F780E70E94410486E538
:100910000E9441048CE60E9441049FEF21EE84E096
:10092000915020408040E1F700C0000088E30E9421
:1009300041048CE00E94410481E00E9441048FE068
:1009400097E20197F1F700C0000086E00E944104A1
:10095000C0CF0C944C04CF93DF93EC01892B31F47E
:1009600081E090E008C021960E94A904888181114D
:10097000FACF80E090E0DF91CF910895823040F48B
:10098000603130F48111605C862F80680C944104E2
:1009900081E090E0089581E00E944104EFE0F7E2F9
:1009A0003197F1F700C000000895EF92FF920F9386
:1009B0001F93CF93DF9300D000D000D0CDB7DEB728
:1009C0009C01892B79F480E30F900F900F900F908A
:1009D0000F900F90DF91CF911F910F91FF90EF90AB
:1009E0000C944C0440E0EAE0F0E07E018FEFE81A5E
:1009F000F80AC901BF010E943E12D701A40FB11D20
:100A0000805D8C93C9019B014F5F0A9790F7870126
:100A1000040F111DE016F10679F480E090E00F90CC
:100A20000F900F900F900F900F90DF91CF911F912B
:100A30000F91FF90EF900895F80182918F010E942D
:100A4000A904E8CF66E081E00C94100FEF92FF92CA
:100A50000F931F93CF93DF9300D000D000D0CDB77A
:100A6000DEB7182F7B01672B81F401E010E0C8018D
:100A70000F900F900F900F900F900F90DF91CF91EC
:100A80001F910F91FF90EF900895BE016F5F7F4F10
:100A90000E94250F892B49F7BE016D5F7F4F812F83
:100AA0000E94250F892B09F7BE016B5F7F4F812FB5
:100AB0000E94250F8C01892BC1F649815A818B81B7
:100AC0009C818417950728F0342F252FAC01832FA4
:100AD000922F2D813E814217530708F49A0128175F
:100AE000390708F49C01A4E6B0E00E942F126B398C
:100AF00023E9720721E08207910548F42FEF33E0E4
:100B000040E050E00E945212F7012083B0CF24E66B
:100B1000FBCF41E060E081E00E943D0F009709F5C6
:100B200040E060E081E00E94AF0F0097D1F41092A6
:100B3000280310922403109225031092260310928A
:100B40002703109220031092210310922203109287
:100B5000230310921C0310921D0310921E03109287
:100B60001F030895CF93C82F81E090E0C23018F59D
:100B70004C2F60E081E00E94AF0F0097E1F42091DC
:100B800028032130D0F4C130A1F440911C035091CE
:100B90001D0360911E0370911F034F5F5F4F6F4FE6
:100BA0007F4F40931C0350931D0360931E0370936B
:100BB0001F03C0932803CF910895D9F7C111F9CF2E
:100BC00010922403109225031092260310922703FB
:100BD000F0CF009739F020912803FC01208380E0BA
:100BE00090E0089581E090E00895009781F04091B1
:100BF0002403509125036091260370912703FC0183
:100C0000408351836283738380E090E0089581E0A4
:100C100090E00895009781F04091200350912103C6
:100C20006091220370912303FC014083518362830E
:100C3000738380E090E0089581E090E0089500974C
:100C400081F040911C0350911D0360911E0370912F
:100C50001F03FC01408351836283738380E090E033
:100C6000089581E090E0089580912803813031F566
:100C70008091240390912503A0912603B09127032E
:100C80000196A11DB11D8093240390932503A09389
:100C90002603B09327038091200390912103A09114
:100CA0002203B09123030196A11DB11D809320035F
:100CB00090932103A0932203B093230380E090E05C
:100CC000089541E064E081E00E943D0F009729F41F
:100CD00040E064E081E00C94AF0F08950F931F9300
:100CE000CF93DF930F92CDB7DEB71982BE016F5F4E
:100CF0007F4F0E946B118C01892B51F441E064E01D
:100D000081E00E94AF0F40E064E081E00E94AF0FFD
:100D1000C8010F90DF91CF911F910F91089541E08D
:100D200062E081E00E943D0F009749F440E062E0FC
:100D300081E00E94AF0F009711F4109229030895EB
:100D4000CF93C82F81E090E0C23048F44C2F62E08E
:100D500081E00E94AF0F009711F4C0932903CF9157
:100D60000895009739F020912903FC01208380E049
:100D700090E0089581E090E00895009741F0FC0133
:100D8000E05CFF4F108231961082319610820895F8
:100D9000CF93DF93009749F02FB7F894FC01EE5BF7
:100DA000FF4F3081303430F02FBF81E090E0DF9191
:100DB000CF910895DC01A05CBF4F3C91830F911D42
:100DC000EC0168838C918F5F803408F080E08C9315
:100DD00080818F5F80832FBF80E090E0E8CFCF934A
:100DE000DF93009761F06115710549F02FB7F89412
:100DF000FC01EE5BFF4F3081311106C02FBF81E057
:100E000090E0DF91CF910895DC01AF5BBF4F3C9143
:100E1000830F911DEC018881EB0188838C918F5F9A
:100E2000803408F080E08C938081815080832FBFD4
:100E300080E090E0E6CF009761F02FB7F894FC01D6
:100E4000EE5BFF4F90812FBF81E0911519F080E09C
:100E5000089581E00895AC0120E0892B51F480E0F1
:100E600008958FE9890F8A3108F490523913F7CF2A
:100E70002F5FFB01E20FF11D3081FA01E20FF11D3E
:100E800090813111EECF9D3061F038F4911549F029
:100E9000995081E0923018F7089581E09032F9F688
:100EA000089581E00895DC01ED91FD91129730974E
:100EB00049F09081903239F087EF890F823018F035
:100EC0009D3009F008953196ED93FD931297ECCF84
:100ED0000C94FD11CF93DF9387EE93E00E94BD0643
:100EE00084E593E00E942F0A10922A0360E875E2DD
:100EF00080E090E00E94DC11EC01892B59F487EE30
:100F000093E00E94281281E00E941C12CE01DF9122
:100F1000CF910895C1E0D0E0F9CF86ED90E00E9436
:100F200003128DED90E00E94031286EE90E00E9485
:100F300003128FEE90E00E94031287EF90E00E9470
:100F4000031281E091E00E9403128CE091E00E9484
:100F5000031283E191E00E94031289E191E00E9473
:100F6000031283E291E00C94031284E593E00E9463
:100F7000490A811107C08FE291E00E94031280E0CC
:100F800090E0089568E677E084E593E00E94570AD0
:100F9000F6CF0F931F93CF93DF93CDB7DEB7A49710
:100FA0000FB6F894DEBF0FBECDBF009789F48BE378
:100FB00091E00E94031281E090E0A4960FB6F894AD
:100FC000DEBF0FBECDBFDF91CF911F910F9108956E
:100FD0008BA39CA3CE0183960E9453070BA11CA157
:100FE000F80198012F5D3F4F8081811531F08D30E0
:100FF00021F0C0F489508230B8F460E571E0C80196
:101000000E942B07811107C067E571E0C8010E94AB
:101010002B07811581F088E990E00E94031280E09F
:1010200090E0CBCF803249F33196E217F307E1F637
:1010300085E491E0BECF6FE571E0C8010E942B0707
:10104000811519F00E948D07EACF64E671E0C801AE
:101050000E942B07811529F00E94050E88E691E079
:10106000DCCF6DE671E0C8010E942B07811561F0AD
:10107000A4960FB6F894DEBF0FBECDBFDF91CF911F
:101080001F910F910C94B50765E771E0C8010E94AC
:101090002B07811529F084E593E00E94520ADECFE8
:1010A0006FE771E0C8010E942B078115C9F080919C
:1010B000F1021F928F9386E891E09F938F938E01A8
:1010C0000F5F1F4F1F930F930E948513C8010E944B
:1010D00003120F900F900F900F900F900F909FCFD3
:1010E00061E971E0C8010E942B07811531F160911F
:1010F000F5027091F60280E090E00E94F71220E085
:1011000030E040E251E40E9485129F938F937F93D9
:101110006F9387E991E09F938F938E010F5F1F4F2D
:101120001F930F930E948513C8010E9403120FB6EC
:10113000F894DEBF0FBECDBF72CF63EA71E0C80185
:101140000E942B07811579F08091FA028F9380918C
:10115000F9028F938091F8028F938091F7028F9319
:101160008BEA91E0D8CF68EB71E0C8010E942B07B1
:10117000811549F08091F4028F938091F3028F934F
:1011800081EC91E09ACF6EEC71E0C8010E942B07D0
:10119000811519F083ED91E040CF6DEE71E0C8014B
:1011A0000E942B0781115ACF67EF71E0C8010E949E
:1011B0002B07811153CF63E072E0C8010E942B0717
:1011C00081114CCF6BE072E0C8010E942B078111A6
:1011D00045CF64E172E0C8010E942B0781113ECF28
:1011E0006DE172E0C8010E942B07811137CF67E2E1
:1011F00072E0C8010E942B07811130CF62E372E0D8
:10120000C8010E942B07811129CF6EE372E0C8014B
:101210000E942B07811519F084E492E0FECEF801BC
:1012200080818F7D833509F0C2CE81818F7D8534A9
:1012300009F0BDCE82818F7D843509F0B8CE8381DF
:10124000803219F0893009F0B2CEF80184818F7DA7
:10125000833509F0ACCE85818F7D843509F0A7CE2A
:10126000095F1F4F09A31AA3CE0181960E9453075D
:1012700089A19AA189839A83892B09F498CECE01FA
:1012800001960E945307E981FA81808180538A3058
:1012900008F08DCE819180538A30E0F3DFCE0F933A
:1012A0001F93CF93DF9300D00F92CDB7DEB78E019F
:1012B0000F5F1F4F87EE93E00E941B07811541F0DF
:1012C0000F900F900F90DF91CF911F910F91089584
:1012D000B80187EE93E00E94EF060A831B83892BF7
:1012E00079F78981E0912A038D3011F08A3069F411
:1012F000E11501F3F0E0E55DFC4F10828BE293E035
:101300000E94C90710922A03D5CFE83248F4AE2FC5
:10131000B0E0A55DBC4F8C93EF5FE0932A03CACF8A
:1013200085E491E00E94031287EE93E00E941B0780
:101330008111E8CF6A817B8187EE93E00E94EF06FE
:10134000892B01F789818D30E9F28A3069F7DACF8C
:1013500010922A0480E090E00895009779F0FC0153
:1013600086818E3130F481E080932A0480E090E021
:1013700008958B35D8F310922A04F8CF81E090E0DD
:10138000089580912A0408958F929F92AF92BF9200
:10139000CF92DF92EF92FF921F93CF93DF93CDB75F
:1013A000DEB72A970FB6F894DEBF0FBECDBF6B0134
:1013B0007C014A0141155105C9F1C114D104E10470
:1013C000F104A1F480E3FA012A960FB6F894DEBF87
:1013D0000FBECDBFDF91CF911F91FF90EF90DF90B7
:1013E000CF90BF90AF909F908F90099410E05E01D6
:1013F000FFEFAF1ABF0AB601C7012AE030E040E0B4
:1014000050E00E945212F501E10FF11D6083C60108
:10141000D70169017A011F5F0A97A105B10558F745
:101420007501E10EF11CAE14BF0491F42A960FB6BB
:10143000F894DEBF0FBECDBFDF91CF911F91FF901B
:10144000EF90DF90CF90BF90AF909F908F900895D6
:10145000F70182917F01805DF4010995E4CF009747
:10146000B9F0FC019C0120573F4F1082118212827B
:101470001382148215821682178210863996E2171B
:10148000F30799F71082FC01EF56FF4F119210827B
:101490000895009729F0FC01EE56FF4F80810895D2
:1014A00080E00895009711F00C942F0A08956F9230
:1014B0007F928F929F92AF92BF92CF92DF92EF92E4
:1014C000FF920F931F93CF93DF93CDB7DEB728978B
:1014D0000FB6F894DEBF0FBECDBF8C016F83788747
:1014E0000097A1F0672B91F05C0182E9A80EB11C76
:1014F000D5018C91811551F0912CF801E057FF4FE7
:10150000ED83FE83D5018C919816A8F028960FB62E
:10151000F894DEBF0FBECDBFDF91CF911F910F9129
:10152000FF90EF90DF90CF90BF90AF909F908F9003
:101530007F906F900895AD81BE818C91815F8919F4
:101540008F70F801B9E08B9FE00DF11D11248080B0
:1015500081819281A381B48189839A83AB83BC8387
:1015600075806680E780F08482E5C82E82E0D82E00
:10157000D6018D916D01EF81F8850995F6E5CF16BD
:10158000F2E0DF06A9F7692D70E080E090E04F817E
:1015900058850E94C4098CE2EF81F8850995682D71
:1015A00070E080E090E04F8158850E94C4098CE291
:1015B000EF81F88509954F81588569817A818B8102
:1015C0009C810E94C4098CE2EF81F8850995672D02
:1015D00070E080E090E04F8158850E94C4098CE261
:1015E000EF81F8850995662D70E080E090E04F81ED
:1015F00058850E94C4098CE2EF81F8850995B701EE
:1016000080E090E04F8158850E94C4098DE0EF8111
:10161000F88509958AE0EF81F8850995939472CF52
:1016200040E061E081E00E943D0F009711F40E94CC
:101630009D11109231041092320410922F041092D6
:10164000300410922B0410922C0410922D0410924E
:101650002E0408950E94AE1120913104309132047D
:10166000AC01421B530B9A018093310490933204D6
:1016700040932F043093300480912B0490912C04DC
:10168000A0912D04B0912E04840F951FA11DB11DB2
:1016900080932B0490932C04A0932D04B0932E04DC
:1016A00080E090E0089560912F047091300480E014
:1016B00090E022E0660F771F881F991F2A95D1F7C7
:1016C00023E030E040E050E00E945212C90108954A
:1016D00020912B0430912C0440912D0450912E0424
:1016E000A8EEB3E00E947A1222EC31E040E050E034
:1016F0000E945212B901CA01089510924204109238
:101700004304109240041092410410923E0410923F
:101710003F0410923C0410923D0410923A0410923F
:101720003B0410923804109239041092360410923F
:101730003704109235041092340408951092440432
:1017400010924504109233040E947D0B80E090E0DB
:1017500008958091440490914504892B19F081E00B
:101760008093330480E090E00895CF93DF93DC0111
:10177000C0914404D0914504892BC9F0209709F405
:1017800046C080913304811591F0FE013197E93014
:10179000F10530F5EC57F94E0C94741216968C91B5
:1017A0001697803620F451968C9182FF19C0CE0195
:1017B000DF91CF91089518968D919D911A97883E4B
:1017C0009340A8F751968C9180FDF1CF09C01796F0
:1017D0008C911797893158F351968C9183FDE7CFFF
:1017E0001092440410924504109233040E947D0B21
:1017F000C0E0D0E0DCCF17968C918931C0F2F0CFF9
:101800008D919D9101978E3F934088F6E9CF519637
:101810009C91519792FD15C016968C911697833620
:1018200098F02091420430914304283C310548F45B
:101830002F5F3F4F2093420430934304283C3105EF
:1018400039F4C1E0D0E016C0109242041092430473
:1018500018964D915D911A9741346FE1560708F43F
:101860003FC020914004309141042233310598F06B
:10187000C2E0D0E01092380410923904109236047D
:1018800010923704C093440410924504109233041C
:101890000E947D0B8CCF2F5F3F4F209340043093ED
:1018A00041042233310521F393FDCCC017962C91CE
:1018B00017972A3008F4C6C090FF33C01A962D91AE
:1018C0003D911C972A30310538F520913C04309128
:1018D0003D04283E63E0360740F0C4E0D0E0CACFC4
:1018E0001092400410924104DFCF2F5F3F4F2093AE
:1018F0003C0430933D04283E334079F3443F51404B
:10190000A0F420913E0430913F042C3241E0340792
:1019100088F0C5E0D0E0AECF10923C0410923D04B8
:10192000EDCF10923C0410923D0410923E041092B0
:101930003F0409C02F5F3F4F20933E0430933F0484
:101940002C32314031F354962D913D9156972538E4
:10195000334008F07AC02D913D9112972115310541
:1019600019F02F3F334009F520913A0430913B04A0
:10197000243F41E0340718F0C7E0D0E07BCF2F5F71
:101980003F4F20933A0430933B04243F3140A1F36E
:1019900052962C913AEF320F323010F0233051F43E
:1019A000109238041092390419C010923A0410921F
:1019B0003B04EECF90FD28C02091380430913904CB
:1019C0002115310581F4809335042F5F3F4F20931B
:1019D0003804309339042037374149F010923604E7
:1019E00010923704E4CE203797E1390770F39091D5
:1019F00035048917A8F6292F281B330B263031050B
:101A000078F2C8E0D0E036CF109238041092390452
:101A1000209136043091370421153105C9F0203E5C
:101A20004EE23407B8F0909134049817D0F4203E79
:101A30003E4208F4BCCE891B813009F0B8CEC9E023
:101A4000D0E020CFC3E0D0E015CFC6E0D0E012CF89
:101A5000809334042F5F3F4F209336043093370434
:101A6000E2CF203E3E4208F4A2CEE9CFE7E4F4E024
:101A700010821182128213821482158216821782BA
:101A80001086118612863C9684E0E73AF80781F7C3
:101A900081E08093460480E090E00895CF92DF9249
:101AA000EF92FF92CF93DF93EC016A017B0180916B
:101AB00046048115F1F12097E1F18AE0C816D104BE
:101AC000E104F104B0F1BA01C7012AE030E040E0DE
:101AD00050E00E945212672B682B692B51F5E7E406
:101AE000F4E080E090E0228521111EC02CE0289FC8
:101AF000F001299FF00D1124E95BFB4FC083D183D6
:101B0000C282D382E482F582C682D782E086F186E1
:101B1000138681E0828780E090E0DF91CF91FF9093
:101B2000EF90DF90CF90089501963C968830910514
:101B3000D1F681E090E0F1CF80914604811541F12A
:101B4000E7E4F4E021E082858130E9F48681978141
:101B5000A085B1858A309105A105B10538F00A97B5
:101B6000A109B10986839783A087B187892B8A2B26
:101B70008B2B49F482819381A481B58186839783DD
:101B8000A087B18723873C9684E0E73AF807D9F627
:101B90000895CF93DF9380914604811589F0C7E4BF
:101BA000D4E08A85813039F48B85813021F41B861D
:101BB000E881F98109952C9684E0C73AD80789F71E
:101BC000DF91CF91089580E00E94B20580E00C94EF
:101BD000A0061092A9041092AA041092A7041092D1
:101BE000A80480E797E180937E0090937F0080E0D7
:101BF0000E94B205009719F480E00C94A0060895A5
:101C00008091A9049091AA0408950C94A90BEF92D5
:101C1000FF920F931F93CF93DF9300D000D000D09B
:101C2000CDB7DEB78C011D821E821B821C821982F9
:101C30001A8281E090E00115110509F499C0F801BC
:101C4000818980FD3BC080917E0090917F0080372C
:101C5000F7E19F0728F4019680937E0090937F0020
:101C6000BE016B5F7F4F80E090E00E941E03BE01CB
:101C70006D5F7F4F81E090E00E941E03BE016F5FA9
:101C80007F4F82E090E00E941E03C8010E94B50BC6
:101C90007C01892B39F00E94E30D85E08093A90433
:101CA0001092AA0489819A810397029710F40E94E6
:101CB000050EEF2841F00E94E30D58C010927E00FF
:101CC00010927F00CDCFE091A904F091AA048D81FC
:101CD0009E810397B9F5E630F10599F40E94E30D72
:101CE00081E08093A9041092AA040E94E30D10924F
:101CF000A7041092A804F8018781893198F584E03F
:101D00004CC0CF0101970297E8F40E94E30D86E0F2
:101D10008093A9041092AA048B819C81039769F493
:101D200080917E0090917F008037974130F081E074
:101D30000E94B20581E00E94A006F801818980FF1F
:101D400015C046C0E830F10508F066C0E357F94E0B
:101D50000C9474120E94E30D1092A7041092A80430
:101D600081E01BC00E94C10981110FC080E090E09A
:101D70000F900F900F900F900F900F90DF91CF91D9
:101D80001F910F91FF90EF90089580917E009091A8
:101D90007F008037974150F382E08093A90410922E
:101DA000AA04E4CFF8018781893118F40E94E30D79
:101DB000A6CF0E94C109811108C00E94E30D1092B4
:101DC000A7041092A80483E0E8CF81E00E94B20546
:101DD00081E00E94A006CACF0E94E30D8091A70473
:101DE0009091A804843FF1E09F0708F0B5CF0196D9
:101DF0008093A7049093A804843F914009F0B6CF44
:101E0000ABCF0E94E30DF8018781893108F4AECF92
:101E1000A7CF0E94E30DA4CF0E94E30D85E0BDCFC4
:101E2000823010F0833071F49FEF960F973050F4AA
:101E30008295880F880F807C87B9606866B980E0DA
:101E400090E0089581E090E00895883098F461155D
:101E5000710581F097B1907E982B97B9369A349B93
:101E6000FECF349A84B125B1FB018083218380E0C9
:101E700090E0089581E090E00895843008F06CC00F
:101E8000683008F069C0433008F066C021E030E0F7
:101E9000F90101C0EE0F6A95EAF76E2F413028F57F
:101EA00060958230A1F08330C9F0813039F08AB377
:101EB00086238ABB8BB386238BBB06C087B386235E
:101EC00087BB88B3862388BB80E090E0089584B305
:101ED000862384BB85B3862385BBF6CF81B3862357
:101EE00081BB82B3862382BBEFCFB1F4823061F035
:101EF000833071F0813021F08AB38E2B8ABBE4CF1E
:101F000087B38E2B87BBE0CF84B38E2B84BBDCCF13
:101F100081B38E2B81BBD8CF9E2F9095823081F0DC
:101F20008330A1F0813031F08AB389238ABB8BB32F
:101F30008E2BC2CF87B3892387BB88B38E2BC3CFA9
:101F400084B3892384BB85B38E2BC6CF81B3892309
:101F500081BB82B38E2BC7CF81E090E0089584309F
:101F6000C8F56830B8F54230A8F521E030E0F90155
:101F700001C0EE0F6A95EAF76E2F4130C1F482304E
:101F800061F0833081F0813021F08BB38E2B8BBBDD
:101F900007C088B38E2B88BB03C085B38E2B85BB4F
:101FA00080E090E0089582B38E2B82BBF9CF6095DC
:101FB000823051F0833059F0813019F08BB3862391
:101FC000E6CF88B38623E7CF85B38623E8CF82B3F5
:101FD0008623EBCF81E090E00895FA018430E0F4AD
:101FE0006830D0F43097C1F0823091F0833091F0B6
:101FF000813061F089B390E002C0959587956A952C
:10200000E2F78170808380E090E0089586B3F3CF9B
:1020100083B3F1CF80B3EFCF81E090E008959B01CF
:10202000AC012115310541055105B9F060E072E1BF
:102030008AE790E00E94521220513109410951096A
:10204000569547953795279520B981B18C7F81B9F1
:1020500084E086BF80E090E0089581E090E00895FC
:1020600084EA86BF06B607FEFDCF91B1987F21E0D6
:1020700030E0983009F420E0C901089584E986BF72
:102080000895880F83B984E886BF06B607FEFDCFA2
:1020900091B1987F21E030E0983109F420E0C90146
:1020A000089583B984E886BF06B607FEFDCF91B1D7
:1020B000987F21E030E0983209F420E0C9010895CA
:1020C0008FB780688FBF80E090E00895813079F00D
:1020D0008230C1F0811121C06430F8F485B78C7F63
:1020E00085BF85B7862B85BF80E090E0089564307A
:1020F000A0F485B7837F85BF85B7660F660F682B11
:1021000065BFF2CF623021F484B78F7B84BFECCF00
:10211000633019F484B78064F9CF81E090E00895CA
:10212000813051F0823059F081110CC08AB780643F
:102130008ABF80E090E008958AB78068F9CF8AB7B7
:102140008062F6CF81E090E00895813069F08230BE
:1021500089F0811115C08AB780648ABF8BB780640B
:102160008BBF80E090E008958AB780688ABF8BB704
:102170008068F6CF8AB780628ABF8BB78062F0CF63
:1021800081E090E0089561157105B9F0813059F052
:10219000823071F0811111C06093AF047093B0046C
:1021A00080E090E008956093AD047093AE04F8CFA2
:1021B0006093AB047093AC04F3CF81E090E008959A
:1021C0001F920F920FB60F9211242F933F934F93AC
:1021D0005F936F937F938F939F93AF93BF93EF938F
:1021E000FF93E091AF04F091B004309709F00995A6
:1021F000FF91EF91BF91AF919F918F917F916F91DF
:102200005F914F913F912F910F900FBE0F901F90B4
:1022100018951F920F920FB60F9211242F933F9390
:102220004F935F936F937F938F939F93AF93BF93DE
:10223000EF93FF93E091AD04F091AE04309709F075
:102240000995FF91EF91BF91AF919F918F917F91F0
:102250006F915F914F913F912F910F900FBE0F9013
:102260001F9018951F920F920FB60F9211242F9363
:102270003F934F935F936F937F938F939F93AF930E
:10228000BF93EF93FF93E091AB04F091AC043097D0
:1022900009F00995FF91EF91BF91AF919F918F91B7
:1022A0007F916F915F914F913F912F910F900FBE52
:1022B0000F901F901895843058F4BC9ABD9ABE9820
:1022C000BF9AC49A80658DB9709880E090E00895B7
:1022D00081E090E008956115710549F08FB9779B11
:1022E000FECF8FB1FB01808380E090E0089581E014
:1022F00090E0089588E083BF8CE78CBF12BE83B75F
:10230000887F83BF80E090E00895AC0182E088BFC1
:1023100093B7936093BF20E030E02417350731F482
:1023200083B7887F83BF80E090E0089508B601FE00
:10233000FDCF88BF2F5F3F4FF0CF8EB5887F8EBD1A
:102340008FB58C7F8FBD8EB5877E8EBD1DBC1CBCAE
:102350008EB587608EBD80E090E008958CB59DB508
:1023600008951F920F920FB60F9211242F933F934F
:102370004F935F936F937F938F939F93AF93BF938D
:10238000EF93FF936CB18091B1049091B2040097E8
:1023900011F00E94C806FF91EF91BF91AF919F91FC
:1023A0008F917F916F915F914F913F912F910F90FE
:1023B0000FBE0F901F901895009770406040D1F0AD
:1023C0009B01AC0184E0220F331F441F551F8A95E7
:1023D000D1F760E072E18AE790E00E94521221504A
:1023E000310930BD29B986E880BD88E18AB980E02D
:1023F00090E0089581E090E008955D9BFECF8CB958
:1024000080E090E008950F931F93CF938C01C0E07C
:10241000892B31F481E090E00BC00E94FD11CF5F69
:10242000F801EC0FF11D80818111F7CF80E090E081
:10243000CF911F910F910895813021F4579A80E038
:1024400090E0089510F45798FACF81E090E0089555
:102450008093B1049093B20480E090E00895A29F2D
:10246000B001B39FC001A39F700D811D1124911D68
:10247000B29F700D811D1124911D0895AA1BBB1BD5
:1024800051E107C0AA1FBB1FA617B70710F0A61B74
:10249000B70B881F991F5A95A9F780959095BC0195
:1024A000CD010895A1E21A2EAA1BBB1BFD010DC090
:1024B000AA1FBB1FEE1FFF1FA217B307E407F507F4
:1024C00020F0A21BB30BE40BF50B661F771F881FD0
:1024D000991F1A9469F760957095809590959B0166
:1024E000AC01BD01CF010895EE0FFF1F0590F491DF
:1024F000E02D09940E942F12A59F900DB49F900D7E
:10250000A49F800D911D112408950E9499120C948E
:102510004B130E94441358F00E943D1340F029F4DD
:102520005F3F29F00C94341351110C947F130C94D9
:102530003A130E945C1368F39923B1F3552391F386
:10254000951B550BBB27AA2762177307840738F022
:102550009F5F5F4F220F331F441FAA1FA9F335D07F
:102560000E2E3AF0E0E832D091505040E695001C33
:10257000CAF72BD0FE2F29D0660F771F881FBB1FED
:10258000261737074807AB07B0E809F0BB0B802DCB
:10259000BF01FF2793585F4F3AF09E3F510578F0F7
:1025A0000C9434130C947F135F3FE4F3983ED4F300
:1025B000869577956795B795F7959F5FC9F7880FCB
:1025C000911D9695879597F90895E1E0660F771F1D
:1025D000881FBB1F621773078407BA0720F0621BAE
:1025E000730B840BBA0BEE1F88F7E0950895E894FF
:1025F00009C097FB3EF490958095709561957F4F4B
:102600008F4F9F4F9923A9F0F92F96E9BB279395F8
:10261000F695879577956795B795F111F8CFFAF408
:10262000BB0F11F460FF1BC06F5F7F4F8F4F9F4F39
:1026300016C0882311F096E911C0772321F09EE897
:10264000872F762F05C0662371F096E8862F70E0FD
:1026500060E02AF09A95660F771F881FDAF7880FD7
:102660009695879597F9089597F99F6780E870E0A8
:1026700060E008959FEF80EC089500240A941616F8
:10268000170618060906089500240A941216130660
:10269000140605060895092E0394000C11F48823EE
:1026A00052F0BB0F40F4BF2B11F460FF04C06F5F0A
:1026B0007F4F8F4F9F4F089557FD9058440F551FE0
:1026C00059F05F3F71F04795880F97FB991F61F0B4
:1026D0009F3F79F087950895121613061406551F2B
:1026E000F2CF4695F1DF08C0161617061806991F97
:1026F000F1CF86957105610508940895E894BB278C
:1027000066277727CB0197F90895AEE0B0E0EBE8B4
:10271000F3E10C945B1686E08C832B893C8929833A
:102720003A838FEF9FE78D839E83AE01495E5F4FB3
:102730006D897E89CE0101960E94A913EF81F885EB
:102740002B893C89E20FF31F10822E96E2E00C9455
:102750007716ACE0B0E0EFEAF3E10C944E165C01C2
:102760006B017A01FC0116821782838181FFD3C13C
:102770002AE0522EF5012381F60123FD859123FFE6
:1027800081916F01811509F42CC1853239F423FD43
:10279000959123FF91916F01953229F4B50190E055
:1027A0000E94A415E7CF30E0712C00E010E0103259
:1027B00010F59B32C9F050F49032B9F09332C9F061
:1027C0009E3261F516FD0DC1106405C09D3279F091
:1027D000903399F41160F60123FD959123FF9191B7
:1027E0006F019111E4CF23C012601460F4CF186020
:1027F000F2CF1061F0CF17FD1AC080ED890F8A303B
:10280000F8F616FF05C0759C800D1124782EE3CFD5
:10281000059D800D1124082F1062DDCF9C3611F428
:102820001068D9CF9C3409F440C09836A1F2892FA2
:102830008F7D85548330D8F1933609F45FC0933788
:1028400009F46AC0933509F476C0943619F09936C4
:1028500009F0A2C0F70117FF98C0619171918191B1
:1028600091917F011F7697FF03C00E944316106865
:102870002AE030E04E014FEF841A940AA4010E942E
:10288000E515682E681816FFD2C0812F8E7F671459
:1028900008F0CCC014FF1DC112FD11C11E7E972C83
:1028A000812F867809F4CEC00FC131E094CF311565
:1028B00009F1F8E0EF0EF11C8FE3898391E0692EB6
:1028C000712C4E018FEF881A980A1F7713FD04C0F0
:1028D0006016710408F43FC06114710409F042C02D
:1028E000011509F447CFB50180E290E00E94A415DC
:1028F0000150F6CF44E0E40EF11CDECFF7018081F9
:102900008983F2E0EF0EF11C81E0682E712C4E01FC
:102910004FEF841A940AD9CFF701819091907F01EB
:10292000672D70E016FD02C06FEF7FEFC4010E94BB
:1029300099153C01CACFF701819091907F01672DD5
:1029400070E016FD02C06FEF7FEFC4010E948E158C
:102950003C011068BBCFB50180E290E00E94A41555
:102960000150B6CFF40117FD859117FF81914F01FA
:10297000B50190E00E94A41581E0011101C080E042
:10298000081BF1E06F1A7108A7CF61917191872F31
:10299000880F880B982F65CF9537C9F41F7E1C8749
:1029A0002AE030E0FC85F7FF3BC0F70161917191AF
:1029B000819191917F014E014FEF841A940AA401F5
:1029C0000E94E515682E68181C851F775CCF812F43
:1029D000897F8C87903799F058F49835B9F09F36F5
:1029E000E1F0F501868197812C96EFE00C946A1650
:1029F0009837B9F714FD06C020E130E0D3CF9C85AD
:102A000090619C87EC85E460EC87F6CF14FF02C0F0
:102A100016601C8720E132E0C5CF28E030E0C2CF4D
:102A2000F7016191719180E090E0C4CF182F962C4E
:102A300014FF36CFFE01E60DF11D8081803309F0D1
:102A400041C0197E13FD0EC010FF4FC0762C9016AA
:102A500018F4700E7918902E802F8919091508F432
:102A600080E0980E901608F042C0091914FF41C08A
:102A7000B50180E390E00E94A41512FF09C088E52B
:102A800090E011FD02C088E790E0B5010E94A41516
:102A90006714D0F14E018FEF881A980A6A94FE01EC
:102AA0003296E60DF11D3F01F30182913F01B50120
:102AB00090E00E94A41568147904B1F711CF972C07
:102AC000182FB8CF12FD02C09394BCCF9394939467
:102AD000B9CF972C182FE4CEB50180E290E00E9488
:102AE000A41583948016C0F3B7CF892CFBCF00E0E8
:102AF000BDCF812F867861F280E211FD8BE217FD58
:102B00008DE2B50190E0C2CFB50180E390E00E9474
:102B1000A4157A94BDCF8FEF9FEF66CFFC0105908F
:102B2000615070400110D8F7809590958E0F9F1FCF
:102B30000895FC016150704001900110D8F7809514
:102B400090958E0F9F1F0895A3E0B0E0EAEAF5E1AB
:102B50000C945A16182F99836A837B83DB01139692
:102B60008C9181FD09C01FEFBFEFB983812F99813F
:102B70002396E3E00C94761682FF1BC0EA81FB816A
:102B800026813781848195812817390754F4019073
:102B9000F081E02DCF010196AA81BB818D939D9399
:102BA0001083EA81FB8186819781019686839783D2
:102BB000DDCFAA81BB811896ED91FD911A97BD01D9
:102BC000812F0995892B69F3CECFFA01AA272830E6
:102BD00051F1203181F1E8946F936E7F6E5F7F4FEA
:102BE0008F4F9F4FAF4FB1E03ED0B4E03CD0670F66
:102BF000781F891F9A1FA11D680F791F8A1F911DB9
:102C0000A11D6A0F711D811D911DA11D20D009F408
:102C100068943F912AE0269F11243019305D31934A
:102C2000DEF6CF010895462F4770405D4193B3E033
:102C30000FD0C9F7F6CF462F4F70405D4A3318F0DA
:102C4000495D31FD4052419302D0A9F7EACFB4E08B
:102C5000A6959795879577956795BA95C9F7009743
:102C60006105710508959B01AC010A2E06945795E4
:102C7000479537952795BA95C9F7620F731F841F3B
:102C8000951FA01D089590958095709561957F4F33
:102C90008F4F9F4F08952F923F924F925F926F9266
:102CA0007F928F929F92AF92BF92CF92DF92EF92DC
:102CB000FF920F931F93CF93DF93CDB7DEB7CA1B5D
:102CC000DB0B0FB6F894DEBF0FBECDBF09942A8888
:102CD000398848885F846E847D848C849B84AA8430
:102CE000B984C884DF80EE80FD800C811B81AA81BD
:102CF000B981CE0FD11D0FB6F894DEBF0FBECDBF88
:102D0000ED010895F894FFCFCE0BDB0BE70BFB0B27
:102D1000E20BE20B000CE20BE20BAA0E750ED20ED8
:0A2D2000EC0E010F090F8C0E5B0E84
:102D2A000400000000000000000005000000000090
:102D3A0000000000030000000000000000007017FF
:102D4A004C3A002520523A002500463A002E004C03
:102D5A002F6D200052554E002457542C4C3D302CD8
:102D6A00523D302C493D302C513D302C563D302CB3
:102D7A00503D302C56323D302C53543D494E495427
:102D8A002C54523D302C52554E3D302C55503D302E
:102D9A002A33410D0A0048454C500D0A005354414C
:102DAA005455530D0A004C4556454C3F0D0A0046F2
:102DBA004C4F573F0D0A00564F4C554D453F0D0A93
:102DCA000043555252454E543F0D0A004346473F71
:102DDA000D0A0041434B0D0A004641554C54533FDE
:102DEA000D0A00434C524641554C54530D0A004EAD
:102DFA004F204641554C54530D0A00455252204328
:102E0A004D440D0A00455252204C4F4E470D0A00C0
:102E1A00535441545553005354415455533F004859
:102E2A00454C500041434B004F4B0D0A004641555B
:102E3A004C54533F00434C524641554C5453004C5A
:102E4A004556454C3F004C4556454C3D25750D0AA7
:102E5A0000464C4F573F00464C4F573D252E316692
:102E6A000D0A00564F4C554D453F00564F4C554D97
:102E7A00453D256C750D0A0043555252454E543F47
:102E8A000043555252454E543D25750D0A0043469E
:102E9A00473F004346473D302C302C302C302C30F5
:102EAA002C302C302C302C302C300D0A004D4F4455
:102EBA0045204155544F004D4F4445204D414E55F4
:102ECA00414C0050554D50204F4E0050554D50200A
:102EDA004F46460056414C5645204F4E0056414CEF
:102EEA005645204F46460053455256494345204FC2
:102EFA004E0053455256494345204F4646005452C8
:102F0A0049503F00545249503D302C4E4F4E450DCA
:082F1A000A00464C542C000093
:00000001FF
