:100000000C942A000C9478010C94A1010C94CA0160
:100010000C9447000C9447000C9447000C94470044
:100020000C9447000C9447000C9447000C94470034
:100030000C9447000C9447000C9447000C94470024
:100040000C9447000C9447000C9447000C94470014
:100050000C94470011241FBECFE5D8E0DEBFCDBF12
:1000600010E0A0E6B0E0E0E3F4E002C005900D92FD
:10007000A036B107D9F720E0A0E6B0E001C01D929C
:10008000A636B207E1F70E944D000C9416020C94BC
:10009000000066E080E00C94E70041E065E080E06D
:1000A0000E94750041E066E080E00E94750040E03B
:1000B00062E083E00E9475000E94F30161E080E04D
:1000C0000E94130169E470E080E00E945B0180E01F
:1000D0000E943D010E940D0165E080E00E94E70062
:1000E00088EE93E00E94FE01F7CF843008F06CC0E8
:1000F000683008F069C0433008F066C021E030E0A5
:10010000F90101C0EE0F6A95EAF76E2F413028F52C
:1001100060958230A1F08330C9F0813039F08AB324
:1001200086238ABB8BB386238BBB06C087B386230B
:1001300087BB88B3862388BB80E090E0089584B3B2
:10014000862384BB85B3862385BBF6CF81B3862304
:1001500081BB82B3862382BBEFCFB1F4823061F0E2
:10016000833071F0813021F08AB38E2B8ABBE4CFCB
:1001700087B38E2B87BBE0CF84B38E2B84BBDCCFC1
:1001800081B38E2B81BBD8CF9E2F9095823081F08A
:100190008330A1F0813031F08AB389238ABB8BB3DD
:1001A0008E2BC2CF87B3892387BB88B38E2BC3CF57
:1001B00084B3892384BB85B38E2BC6CF81B38923B7
:1001C00081BB82B38E2BC7CF81E090E0089584304D
:1001D00008F56830F8F421E030E0A90101C0440FCF
:1001E0006A95EAF7823071F0833081F0813031F026
:1001F0008BB384278BBB80E090E0089588B384277D
:1002000088BBF9CF85B3842785BBF5CF82B384271C
:1002100082BBF1CF81E090E008958FB780688FBFF7
:1002200080E090E00895813079F08230C1F0811152
:1002300021C06430F8F485B78C7F85BF85B7862BE5
:1002400085BF80E090E008956430A0F485B7837F97
:1002500085BF85B7660F660F682B65BFF2CF62302A
:1002600021F484B78F7B84BFECCF633019F484B75B
:100270008064F9CF81E090E00895813069F08230A8
:1002800089F0811115C08AB780648ABF8BB78064FA
:100290008BBF80E090E008958AB780688ABF8BB7F3
:1002A0008068F6CF8AB780628ABF8BB78062F0CF52
:1002B00081E090E0089561157105B9F0813059F041
:1002C000823071F0811111C06093640070936500F9
:1002D00080E090E008956093620070936300F8CF2F
:1002E0006093600070936100F3CF81E090E0089527
:1002F0001F920F920FB60F9211242F933F934F939B
:100300005F936F937F938F939F93AF93BF93EF937D
:10031000FF93E0916400F0916500309709F0099532
:10032000FF91EF91BF91AF919F918F917F916F91CD
:100330005F914F913F912F910F900FBE0F901F90A3
:1003400018951F920F920FB60F9211242F933F937F
:100350004F935F936F937F938F939F93AF93BF93CD
:10036000EF93FF93E0916200F0916300309709F002
:100370000995FF91EF91BF91AF919F918F917F91DF
:100380006F915F914F913F912F910F900FBE0F9002
:100390001F9018951F920F920FB60F9211242F9352
:1003A0003F934F935F936F937F938F939F93AF93FD
:1003B000BF93EF93FF93E0916000F091610030975D
:1003C00009F00995FF91EF91BF91AF919F918F91A6
:1003D0007F916F915F914F913F912F910F900FBE41
:1003E0000F901F90189588E083BF8CE78CBF12BEDA
:1003F00083B7887F83BF80E090E00895AC0182E0FE
:1004000088BF93B7936093BF20E030E0241735078F
:1004100031F483B7887F83BF80E090E0089508B609
:1004200001FEFDCF88BF2F5F3F4FF0CFF894FFCF85
:00000001FF
