:100000000C942A000C9464120C948D120C94B61269
:100010000C9447000C9447000C9447000C94470044
:100020000C9447000C9447000C9447000C94470034
:100030000C9447000C9435130C9447000C94470023
:100040000C9447000C9447000C9447000C94470014
:100050000C94470011241FBECFE5D8E0DEBFCDBF12
:1000600014E0A0E6B0E0E2E3FEE202C005900D92EB
:10007000AE38B107D9F726E0AEE8B4E001C01D9272
:10008000AC3EB207E1F70E94C1010C9406170C9434
:100090000000CF93DF9300D000D0CDB7DEB78091C2
:1000A0002D0590912E056AE070E00E94C2136983CD
:1000B0007A838B839C830E94C40560E080E00E9469
:1000C000B70580E890E00E94A4058091290590E0A2
:1000D0000E94CE0583E890E00E94A40580912A0545
:1000E00090E00E94CE0588E890E00E94A40560E0C0
:1000F00081E00E94B7058AE890E00E94A40589810A
:100100009A810E94CE058DE890E00E94A4058B8123
:100110009C810E94CE058FE890E00E94A40580910A
:10012000340580FF0AC084E990E00F900F900F9093
:100130000F90DF91CF910C94A40585E394E0F5CF67
:1001400080E00E94AB0680E00C9499070F931F9308
:10015000CF93DF93CDB7DEB729970FB6F894DEBF04
:100160000FBECDBF8E010B5F1F4FB80180E00E9414
:10017000A910B801892B31F48D819E8180932305CC
:100180009093240581E00E94A910892B31F48D8180
:100190009E8180932505909326058E01075F1F4F52
:1001A000B80180E00E941F06B801892B19F48985E7
:1001B0008093290581E00E941F06892B19F4898507
:1001C00080932A058BE295E00E94C404892B21F0DC
:1001D00010922B0510922C050E94B90C80932D05CE
:1001E00090932E050E94CE0C28EE33E040E050E0C4
:1001F0000E94D61320932F0530933005409331058C
:10020000509332050E9411059091340580FB92F9BC
:10021000909334050E9414059091340580FB93F966
:1002200090933405CE0108960E94E206892B09F0CE
:100230004DC0888581709091340580FB90F9909332
:100240003405CE0107960E94AA07892B09F040C009
:100250008F8181709091340580FB91F990933405E2
:100260008E010F5F1F4FC8010E94EE06892B91F58A
:1002700089819A81809337059093380589E395E0C9
:100280000E940307892B41F01092390510923A051C
:1002900010923B0510923C05C8010E941807892B5B
:1002A000E1F489819A8180933D0590933E050E94F7
:1002B000680F8093350529960FB6F894DEBF0FBE00
:1002C000CDBFDF91CF911F910F91089580E0B3CF03
:1002D00080E0C0CF80E090E0CDCF80E090E0E3CF41
:1002E0000E942D070E94900C80913F05909140053F
:1002F000A0914105B09142050196A11DB11D8093C9
:100300003F0590934005A0934105B09342050C949E
:10031000A60083E00E94A5030E94E9040E94510404
:100320000E94A60083E295E00E94130B83E295E011
:100330000E947A0F0E94680F809335050E948810F2
:100340008115D1F080918E0490918F040196809355
:100350008E0490938F0441E08431910520F084361F
:10036000910528F440E063E081E00C943311109291
:100370008E0410928F04089510928E0410928F04B0
:10038000F1CF1092230510922405109225051092AA
:100390002605109227051092280510922905109223
:1003A0002A0510922B0510922C0510922D05109203
:1003B0002E0510922F0510923005109231051092E3
:1003C00032051092330580913405807F8093340587
:1003D00010923505109236051092370510923805A7
:1003E0001092390510923A0510923B0510923C0587
:1003F00010923D0510923E0510923F051092400567
:1004000010924105109242050E94FE1280E00E9467
:100410001B0681E00E94DF120E945A070E9482069A
:100420000E94880741E063E081E00E94C11040E043
:1004300063E081E00E9433110E94D3040E943004E3
:1004400083E00E945D0382E00E9422030E94760CFA
:1004500060EA76E881E090E00E9493110E945005E6
:100460000E940E0B0E94040D0E944F0F80E994E041
:100470000E94950B0E944B0860EA70E080E00E94A9
:10048000471262E080E00E94EA1180E00E941412AC
:1004900080E00E9429120E94E4110E949C0E4AE012
:1004A00050E060E070E089E891E00E94B40E44EF13
:1004B00051E060E070E089E490E00E94B40E48EE04
:1004C00053E060E070E080E791E00E94B40E0E948B
:1004D000A6000E94680F809335058AE090E00E9494
:1004E00009130E94020F0E942F0F0E94B50A0E945A
:1004F000680F9C0190913405892F817091FD826075
:1005000092FD846093FD88602530310549F4806157
:100510000E9467076091290582E00E949A02DDCF60
:100520002630310511F48062F3CF2730310581F791
:100530008064EECFFF920F931F93CF93DF9300D091
:100540000F92CDB7DEB7898381E090E0653690F5F4
:100550006931C8F16233E0F16B34F0F111E06F35CD
:1005600008F410E001E0F02E41E062E089810E9491
:1005700033118A839B834F2D63E089810E9433115D
:100580002A813B81282B392B2A833B83402F64E02F
:1005900089810E9433112A813B81282B392B2A83A0
:1005A0003B83412F65E089810E9433112A813B8181
:1005B000822B932B0F900F900F90DF91CF911F9173
:1005C0000F91FF90089500E0F12C40E010E0CDCFB6
:1005D00000E0F12C41E0FACF00E0FF24F394FACFE1
:1005E000CF93DF9300D00F92CDB7DEB7898340E081
:1005F00062E00E9433118A839B8340E063E089813B
:100600000E9433112A813B81282B392B2A833B837B
:1006100040E064E089810E9433112A813B81282BCC
:10062000392B2A833B8340E065E089810E943311A6
:100630002A813B81822B932B0F900F900F90DF919B
:10064000CF910895CF93DF9300D00F92CDB7DEB74F
:10065000898341E062E00E94C1108A839B8341E06C
:1006600063E089810E94C1102A813B81282B392BAC
:100670002A833B8341E064E089810E94C1102A8182
:100680003B81282B392B2A833B8341E065E089811C
:100690000E94C1102A813B81282B392B2A833B835E
:1006A00089810E94F0022A813B81822B932B0F903B
:1006B0000F900F90DF91CF910895CF93DF9300D0EB
:1006C0000F92CDB7DEB7898340E064E00E94C1108D
:1006D0008A839B8340E065E089810E94C1102A8162
:1006E0003B81282B392B2A833B8340E063E08981BF
:1006F0000E94C1102A813B81282B392B2A833B83FE
:1007000041E064E089810E9433112A813B81282BDA
:10071000392B2A833B8341E065E089810E943311B4
:100720002A813B81282B392B2A833B8341E063E0DC
:1007300089810E9433112A813B81822B932B0F9058
:100740000F900F90DF91CF910895FF920F931F9319
:10075000CF93DF9300D0CDB7DEB78A8300E610E0F9
:10076000F12CAE014F5F5F4FF80160818A810E94DA
:10077000711191E08981811190E0F80181818913E3
:1007800036C084818530B0F58F5F8483853091F1E8
:10079000F80182819381891709F444C0813069F599
:1007A00021E0208711861582168217828383F80143
:1007B000858196818436910518F401968583968308
:1007C000F2E0FF1221C08091790090917A00843686
:1007D0009105D0F080917B00811116C084E0809358
:1007E0007C0010927D0081E080937B000DC091839E
:1007F0001482CECFF8019283CBCF978123E0911161
:1008000022E0208711868383F394065F1F4F83E0E5
:10081000F812A7CF0F900F90DF91CF911F910F91FA
:10082000FF900895813081F7C2CF83309105A8F4FD
:100830006115710591F02AE0289FF001299FF00DC4
:100840001124E05AFF4F80859185DB018D939D93A4
:100850001086118680E090E0089581E090E0089590
:1008600010925005109251051092470510924305C1
:1008700010924405109245051092460510924805C5
:100880001092490510924A0510924B0510924C05A2
:1008900010924D0510924E0510924F0580E090E0A9
:1008A00008958F929F92AF92BF92DF92EF92FF9244
:1008B0000F931F93CF93DF9300D0CDB7DEB719828C
:1008C0001A82BE016F5F7F4F82E00E94A9108C01E7
:1008D000892B09F04AC029813A81A0E1B7E20E9440
:1008E000B3132FEF33E040E050E00E94D613D090D6
:1008F00047056D2D70E0C901A0E0B0E07B01EE0C72
:10090000FF1CF701E85BFA4F60817181861B970B32
:10091000A109B1098090430590904405A090450538
:10092000B0904605880D991DAA1DBB1D61E06D0D97
:10093000643008F060E0F701E85BFA4F2083318310
:100940008093430590934405A0934505B0934605D5
:100950006093470522E0B695A795979587952A95C8
:10096000D1F78093500590935105C8010F900F90D7
:10097000DF91CF911F910F91FF90EF90DF90BF908B
:10098000AF909F908F900895009751F0209150055F
:1009900030915105FC012083318380E090E008957F
:1009A00081E090E0089542E062E083E00E94C1109F
:1009B000892B19F081E090E0089542E066E083E041
:1009C0000E94C1100097B1F7109253051092520582
:1009D0000895CF93DF9300D0CDB7DEB71A82198286
:1009E000AE014E5F5F4F62E083E00E947111AE0185
:1009F0004F5F5F4F66E083E00E94711181E09A8152
:100A0000911180E08093530581E09981911180E0FC
:100A10008093520580E090E00F900F90DF91CF918E
:100A20000895809153050895809152050895CF93BC
:100A3000DF93D82FC62F0E94B411892B39F48EE38F
:100A40000E94C511892B41F00E94C211C1E0D0E083
:100A5000CE01DF91CF9108958D2F0E94D511892B62
:100A600099F78C2F0E94D511EC01892B69F70E9410
:100A7000C211EECF682F80E00E941705EFE9FFE07A
:100A80003197F1F700C000000895682F80E40E94BC
:100A90001705EFECF7E03197F1F700C0000008957B
:100AA000CF93DF932FE788E391E02150804090407F
:100AB000E1F700C0000088E30E943A05892B31F07D
:100AC000C1E0D0E0CE01DF91CF9108958FE097E2B1
:100AD0000197F1F700C0000089E30E943A05892BD5
:100AE00079F78FEC97E00197F1F700C0000084E1FF
:100AF0000E943A05EC01892B19F780E70E943A051C
:100B000086E50E943A058CE60E943A059FEF21EEA9
:100B100084E0915020408040E1F700C0000088E36D
:100B20000E943A058CE00E943A0581E00E943A0555
:100B30008FE097E20197F1F700C0000086E00E9485
:100B40003A05C0CF0C944505CF93DF93EC01892B78
:100B500031F481E090E008C021960E94A2058881CE
:100B60008111FACF80E090E0DF91CF91089582303B
:100B700040F4603130F48111605C862F80680C9401
:100B80003A0581E090E0089581E00E943A05EFE0A7
:100B9000F7E23197F1F700C000000895EF92FF925D
:100BA0000F931F93CF93DF9300D000D000D0CDB729
:100BB000DEB79C01892B79F480E30F900F900F90A2
:100BC0000F900F900F90DF91CF911F910F91FF9099
:100BD000EF900C94450540E0EAE0F0E07E018FEFF5
:100BE000E81AF80AC901BF010E94C213D701A40F75
:100BF000B11D805D8C93C9019B014F5F0A9790F7EF
:100C00008701040F111DE016F10679F480E090E0F1
:100C10000F900F900F900F900F900F90DF91CF914A
:100C20001F910F91FF90EF900895F80182918F012D
:100C30000E94A205E8CF66E081E00C949410EF9248
:100C4000FF920F931F93CF93DF9300D000D000D07B
:100C5000CDB7DEB7182F7B01672B81F401E010E0E0
:100C6000C8010F900F900F900F900F900F90DF9191
:100C7000CF911F910F91FF90EF900895BE016F5F8C
:100C80007F4F0E94A910892B49F7BE016D5F7F4FEE
:100C9000812F0E94A910892B09F7BE016B5F7F4F3E
:100CA000812F0E94A9108C01892BC1F649815A819C
:100CB0008B819C818417950728F0342F252FAC0158
:100CC000832F922F2D813E814217530708F49A01FA
:100CD0002817390708F49C01A4E6B0E00E94B3137A
:100CE0006B3923E9720721E08207910548F42FEF61
:100CF00033E040E050E00E94D613F7012083B0CFEC
:100D000024E6FBCF41E060E081E00E94C110009743
:100D100009F540E060E081E00E9433110097D1F4D2
:100D20001092600510925C0510925D0510925E05B0
:100D300010925F05109258051092590510925A05AD
:100D400010925B05109254051092550510925605AD
:100D5000109257050895CF93C82F81E090E0C230DC
:100D600018F54C2F60E081E00E9433110097E1F408
:100D7000209160052130D0F4C130A1F44091540598
:100D80005091550560915605709157054F5F5F4F23
:100D90006F4F7F4F40935405509355056093560510
:100DA00070935705C0936005CF910895D9F7C1118D
:100DB000F9CF10925C0510925D0510925E051092BD
:100DC0005F05F0CF009739F020916005FC0120838A
:100DD00080E090E0089581E090E00895009781F030
:100DE00040915C0550915D0560915E0570915F05D5
:100DF000FC01408351836283738380E090E0089517
:100E000081E090E00895009781F04091580550915D
:100E1000590560915A0570915B05FC01408351832F
:100E20006283738380E090E0089581E090E008950C
:100E3000009781F0409154055091550560915605F9
:100E400070915705FC01408351836283738380E076
:100E500090E0089581E090E00895809160058130F0
:100E600031F580915C0590915D05A0915E05B09192
:100E70005F050196A11DB11D80935C0590935D05F2
:100E8000A0935E05B0935F05809158059091590538
:100E9000A0915A05B0915B050196A11DB11D8093EB
:100EA000580590935905A0935A05B0935B0580E0CF
:100EB00090E0089541E064E081E00E94C110009755
:100EC00029F440E064E081E00C94331108950F931D
:100ED0001F93CF93DF930F92CDB7DEB71982BE0178
:100EE0006F5F7F4F0E94EF128C01892B51F441E01C
:100EF00064E081E00E94331140E064E081E00E9400
:100F00003311C8010F90DF91CF911F910F91089578
:100F100041E062E081E00E94C110009749F440E0A6
:100F200062E081E00E943311009711F41092610594
:100F30000895CF93C82F81E090E0C23048F44C2F41
:100F400062E081E00E943311009711F4C0936105C3
:100F5000CF910895009739F020916105FC0120831D
:100F600080E090E0089581E090E00895009741F0DE
:100F7000FC01E05CFF4F10823196108231961082A6
:100F80000895CF93DF93009749F02FB7F894FC01B1
:100F9000EE5BFF4F3081303430F02FBF81E090E0C6
:100FA000DF91CF910895DC01A05CBF4F3C91830F8E
:100FB000911DEC0168838C918F5F803408F080E094
:100FC0008C9380818F5F80832FBF80E090E0E8CF9B
:100FD000CF93DF93009761F06115710549F02FB74A
:100FE000F894FC01EE5BFF4F3081311106C02FBF3A
:100FF00081E090E0DF91CF910895DC01AF5BBF4FBE
:101000003C91830F911DEC018881EB0188838C91C9
:101010008F5F803408F080E08C93808181508083E2
:101020002FBF80E090E0E6CF009761F02FB7F894F3
:10103000FC01EE5BFF4F90812FBF81E0911519F00D
:1010400080E0089581E00895AC0120E0892B51F4FF
:1010500080E008958FE9890F8A3108F4905239139E
:10106000F7CF2F5FFB01E20FF11D3081FA01E20F94
:10107000F11D90813111EECF892F8F7D41F087EFE7
:10108000890F823020F081E09D3011F7089581E0D2
:1010900008950C948113CF93DF938FE196E00E9423
:1010A000B6078CE895E00E94950B1092620560E807
:1010B00075E280E090E00E946013EC01892B59F406
:1010C0008FE196E00E94AC1381E00E94A013CE0154
:1010D000DF91CF910895C1E0D0E0F9CFEF92FF9278
:1010E0000F931F93CF93DF93CDB7DEB7C056D109CF
:1010F0000FB6F894DEBF0FBECDBF0E94680F8830D8
:10110000910508F0A5C0880F991FFC01E358FB4F1B
:10111000E080F18080912C058F9380912B058F9337
:1011200080912A051F928F93809129051F928F939A
:1011300080EA90E09F938F938E010F5F1F4F1F9364
:101140000F930E940914C8010E94871320912F0554
:101150003091300540913105E091320580912D05A7
:1011600090912E056AE070E00E94C213EF934F93B6
:101170003F932F939F938F937F936F938BEB90E08D
:101180009F938F931F930F930E940914C8010E948D
:1011900087138091340583FB882780F91F928F93F2
:1011A0008091340582FB882780F91F928F9380916C
:1011B0003405869581701F928F93809134058170DC
:1011C0001F928F9386ED90E09F938F931F930F93C1
:1011D0000E9409140FB6F894DEBF0FBECDBFC80140
:1011E0000E948713809142058F93809141058F93D0
:1011F000809140058F9380913F058F9380913805B2
:101200008F93809137058F93809136051F928F932E
:10121000FF92EF9288EF90E09F938F931F930F932D
:101220000E940914C8010E9487130FB6F894DEBF0C
:101230000FBECDBFC05ADF4F0FB6F894DEBF0FBE52
:10124000CDBFDF91CF911F910F91FF90EF90089547
:1012500088E9E82E80E0F82E5DCF89E191E00E94D8
:10126000871386E391E00E94871384E591E00E9452
:10127000871384E791E00E94871381E991E00E943F
:1012800087138EEA91E00E9487138BEC91E00E9415
:10129000871389EE91E00E94871385E092E00E9417
:1012A000871383E292E00E94871387E492E00E9412
:1012B000871388E692E00E9487138AE892E00C94F4
:1012C00087138CE895E00E94AF0B811107C088EA74
:1012D00092E00E94871380E090E0089569E478E04E
:1012E0008CE895E00E94BD0BF6CF0F931F93CF9330
:1012F000DF93CDB7DEB7A0970FB6F894DEBF0FBE71
:10130000CDBFFC01892B89F484EB92E00E94871306
:1013100081E090E0A0960FB6F894DEBF0FBECDBF7F
:10132000DF91CF911F910F9108958F0181918032AC
:10133000E1F397EF980F9230C0F38D30B1F36EEB7D
:1013400072E0C8010E942408811529F00E942D092D
:1013500080E090E0DFCF63EC72E0C8010E942408D7
:10136000811107C06AEC72E0C8010E94240881154F
:1013700019F00E946E08ECCF62ED72E0C8010E9485
:1013800024088115C9F0809129051F928F9389ED5A
:1013900092E09F938F938E010F5F1F4F1F930F93C8
:1013A0000E940914C8010E9487130F900F900F909C
:1013B0000F900F900F90CCCF66EE72E0C8010E94A4
:1013C0002408811501F180912D0590912E056AE088
:1013D00070E00E94C2139F938F937F936F938CEE64
:1013E00092E09F938F938E010F5F1F4F1F930F9378
:1013F0000E940914C8010E9487130FB6F894DEBF3B
:101400000FBECDBFA5CF6FEF72E0C8010E942408C8
:10141000811579F0809132058F93809131058F93FA
:10142000809130058F9380912F058F9387E093E013
:10143000D8CF66E173E0C8010E942408811549F005
:1014400080912C058F9380912B058F938FE193E0F2
:10145000A0CF6FE273E0C8010E942408811529F033
:1014600084E393E00E94871373CF65E573E0C801BE
:101470000E942408811551F00E946D0F892B19F4E8
:1014800089E593E0EFCF8EE593E0ECCF6BE673E078
:10149000C8010E942408811561F0A0960FB6F89447
:1014A000DEBF0FBECDBFDF91CF911F910F910C9486
:1014B000610963E773E0C8010E942408811529F0DF
:1014C0008CE895E00E94B80BDBCF6DE773E0C801B4
:1014D0000E942408811539F0809136051F928F9360
:1014E00083E893E056CF6DE873E0C8010E942408BA
:1014F000811519F087E993E0B5CF64EB73E0C8017B
:101500000E9424088111F6CF60EC73E0C8010E94AC
:101510002408811519F088EC93E0A4CF65EE73E000
:10152000C8010E9424088111F6CF6EEE73E0C80155
:101530000E9424088111EFCF67EF73E0C8010E9479
:1015400024088111E8CF61E074E0C8010E942408FA
:10155000811519F08CE094E085CF6DE274E0C8014C
:101560000E9424088111F6CFCFCE0F931F93CF9303
:10157000DF9300D00F92CDB7DEB78E010F5F1F4F04
:101580008FE196E00E941408811541F00F900F90B2
:101590000F90DF91CF911F910F910895B8018FE1C6
:1015A00096E00E94E8070A831B83892B79F78981DB
:1015B000E09162058D3011F08A3069F4E11501F394
:1015C000F0E0ED59FA4F108283E695E00E9475092C
:1015D00010926205D5CFE83248F4AE2FB0E0AD5995
:1015E000BA4F8C93EF5FE0936205CACF89E394E032
:1015F0000E9487138FE196E00E9414088111E8CFC2
:101600006A817B818FE196E00E94E807892B01F7D0
:1016100089818D30E9F28A3069F7DACF109262065B
:1016200080E090E00895009779F0FC0186818E318A
:1016300030F481E08093620680E090E008958B357D
:10164000D8F310926206F8CF81E090E0089580917F
:10165000620608958F929F92AF92BF92CF92DF92CF
:10166000EF92FF921F93CF93DF93CDB7DEB72A9708
:101670000FB6F894DEBF0FBECDBF6B017C014A01EF
:1016800041155105C9F1C114D104E104F104A1F4DB
:1016900080E3FA012A960FB6F894DEBF0FBECDBFE5
:1016A000DF91CF911F91FF90EF90DF90CF90BF908F
:1016B000AF909F908F90099410E05E01FFEFAF1AFA
:1016C000BF0AB601C7012AE030E040E050E00E94C6
:1016D000D613F501E10FF11D6083C601D701690141
:1016E0007A011F5F0A97A105B10558F77501E10E50
:1016F000F11CAE14BF0491F42A960FB6F894DEBF25
:101700000FBECDBFDF91CF911F91FF90EF90DF9083
:10171000CF90BF90AF909F908F900895F7018291E6
:101720007F01805DF4010995E4CF0097B9F0FC01D9
:101730009C0120573F4F1082118212821382148223
:1017400015821682178210863996E217F30799F7E9
:101750001082FC01EF56FF4F1192108208950097FE
:1017600029F0FC01EE56FF4F8081089580E0089536
:10177000009711F00C94950B08956F927F928F92C1
:101780009F92AF92BF92CF92DF92EF92FF920F9310
:101790001F93CF93DF93CDB7DEB728970FB6F8949A
:1017A000DEBF0FBECDBF8C016F8378870097A1F09D
:1017B000672B91F05C0182E9A80EB11CD5018C91D8
:1017C000811551F0912CF801E057FF4FED83FE8316
:1017D000D5018C919816A8F028960FB6F894DEBF24
:1017E0000FBECDBFDF91CF911F910F91FF90EF9072
:1017F000DF90CF90BF90AF909F908F907F906F9031
:101800000895AD81BE818C91815F89198F70F80137
:10181000B9E08B9FE00DF11D1124808081819281C0
:10182000A381B48189839A83AB83BC8375806680EE
:10183000E780F08488E7C82E84E0D82ED6018D9109
:101840006D01EF81F8850995FCE7CF16F4E0DF061E
:10185000A9F7692D70E080E090E04F8158850E94E3
:101860002A0B8CE2EF81F8850995682D70E080E005
:1018700090E04F8158850E942A0B8CE2EF81F88519
:1018800009954F81588569817A818B819C810E945D
:101890002A0B8CE2EF81F8850995672D70E080E0D6
:1018A00090E04F8158850E942A0B8CE2EF81F885E9
:1018B0000995662D70E080E090E04F8158850E9488
:1018C0002A0B8CE2EF81F8850995B70180E090E062
:1018D0004F8158850E942A0B8DE0EF81F88509958C
:1018E0008AE0EF81F8850995939472CF40E061E03A
:1018F00081E00E94C110009711F40E942113109200
:10190000690610926A061092670610926806109295
:10191000630610926406109265061092660608959A
:101920000E9432132091690630916A06AC01421B75
:10193000530B9A018093690690936A064093670659
:10194000309368068091630690916406A0916506C5
:10195000B0916606840F951FA11DB11D809363068B
:1019600090936406A0936506B093660680E090E0CD
:101970000895609167067091680680E090E022E02B
:10198000660F771F881F991F2A95D1F723E030E053
:1019900040E050E00E94D613C901089520916306EB
:1019A000309164064091650650916606A8EEB3E05A
:1019B0000E94FE1322EC31E040E050E00E94D6137A
:1019C000B901CA01089510927A0610927B0610920E
:1019D0007806109279061092760610927706109289
:1019E0007406109275061092720610927306109289
:1019F00070061092710610926E0610926F06109289
:101A00006D0610926C06089510927C0610927D0669
:101A100010926B060E94E30C80E090E008958091A4
:101A20007C0690917D06892B19F081E080936B06EE
:101A300080E090E00895CF93DF93DC01C0917C06B5
:101A4000D0917D06892BC9F0209709F446C080917A
:101A50006B06811591F0FE013197E930F10530F503
:101A6000E85FF84E0C94F81316968C911697803612
:101A700020F451968C9182FF19C0CE01DF91CF9155
:101A8000089518968D919D911A97883E9340A8F7D6
:101A900051968C9180FDF1CF09C017968C911797C4
:101AA000893158F351968C9183FDE7CF10927C06D3
:101AB00010927D0610926B060E94E30CC0E0D0E00D
:101AC000DCCF17968C918931C0F2F0CF8D919D912A
:101AD00001978E3F934088F6E9CF51969C9151979C
:101AE00092FD15C016968C911697833698F020912A
:101AF0007A0630917B06283C310548F42F5F3F4F32
:101B000020937A0630937B06283C310539F4C1E0F6
:101B1000D0E016C010927A0610927B0618964D916E
:101B20005D911A9741346FE1560708F43FC0209148
:101B30007806309179062233310598F0C2E0D0E082
:101B4000109270061092710610926E0610926F0637
:101B5000C0937C0610927D0610926B060E94E30CE7
:101B60008CCF2F5F3F4F2093780630937906223336
:101B7000310521F393FDCCC017962C9117972A308D
:101B800008F4C6C090FF33C01A962D913D911C9762
:101B90002A30310538F52091740630917506283EBB
:101BA00063E0360740F0C4E0D0E0CACF1092780678
:101BB00010927906DFCF2F5F3F4F2093740630934A
:101BC0007506283E334079F3443F5140A0F42091FC
:101BD0007606309177062C3241E0340788F0C5E074
:101BE000D0E0AECF1092740610927506EDCF109231
:101BF000740610927506109276061092770609C048
:101C00002F5F3F4F20937606309377062C3231407A
:101C100031F354962D913D9156972538334008F075
:101C20007AC02D913D9112972115310519F02F3F62
:101C3000334009F52091720630917306243F41E04C
:101C4000340718F0C7E0D0E07BCF2F5F3F4F2093E1
:101C5000720630937306243F3140A1F352962C91C3
:101C60003AEF320F323010F0233051F410927006F8
:101C70001092710619C01092720610927306EECF80
:101C800090FD28C020917006309171062115310514
:101C900081F480936D062F5F3F4F20937006309341
:101CA00071062037374149F010926E0610926F0688
:101CB000E4CE203797E1390770F390916D068917CC
:101CC000A8F6292F281B330B2630310578F2C8E0FF
:101CD000D0E036CF109270061092710620916E06F9
:101CE00030916F0621153105C9F0203E4EE23407D0
:101CF000B8F090916C069817D0F4203E3E4208F45C
:101D0000BCCE891B813009F0B8CEC9E0D0E020CF2D
:101D1000C3E0D0E015CFC6E0D0E012CF80936C06D0
:101D20002F5F3F4F20936E0630936F06E2CF203E29
:101D30003E4208F4A2CEE9CFEFE7F6E0108211822E
:101D400012821382148215821682178210861186DF
:101D500012863C9686E0EF3DF80781F781E080939C
:101D60007E0680E090E00895CF92DF92EF92FF929E
:101D7000CF93DF93EC016A017B0180917E06811590
:101D8000F1F12097E1F18AE0C816D104E104F104F1
:101D9000B0F1BA01C7012AE030E040E050E00E9413
:101DA000D613672B682B692B51F5EFE7F6E080E03F
:101DB00090E0228521111EC02CE0289FF001299F70
:101DC000F00D1124E158F94FC083D183C282D38230
:101DD000E482F582C682D782E086F186138681E0AE
:101DE000828780E090E0DF91CF91FF90EF90DF90CD
:101DF000CF90089501963C9688309105D1F681E008
:101E000090E0F1CF80917E06811541F1EFE7F6E099
:101E100021E082858130E9F486819781A085B185B2
:101E20008A309105A105B10538F00A97A109B109D9
:101E300086839783A087B187892B8A2B8B2B49F4C4
:101E400082819381A481B58186839783A087B1879E
:101E500023873C9686E0EF3DF807D9F60895CF93A7
:101E6000DF9380917E06811589F0CFE7D6E08A85E1
:101E7000813039F48B85813021F41B86E881F9812A
:101E800009952C9686E0CF3DD80789F7DF91CF9151
:101E9000089580E00E94AB0680E00C9499071092B0
:101EA000E2061092E3061092E0061092E10680E747
:101EB00097E180937E0090937F001092DF0680E090
:101EC0000E94AB06009719F480E00C9499070895DE
:101ED0008091E2069091E306089581E08093DF0609
:101EE0000E940F0D009729F421E02093E206109242
:101EF000E3060895EF92FF920F931F93CF93DF9322
:101F000000D000D000D0CDB7DEB78C011D821E827C
:101F10001B821C8219821A8281E090E00115110552
:101F200009F4A1C0F801818980FD43C080917E0041
:101F300090917F008037F7E19F0728F40196809306
:101F40007E0090937F00BE016B5F7F4F80E090E04A
:101F50000E941504BE016D5F7F4F81E090E00E94FA
:101F60001504BE016F5F7F4F82E090E00E94150470
:101F7000C8010E941B0D7C01892B79F00E94490F3A
:101F80008091E2069091E306059711F01092DF062A
:101F900085E08093E2061092E30689819A81039797
:101FA000029710F40E946D0FEF2841F00E94490F34
:101FB00058C010927E0010927F00C5CFE091E206DB
:101FC000F091E3068D819E810397B9F5E630F10526
:101FD00099F40E94490F81E08093E2061092E30693
:101FE0000E94490F1092E0061092E106F8018781E5
:101FF000893198F584E04CC0CF0101970297E8F44D
:102000000E94490F86E08093E2061092E3068B81DE
:102010009C81039769F480917E0090917F008037C6
:10202000974130F081E00E94AB0681E00E94990761
:10203000F801818980FF15C046C0E830F10508F03D
:1020400063C0EF5EF84E0C94F8130E94490F109293
:10205000E0061092E10681E01BC00E94270B81116F
:102060000FC080E090E00F900F900F900F900F90B6
:102070000F90DF91CF911F910F91FF90EF900895F6
:1020800080917E0090917F008037974150F382E0ED
:102090008093E2061092E306E4CFF801878189314C
:1020A00018F40E94490FA6CF0E94270B811108C087
:1020B0000E94490F1092E0061092E10683E0E8CFFB
:1020C00081E00E94AB0681E00E949907CACF0E947E
:1020D000490F8091E0069091E106843FF1E09F076F
:1020E00008F0B5CF01968093E0069093E106843F17
:1020F000914009F0B6CFABCF0E94490FF80187811C
:10210000893108F4AECFA7CF0E94490F85E0C0CF38
:102110008091E2069091E306059721F481E0909189
:10212000DF06911180E00895823010F0833071F461
:102130009FEF960F973050F48295880F880F807C20
:1021400087B9606866B980E090E0089581E090E02A
:102150000895883098F46115710581F097B1907EEB
:10216000982B97B9369A349BFECF349A84B125B117
:10217000FB018083218380E090E0089581E090E07E
:102180000895843008F06CC0683008F069C04330AE
:1021900008F066C021E030E0F90101C0EE0F6A9559
:1021A000EAF76E2F413028F560958230A1F0833038
:1021B000C9F0813039F08AB386238ABB8BB386237A
:1021C0008BBB06C087B3862387BB88B3862388BBB7
:1021D00080E090E0089584B3862384BB85B3862392
:1021E00085BBF6CF81B3862381BB82B3862382BBB6
:1021F000EFCFB1F4823061F0833071F0813021F0A3
:102200008AB38E2B8ABBE4CF87B38E2B87BBE0CFFC
:1022100084B38E2B84BBDCCF81B38E2B81BBD8CF14
:102220009E2F9095823081F08330A1F0813031F083
:102230008AB389238ABB8BB38E2BC2CF87B3892302
:1022400087BB88B38E2BC3CF84B3892384BB85B36C
:102250008E2BC6CF81B3892381BB82B38E2BC7CF90
:1022600081E090E008958430C8F56830B8F54230D8
:10227000A8F521E030E0F90101C0EE0F6A95EAF718
:102280006E2F4130C1F4823061F0833081F08130B3
:1022900021F08BB38E2B8BBB07C088B38E2B88BBF2
:1022A00003C085B38E2B85BB80E090E0089582B398
:1022B0008E2B82BBF9CF6095823051F0833059F07C
:1022C000813019F08BB38623E6CF88B38623E7CF1E
:1022D00085B38623E8CF82B38623EBCF81E090E0FD
:1022E0000895FA018430E0F46830D0F43097C1F0FA
:1022F000823091F0833091F0813061F089B390E0C9
:1023000002C0959587956A95E2F78170808380E099
:1023100090E0089586B3F3CF83B3F1CF80B3EFCFCE
:1023200081E090E008959B01AC0121153105410544
:102330005105B9F060E072E18AE790E00E94D6139F
:1023400020513109410951095695479537952795EF
:1023500020B981B18C7F81B984E086BF80E090E0B4
:10236000089581E090E0089584EA86BF06B607FEEE
:10237000FDCF91B1987F21E030E0983009F420E062
:10238000C901089584E986BF0895880F83B984E858
:1023900086BF06B607FEFDCF91B1987F21E030E001
:1023A000983109F420E0C901089583B984E886BF13
:1023B00006B607FEFDCF91B1987F21E030E098325C
:1023C00009F420E0C90108958FB780688FBF80E0CD
:1023D00090E00895813079F08230C1F0811121C000
:1023E0006430F8F485B78C7F85BF85B7862B85BFB1
:1023F00080E090E008956430A0F485B7837F85BFC6
:1024000085B7660F660F682B65BFF2CF623021F487
:1024100084B78F7B84BFECCF633019F484B78064BA
:10242000F9CF81E090E00895813051F0823059F089
:1024300081110CC08AB780648ABF80E090E0089563
:102440008AB78068F9CF8AB78062F6CF81E090E0E2
:102450000895813069F0823089F0811115C08AB702
:1024600080648ABF8BB780648BBF80E090E0089562
:102470008AB780688ABF8BB78068F6CF8AB78062D8
:102480008ABF8BB78062F0CF81E090E0089561153C
:102490007105B9F0813059F0823071F0811111C0AD
:1024A0006093E8067093E90680E090E008956093F9
:1024B000E6067093E706F8CF6093E4067093E506AE
:1024C000F3CF81E090E008951F920F920FB60F9224
:1024D00011242F933F934F935F936F937F938F9329
:1024E0009F93AF93BF93EF93FF93E091E806F09132
:1024F000E906309709F00995FF91EF91BF91AF91EF
:102500009F918F917F916F915F914F913F912F910B
:102510000F900FBE0F901F9018951F920F920FB63D
:102520000F9211242F933F934F935F936F937F9359
:102530008F939F93AF93BF93EF93FF93E091E60642
:10254000F091E706309709F00995FF91EF91BF915F
:10255000AF919F918F917F916F915F914F913F913B
:102560002F910F900FBE0F901F9018951F920F92F2
:102570000FB60F9211242F933F934F935F936F9356
:102580007F938F939F93AF93BF93EF93FF93E091CC
:10259000E406F091E506309709F00995FF91EF9177
:1025A000BF91AF919F918F917F916F915F914F916B
:1025B0003F912F910F900FBE0F901F901895843070
:1025C00058F4BC9ABD9ABE98BF9AC49A80658DB9DA
:1025D000709880E090E0089581E090E008956115A2
:1025E000710549F08FB9779BFECF8FB1FB018083D6
:1025F00080E090E0089581E090E0089588E083BF56
:102600008CE78CBF12BE83B7887F83BF80E090E0E9
:102610000895AC0182E088BF93B7936093BF20E038
:1026200030E02417350731F483B7887F83BF80E01B
:1026300090E0089508B601FEFDCF88BF2F5F3F4FA1
:10264000F0CF8EB5887F8EBD8FB58C7F8FBD8EB558
:10265000877E8EBD1DBC1CBC8EB587608EBD80E0A4
:1026600090E008958CB59DB508951F920F920FB616
:102670000F9211242F933F934F935F936F937F9308
:102680008F939F93AF93BF93EF93FF936CB1809120
:10269000EA069091EB06009711F00E94C107FF91A6
:1026A000EF91BF91AF919F918F917F916F915F91CA
:1026B0004F913F912F910F900FBE0F901F90189543
:1026C000009770406040D1F09B01AC0184E0220F84
:1026D000331F441F551F8A95D1F760E072E18AE7E6
:1026E00090E00E94D6132150310930BD29B986E807
:1026F00080BD88E18AB980E090E0089581E090E0B3
:1027000008955D9BFECF8CB980E090E008950F9313
:102710001F93CF938C01C0E0892B31F481E090E0CE
:102720000BC00E948113CF5FF801EC0FF11D808177
:102730008111F7CF80E090E0CF911F910F91089524
:10274000813021F4579A80E090E0089510F4579872
:10275000FACF81E090E008958093EA069093EB062B
:1027600080E090E00895A29FB001B39FC001A39FB5
:10277000700D811D1124911DB29F700D811D1124BA
:10278000911D0895AA1BBB1B51E107C0AA1FBB1FC7
:10279000A617B70710F0A61BB70B881F991F5A95ED
:1027A000A9F780959095BC01CD010895A1E21A2E5C
:1027B000AA1BBB1BFD010DC0AA1FBB1FEE1FFF1FE5
:1027C000A217B307E407F50720F0A21BB30BE40B35
:1027D000F50B661F771F881F991F1A9469F760957C
:1027E0007095809590959B01AC01BD01CF01089536
:1027F000EE0FFF1F0590F491E02D09940E94B31392
:10280000A59F900DB49F900DA49F800D911D112444
:102810000895AEE0B0E0EFE0F4E10C94DF1686E05E
:102820008C832B893C8929833A838FEF9FE78D83A3
:102830009E83AE01495E5F4F6D897E89CE01019610
:102840000E942D14EF81F8852B893C89E20FF31F3C
:1028500010822E96E2E00C94FB16ACE0B0E0E3E3CD
:10286000F4E10C94D2165C016B017A01FC01168232
:102870001782838181FFD3C12AE0522EF501238183
:10288000F60123FD859123FF81916F01811509F4E4
:102890002CC1853239F423FD959123FF91916F016D
:1028A000953229F4B50190E00E942816E7CF30E078
:1028B000712C00E010E0103210F59B32C9F050F49A
:1028C0009032B9F09332C9F09E3261F516FD0DC118
:1028D000106405C09D3279F0903399F41160F601CF
:1028E00023FD959123FF91916F019111E4CF23C0B6
:1028F00012601460F4CF1860F2CF1061F0CF17FDB2
:102900001AC080ED890F8A30F8F616FF05C0759C55
:10291000800D1124782EE3CF059D800D1124082F02
:102920001062DDCF9C3611F41068D9CF9C3409F4C5
:1029300040C09836A1F2892F8F7D85548330D8F11D
:10294000933609F45FC0933709F46AC0933509F4EC
:1029500076C0943619F0993609F0A2C0F70117FF36
:1029600098C061917191819191917F011F7697FF3C
:1029700003C00E94C71610682AE030E04E014FEFF6
:10298000841A940AA4010E946916682E681816FF1A
:10299000D2C0812F8E7F671408F0CCC014FF1DC1F8
:1029A00012FD11C11E7E972C812F867809F4CEC0AE
:1029B0000FC131E094CF311509F1F8E0EF0EF11CB1
:1029C0008FE3898391E0692E712C4E018FEF881A75
:1029D000980A1F7713FD04C06016710408F43FC005
:1029E0006114710409F042C0011509F447CFB50123
:1029F00080E290E00E9428160150F6CF44E0E40EF9
:102A0000F11CDECFF70180818983F2E0EF0EF11C2B
:102A100081E0682E712C4E014FEF841A940AD9CFB1
:102A2000F701819091907F01672D70E016FD02C043
:102A30006FEF7FEFC4010E941D163C01CACFF70162
:102A4000819091907F01672D70E016FD02C06FEFBD
:102A50007FEFC4010E9412163C011068BBCFB50184
:102A600080E290E00E9428160150B6CFF40117FDD5
:102A7000859117FF81914F01B50190E00E942816C2
:102A800081E0011101C080E0081BF1E06F1A7108BC
:102A9000A7CF61917191872F880F880B982F65CFF1
:102AA0009537C9F41F7E1C872AE030E0FC85F7FFCC
:102AB0003BC0F70161917191819191917F014E012C
:102AC0004FEF841A940AA4010E946916682E6818B0
:102AD0001C851F775CCF812F897F8C87903799F079
:102AE00058F49835B9F09F36E1F0F5018681978169
:102AF0002C96EFE00C94EE169837B9F714FD06C04B
:102B000020E130E0D3CF9C8590619C87EC85E46028
:102B1000EC87F6CF14FF02C016601C8720E132E07C
:102B2000C5CF28E030E0C2CFF7016191719180E01C
:102B300090E0C4CF182F962C14FF36CFFE01E60D7F
:102B4000F11D8081803309F041C0197E13FD0EC054
:102B500010FF4FC0762C901618F4700E7918902E36
:102B6000802F8919091508F480E0980E901608F056
:102B700042C0091914FF41C0B50180E390E00E94F2
:102B8000281612FF09C088E590E011FD02C088E711
:102B900090E0B5010E9428166714D0F14E018FEF26
:102BA000881A980A6A94FE013296E60DF11D3F01DB
:102BB000F30182913F01B50190E00E94281668144C
:102BC0007904B1F711CF972C182FB8CF12FD02C09E
:102BD0009394BCCF93949394B9CF972C182FE4CEB1
:102BE000B50180E290E00E94281683948016C0F31D
:102BF000B7CF892CFBCF00E0BDCF812F867861F263
:102C000080E211FD8BE217FD8DE2B50190E0C2CFAD
:102C1000B50180E390E00E9428167A94BDCF8FEF33
:102C20009FEF66CFFC010590615070400110D8F70E
:102C3000809590958E0F9F1F0895FC016150704004
:102C400001900110D8F7809590958E0F9F1F0895E1
:102C5000A3E0B0E0EEE2F6E10C94DE16182F9983C3
:102C60006A837B83DB0113968C9181FD09C01FEF82
:102C7000BFEFB983812F99812396E3E00C94FA1674
:102C800082FF1BC0EA81FB81268137818481958187
:102C90002817390754F40190F081E02DCF010196F7
:102CA000AA81BB818D939D931083EA81FB818681EC
:102CB0009781019686839783DDCFAA81BB81189681
:102CC000ED91FD911A97BD01812F0995892B69F32B
:102CD000CECFFA01AA27283051F1203181F1E894B2
:102CE0006F936E7F6E5F7F4F8F4F9F4FAF4FB1E0FF
:102CF0003ED0B4E03CD0670F781F891F9A1FA11DFA
:102D0000680F791F8A1F911DA11D6A0F711D811DFA
:102D1000911DA11D20D009F468943F912AE0269FBF
:102D200011243019305D3193DEF6CF010895462F1E
:102D30004770405D4193B3E00FD0C9F7F6CF462FFF
:102D40004F70405D4A3318F0495D31FD4052419368
:102D500002D0A9F7EACFB4E0A69597958795779525
:102D60006795BA95C9F700976105710508959B01AC
:102D7000AC010A2E06945795479537952795BA9535
:102D8000C9F7620F731F841F951FA01D08959095AA
:102D90008095709561957F4F8F4F9F4F08952F922B
:102DA0003F924F925F926F927F928F929F92AF92DB
:102DB000BF92CF92DF92EF92FF920F931F93CF9328
:102DC000DF93CDB7DEB7CA1BDB0B0FB6F894DEBFBF
:102DD0000FBECDBF09942A88398848885F846E84E5
:102DE0007D848C849B84AA84B984C884DF80EE802F
:102DF000FD800C811B81AA81B981CE0FD11D0FB638
:102E0000F894DEBF0FBECDBFED010895F894FFCF5B
:102E1000340D410D4D0D610D480D480D660D480DE9
:102E2000480D2510F00F4D1067107C10D60F0710BD
:022E3000D60FBB
:102E32000400000000000000000005000000000087
:102E420000000000030000000000000000007017F6
:102E52004C3A002520523A002500463A002E004CFA
:102E62002F6D200052554E00554E4B4E4F574E007F
:102E72004C4556454C3D2575252520523D25752549
:102E82002520493D25756D410D0A00464C4F573DA1
:102E920025752E25754C2F6D696E20564F4C3D259C
:102EA2006C754C0D0A0050554D503D25752056410C
:102EB2004C56453D257520484947483D2575204CCF
:102EC2004F573D25750D0A0053544154453D257316
:102ED20020545249503D25752052554E3D257520AE
:102EE20055503D256C750D0A003D3D3D205741541E
:102EF20045522054414E4B20434F4E534F4C452098
:102F02003D3D3D0D0A00535441545553202020208D
:102F120020202D2053797374656D2073746174754C
:102F2200730D0A004C4556454C3F2020202020209E
:102F32002D20526F6F662074616E6B206C65766512
:102F42006C0D0A00464C4F573F20202020202020A5
:102F52002D2043757272656E7420666C6F770D0A50
:102F620000564F4C554D453F20202020202D205407
:102F72006F74616C20766F6C756D650D0A00435538
:102F82005252454E543F202020202D2050756D7006
:102F92002063757272656E740D0A004346473F20C6
:102FA200202020202020202D20436F6E6669677527
:102FB200726174696F6E0D0A00545249503F2020AD
:102FC20020202020202D20416374697665207472B0
:102FD20069700D0A004641554C54533F2020202071
:102FE200202D204661756C7420686973746F727944
:102FF2000D0A00434C524641554C54532020202D7B
:1030020020436C656172206661756C742068697317
:10301200746F72790D0A0041434B2020202020203A
:103022002020202D2041636B6E6F776C656467658D
:1030320020747269700D0A004D4F44452041555469
:103042004F2F4D414E55414C202D204D6F64652030
:10305200636F6D6D616E640D0A003D3D3D3D3D3D0A
:103062003D3D3D3D3D3D3D3D3D3D3D3D3D3D3D3D8E
:103072003D3D3D3D3D0D0A004E4F204641554C54CD
:10308200530D0A0045525220434D440D0A00484553
:103092004C500053544154555300535441545553CA
:1030A2003F004C4556454C3F004C4556454C3D254E
:1030B2007525250D0A00464C4F573F00464C4F5789
:1030C2003D25752E2575204C2F6D696E0D0A005613
:1030D2004F4C554D453F00564F4C554D453D256C87
:1030E20075204C0D0A0043555252454E543F004341
:1030F200555252454E543D2575206D410D0A0043EF
:1031020046473F004346473D33302C39302C36305A
:103112002C382C302E352C312C31302C31352C31B1
:1031220032300D0A0041434B004F4B0D0A0045520D
:1031320052204143544956450D0A004641554C54CC
:10314200533F00434C524641554C5453005452494C
:10315200503F00545249503D25750D0A004D4F44D1
:1031620045204155544F00455252204D4F44452071
:103172002D20555345204D4F444520425554544F20
:103182004E0D0A004D4F4445204D414E55414C00D5
:1031920050554D50204F4E00455252204D4F444500
:1031A200202D205553452046534D20434F4E545217
:1031B2004F4C0D0A0050554D50204F464600564187
:1031C2004C5645204F4E0056414C5645204F4646E0
:1031D2000053455256494345204F4E004552522016
:1031E2004D4F4445202D20555345205345525649B5
:1031F200434520434F4E54524F4C0D0A0053455203
:1032020056494345204F464600455252204C4F4EA8
:10321200470D0A00494E49540049444C450046496D
:103222004C4C494E4700534554544C494E4700526A
:1032320045535F5741495400545249505045440048
:103242005345525649434500464C542C00440449C8
:0E325200044E0456045F046804B903700400BF
:00000001FF
