:100000000C942A000C9498020C94C1020C94EA02FD
:100010000C9447000C9447000C9447000C94470044
:100020000C9447000C9447000C9447000C94470034
:100030000C9447000C9413030C9447000C94470055
:100040000C9447000C9447000C9447000C94470014
:100050000C94470011241FBECFE5D8E0DEBFCDBF12
:1000600010E0A0E6B0E0E0E8F6E002C005900D92F6
:10007000AE37B107D9F720E0AEE7B0E001C01D927E
:10008000A638B207E1F70E9449000C943E030C9495
:10009000000000D000D0CDB7DEB783E00E94A600FC
:1000A00041E060E082E00E94A00141E061E082E086
:1000B0000E94A00141E062E082E00E94A00140E0D5
:1000C00060E082E00E94120240E061E082E00E9473
:1000D000120240E062E082E00E9412028E010F5F95
:1000E0001F4F83E00E94EE00B80180E090E00E9484
:1000F0005E0189819A810B831C83019721F460E062
:1001000082E00E9472026B817C8181E090E00E941B
:100110005E0189819A81019721F461E082E00E9469
:1001200072026B817C8182E090E00E945E01898195
:100130009A81049721F462E082E00E9472028FE1CA
:100140009EE40197F1F700C00000CBCFCF93DF937F
:1001500000D00F92CDB7DEB7898340E064E00E9403
:10016000A0018A839B8340E065E089810E94A00111
:100170002A813B81282B392B2A833B8340E063E093
:1001800089810E94A0012A813B81282B392B2A8357
:100190003B8341E064E089810E9412022A813B8115
:1001A000282B392B2A833B8341E065E089810E941B
:1001B00012022A813B81282B392B2A833B8341E081
:1001C00063E089810E9412022A813B81822B932B5A
:1001D0000F900F900F90DF91CF910895FF920F93A2
:1001E0001F93CF93DF9300D0CDB7DEB78A8300E6AD
:1001F00010E0F12CAE014F5F5F4FF80160818A8102
:100200000E94500291E08981811190E0F801818182
:10021000891336C084818530B0F58F5F8483853043
:1002200091F1F80182819381891709F444C08130EA
:1002300069F521E020871186158216821782838353
:10024000F801858196818436910518F4019685839D
:100250009683F2E0FF1221C08091790090917A009C
:1002600084369105D0F080917B00811116C084E026
:1002700080937C0010927D0081E080937B000DC014
:1002800091831482CECFF8019283CBCF978123E064
:10029000911122E0208711868383F394065F1F4F1C
:1002A00083E0F812A7CF0F900F90DF91CF911F91AD
:1002B0000F91FF900895813081F7C2CF833091056F
:1002C000A8F46115710591F02AE0289FF001299F9B
:1002D000F00D1124E05AFF4F80859185DB018D934D
:1002E0009D931086118680E090E0089581E090E073
:1002F0000895CF93DF93009749F02FB7F894FC014E
:10030000EE5BFF4F3081303430F02FBF81E090E062
:10031000DF91CF910895DC01A05CBF4F3C91830F2A
:10032000911DEC0168838C918F5F803408F080E030
:100330008C9380818F5F80832FBF80E090E0E8CF37
:10034000843008F06CC0683008F069C0433008F0B1
:1003500066C021E030E0F90101C0EE0F6A95EAF7CE
:100360006E2F413028F560958230A1F08330C9F0BE
:10037000813039F08AB386238ABB8BB386238BBB4B
:1003800006C087B3862387BB88B3862388BB80E0FB
:1003900090E0089584B3862384BB85B3862385BB10
:1003A000F6CF81B3862381BB82B3862382BBEFCF96
:1003B000B1F4823061F0833071F0813021F08AB382
:1003C0008E2B8ABBE4CF87B38E2B87BBE0CF84B361
:1003D0008E2B84BBDCCF81B38E2B81BBD8CF9E2FDD
:1003E0009095823081F08330A1F0813031F08AB372
:1003F00089238ABB8BB38E2BC2CF87B3892387BB5C
:1004000088B38E2BC3CF84B3892384BB85B38E2B53
:10041000C6CF81B3892381BB82B38E2BC7CF81E046
:1004200090E008958430C8F56830B8F54230A8F5FA
:1004300021E030E0F90101C0EE0F6A95EAF76E2F76
:100440004130C1F4823061F0833081F0813021F09D
:100450008BB38E2B8BBB07C088B38E2B88BB03C09E
:1004600085B38E2B85BB80E090E0089582B38E2B00
:1004700082BBF9CF6095823051F0833059F08130E2
:1004800019F08BB38623E6CF88B38623E7CF85B3F5
:100490008623E8CF82B38623EBCF81E090E00895F6
:1004A000FA018430E0F46830D0F43097C1F0823043
:1004B00091F0833091F0813061F089B390E002C017
:1004C000959587956A95E2F78170808380E090E04A
:1004D000089586B3F3CF83B3F1CF80B3EFCF81E03C
:1004E00090E00895843008F56830F8F421E030E0B9
:1004F000A90101C0440F6A95EAF7823071F0833098
:1005000081F0813031F08BB384278BBB80E090E0A9
:10051000089588B3842788BBF9CF85B3842785BB2A
:10052000F5CF82B3842782BBF1CF81E090E00895BC
:100530001F920F920FB60F9211242F933F934F9358
:100540005F936F937F938F939F93AF93BF93EF933B
:10055000FF93E0918200F0918300309709F00995B4
:10056000FF91EF91BF91AF919F918F917F916F918B
:100570005F914F913F912F910F900FBE0F901F9061
:1005800018951F920F920FB60F9211242F933F933D
:100590004F935F936F937F938F939F93AF93BF938B
:1005A000EF93FF93E0918000F0918100309709F084
:1005B0000995FF91EF91BF91AF919F918F917F919D
:1005C0006F915F914F913F912F910F900FBE0F90C0
:1005D0001F9018951F920F920FB60F9211242F9310
:1005E0003F934F935F936F937F938F939F93AF93BB
:1005F000BF93EF93FF93E0917E00F0917F003097DF
:1006000009F00995FF91EF91BF91AF919F918F9163
:100610007F916F915F914F913F912F910F900FBEFE
:100620000F901F9018951F920F920FB60F921124E2
:100630002F933F934F935F936F937F938F939F93EA
:10064000AF93BF93EF93FF936CB18091840090912F
:100650008500009711F00E947901FF91EF91BF9101
:10066000AF919F918F917F916F915F914F913F914A
:100670002F910F900FBE0F901F901895F894FFCFF9
:100680000400000000000000000005000000000061
:0E069000000000000300000000000000000059
:00000001FF
