:100000000C942A000C949F010C94C8010C94F101EB
:100010000C9447000C9447000C9447000C94470044
:100020000C9447000C9447000C9447000C94470034
:100030000C9447000C943D020C9447000C9447002C
:100040000C9447000C9447000C9447000C94470014
:100050000C94470011241FBECFE5D8E0DEBFCDBF12
:1000600010E0A0E6B0E0E4EDF4E002C005900D92EF
:10007000A036B107D9F720E0A0E6B0E001C01D929C
:10008000A836B207E1F70E944D000C9468020C9468
:10009000000066E080E00C940E0141E065E080E045
:1000A0000E949C0041E066E080E00E949C0040E0ED
:1000B00062E083E00E949C000E941A0261E080E0FE
:1000C0000E943A0169E470E080E00E94820180E0D1
:1000D0000E9464010E94340165E080E00E940E01EC
:1000E00088EE93E00E942502F7CFCF93DF9300972D
:1000F00049F02FB7F894FC01EE5BFF4F30813034AC
:1001000030F02FBF81E090E0DF91CF910895DC01C6
:10011000A05CBF4F3C91830F911DEC0168838C91D3
:100120008F5F803408F080E08C9380818F5F8083C4
:100130002FBF80E090E0E8CF843008F06CC06830DA
:1001400008F069C0433008F066C021E030E0F901F2
:1001500001C0EE0F6A95EAF76E2F413028F56095E1
:100160008230A1F08330C9F0813039F08AB3862320
:100170008ABB8BB386238BBB06C087B3862387BB22
:1001800088B3862388BB80E090E0089584B38623FB
:1001900084BB85B3862385BBF6CF81B3862381BB21
:1001A00082B3862382BBEFCFB1F4823061F083301B
:1001B00071F0813021F08AB38E2B8ABBE4CF87B3F4
:1001C0008E2B87BBE0CF84B38E2B84BBDCCF81B377
:1001D0008E2B81BBD8CF9E2F9095823081F08330BB
:1001E000A1F0813031F08AB389238ABB8BB38E2B87
:1001F000C2CF87B3892387BB88B38E2BC3CF84B389
:10020000892384BB85B38E2BC6CF81B3892381BB61
:1002100082B38E2BC7CF81E090E00895843008F53B
:100220006830F8F421E030E0A90101C0440F6A957C
:10023000EAF7823071F0833081F0813031F08BB396
:1002400084278BBB80E090E0089588B3842788BB27
:10025000F9CF85B3842785BBF5CF82B3842782BBD2
:10026000F1CF81E090E008958FB780688FBF80E084
:1002700090E00895813079F08230C1F0811121C081
:100280006430F8F485B78C7F85BF85B7862B85BF32
:1002900080E090E008956430A0F485B7837F85BF47
:1002A00085B7660F660F682B65BFF2CF623021F409
:1002B00084B78F7B84BFECCF633019F484B780643C
:1002C000F9CF81E090E00895813069F0823089F0C3
:1002D000811115C08AB780648ABF8BB780648BBFD9
:1002E00080E090E008958AB780688ABF8BB7806805
:1002F000F6CF8AB780628ABF8BB78062F0CF81E089
:1003000090E0089561157105B9F0813059F082309F
:1003100071F0811111C0609364007093650080E0FA
:1003200090E008956093620070936300F8CF60934B
:10033000600070936100F3CF81E090E008951F9218
:100340000F920FB60F9211242F933F934F935F9309
:100350006F937F938F939F93AF93BF93EF93FF938D
:10036000E0916400F0916500309709F00995FF91E4
:10037000EF91BF91AF919F918F917F916F915F911D
:100380004F913F912F910F900FBE0F901F90189596
:100390001F920F920FB60F9211242F933F934F93FA
:1003A0005F936F937F938F939F93AF93BF93EF93DD
:1003B000FF93E0916200F0916300309709F0099596
:1003C000FF91EF91BF91AF919F918F917F916F912D
:1003D0005F914F913F912F910F900FBE0F901F9003
:1003E00018951F920F920FB60F9211242F933F93DF
:1003F0004F935F936F937F938F939F93AF93BF932D
:10040000EF93FF93E0916000F0916100309709F065
:100410000995FF91EF91BF91AF919F918F917F913E
:100420006F915F914F913F912F910F900FBE0F9061
:100430001F90189588E083BF8CE78CBF12BE83B7EE
:10044000887F83BF80E090E00895AC0182E088BFA0
:1004500093B7936093BF20E030E02417350731F461
:1004600083B7887F83BF80E090E0089508B601FEDF
:10047000FDCF88BF2F5F3F4FF0CF1F920F920FB677
:100480000F9211242F933F934F935F936F937F931A
:100490008F939F93AF93BF93EF93FF936CB1809132
:1004A000660090916700009711F00E947500FF911F
:1004B000EF91BF91AF919F918F917F916F915F91DC
:1004C0004F913F912F910F900FBE0F901F90189555
:0404D000F894FFCFCE
:00000001FF
