:100000000C942A000C946C120C9495120C94BE1251
:100010000C9447000C9447000C9447000C94470044
:100020000C9447000C9447000C9447000C94470034
:100030000C9447000C943D130C9447000C9447001B
:100040000C9447000C9447000C9447000C94470014
:100050000C94470011241FBECFE5D8E0DEBFCDBF12
:1000600012E0A0E6B0E0E2E4F0E302C005900D92F9
:10007000A037B107D9F724E0A0E7B2E001C01D9294
:10008000A23DB207E1F70E9412020C940E180C94E4
:100090000000CF93DF9300D000D0CDB7DEB7209122
:1000A00012033091130329833A830E94660F8B83D6
:1000B0009C8380917302909174022B813C81263045
:1000C000310561F5069719F082E0809372028B8109
:1000D0009C8180937302909374020E942906809100
:1000E00072028115F1F060E080E00E941C062B8115
:1000F0003C8180E890E02630310511F08DE890E0F9
:100100000E940906809172028150809372020F90C2
:100110000F900F900F90DF91CF9108950697B9F649
:10012000D3CF89819A816AE070E00E94CA13698303
:100130007A838B839C8360E080E00E941C0688E9C0
:1001400090E00E94090680910E0390E00E94330621
:100150008BE990E00E94090680910F0390E00E94D5
:10016000330680EA90E00E94090660E081E00E9488
:100170001C0682EA90E00E94090689819A810E9409
:10018000330685EA90E00E9409068B819C810E94DB
:10019000330687EA90E00E9409068091190380FFE8
:1001A0000AC08CEA90E00F900F900F900F90DF91B3
:1001B000CF910C94090682E592E0F5CF80E00E9491
:1001C000100780E00C94FE070F931F93CF93DF93EB
:1001D000CDB7DEB729970FB6F894DEBF0FBECDBFFF
:1001E0008E010B5F1F4FB80180E00E94B110B80173
:1001F000892B31F48D819E818093080390930903AC
:1002000081E00E94B110892B31F48D819E81809311
:100210000A0390930B038E01075F1F4FB80180E024
:100220000E948406B801892B19F4898580930E03F6
:1002300081E00E948406892B19F4898580930F033D
:1002400080E193E00E942905892B21F01092100390
:10025000109211030E94B10C809312039093130328
:100260000E94C60C28EE33E040E050E00E94DE130E
:1002700020931403309315034093160350931703F0
:100280000E9476059091190380FB92F990931903CF
:100290000E9479059091190380FB93F990931903BB
:1002A000CE0108960E944707892B09F04DC088852A
:1002B00081709091190380FB90F990931903CE01FE
:1002C00007960E940F08892B09F040C08F8181702A
:1002D0009091190380FB91F9909319038E010F5FA0
:1002E0001F4FC8010E945307892B91F589819A817C
:1002F00080931C0390931D038EE193E00E94680796
:10030000892B41F010921E0310921F0310922003BC
:1003100010922103C8010E947D07892BE1F4898195
:100320009A8180932203909323030E94660F809307
:100330001A0329960FB6F894DEBF0FBECDBFDF912A
:10034000CF911F910F91089580E0B3CF80E0C0CF8F
:1003500080E090E0CDCF80E090E0E3CF0E94920774
:100360000E94880C8091240390912503A09126037C
:10037000B09127030196A11DB11D80932403909392
:100380002503A0932603B09327030C94E40083E095
:100390000E940A040E944E050E94B6040E94E400D6
:1003A00088E093E00E940B0B88E093E00E94780FB6
:1003B0000E94660F80931A030E949010811569F1C4
:1003C00080917002909171020196809370029093D7
:1003D000710241E08431910520F08436910530F4BA
:1003E00040E063E081E00E943B1104C01092700283
:1003F000109271028091190341E080FF40E066E0B5
:1004000082E00E943B110E94660F41E0059709F0CF
:1004100040E067E082E00C943B1110927002109271
:100420007102DECF109208031092090310920A03A2
:1004300010920B0310920C0310920D0310920E03F6
:1004400010920F03109210031092110310921203D6
:1004500010921303109214031092150310921603B6
:10046000109217031092180380911903807F8093D4
:10047000190310921A0310921B0310921C0310927E
:100480001D0310921E0310921F031092200310925E
:10049000210310922203109223031092240310923E
:1004A0002503109226031092270341E066E082E0C4
:1004B0000E94C91040E066E082E00E943B1141E0EA
:1004C00067E082E00E94C91040E067E082E00E949D
:1004D0003B110E94061380E00E94800681E00E948A
:1004E000E7120E94BF070E94E7060E94ED0741E065
:1004F00063E081E00E94C91040E063E081E00E9477
:100500003B110E9438050E94950483E00E94C203BB
:1005100082E00E9487030E946E0C60EA76E881E028
:1005200090E00E949B110E94B5050E94060B0E945C
:10053000FC0C0E944D0F85E792E00E948D0B0E94FB
:10054000C8086EED70E080E00E944F1262E080E02B
:100550000E94F21180E00E941C1280E00E94311281
:100560000E94EC110E94940E4AE050E060E070E0BE
:1005700087EC91E00E94AC0E44EF51E060E070E047
:1005800089E490E00E94AC0E48EE53E060E070E039
:100590008EEA91E00E94AC0E0E94E4000E94660F79
:1005A00080931A038AE090E00E9411130E94FA0ED1
:1005B0000E94270F0E94AD0A0E94660F9C01909135
:1005C0001903892F817091FD826092FD846093FDF3
:1005D00088602530310549F480610E94CC07609124
:1005E0000E0382E00E94FF02DDCF2630310511F4B8
:1005F0008062F3CF2730310581F78064EECFFF9220
:100600000F931F93CF93DF9300D00F92CDB7DEB738
:10061000898381E090E0653690F56931C8F16233F5
:10062000E0F16B34F0F111E06F3508F410E001E017
:10063000F02E41E062E089810E943B118A839B8316
:100640004F2D63E089810E943B112A813B81282B39
:10065000392B2A833B83402F64E089810E943B1120
:100660002A813B81282B392B2A833B83412F65E04C
:1006700089810E943B112A813B81822B932B0F9011
:100680000F900F90DF91CF911F910F91FF900895E0
:1006900000E0F12C40E010E0CDCF00E0F12C41E093
:1006A000FACF00E0FF24F394FACFCF93DF9300D08A
:1006B0000F92CDB7DEB7898340E062E00E943B1124
:1006C0008A839B8340E063E089810E943B112A81F9
:1006D0003B81282B392B2A833B8340E064E08981CE
:1006E0000E943B112A813B81282B392B2A833B8393
:1006F00040E065E089810E943B112A813B81822B89
:10070000932B0F900F900F90DF91CF910895CF937F
:10071000DF9300D00F92CDB7DEB7898341E062E06E
:100720000E94C9108A839B8341E063E089810E9413
:10073000C9102A813B81282B392B2A833B8341E036
:1007400064E089810E94C9102A813B81282B392BC2
:100750002A833B8341E065E089810E94C9102A8198
:100760003B81282B392B2A833B8389810E945503A7
:100770002A813B81822B932B0F900F900F90DF915A
:10078000CF910895CF93DF9300D00F92CDB7DEB70E
:10079000898340E064E00E94C9108A839B8340E023
:1007A00065E089810E94C9102A813B81282B392B61
:1007B0002A833B8340E063E089810E94C9102A813B
:1007C0003B81282B392B2A833B8341E064E08981DC
:1007D0000E943B112A813B81282B392B2A833B83A2
:1007E00041E065E089810E943B112A813B81282BF1
:1007F000392B2A833B8341E063E089810E943B11CE
:100800002A813B81822B932B0F900F900F90DF91C9
:10081000CF910895FF920F931F93CF93DF9300D052
:10082000CDB7DEB78A8300E610E0F12CAE014F5F52
:100830005F4FF80160818A810E94791191E089817E
:10084000811190E0F8018181891336C0848185305F
:10085000B0F58F5F8483853091F1F80182819381B7
:10086000891709F444C0813069F521E02087118699
:100870001582168217828383F801858196818436DA
:10088000910518F4019685839683F2E0FF1221C04A
:100890008091790090917A0084369105D0F0809112
:1008A0007B00811116C084E080937C0010927D0053
:1008B00081E080937B000DC091831482CECFF8013C
:1008C0009283CBCF978123E0911122E0208711867C
:1008D0008383F394065F1F4F83E0F812A7CF0F9036
:1008E0000F90DF91CF911F910F91FF90089581306C
:1008F00081F7C2CF83309105A8F46115710591F09D
:100900002AE0289FF001299FF00D1124E05AFF4FA3
:1009100080859185DB018D939D931086118680E003
:1009200090E0089581E090E00895109235031092D0
:10093000360310922C031092280310922903109270
:100940002A0310922B0310922D0310922E03109263
:100950002F03109230031092310310923203109241
:1009600033031092340380E090E008958F929F92B9
:10097000AF92BF92DF92EF92FF920F931F93CF93AC
:10098000DF9300D0CDB7DEB719821A82BE016F5F48
:100990007F4F82E00E94B1108C01892B09F04AC080
:1009A00029813A81A0E1B7E20E94BB132FEF33E027
:1009B00040E050E00E94DE13D0902C036D2D70E0DB
:1009C000C901A0E0B0E07B01EE0CFF1CF701E35D84
:1009D000FC4F60817181861B970BA109B109809042
:1009E000280390902903A0902A03B0902B03880D30
:1009F000991DAA1DBB1D61E06D0D643008F060E01B
:100A0000F701E35DFC4F20833183809328039093AB
:100A10002903A0932A03B0932B0360932C0322E0B5
:100A2000B695A795979587952A95D1F78093350325
:100A300090933603C8010F900F90DF91CF911F91D3
:100A40000F91FF90EF90DF90BF90AF909F908F90AD
:100A50000895009751F02091350330913603FC0141
:100A60002083318380E090E0089581E090E0089554
:100A700042E062E083E00E94C910892B19F081E016
:100A800090E0089542E066E083E00E94C91000977C
:100A9000B1F710923803109237030895CF93DF9384
:100AA00000D0CDB7DEB71A821982AE014E5F5F4F1C
:100AB00062E083E00E947911AE014F5F5F4F66E014
:100AC00083E00E94791181E09A81911180E0809306
:100AD000380381E09981911180E08093370380E0B1
:100AE00090E00F900F90DF91CF910895809138039F
:100AF0000895809137030895CF93DF93D82FC62FA1
:100B00000E94BC11892B39F48EE30E94CD11892BF0
:100B100041F00E94CA11C1E0D0E0CE01DF91CF9137
:100B200008958D2F0E94DD11892B99F78C2F0E943B
:100B3000DD11EC01892B69F70E94CA11EECF682FF5
:100B400080E00E947C05EFE9FFE03197F1F700C0FB
:100B500000000895682F80E40E947C05EFECF7E028
:100B60003197F1F700C000000895CF93DF932FE78E
:100B700088E391E0215080409040E1F700C0000000
:100B800088E30E949F05892B31F0C1E0D0E0CE01BF
:100B9000DF91CF9108958FE097E20197F1F700C0C0
:100BA000000089E30E949F05892B79F78FEC97E07D
:100BB0000197F1F700C0000084E10E949F05EC015D
:100BC000892B19F780E70E949F0586E50E949F0503
:100BD0008CE60E949F059FEF21EE84E0915020401B
:100BE0008040E1F700C0000088E30E949F058CE090
:100BF0000E949F0581E00E949F058FE097E2019788
:100C0000F1F700C0000086E00E949F05C0CF0C9461
:100C1000AA05CF93DF93EC01892B31F481E090E0BA
:100C200008C021960E94070688818111FACF80E0D2
:100C300090E0DF91CF910895823040F4603130F43C
:100C40008111605C862F80680C949F0581E090E0A4
:100C5000089581E00E949F05EFE0F7E23197F1F7F8
:100C600000C000000895EF92FF920F931F93CF935F
:100C7000DF9300D000D000D0CDB7DEB79C01892B28
:100C800079F480E30F900F900F900F900F900F90DA
:100C9000DF91CF911F910F91FF90EF900C94AA05D7
:100CA00040E0EAE0F0E07E018FEFE81AF80AC901BF
:100CB000BF010E94CA13D701A40FB11D805D8C93A0
:100CC000C9019B014F5F0A9790F78701040F111D1F
:100CD000E016F10679F480E090E00F900F900F900D
:100CE0000F900F900F90DF91CF911F910F91FF9078
:100CF000EF900895F80182918F010E940706E8CFD6
:100D000066E081E00C949C10EF92FF920F931F938A
:100D1000CF93DF9300D000D000D0CDB7DEB7182F2F
:100D20007B01672B81F401E010E0C8010F900F9068
:100D30000F900F900F900F90DF91CF911F910F9117
:100D4000FF90EF900895BE016F5F7F4F0E94B1103A
:100D5000892B49F7BE016D5F7F4F812F0E94B11033
:100D6000892B09F7BE016B5F7F4F812F0E94B11065
:100D70008C01892BC1F649815A818B819C81841712
:100D8000950728F0342F252FAC01832F922F2D812A
:100D90003E814217530708F49A012817390708F4CF
:100DA0009C01A4E6B0E00E94BB136B3923E97207F3
:100DB00021E08207910548F42FEF33E040E050E056
:100DC0000E94DE13F7012083B0CF24E6FBCF41E081
:100DD00060E081E00E94C910009709F540E060E002
:100DE00081E00E943B110097D1F4109245031092CC
:100DF0004103109242031092430310924403109255
:100E00003D0310923E0310923F0310924003109254
:100E1000390310923A0310923B0310923C03089559
:100E2000CF93C82F81E090E0C23018F54C2F60E0DE
:100E300081E00E943B110097E1F4209145032130AD
:100E4000D0F4C130A1F44091390350913A0360913C
:100E50003B0370913C034F5F5F4F6F4F7F4F409359
:100E6000390350933A0360933B0370933C03C09360
:100E70004503CF910895D9F7C111F9CF10924103DD
:100E8000109242031092430310924403F0CF009754
:100E900039F020914503FC01208380E090E0089523
:100EA00081E090E00895009781F0409141035091D6
:100EB00042036091430370914403FC0140835183DA
:100EC0006283738380E090E0089581E090E008956C
:100ED000009781F040913D0350913E0360913F03A4
:100EE00070914003FC01408351836283738380E0EF
:100EF00090E0089581E090E00895009781F040919E
:100F0000390350913A0360913B0370913C03FC011B
:100F1000408351836283738380E090E0089581E091
:100F200090E0089580914503813031F5809141032F
:100F300090914203A0914303B09144030196A11DF7
:100F4000B11D8093410390934203A0934303B09358
:100F5000440380913D0390913E03A0913F03B091E3
:100F600040030196A11DB11D80933D0390933E0364
:100F7000A0933F03B093400380E090E0089541E0E8
:100F800064E081E00E94C910009729F440E064E029
:100F900081E00C943B1108950F931F93CF93DF933F
:100FA0000F92CDB7DEB71982BE016F5F7F4F0E94EF
:100FB000F7128C01892B51F441E064E081E00E943A
:100FC0003B1140E064E081E00E943B11C8010F90BA
:100FD000DF91CF911F910F91089541E062E081E090
:100FE0000E94C910009749F440E062E081E00E944D
:100FF0003B11009711F4109246030895CF93C82F28
:1010000081E090E0C23048F44C2F62E081E00E9421
:101010003B11009711F4C0934603CF9108950097B8
:1010200039F020914603FC01208380E090E0089590
:1010300081E090E00895009741F0FC01E05CFF4FF3
:10104000108231961082319610820895CF93DF93EB
:10105000009749F02FB7F894FC01EE5BFF4F308109
:10106000303430F02FBF81E090E0DF91CF910895D0
:10107000DC01A05CBF4F3C91830F911DEC016883A4
:101080008C918F5F803408F080E08C9380818F5F3B
:1010900080832FBF80E090E0E8CFCF93DF9300976D
:1010A00061F06115710549F02FB7F894FC01EE5B12
:1010B000FF4F3081311106C02FBF81E090E0DF91FA
:1010C000CF910895DC01AF5BBF4F3C91830F911D21
:1010D000EC018881EB0188838C918F5F803408F06C
:1010E00080E08C938081815080832FBF80E090E0EE
:1010F000E6CF009761F02FB7F894FC01EE5BFF4F4D
:1011000090812FBF81E0911519F080E0089581E072
:101110000895AC0120E0892B51F480E008958FE917
:10112000890F8A3108F490523913F7CF2F5FFB01F2
:10113000E20FF11D3081FA01E20FF11D90813111B2
:10114000EECF9D3061F038F4911549F0995081E06F
:10115000923018F7089581E09032F9F6089581E011
:101160000895DC01ED91FD911297309749F090813F
:10117000903239F087EF890F823018F09D3009F0F6
:1011800008953196ED93FD931297ECCF0C9489134B
:10119000CF93DF9384E094E00E941B0881E793E003
:1011A0000E948D0B1092470360E875E280E090E0AA
:1011B0000E946813EC01892B59F484E094E00E94AA
:1011C000B41381E00E94A813CE01DF91CF9108955E
:1011D000C1E0D0E0F9CF8EEE90E00E948F1385EF52
:1011E00090E00E948F138EEF90E00E948F1387E0B3
:1011F00091E00E948F138FE091E00E948F1389E1AC
:1012000091E00E948F1384E291E00E948F138BE2A1
:1012100091E00E948F1381E391E00E948F138BE392
:1012200091E00C948F1381E793E00E94A70B81114A
:1012300007C087E491E00E948F1380E090E008955A
:1012400066EC78E081E793E00E94B50BF6CF0F9350
:101250001F93CF93DF93CDB7DEB7A4970FB6F89463
:10126000DEBF0FBECDBF009789F483E591E00E94F9
:101270008F1381E090E0A4960FB6F894DEBF0FBE06
:10128000CDBFDF91CF911F910F9108958BA39CA3A8
:10129000CE0183960E94B1080BA11CA1F801980110
:1012A0002F5D3F4F8081811531F08D3021F0C0F4EA
:1012B00089508230B8F468E671E0C8010E9489085C
:1012C000811107C06FE671E0C8010E94890881158D
:1012D00081F080EB90E00E948F1380E090E0CBCF14
:1012E000803249F33196E217F307E1F68DE591E09C
:1012F000BECF67E771E0C8010E948908811519F027
:101300000E94EB08EACF6CE771E0C8010E948908EF
:10131000811529F00E946B0F80E891E0DCCF65E831
:1013200071E0C8010E948908811561F0A4960FB68A
:10133000F894DEBF0FBECDBFDF91CF911F910F910B
:101340000C9413096DE871E0C8010E9489088115A9
:1013500029F081E793E00E94B00BDECF67E971E0EE
:10136000C8010E9489088115C9F080910E031F925F
:101370008F938EE991E09F938F938E010F5F1F4FA4
:101380001F930F930E941115C8010E948F130F9095
:101390000F900F900F900F900F909FCF69EA71E020
:1013A000C8010E948908811531F160911203709182
:1013B000130380E090E00E94831420E030E040E2DC
:1013C00051E40E9411149F938F937F936F938FEA40
:1013D00091E09F938F938E010F5F1F4F1F930F9389
:1013E0000E941115C8010E948F130FB6F894DEBF3A
:1013F0000FBECDBF72CF6BEB71E0C8010E948908B0
:10140000811579F0809117038F93809116038F9344
:10141000809115038F93809114038F9383EC91E057
:10142000D8CF60ED71E0C8010E948908811549F0AC
:10143000809111038F93809110038F9389ED91E038
:101440009ACF66EE71E0C8010E948908811519F0F3
:101450008BEE91E040CF65E072E0C8010E94890800
:1014600081115ACF6FE072E0C8010E948908811192
:1014700053CF6BE172E0C8010E94890881114CCF03
:1014800063E272E0C8010E948908811145CF6CE2D5
:1014900072E0C8010E94890881113ECF65E372E0C5
:1014A000C8010E948908811137CF6FE372E0C8013B
:1014B0000E948908811130CF6AE472E0C8010E945D
:1014C0008908811129CF66E572E0C8010E94890868
:1014D000811519F08CE592E0FECEF80180818F7DB8
:1014E000833509F0C2CE81818F7D853409F0BDCE70
:1014F00082818F7D843509F0B8CE8381803219F0E6
:10150000893009F0B2CEF80184818F7D833509F0EE
:10151000ACCE85818F7D843509F0A7CE095F1F4F42
:1015200009A31AA3CE0181960E94B10889A19AA1AC
:1015300089839A83892B09F498CECE0101960E9463
:10154000B108E981FA81808180538A3008F08DCE1C
:10155000819180538A30E0F3DFCE0F931F93CF93B6
:10156000DF9300D00F92CDB7DEB78E010F5F1F4F14
:1015700084E094E00E947908811541F00F900F906B
:101580000F90DF91CF911F910F910895B80184E0E2
:1015900094E00E944D080A831B83892B79F7898187
:1015A000E09147038D3011F08A3069F4E11501F3C1
:1015B000F0E0E85BFC4F108288E493E00E9427098A
:1015C00010924703D5CFE83248F4AE2FB0E0A85BC5
:1015D000BC4F8C93EF5FE0934703CACF8DE591E05A
:1015E0000E948F1384E094E00E9479088111E8CF73
:1015F0006A817B8184E094E00E944D08892B01F789
:1016000089818D30E9F28A3069F7DACF1092470488
:1016100080E090E00895009779F0FC0186818E319A
:1016200030F481E08093470480E090E008958B35AA
:10163000D8F310924704F8CF81E090E008958091AC
:10164000470408958F929F92AF92BF92CF92DF92FC
:10165000EF92FF921F93CF93DF93CDB7DEB72A9718
:101660000FB6F894DEBF0FBECDBF6B017C014A01FF
:1016700041155105C9F1C114D104E104F104A1F4EB
:1016800080E3FA012A960FB6F894DEBF0FBECDBFF5
:10169000DF91CF911F91FF90EF90DF90CF90BF909F
:1016A000AF909F908F90099410E05E01FFEFAF1A0A
:1016B000BF0AB601C7012AE030E040E050E00E94D6
:1016C000DE13F501E10FF11D6083C601D701690149
:1016D0007A011F5F0A97A105B10558F77501E10E60
:1016E000F11CAE14BF0491F42A960FB6F894DEBF35
:1016F0000FBECDBFDF91CF911F91FF90EF90DF9094
:10170000CF90BF90AF909F908F900895F7018291F6
:101710007F01805DF4010995E4CF0097B9F0FC01E9
:101720009C0120573F4F1082118212821382148233
:1017300015821682178210863996E217F30799F7F9
:101740001082FC01EF56FF4F11921082089500970E
:1017500029F0FC01EE56FF4F8081089580E0089546
:10176000009711F00C948D0B08956F927F928F92D9
:101770009F92AF92BF92CF92DF92EF92FF920F9320
:101780001F93CF93DF93CDB7DEB728970FB6F894AA
:10179000DEBF0FBECDBF8C016F8378870097A1F0AD
:1017A000672B91F05C0182E9A80EB11CD5018C91E8
:1017B000811551F0912CF801E057FF4FED83FE8326
:1017C000D5018C919816A8F028960FB6F894DEBF34
:1017D0000FBECDBFDF91CF911F910F91FF90EF9082
:1017E000DF90CF90BF90AF909F908F907F906F9041
:1017F0000895AD81BE818C91815F89198F70F80148
:10180000B9E08B9FE00DF11D1124808081819281D0
:10181000A381B48189839A83AB83BC8375806680FE
:10182000E780F0848AE6C82E82E0D82ED6018D911A
:101830006D01EF81F8850995FEE6CF16F2E0DF062F
:10184000A9F7692D70E080E090E04F8158850E94F3
:10185000220B8CE2EF81F8850995682D70E080E01D
:1018600090E04F8158850E94220B8CE2EF81F88531
:1018700009954F81588569817A818B819C810E946D
:10188000220B8CE2EF81F8850995672D70E080E0EE
:1018900090E04F8158850E94220B8CE2EF81F88501
:1018A0000995662D70E080E090E04F8158850E9498
:1018B000220B8CE2EF81F8850995B70180E090E07A
:1018C0004F8158850E94220B8DE0EF81F8850995A4
:1018D0008AE0EF81F8850995939472CF40E061E04A
:1018E00081E00E94C910009711F40E942913109200
:1018F0004E0410924F0410924C0410924D0410921A
:1019000048041092490410924A0410924B0408951E
:101910000E943A1320914E0430914F04AC01421BB7
:10192000530B9A0180934E0490934F0440934C04C0
:1019300030934D048091480490914904A0914A0449
:10194000B0914B04840F951FA11DB11D80934804D5
:1019500090934904A0934A04B0934B0480E090E034
:10196000089560914C0470914D0480E090E022E075
:10197000660F771F881F991F2A95D1F723E030E063
:1019800040E050E00E94DE13C90108952091480410
:101990003091490440914A0450914B04A8EEB3E0C1
:1019A0000E94061422EC31E040E050E00E94DE1379
:1019B000B901CA01089510925F0410926004109258
:1019C0005D0410925E0410925B0410925C0410920D
:1019D000590410925A04109257041092580410920D
:1019E000550410925604109253041092540410920D
:1019F00052041092510408951092610410926204EE
:101A0000109250040E94DB0C80E090E008958091D9
:101A1000610490916204892B19F081E08093500455
:101A200080E090E00895CF93DF93DC01C0916104E2
:101A3000D0916204892BC9F0209709F446C08091A7
:101A40005004811591F0FE013197E930F10530F530
:101A5000E05FF74E0C94001416968C911697803622
:101A600020F451968C9182FF19C0CE01DF91CF9165
:101A7000089518968D919D911A97883E9340A8F7E6
:101A800051968C9180FDF1CF09C017968C911797D4
:101A9000893158F351968C9183FDE7CF1092610400
:101AA00010926204109250040E94DB0CC0E0D0E05F
:101AB000DCCF17968C918931C0F2F0CF8D919D913A
:101AC00001978E3F934088F6E9CF51969C915197AC
:101AD00092FD15C016968C911697833698F020913A
:101AE0005F0430916004283C310548F42F5F3F4F7C
:101AF00020935F0430936004283C310539F4C1E041
:101B0000D0E016C010925F041092600418964D91B8
:101B10005D911A9741346FE1560708F43FC0209158
:101B20005D0430915E042233310598F0C2E0D0E0CC
:101B300010925504109256041092530410925404BB
:101B4000C093610410926204109250040E94DB0C56
:101B50008CCF2F5F3F4F20935D0430935E04223380
:101B6000310521F393FDCCC017962C9117972A309D
:101B700008F4C6C090FF33C01A962D913D911C9772
:101B80002A30310538F52091590430915A04283E05
:101B900063E0360740F0C4E0D0E0CACF10925D04A5
:101BA00010925E04DFCF2F5F3F4F20935904309394
:101BB0005A04283E334079F3443F5140A0F4209129
:101BC0005B0430915C042C3241E0340788F0C5E0BE
:101BD000D0E0AECF1092590410925A04EDCF10927B
:101BE000590410925A0410925B0410925C0409C0CC
:101BF0002F5F3F4F20935B0430935C042C323140C5
:101C000031F354962D913D9156972538334008F085
:101C10007AC02D913D9112972115310519F02F3F72
:101C2000334009F52091570430915804243F41E096
:101C3000340718F0C7E0D0E07BCF2F5F3F4F2093F1
:101C4000570430935804243F3140A1F352962C910D
:101C50003AEF320F323010F0233051F41092550425
:101C60001092560419C01092570410925804EECFE7
:101C700090FD28C02091550430915604211531055E
:101C800081F4809352042F5F3F4F2093550430938B
:101C900056042037374149F01092530410925404EF
:101CA000E4CE203797E1390770F3909152048917F9
:101CB000A8F6292F281B330B2630310578F2C8E00F
:101CC000D0E036CF10925504109256042091530460
:101CD0003091540421153105C9F0203E4EE23407FD
:101CE000B8F0909151049817D0F4203E3E4208F489
:101CF000BCCE891B813009F0B8CEC9E0D0E020CF3E
:101D0000C3E0D0E015CFC6E0D0E012CF80935104FD
:101D10002F5F3F4F2093530430935404E2CF203E73
:101D20003E4208F4A2CEE9CFE4E6F4E0108211824C
:101D300012821382148215821682178210861186EF
:101D400012863C9684E0E43CF80781F781E08093BA
:101D5000630480E090E00895CF92DF92EF92FF92CB
:101D6000CF93DF93EC016A017B01809163048115BD
:101D7000F1F12097E1F18AE0C816D104E104F10401
:101D8000B0F1BA01C7012AE030E040E050E00E9423
:101D9000DE13672B682B692B51F5E4E6F4E080E055
:101DA00090E0228521111EC02CE0289FF001299F80
:101DB000F00D1124EC59FB4FC083D183C282D38232
:101DC000E482F582C682D782E086F186138681E0BE
:101DD000828780E090E0DF91CF91FF90EF90DF90DD
:101DE000CF90089501963C9688309105D1F681E018
:101DF00090E0F1CF80916304811541F1E4E6F4E0D5
:101E000021E082858130E9F486819781A085B185C2
:101E10008A309105A105B10538F00A97A109B109E9
:101E200086839783A087B187892B8A2B8B2B49F4D4
:101E300082819381A481B58186839783A087B187AE
:101E400023873C9684E0E43CF807D9F60895CF93C5
:101E5000DF9380916304811589F0C4E6D4E08A851C
:101E6000813039F48B85813021F41B86E881F9813A
:101E700009952C9684E0C43CD80789F7DF91CF916F
:101E8000089581E00E94100781E00C94FE0780E035
:101E90000E94100780E00C94FE071092C804109274
:101EA000C9041092C6041092C70484EF91E0809395
:101EB0007E0090937F001092C50480E00E9410077E
:101EC000009719F480E00C94FE0708958091C804EF
:101ED0009091C904089581E08093C5040E94070D84
:101EE000009729F421E02093C8041092C9040895B2
:101EF000EF92FF920F931F93CF93DF9300D000D008
:101F000000D0CDB7DEB78C011D821E821B821C82E1
:101F100019821A8281E090E00115110509F4ADC023
:101F2000F801818980FD43C080917E0090917F00FF
:101F3000843FF1E09F0728F4019680937E00909300
:101F40007F00BE016B5F7F4F80E090E00E947A04CB
:101F5000BE016D5F7F4F81E090E00E947A04BE0178
:101F60006F5F7F4F82E090E00E947A04C8010E9478
:101F7000130D7C01892B79F00E94470F8091C804D2
:101F80009091C904059711F01092C50485E08093E3
:101F9000C8041092C90489819A810397029710F4AA
:101FA0000E946B0FEF2841F00E94470F64C010920F
:101FB0007E0010927F00C5CFE091C804F091C90463
:101FC0008D819E81039709F042C0E630F105A9F4A6
:101FD0001092C4040E94470F81E08093C8041092BD
:101FE000C9040E94470F1092C6041092C704F8015A
:101FF00087818931E0F584E055C0CF0101970297D0
:1020000030F51092C4040E94470F86E08093C80404
:102010001092C9048B819C81039789F48091C40438
:10202000811175C080917E0090917F00843F914026
:1020300008F4BACF81E08093C4040E94410F8091DC
:10204000C404811509F4B0CF0E94410F14C0E830D8
:10205000F10508F061C0E75EF74E0C9400140E9491
:10206000470F1092C6041092C70481E01BC00E9463
:102070001F0B81110FC080E090E00F900F900F9028
:102080000F900F900F90DF91CF911F910F91FF90C4
:10209000EF90089580917E0090917F00843F914061
:1020A00050F382E08093C8041092C904E4CFF80191
:1020B0008781893118F40E94470F9DCF0E941F0B22
:1020C0008111C2CF0E94470F1092C6041092C7041C
:1020D00083E0E8CF0E94470F8091C6049091C70427
:1020E000843FF1E09F0708F0BCCF01968093C604BF
:1020F0009093C704843F914009F0BDCFB2CF0E94B6
:10210000470FF8018781893108F4B5CFAECF10921F
:10211000C4040E94470F93CF0E94470F85E0C2CFAF
:102120008091C8049091C904059721F481E09091B1
:10213000C504911180E00895823010F0833071F46D
:102140009FEF960F973050F48295880F880F807C10
:1021500087B9606866B980E090E0089581E090E01A
:102160000895883098F46115710581F097B1907EDB
:10217000982B97B9369A349BFECF349A84B125B107
:10218000FB018083218380E090E0089581E090E06E
:102190000895843008F06CC0683008F069C043309E
:1021A00008F066C021E030E0F90101C0EE0F6A9549
:1021B000EAF76E2F413028F560958230A1F0833028
:1021C000C9F0813039F08AB386238ABB8BB386236A
:1021D0008BBB06C087B3862387BB88B3862388BBA7
:1021E00080E090E0089584B3862384BB85B3862382
:1021F00085BBF6CF81B3862381BB82B3862382BBA6
:10220000EFCFB1F4823061F0833071F0813021F092
:102210008AB38E2B8ABBE4CF87B38E2B87BBE0CFEC
:1022200084B38E2B84BBDCCF81B38E2B81BBD8CF04
:102230009E2F9095823081F08330A1F0813031F073
:102240008AB389238ABB8BB38E2BC2CF87B38923F2
:1022500087BB88B38E2BC3CF84B3892384BB85B35C
:102260008E2BC6CF81B3892381BB82B38E2BC7CF80
:1022700081E090E008958430C8F56830B8F54230C8
:10228000A8F521E030E0F90101C0EE0F6A95EAF708
:102290006E2F4130C1F4823061F0833081F08130A3
:1022A00021F08BB38E2B8BBB07C088B38E2B88BBE2
:1022B00003C085B38E2B85BB80E090E0089582B388
:1022C0008E2B82BBF9CF6095823051F0833059F06C
:1022D000813019F08BB38623E6CF88B38623E7CF0E
:1022E00085B38623E8CF82B38623EBCF81E090E0ED
:1022F0000895FA018430E0F46830D0F43097C1F0EA
:10230000823091F0833091F0813061F089B390E0B8
:1023100002C0959587956A95E2F78170808380E089
:1023200090E0089586B3F3CF83B3F1CF80B3EFCFBE
:1023300081E090E008959B01AC0121153105410534
:102340005105B9F060E072E18AE790E00E94DE1387
:1023500020513109410951095695479537952795DF
:1023600020B981B18C7F81B984E086BF80E090E0A4
:10237000089581E090E0089584EA86BF06B607FEDE
:10238000FDCF91B1987F21E030E0983009F420E052
:10239000C901089584E986BF0895880F83B984E848
:1023A00086BF06B607FEFDCF91B1987F21E030E0F1
:1023B000983109F420E0C901089583B984E886BF03
:1023C00006B607FEFDCF91B1987F21E030E098324C
:1023D00009F420E0C90108958FB780688FBF80E0BD
:1023E00090E00895813079F08230C1F0811121C0F0
:1023F0006430F8F485B78C7F85BF85B7862B85BFA1
:1024000080E090E008956430A0F485B7837F85BFB5
:1024100085B7660F660F682B65BFF2CF623021F477
:1024200084B78F7B84BFECCF633019F484B78064AA
:10243000F9CF81E090E00895813051F0823059F079
:1024400081110CC08AB780648ABF80E090E0089553
:102450008AB78068F9CF8AB78062F6CF81E090E0D2
:102460000895813069F0823089F0811115C08AB7F2
:1024700080648ABF8BB780648BBF80E090E0089552
:102480008AB780688ABF8BB78068F6CF8AB78062C8
:102490008ABF8BB78062F0CF81E090E0089561152C
:1024A0007105B9F0813059F0823071F0811111C09D
:1024B0006093CE047093CF0480E090E00895609321
:1024C000CC047093CD04F8CF6093CA047093CB040E
:1024D000F3CF81E090E008951F920F920FB60F9214
:1024E00011242F933F934F935F936F937F938F9319
:1024F0009F93AF93BF93EF93FF93E091CE04F0913E
:10250000CF04309709F00995FF91EF91BF91AF91FA
:102510009F918F917F916F915F914F913F912F91FB
:102520000F900FBE0F901F9018951F920F920FB62D
:102530000F9211242F933F934F935F936F937F9349
:102540008F939F93AF93BF93EF93FF93E091CC044E
:10255000F091CD04309709F00995FF91EF91BF916B
:10256000AF919F918F917F916F915F914F913F912B
:102570002F910F900FBE0F901F9018951F920F92E2
:102580000FB60F9211242F933F934F935F936F9346
:102590007F938F939F93AF93BF93EF93FF93E091BC
:1025A000CA04F091CB04309709F00995FF91EF919F
:1025B000BF91AF919F918F917F916F915F914F915B
:1025C0003F912F910F900FBE0F901F901895843060
:1025D00058F4BC9ABD9ABE98BF9AC49A80658DB9CA
:1025E000709880E090E0089581E090E00895611592
:1025F000710549F08FB9779BFECF8FB1FB018083C6
:1026000080E090E0089581E090E0089588E083BF45
:102610008CE78CBF12BE83B7887F83BF80E090E0D9
:102620000895AC0182E088BF93B7936093BF20E028
:1026300030E02417350731F483B7887F83BF80E00B
:1026400090E0089508B601FEFDCF88BF2F5F3F4F91
:10265000F0CF8EB5887F8EBD8FB58C7F8FBD8EB548
:10266000877E8EBD1DBC1CBC8EB587608EBD80E094
:1026700090E008958CB59DB508951F920F920FB606
:102680000F9211242F933F934F935F936F937F93F8
:102690008F939F93AF93BF93EF93FF936CB1809110
:1026A000D0049091D104009711F00E942608FF9168
:1026B000EF91BF91AF919F918F917F916F915F91BA
:1026C0004F913F912F910F900FBE0F901F90189533
:1026D000009770406040D1F09B01AC0184E0220F74
:1026E000331F441F551F8A95D1F760E072E18AE7D6
:1026F00090E00E94DE132150310930BD29B986E8EF
:1027000080BD88E18AB980E090E0089581E090E0A2
:1027100008955D9BFECF8CB980E090E008950F9303
:102720001F93CF938C01C0E0892B31F481E090E0BE
:102730000BC00E948913CF5FF801EC0FF11D80815F
:102740008111F7CF80E090E0CF911F910F91089514
:10275000813021F4579A80E090E0089510F4579862
:10276000FACF81E090E008958093D0049093D10453
:1027700080E090E00895A29FB001B39FC001A39FA5
:10278000700D811D1124911DB29F700D811D1124AA
:10279000911D0895AA1BBB1B51E107C0AA1FBB1FB7
:1027A000A617B70710F0A61BB70B881F991F5A95DD
:1027B000A9F780959095BC01CD010895A1E21A2E4C
:1027C000AA1BBB1BFD010DC0AA1FBB1FEE1FFF1FD5
:1027D000A217B307E407F50720F0A21BB30BE40B25
:1027E000F50B661F771F881F991F1A9469F760956C
:1027F0007095809590959B01AC01BD01CF01089526
:10280000EE0FFF1F0590F491E02D09940E94BB1379
:10281000A59F900DB49F900DA49F800D911D112434
:1028200008950E9425140C94D7140E94D01458F0D7
:102830000E94C91440F029F45F3F29F00C94C014A1
:1028400051110C940B150C94C6140E94E81468F3F3
:102850009923B1F3552391F3951B550BBB27AA2759
:1028600062177307840738F09F5F5F4F220F331F93
:10287000441FAA1FA9F335D00E2E3AF0E0E832D05B
:1028800091505040E695001CCAF72BD0FE2F29D05E
:10289000660F771F881FBB1F261737074807AB0730
:1028A000B0E809F0BB0B802DBF01FF2793585F4FA5
:1028B0003AF09E3F510578F00C94C0140C940B151F
:1028C0005F3FE4F3983ED4F3869577956795B79587
:1028D000F7959F5FC9F7880F911D9695879597F992
:1028E0000895E1E0660F771F881FBB1F621773070B
:1028F0008407BA0720F0621B730B840BBA0BEE1F20
:1029000088F7E0950895E89409C097FB3EF4909508
:102910008095709561957F4F8F4F9F4F9923A9F0B8
:10292000F92F96E9BB279395F69587957795679547
:10293000B795F111F8CFFAF4BB0F11F460FF1BC08B
:102940006F5F7F4F8F4F9F4F16C0882311F096E91E
:1029500011C0772321F09EE8872F762F05C06623CC
:1029600071F096E8862F70E060E02AF09A95660F85
:10297000771F881FDAF7880F9695879597F908953E
:1029800097F99F6780E870E060E008959FEF80EC22
:10299000089500240A9416161706180609060895C5
:1029A00000240A9412161306140605060895092E2B
:1029B0000394000C11F4882352F0BB0F40F4BF2B9A
:1029C00011F460FF04C06F5F7F4F8F4F9F4F0895DA
:1029D00057FD9058440F551F59F05F3F71F04795D0
:1029E000880F97FB991F61F09F3F79F087950895B5
:1029F000121613061406551FF2CF4695F1DF08C0D4
:102A0000161617061806991FF1CF869571056105F0
:102A100008940895E894BB2766277727CB0197F998
:102A20000895AEE0B0E0E7E1F5E10C94E71786E049
:102A30008C832B893C8929833A838FEF9FE78D8391
:102A40009E83AE01495E5F4F6D897E89CE010196FE
:102A50000E943515EF81F8852B893C89E20FF31F21
:102A600010822E96E2E00C940318ACE0B0E0EBE3A9
:102A7000F5E10C94DA175C016B017A01FC01168216
:102A80001782838181FFD3C12AE0522EF501238171
:102A9000F60123FD859123FF81916F01811509F4D2
:102AA0002CC1853239F423FD959123FF91916F015B
:102AB000953229F4B50190E00E943017E7CF30E05D
:102AC000712C00E010E0103210F59B32C9F050F488
:102AD0009032B9F09332C9F09E3261F516FD0DC106
:102AE000106405C09D3279F0903399F41160F601BD
:102AF00023FD959123FF91916F019111E4CF23C0A4
:102B000012601460F4CF1860F2CF1061F0CF17FD9F
:102B10001AC080ED890F8A30F8F616FF05C0759C43
:102B2000800D1124782EE3CF059D800D1124082FF0
:102B30001062DDCF9C3611F41068D9CF9C3409F4B3
:102B400040C09836A1F2892F8F7D85548330D8F10B
:102B5000933609F45FC0933709F46AC0933509F4DA
:102B600076C0943619F0993609F0A2C0F70117FF24
:102B700098C061917191819191917F011F7697FF2A
:102B800003C00E94CF1710682AE030E04E014FEFDB
:102B9000841A940AA4010E947117682E681816FFFF
:102BA000D2C0812F8E7F671408F0CCC014FF1DC1E6
:102BB00012FD11C11E7E972C812F867809F4CEC09C
:102BC0000FC131E094CF311509F1F8E0EF0EF11C9F
:102BD0008FE3898391E0692E712C4E018FEF881A63
:102BE000980A1F7713FD04C06016710408F43FC0F3
:102BF0006114710409F042C0011509F447CFB50111
:102C000080E290E00E9430170150F6CF44E0E40EDD
:102C1000F11CDECFF70180818983F2E0EF0EF11C19
:102C200081E0682E712C4E014FEF841A940AD9CF9F
:102C3000F701819091907F01672D70E016FD02C031
:102C40006FEF7FEFC4010E9425173C01CACFF70147
:102C5000819091907F01672D70E016FD02C06FEFAB
:102C60007FEFC4010E941A173C011068BBCFB50169
:102C700080E290E00E9430170150B6CFF40117FDBA
:102C8000859117FF81914F01B50190E00E943017A7
:102C900081E0011101C080E0081BF1E06F1A7108AA
:102CA000A7CF61917191872F880F880B982F65CFDF
:102CB0009537C9F41F7E1C872AE030E0FC85F7FFBA
:102CC0003BC0F70161917191819191917F014E011A
:102CD0004FEF841A940AA4010E947117682E681895
:102CE0001C851F775CCF812F897F8C87903799F067
:102CF00058F49835B9F09F36E1F0F5018681978157
:102D00002C96EFE00C94F6179837B9F714FD06C02F
:102D100020E130E0D3CF9C8590619C87EC85E46016
:102D2000EC87F6CF14FF02C016601C8720E132E06A
:102D3000C5CF28E030E0C2CFF7016191719180E00A
:102D400090E0C4CF182F962C14FF36CFFE01E60D6D
:102D5000F11D8081803309F041C0197E13FD0EC042
:102D600010FF4FC0762C901618F4700E7918902E24
:102D7000802F8919091508F480E0980E901608F044
:102D800042C0091914FF41C0B50180E390E00E94E0
:102D9000301712FF09C088E590E011FD02C088E7F6
:102DA00090E0B5010E9430176714D0F14E018FEF0B
:102DB000881A980A6A94FE013296E60DF11D3F01C9
:102DC000F30182913F01B50190E00E943017681431
:102DD0007904B1F711CF972C182FB8CF12FD02C08C
:102DE0009394BCCF93949394B9CF972C182FE4CE9F
:102DF000B50180E290E00E94301783948016C0F302
:102E0000B7CF892CFBCF00E0BDCF812F867861F250
:102E100080E211FD8BE217FD8DE2B50190E0C2CF9B
:102E2000B50180E390E00E9430177A94BDCF8FEF18
:102E30009FEF66CFFC010590615070400110D8F7FC
:102E4000809590958E0F9F1F0895FC0161507040F2
:102E500001900110D8F7809590958E0F9F1F0895CF
:102E6000A3E0B0E0E6E3F7E10C94E617182F9983AE
:102E70006A837B83DB0113968C9181FD09C01FEF70
:102E8000BFEFB983812F99812396E3E00C94021858
:102E900082FF1BC0EA81FB81268137818481958175
:102EA0002817390754F40190F081E02DCF010196E5
:102EB000AA81BB818D939D931083EA81FB818681DA
:102EC0009781019686839783DDCFAA81BB8118966F
:102ED000ED91FD911A97BD01812F0995892B69F319
:102EE000CECFFA01AA27283051F1203181F1E894A0
:102EF0006F936E7F6E5F7F4F8F4F9F4FAF4FB1E0ED
:102F00003ED0B4E03CD0670F781F891F9A1FA11DE7
:102F1000680F791F8A1F911DA11D6A0F711D811DE8
:102F2000911DA11D20D009F468943F912AE0269FAD
:102F300011243019305D3193DEF6CF010895462F0C
:102F40004770405D4193B3E00FD0C9F7F6CF462FED
:102F50004F70405D4A3318F0495D31FD4052419356
:102F600002D0A9F7EACFB4E0A69597958795779513
:102F70006795BA95C9F700976105710508959B019A
:102F8000AC010A2E06945795479537952795BA9523
:102F9000C9F7620F731F841F951FA01D0895909598
:102FA0008095709561957F4F8F4F9F4F08952F9219
:102FB0003F924F925F926F927F928F929F92AF92C9
:102FC000BF92CF92DF92EF92FF920F931F93CF9316
:102FD000DF93CDB7DEB7CA1BDB0B0FB6F894DEBFAD
:102FE0000FBECDBF09942A88398848885F846E84D3
:102FF0007D848C849B84AA84B984C884DF80EE801D
:10300000FD800C811B81AA81B981CE0FD11D0FB625
:10301000F894DEBF0FBECDBFED010895F894FFCF49
:103020002C0D390D450D590D400D400D5E0D400D17
:10303000400D2F10F10F57106A107F10D40F0A1097
:02304000D40FAB
:103042000400000000000000000005000000000075
:103052000000000003000000000000000000F40176
:103062004D4F44453A204D414E55414C004D4F4441
:10307200453A204155544F004C3A002520523A001F
:103082002500463A002E004C2F6D200052554E006E
:103092002457542C4C3D302C523D302C493D302C81
:1030A200513D302C563D302C503D302C56323D3067
:1030B2002C53543D494E49542C54523D302C5255B8
:1030C2004E3D302C55503D302A33410D0A004845C3
:1030D2004C500D0A005354415455530D0A004C45AF
:1030E20056454C3F0D0A00464C4F573F0D0A0056BD
:1030F2004F4C554D453F0D0A0043555252454E54D3
:103102003F0D0A004346473F0D0A0041434B0D0A5B
:10311200004641554C54533F0D0A00434C52464120
:10312200554C54530D0A004E4F204641554C5453B2
:103132000D0A0045525220434D440D0A0045525299
:10314200204C4F4E470D0A005354415455530053DF
:1031520054415455533F0048454C500041434B00A5
:103162004F4B0D0A004641554C54533F00434C52BD
:103172004641554C5453004C4556454C3F004C4536
:1031820056454C3D25750D0A00464C4F573F0046AB
:103192004C4F573D252E31660D0A00564F4C554D6A
:1031A200453F00564F4C554D453D256C750D0A0067
:1031B20043555252454E543F0043555252454E5488
:1031C2003D25750D0A004346473F004346473D30C3
:1031D2002C302C302C302C302C302C302C302C300D
:1031E2002C300D0A004D4F4445204155544F004D9F
:1031F2004F4445204D414E55414C0050554D5020B5
:103202004F4E0050554D50204F46460056414C56A9
:1032120045204F4E0056414C5645204F46460053DE
:10322200455256494345204F4E0053455256494355
:1032320045204F464600545249503F00545249508F
:103242003D302C4E4F4E450D0A00464C542C00008A
:00000001FF
