:100000000C942A000C9429020C9452020C947B024A
:100010000C9447000C9447000C9447000C94470044
:100020000C9447000C9447000C9447000C94470034
:100030000C9447000C94E6020C9447000C94470083
:100040000C9447000C9447000C9447000C94470014
:100050000C94470011241FBECFE5D8E0DEBFCDBF12
:1000600010E0A0E6B0E0EAE6F6E002C005900D92EE
:10007000A036B107D9F720E0A0E6B0E001C01D929C
:10008000AA3CB207E1F70E944F000C9433030C9492
:100090000000809160008F5F80936000089581E090
:1000A0000E94A4020E9477000E94C3020E94CC001A
:1000B00048EC50E060E070E089E490E00E94E400E9
:1000C000C0E9D1E08AE090E00E94CE020E943201B5
:1000D0000E945F010E945F010E945F010E945F0118
:1000E000219781F7809160000E948400FFCF41E05A
:1000F00064E081E00E947901009729F440E064E027
:1001000081E00C94EB0108950F931F93CF93DF933D
:100110000F92CDB7DEB71982BE016F5F7F4F0E948D
:10012000B4028C01892B51F441E064E081E00E942B
:10013000EB0140E064E081E00E94EB01C8010F9018
:10014000DF91CF911F910F910895CF93DF93009787
:1001500049F02FB7F894FC01EE5BFF4F308130344B
:1001600030F02FBF81E090E0DF91CF910895DC0166
:10017000A05CBF4F3C91830F911DEC0168838C9173
:100180008F5F803408F080E08C9380818F5F808364
:100190002FBF80E090E0E8CFE2E6F0E0108211822D
:1001A000128213821482158216821782108611869B
:1001B00012863C9680E0E23CF80781F781E080936C
:1001C000610080E090E00895CF92DF92EF92FF927D
:1001D000CF93DF93EC016A017B018091610081156F
:1001E000F1F12097E1F18AE0C816D104E104F104AD
:1001F000B0F1BA01C7012AE030E040E050E00E94CF
:100200001103672B682B692B51F5E2E6F0E080E0E3
:1002100090E0228521111EC02CE0289FF001299F2B
:10022000F00D1124EE59FF4FC083D183C282D382D7
:10023000E482F582C682D782E086F186138681E069
:10024000828780E090E0DF91CF91FF90EF90DF9088
:10025000CF90089501963C9688309105D1F681E0C3
:1002600090E0F1CF80916100811541F1E2E6F0E08C
:1002700021E082858130E9F486819781A085B1856E
:100280008A309105A105B10538F00A97A109B10995
:1002900086839783A087B187892B8A2B8B2B49F480
:1002A00082819381A481B58186839783A087B1875A
:1002B00023873C9680E0E23CF807D9F60895CF9377
:1002C000DF9380916100811589F0C2E6D0E08A85D4
:1002D000813039F48B85813021F41B86E881F981E6
:1002E00009952C9680E0C23CD80789F7DF91CF9121
:1002F0000895843008F06CC0683008F069C043305D
:1003000008F066C021E030E0F90101C0EE0F6A9507
:10031000EAF76E2F413028F560958230A1F08330E6
:10032000C9F0813039F08AB386238ABB8BB3862328
:100330008BBB06C087B3862387BB88B3862388BB65
:1003400080E090E0089584B3862384BB85B3862340
:1003500085BBF6CF81B3862381BB82B3862382BB64
:10036000EFCFB1F4823061F0833071F0813021F051
:100370008AB38E2B8ABBE4CF87B38E2B87BBE0CFAB
:1003800084B38E2B84BBDCCF81B38E2B81BBD8CFC3
:100390009E2F9095823081F08330A1F0813031F032
:1003A0008AB389238ABB8BB38E2BC2CF87B38923B1
:1003B00087BB88B38E2BC3CF84B3892384BB85B31B
:1003C0008E2BC6CF81B3892381BB82B38E2BC7CF3F
:1003D00081E090E008958430C8F56830B8F5423087
:1003E000A8F521E030E0F90101C0EE0F6A95EAF7C7
:1003F0006E2F4130C1F4823061F0833081F0813062
:1004000021F08BB38E2B8BBB07C088B38E2B88BBA0
:1004100003C085B38E2B85BB80E090E0089582B346
:100420008E2B82BBF9CF6095823051F0833059F02A
:10043000813019F08BB38623E6CF88B38623E7CFCC
:1004400085B38623E8CF82B38623EBCF81E090E0AB
:1004500008951F920F920FB60F9211242F933F937E
:100460004F935F936F937F938F939F93AF93BF93BC
:10047000EF93FF93E091C600F091C700309709F029
:100480000995FF91EF91BF91AF919F918F917F91CE
:100490006F915F914F913F912F910F900FBE0F90F1
:1004A0001F9018951F920F920FB60F9211242F9341
:1004B0003F934F935F936F937F938F939F93AF93EC
:1004C000BF93EF93FF93E091C400F091C500309784
:1004D00009F00995FF91EF91BF91AF919F918F9195
:1004E0007F916F915F914F913F912F910F900FBE30
:1004F0000F901F9018951F920F920FB60F92112414
:100500002F933F934F935F936F937F938F939F931B
:10051000AF93BF93EF93FF93E091C200F091C300BC
:10052000309709F00995FF91EF91BF91AF919F919D
:100530008F917F916F915F914F913F912F910F908C
:100540000FBE0F901F901895843058F4BC9ABD9A36
:10055000BE98BF9AC49A80658DB9709880E090E08B
:10056000089581E090E008956115710549F08FB913
:10057000779BFECF8FB1FB01808380E090E00895F0
:1005800081E090E0089588E083BF8CE78CBF12BEC5
:1005900083B7887F83BF80E090E00895AC0182E05C
:1005A00088BF93B7936093BF20E030E024173507EE
:1005B00031F483B7887F83BF80E090E0089508B668
:1005C00001FEFDCF88BF2F5F3F4FF0CF1F920F92EC
:1005D0000FB60F9211242F933F934F935F936F9316
:1005E0007F938F939F93AF93BF93EF93FF936CB1E0
:1005F0008091C8009091C900009711F00E94A50059
:10060000FF91EF91BF91AF919F918F917F916F91EA
:100610005F914F913F912F910F900FBE0F901F90C0
:100620001895A1E21A2EAA1BBB1BFD010DC0AA1F23
:10063000BB1FEE1FFF1FA217B307E407F50720F04B
:10064000A21BB30BE40BF50B661F771F881F991FC6
:100650001A9469F760957095809590959B01AC010F
:0A066000BD01CF010895F894FFCF0B
:00000001FF
