:100000000C942A000C9468130C9491130C94BA135A
:100010000C9447000C9447000C9447000C94470044
:100020000C9447000C9447000C9447000C94470034
:100030000C9447000C9439140C9447000C9447001E
:100040000C9447000C9447000C9447000C94470014
:100050000C94470011241FBECFE5D8E0DEBFCDBF12
:1000600015E0A0E6B0E0ECE4F0E302C005900D92EC
:10007000A634B107D9F727E0A6E4B5E001C01D9288
:10008000AC3AB207E1F70E9490020C940A180C9463
:100090000000CF93DF93CDB7DEB728970FB6F89463
:1000A000DEBF0FBECDBF2091EA053091EB0529835D
:1000B0003A830E9455108D839E838091E80590912C
:1000C000E9058B839C8380914B0590914C052D8194
:1000D0003E812630310571F5069719F082E0809354
:1000E0004A058D819E8180934B0590934C050E941B
:1000F000A70680914A05811501F160E080E00E9429
:100100009A062D813E8180E890E02630310511F07D
:100110008DE890E00E94870680914A058150809387
:100120004A0528960FB6F894DEBF0FBECDBFDF910B
:10013000CF9108950697A9F6D1CF89819A816AE077
:1001400070E00E94C61469837A838F8398878B81BD
:100150009C8168EE73E00E94C6146B837C838D8360
:100160009E8360E080E00E949A0688E990E00E9409
:1001700087068091E60590E00E94B1068BE990E049
:100180000E9487068091E70590E00E94B10680EA10
:1001900090E00E9487068B819C810E94B10683EAD1
:1001A00090E00E9487068D819E8164E670E00E9447
:1001B000C614CB010E94B10685EA90E00E94870632
:1001C00060E081E00E949A060E945510059709F0B0
:1001D00043C080914805833090F48F5F8093480539
:1001E0008091490581113CC0E091F305E150E9306F
:1001F00008F097CFF0E0E45FF74E0C94FC14809188
:1002000049051092480591E0892780934905E8CF78
:1002100087EA90E028960FB6F894DEBF0FBECDBFF8
:10022000DF91CF910C94870687EB90E0F3CF8AECB7
:1002300090E0F0CF8FED90E0EDCF8EEE90E0EACF42
:1002400080E091E0E7CF83E191E0E4CF87E291E0C5
:10025000E1CF83E391E0DECF10924805109249058B
:100260008091F10580FF21C082E491E00E94870621
:100270008EE491E00E94870689819A810E94B106EE
:1002800083EA90E00E9487068F8198850E94B106DC
:1002900081EA90E00E9487068091EC059091ED053F
:1002A0000E94B1068BE890E0B5CF88E491E0DECF04
:1002B00080E00E948E0780E00C947C080F931F93CF
:1002C000CF93DF93CDB7DEB729970FB6F894DEBF93
:1002D0000FBECDBF8E010B5F1F4FB80180E00E94A3
:1002E000AD11B801892B31F48D819E818093E00599
:1002F0009093E10581E00E94AD11892B31F48D814D
:100300009E818093E2059093E3058E01075F1F4F66
:10031000B80180E00E940207B801892B19F4898591
:100320008093E60581E00E940207892B19F48985F4
:100330008093E70588EE95E00E94A705892B21F0C0
:100340001092E8051092E9050E949C0D8093EA0541
:100350009093EB050E94B10D28EE33E040E050E0B1
:100360000E94DA142093EC053093ED054093EE05DE
:100370005093EF050E94F4059091F10580FB92F9EE
:100380009093F1050E94F7059091F10580FB93F998
:100390009093F105CE0108960E94C507892B09F0BC
:1003A0004DC0888581709091F10580FB90F9909304
:1003B000F105CE0107960E948D08892B09F040C0F7
:1003C0008F8181709091F10580FB91F99093F105F7
:1003D0008E010F5F1F4FC8010E94D107892B91F535
:1003E00089819A818093F4059093F50586EF95E0D5
:1003F0000E94E607892B41F01092F6051092F7054E
:100400001092F8051092F905C8010E94FB07892B8C
:10041000E1F489819A818093FA059093FB050E940B
:1004200055108093F20529960FB6F894DEBF0FBEE3
:10043000CDBFDF91CF911F910F91089580E0B3CF91
:1004400080E0C0CF80E090E0CDCF80E090E0E3CFCF
:100450000E9410080E94730D8091FC059091FD058B
:10046000A091FE05B091FF050196A11DB11D8093DD
:10047000FC059093FD05A093FE05B093FF050C9439
:100480005E0183E00E9488040E94CC050E9434052E
:100490000E945E0180EE95E00E94F60B80EE95E0F2
:1004A0000E946B100E9455108093F2050E949311D8
:1004B0008093F3050E948711811569F180914605AB
:1004C000909147050196809346059093470541E03A
:1004D0008431910520F08436910530F440E063E0EA
:1004E00081E00E94371204C0109246051092470521
:1004F0008091F10541E080FF40E066E082E00E94EB
:1005000037120E94551041E0059709F040E067E07E
:1005100082E00C9437121092460510924705DECF08
:100520001092E0051092E1051092E2051092E305A9
:100530001092E4051092E5051092E6051092E70589
:100540001092E8051092E9051092EA051092EB0569
:100550001092EC051092ED051092EE051092EF0549
:100560001092F0058091F105807F8093F105109243
:10057000F2051092F3051092F4051092F505109211
:10058000F6051092F7051092F8051092F9051092F1
:10059000FA051092FB051092FC051092FD051092D1
:1005A000FE051092FF0541E066E082E00E94C51161
:1005B00040E066E082E00E94371241E067E082E0BE
:1005C0000E94C51140E067E082E00E9437120E945D
:1005D000021480E00E94FE0681E00E94E3130E9464
:1005E0003D080E9465070E946B0841E063E081E0DE
:1005F0000E94C51140E063E081E00E9437120E9432
:10060000B6050E94130583E00E94400482E00E9428
:1006100005040E94590D60EA76E881E090E00E94AE
:1006200097120E9433060E94F10B0E94E70D0E9470
:1006300038108DE495E00E94780C0E942E0968E540
:1006400071E080E00E944B1362E080E00E94EE12B5
:1006500080E00E94181380E00E942D130E94E8128F
:100660000E947F0F4AE050E060E070E081E492E099
:100670000E94970F44EF51E060E070E089E490E061
:100680000E94970F48EE53E060E070E088E292E04D
:100690000E94970F0E945E010E9455108093F20500
:1006A0008AE090E00E940D140E94E50F0E94121053
:1006B0000E94980B0E9455109C019091F105892F82
:1006C000817091FD826092FD846093FD8860253089
:1006D000310549F480610E944A086091E60582E094
:1006E0000E947D03DDCF2630310511F48062F3CF07
:1006F0002730310581F78064EECFFF920F931F936F
:10070000CF93DF9300D00F92CDB7DEB7898381E01E
:1007100090E0653690F56931C8F16233E0F16B34F1
:10072000F0F111E06F3508F410E001E0F02E41E047
:1007300062E089810E9437128A839B834F2D63E098
:1007400089810E9437122A813B81282B392B2A83E9
:100750003B83402F64E089810E9437122A813B81CC
:10076000282B392B2A833B83412F65E089810E9406
:1007700037122A813B81822B932B0F900F900F9081
:10078000DF91CF911F910F91FF90089500E0F12C20
:1007900040E010E0CDCF00E0F12C41E0FACF00E0E6
:1007A000FF24F394FACFCF93DF9300D00F92CDB70D
:1007B000DEB7898340E062E00E9437128A839B8320
:1007C00040E063E089810E9437122A813B81282B17
:1007D000392B2A833B8340E064E089810E943712F1
:1007E0002A813B81282B392B2A833B8340E065E01B
:1007F00089810E9437122A813B81822B932B0F9093
:100800000F900F90DF91CF910895CF93DF9300D099
:100810000F92CDB7DEB7898341E062E00E94C51137
:100820008A839B8341E063E089810E94C5112A810C
:100830003B81282B392B2A833B8341E064E089816B
:100840000E94C5112A813B81282B392B2A833B83A7
:1008500041E065E089810E94C5112A813B81282BF6
:10086000392B2A833B8389810E94D3032A813B81D0
:10087000822B932B0F900F900F90DF91CF910895C3
:10088000CF93DF9300D00F92CDB7DEB7898340E0DE
:1008900064E00E94C5118A839B8340E065E0898102
:1008A0000E94C5112A813B81282B392B2A833B8347
:1008B00040E063E089810E94C5112A813B81282B99
:1008C000392B2A833B8341E064E089810E943712FF
:1008D0002A813B81282B392B2A833B8341E065E029
:1008E00089810E9437122A813B81282B392B2A8348
:1008F0003B8341E063E089810E9437122A813B817A
:10090000822B932B0F900F900F90DF91CF91089532
:10091000FF920F931F93CF93DF9300D0CDB7DEB735
:100920008A8300E610E0F12CAE014F5F5F4FF801C3
:1009300060818A810E94751291E08981811190E025
:10094000F8018181891336C084818530B0F58F5FCD
:100950008483853091F1F80182819381891709F4AC
:1009600044C0813069F521E0208711861582168206
:1009700017828383F801858196818436910518F466
:10098000019685839683F2E0FF1221C08091790061
:1009900090917A0084369105D0F080917B0081118E
:1009A00016C084E080937C0010927D0081E08093EB
:1009B0007B000DC091831482CECFF8019283CBCF00
:1009C000978123E0911122E0208711868383F3949D
:1009D000065F1F4F83E0F812A7CF0F900F90DF91B3
:1009E000CF911F910F91FF900895813081F7C2CF71
:1009F00083309105A8F46115710591F02AE0289FD4
:100A0000F001299FF00D1124E05AFF4F8085918558
:100A1000DB018D939D931086118680E090E0089510
:100A200081E090E0089510920D0610920E0610924B
:100A3000040610920006109201061092020610920F
:100A400003061092050610920606109207061092F1
:100A500008061092090610920A0610920B061092D0
:100A60000C0680E090E008958F929F92AF92BF9223
:100A7000DF92EF92FF920F931F93CF93DF9300D0FB
:100A8000CDB7DEB719821A82BE016F5F7F4F82E059
:100A90000E94AD118C01892B09F04AC029813A814D
:100AA000A0E1B7E20E94B7142FEF33E040E050E03E
:100AB0000E94DA14D09004066D2D70E0C901A0E008
:100AC000B0E07B01EE0CFF1CF701EB5FF94F60819A
:100AD0007181861B970BA109B10980900006909047
:100AE0000106A0900206B0900306880D991DAA1D6C
:100AF000BB1D61E06D0D643008F060E0F701EB5F55
:100B0000F94F208331838093000690930106A093D0
:100B10000206B09303066093040622E0B695A795FB
:100B2000979587952A95D1F780930D0690930E0699
:100B3000C8010F900F90DF91CF911F910F91FF90FF
:100B4000EF90DF90BF90AF909F908F9008950097A7
:100B500051F020910D0630910E06FC012083318367
:100B600080E090E0089581E090E0089542E062E046
:100B700083E00E94C511892B19F081E090E008956F
:100B800042E066E083E00E94C5110097B1F7109241
:100B9000100610920F060895CF93DF9300D0CDB7C3
:100BA000DEB71A821982AE014E5F5F4F62E083E0CA
:100BB0000E947512AE014F5F5F4F66E083E00E94B6
:100BC000751281E09A81911180E08093100681E096
:100BD0009981911180E080930F0680E090E00F9062
:100BE0000F90DF91CF910895809110060895809124
:100BF0000F060895CF93DF93D82FC62F0E94B81207
:100C0000892B39F48EE30E94C912892B41F00E948E
:100C1000C612C1E0D0E0CE01DF91CF9108958D2FB3
:100C20000E94D912892B99F78C2F0E94D912EC01BE
:100C3000892B69F70E94C612EECF682F80E00E94D0
:100C4000FA05EFE9FFE03197F1F700C000000895E1
:100C5000682F80E40E94FA05EFECF7E03197F1F796
:100C600000C000000895CF93DF932FE788E391E061
:100C7000215080409040E1F700C0000088E30E94CE
:100C80001D06892B31F0C1E0D0E0CE01DF91CF917C
:100C900008958FE097E20197F1F700C0000089E323
:100CA0000E941D06892B79F78FEC97E00197F1F7E9
:100CB00000C0000084E10E941D06EC01892B19F799
:100CC00080E70E941D0686E50E941D068CE60E94B4
:100CD0001D069FEF21EE84E0915020408040E1F717
:100CE00000C0000088E30E941D068CE00E941D06E3
:100CF00081E00E941D068FE097E20197F1F700C0A6
:100D0000000086E00E941D06C0CF0C942806CF93F9
:100D1000DF93EC01892B31F481E090E008C021964B
:100D20000E94850688818111FACF80E090E0DF91F2
:100D3000CF910895823040F4603130F48111605CCD
:100D4000862F80680C941D0681E090E0089581E074
:100D50000E941D06EFE0F7E23197F1F700C00000B6
:100D60000895EF92FF920F931F93CF93DF9300D0DC
:100D700000D000D0CDB7DEB79C01892B79F480E399
:100D80000F900F900F900F900F900F90DF91CF91D9
:100D90001F910F91FF90EF900C94280640E0EAE03D
:100DA000F0E07E018FEFE81AF80AC901BF010E9446
:100DB000C614D701A40FB11D805D8C93C9019B019E
:100DC0004F5F0A9790F78701040F111DE016F10697
:100DD00079F480E090E00F900F900F900F900F90BB
:100DE0000F90DF91CF911F910F91FF90EF90089599
:100DF000F80182918F010E948506E8CF66E081E0CC
:100E00000C949811EF92FF920F931F93CF93DF935F
:100E100000D000D000D0CDB7DEB7182F7B01672BF4
:100E200081F401E010E0C8010F900F900F900F9037
:100E30000F900F90DF91CF911F910F91FF90EF9046
:100E40000895BE016F5F7F4F0E94AD11892B49F756
:100E5000BE016D5F7F4F812F0E94AD11892B09F775
:100E6000BE016B5F7F4F812F0E94AD118C01892BDA
:100E7000C1F649815A818B819C818417950728F09E
:100E8000342F252FAC01832F922F2D813E814217C5
:100E9000530708F49A012817390708F49C01A4E6BF
:100EA000B0E00E94B7146B3923E9720721E0820792
:100EB000910548F42FEF33E040E050E00E94DA144F
:100EC000F7012083B0CF24E6FBCF41E060E081E072
:100ED0000E94C511009709F540E060E081E00E94A2
:100EE00037120097D1F410921D0610921906109235
:100EF0001A0610921B0610921C06109215061092EC
:100F000016061092170610921806109211061092EB
:100F1000120610921306109214060895CF93C82F4C
:100F200081E090E0C23018F54C2F60E081E00E9433
:100F300037120097E1F420911D062130D0F4C13022
:100F4000A1F4409111065091120660911306709120
:100F500014064F5F5F4F6F4F7F4F409311065093C2
:100F600012066093130670931406C0931D06CF916A
:100F70000895D9F7C111F9CF1092190610921A06E7
:100F800010921B0610921C06F0CF009739F02091AA
:100F90001D06FC01208380E090E0089581E090E050
:100FA0000895009781F04091190650911A066091BA
:100FB0001B0670911C06FC0140835183628373837E
:100FC00080E090E0089581E090E00895009781F03E
:100FD00040911506509116066091170670911806FB
:100FE000FC01408351836283738380E090E0089525
:100FF00081E090E00895009781F0409111065091B2
:1010000012066091130670911406FC01408351830F
:101010006283738380E090E0089581E090E008951A
:1010200080911D06813031F58091190690911A0644
:10103000A0911B06B0911C060196A11DB11D8093C5
:10104000190690931A06A0931B06B0931C06809174
:10105000150690911606A0911706B09118060196F4
:10106000A11DB11D8093150690931606A093170637
:10107000B093180680E090E0089541E064E081E0DC
:101080000E94C511009729F440E064E081E00C94CF
:10109000371208950F931F93CF93DF930F92CDB71D
:1010A000DEB71982BE016F5F7F4F0E94F3138C0180
:1010B000892B51F441E064E081E00E94371240E066
:1010C00064E081E00E943712C8010F90DF91CF9158
:1010D0001F910F91089541E062E081E00E94C511E7
:1010E000009749F440E062E081E00E9437120097E7
:1010F00011F410921E060895CF93C82F81E090E05E
:10110000C23048F44C2F62E081E00E943712009711
:1011100011F4C0931E06CF910895009739F02091E5
:101120001E06FC01208380E090E0089581E090E0BD
:101130000895009741F0FC01E05CFF4F108231966A
:101140001082319610820895CF93DF93009749F073
:101150002FB7F894FC01EE5BFF4F3081303430F054
:101160002FBF81E090E0DF91CF910895DC01A05C7A
:10117000BF4F3C91830F911DEC0168838C918F5F71
:10118000803408F080E08C9380818F5F80832FBF54
:1011900080E090E0E8CFCF93DF93009761F0611596
:1011A000710549F02FB7F894FC01EE5BFF4F3081D9
:1011B000311106C02FBF81E090E0DF91CF910895FB
:1011C000DC01AF5BBF4F3C91830F911DEC01888127
:1011D000EB0188838C918F5F803408F080E08C93E2
:1011E0008081815080832FBF80E090E0E6CF009720
:1011F00061F02FB7F894FC01EE5BFF4F90812FBF99
:1012000081E0911519F080E0089581E00895AC0126
:1012100020E0892B51F480E008958FE9890F8A310D
:1012200008F490523913F7CF2F5FFB01E20FF11D45
:101230003081FA01E20FF11D90813111EECF892F3B
:101240008F7D41F087EF890F823020F081E09D3063
:1012500011F7089581E008950C948514CF93DF93DE
:101260008CED96E00E94990889E496E00E94780C43
:1012700010921F0660E875E280E090E00E9464141E
:10128000EC01892B59F48CED96E00E94B01481E0BA
:101290000E94A414CE01DF91CF910895C1E0D0E067
:1012A000F9CFEF92FF920F931F93CF93DF93CDB7B8
:1012B000DEB7C056D1090FB6F894DEBF0FBECDBF62
:1012C0000E9455108830910508F0A5C0880F991F1D
:1012D000FC01EA5CFA4FE080F1808091E9058F9390
:1012E0008091E8058F938091E7051F928F938091FD
:1012F000E6051F928F9389E591E09F938F938E016E
:101300000F5F1F4F1F930F930E940D15C8010E947E
:101310008B142091EC053091ED054091EE05E091A4
:10132000EF058091EA059091EB056AE070E00E947C
:10133000C614EF934F933F932F939F938F937F9375
:101340006F9384E791E09F938F931F930F930E9475
:101350000D15C8010E948B148091F10583FB88272D
:1013600080F91F928F938091F10582FB882780F985
:101370001F928F938091F105869581701F928F93B4
:101380008091F10581701F928F938FE891E09F9378
:101390008F931F930F930E940D150FB6F894DEBF25
:1013A0000FBECDBFC8010E948B148091FF058F93A3
:1013B0008091FE058F938091FD058F938091FC05B0
:1013C0008F938091F5058F938091F4058F93809191
:1013D000F3051F928F93FF92EF9281EB91E09F9321
:1013E0008F931F930F930E940D15C8010E948B14B9
:1013F0000FB6F894DEBF0FBECDBFC05ADF4F0FB699
:10140000F894DEBF0FBECDBFDF91CF911F910F913A
:10141000FF90EF90089581E5E82E81E0F82E5DCFF2
:1014200082ED91E00E948B148FEE91E00E948B146C
:101430008DE092E00E948B148DE292E00E948B146A
:101440008AE492E00E948B1487E692E00E948B145B
:1014500084E892E00E948B1482EA92E00E948B144E
:101460008EEB92E00E948B148CED92E00E948B1424
:1014700080E093E00E948B1481E293E00E948B1441
:1014800083E493E00C948B1489E496E00E94920C20
:10149000811107C081E693E00E948B1480E090E008
:1014A00008956CE279E089E496E00E94A00CF6CF02
:1014B0000F931F93CF93DF93CDB7DEB7A0970FB6EF
:1014C000F894DEBF0FBECDBFFC01892B89F48DE6F9
:1014D00093E00E948B1481E090E0A0960FB6F89400
:1014E000DEBF0FBECDBFDF91CF911F910F91089549
:1014F0008F0181918032E1F397EF980F9230C0F322
:101500008D30B1F367E773E0C8010E9407098115C8
:1015100029F00E94100A80E090E0DFCF6CE773E0D2
:10152000C8010E940709811107C063E873E0C80180
:101530000E940709811519F00E945109ECCF6BE850
:1015400073E0C8010E9407098115C9F08091E60582
:101550001F928F9382E993E09F938F938E010F5F89
:101560001F4F1F930F930E940D15C8010E948B14EB
:101570000F900F900F900F900F900F90CCCF6FE9BE
:1015800073E0C8010E940709811501F18091EA0505
:101590009091EB056AE070E00E94C6149F938F93D0
:1015A0007F936F9385EA93E09F938F938E010F5FF4
:1015B0001F4F1F930F930E940D15C8010E948B149B
:1015C0000FB6F894DEBF0FBECDBFA5CF68EB73E0BA
:1015D000C8010E940709811579F08091EF058F936A
:1015E0008091EE058F938091ED058F938091EC05AE
:1015F0008F9380EC93E0D8CF6FEC73E0C8010E942A
:101600000709811549F08091E9058F938091E805DC
:101610008F9388ED93E0A0CF68EE73E0C8010E943D
:101620000709811529F08DEE93E00E948B1473CF8A
:101630006EE074E0C8010E940709811551F00E9414
:101640005A10892B19F482E194E0EFCF87E194E0FE
:10165000ECCF64E274E0C8010E940709811561F0D3
:10166000A0960FB6F894DEBF0FBECDBFDF91CF912D
:101670001F910F910C94440A6CE274E0C8010E941F
:101680000709811529F089E496E00E949B0CDBCFC5
:1016900066E374E0C8010E940709811539F0809162
:1016A000F3051F928F938CE394E056CF66E474E0C9
:1016B000C8010E940709811519F080E594E0B5CFB3
:1016C0006DE674E0C8010E9407098111F6CF69E751
:1016D00074E0C8010E940709811519F081E894E0BF
:1016E000A4CF6EE974E0C8010E9407098111F6CF0A
:1016F00067EA74E0C8010E9407098111EFCF60EB2F
:1017000074E0C8010E9407098111E8CF6AEB74E018
:10171000C8010E940709811519F085EC94E085CF76
:1017200066EE74E0C8010E9407098111F6CFCFCEA2
:101730000F931F93CF93DF9300D00F92CDB7DEB7F7
:101740008E010F5F1F4F8CED96E00E94F708811508
:1017500041F00F900F900F90DF91CF911F910F915B
:101760000895B8018CED96E00E94CB080A831B8394
:10177000892B79F78981E0911F068D3011F08A302D
:1017800069F4E11501F3F0E0E05EF94F108280E2C8
:1017900096E00E94580A10921F06D5CFE83248F40E
:1017A000AE2FB0E0A05EB94F8C93EF5FE0931F06C1
:1017B000CACF82EF94E00E948B148CED96E00E94D9
:1017C000F7088111E8CF6A817B818CED96E00E9459
:1017D000CB08892B01F789818D30E9F28A3069F7CE
:1017E000DACF10921F0780E090E00895009779F01B
:1017F000FC0186818E3130F481E080931F0780E008
:1018000090E008958B35D8F310921F07F8CF81E050
:1018100090E0089580911F0708958F929F92AF9254
:10182000BF92CF92DF92EF92FF921F93CF93DF93FD
:10183000CDB7DEB72A970FB6F894DEBF0FBECDBF87
:101840006B017C014A0141155105C9F1C114D10454
:10185000E104F104A1F480E3FA012A960FB6F894AA
:10186000DEBF0FBECDBFDF91CF911F91FF90EF90F4
:10187000DF90CF90BF90AF909F908F90099410E031
:101880005E01FFEFAF1ABF0AB601C7012AE030E0E0
:1018900040E050E00E94DA14F501E10FF11D608391
:1018A000C601D70169017A011F5F0A97A105B10539
:1018B00058F77501E10EF11CAE14BF0491F42A969D
:1018C0000FB6F894DEBF0FBECDBFDF91CF911F9151
:1018D000FF90EF90DF90CF90BF90AF909F908F9050
:1018E0000895F70182917F01805DF4010995E4CFAD
:1018F0000097B9F0FC019C0120573F4F10821182E4
:1019000012821382148215821682178210863996EB
:10191000E217F30799F71082FC01EF56FF4F11927F
:1019200010820895009729F0FC01EE56FF4F808148
:10193000089580E00895009711F00C94780C0895B4
:101940006F927F928F929F92AF92BF92CF92DF92CF
:10195000EF92FF920F931F93CF93DF93CDB7DEB734
:1019600028970FB6F894DEBF0FBECDBF8C016F83F2
:1019700078870097A1F0672B91F05C0182E9A80EAF
:10198000B11CD5018C91811551F0912CF801E057D3
:10199000FF4FED83FE83D5018C919816A8F0289611
:1019A0000FB6F894DEBF0FBECDBFDF91CF911F9170
:1019B0000F91FF90EF90DF90CF90BF90AF909F90EE
:1019C0008F907F906F900895AD81BE818C91815FE3
:1019D00089198F70F801B9E08B9FE00DF11D11247A
:1019E000808081819281A381B48189839A83AB8332
:1019F000BC8375806680E780F08481E3C82E85E033
:101A0000D82ED6018D916D01EF81F8850995F5E30A
:101A1000CF16F5E0DF06A9F7692D70E080E090E0D1
:101A20004F8158850E940D0C8CE2EF81F885099555
:101A3000682D70E080E090E04F8158850E940D0C89
:101A40008CE2EF81F88509954F81588569817A810B
:101A50008B819C810E940D0C8CE2EF81F8850995A9
:101A6000672D70E080E090E04F8158850E940D0C5A
:101A70008CE2EF81F8850995662D70E080E090E0BA
:101A80004F8158850E940D0C8CE2EF81F8850995F5
:101A9000B70180E090E04F8158850E940D0C8DE0E9
:101AA000EF81F88509958AE0EF81F885099593948F
:101AB00072CF40E061E081E00E94C511009711F40F
:101AC0000E942514109226071092270710922407CF
:101AD00010922507109220071092210710922207DA
:101AE0001092230708950E94361420912607309102
:101AF0002707AC01421B530B9A0180932607909352
:101B00002707409324073093250780912007909161
:101B10002107A0912207B0912307840F951FA11DD3
:101B2000B11D8093200790932107A0932207B093C3
:101B3000230780E090E008956091240770912507C5
:101B400080E090E022E0660F771F881F991F2A959A
:101B5000D1F723E030E040E050E00E94DA14C90100
:101B6000089520912007309121074091220750913C
:101B70002307A8EEB3E00E94021522EC31E040E01A
:101B800050E00E94DA14B901CA0108951092370793
:101B900010923807109235071092360710923307CB
:101BA00010923407109231071092320710922F07CB
:101BB0001092300710922D0710922E0710922B07CB
:101BC00010922C0710922A0710922907089510925C
:101BD000390710923A07109228070E94C60D80E03C
:101BE00090E008958091390790913A07892B19F078
:101BF00081E08093280780E090E00895CF93DF9301
:101C0000DC01C0913907D0913A07892BC9F02097A0
:101C100009F446C080912807811591F0FE013197A3
:101C2000E930F10530F5EB5EF74E0C94FC14169696
:101C30008C911697803620F451968C9182FF19C0B2
:101C4000CE01DF91CF91089518968D919D911A97AD
:101C5000883E9340A8F751968C9180FDF1CF09C042
:101C600017968C911797893158F351968C9183FD73
:101C7000E7CF1092390710923A07109228070E9476
:101C8000C60DC0E0D0E0DCCF17968C918931C0F250
:101C9000F0CF8D919D9101978E3F934088F6E9CFCB
:101CA00051969C91519792FD15C016968C9116975E
:101CB000833698F02091370730913807283C31055A
:101CC00048F42F5F3F4F2093370730933807283C65
:101CD000310539F4C1E0D0E016C0109237071092F8
:101CE000380718964D915D911A9741346FE1560768
:101CF00008F43FC020913507309136072233310573
:101D000098F0C2E0D0E010922D0710922E071092AA
:101D10002B0710922C07C093390710923A071092A4
:101D200028070E94C60D8CCF2F5F3F4F20933507A9
:101D3000309336072233310521F393FDCCC017963B
:101D40002C9117972A3008F4C6C090FF33C01A961A
:101D50002D913D911C972A30310538F5209131079E
:101D600030913207283E63E0360740F0C4E0D0E00F
:101D7000CACF1092350710923607DFCF2F5F3F4F43
:101D80002093310730933207283E334079F3443FA4
:101D90005140A0F420913307309134072C3241E0B8
:101DA000340788F0C5E0D0E0AECF10923107109232
:101DB0003207EDCF1092310710923207109233079D
:101DC0001092340709C02F5F3F4F209333073093A1
:101DD00034072C32314031F354962D913D91569772
:101DE0002538334008F07AC02D913D911297211586
:101DF000310519F02F3F334009F520912F0730911D
:101E00003007243F41E0340718F0C7E0D0E07BCF33
:101E10002F5F3F4F20932F0730933007243F3140EF
:101E2000A1F352962C913AEF320F323010F023305A
:101E300051F410922D0710922E0719C010922F07FF
:101E400010923007EECF90FD28C020912D073091E1
:101E50002E072115310581F480932A072F5F3F4F0C
:101E600020932D0730932E072037374149F01092E9
:101E70002B0710922C07E4CE203797E1390770F337
:101E800090912A078917A8F6292F281B330B263093
:101E9000310578F2C8E0D0E036CF10922D071092CD
:101EA0002E0720912B0730912C0721153105C9F001
:101EB000203E4EE23407B8F0909129079817D0F4ED
:101EC000203E3E4208F4BCCE891B813009F0B8CEDA
:101ED000C9E0D0E020CFC3E0D0E015CFC6E0D0E02D
:101EE00012CF809329072F5F3F4F20932B0730930A
:101EF0002C07E2CF203E3E4208F4A2CEE9CFECE32D
:101F0000F7E01082118212821382148215821682E7
:101F100017821086118612863C9687E0EC39F80706
:101F200081F781E080933B0780E090E00895CF92B5
:101F3000DF92EF92FF92CF93DF93EC016A017B0176
:101F400080913B078115F1F12097E1F18AE0C816F5
:101F5000D104E104F104B0F1BA01C7012AE030E094
:101F600040E050E00E94DA14672B682B692B51F592
:101F7000ECE3F7E080E090E0228521111EC02CE028
:101F8000289FF001299FF00D1124E45CF84FC083D5
:101F9000D183C282D382E482F582C682D782E08670
:101FA000F186138681E0828780E090E0DF91CF9117
:101FB000FF90EF90DF90CF90089501963C96883087
:101FC0009105D1F681E090E0F1CF80913B0781153A
:101FD00041F1ECE3F7E021E082858130E9F486818C
:101FE0009781A085B1858A309105A105B10538F0AA
:101FF0000A97A109B10986839783A087B187892BA6
:102000008A2B8B2B49F482819381A481B5818683AD
:102010009783A087B18723873C9687E0EC39F80740
:10202000D9F60895CF93DF9380913B07811589F00E
:10203000CCE3D7E08A85813039F48B85813021F477
:102040001B86E881F98109952C9687E0CC39D80761
:1020500089F7DF91CF91089581E00E948E0781E09A
:102060000C947C0880E00E948E0780E00C947C0831
:102070001092A2071092A3071092A0071092A10736
:1020800010929E0710929F0784EF91E080937E004C
:1020900090937F0010929D0780E00E948E0700972A
:1020A00019F480E00C947C0808958091A207909127
:1020B000A307089581E080939D070E94F20D009789
:1020C00049F41092A0071092A10721E02093A207E3
:1020D0001092A3070895EF92FF920F931F93CF934F
:1020E000DF9300D000D000D0CDB7DEB78C011D82C9
:1020F0001E821B821C8219821A8281E090E00115E7
:10210000110509F4B1C0F801818980FD47C08091B3
:102110007E0090917F00843FF1E09F0728F40196B4
:1021200080937E0090937F00BE016B5F7F4F80E0C5
:1021300090E00E94F804BE016D5F7F4F81E090E067
:102140000E94F804BE016F5F7F4F82E090E00E9422
:10215000F804C8010E94FE0D7C01892B99F00E94B1
:1021600032108091A2079091A307059731F0109249
:102170009D07E092A007F092A10785E08093A20757
:102180001092A30789819A810397029710F40E9405
:102190005A10EF2841F00E94321064C010927E0065
:1021A00010927F00C1CFE091A207F091A3078D812B
:1021B0009E81039709F042C0E630F105A9F4109220
:1021C0009C070E94321081E08093A2071092A3071F
:1021D0000E94321010929E0710929F07F80187818B
:1021E0008931E0F584E055C0CF010197029730F5C1
:1021F00010929C070E94321086E08093A2071092F2
:10220000A3078B819C81039789F480919C0781119E
:1022100075C080917E0090917F00843F914008F4CA
:10222000BACF81E080939C070E942C1080919C077C
:10223000811509F4B0CF0E942C1014C0E830F105CC
:1022400008F061C0E25EF74E0C94FC140E9432105C
:1022500010929E0710929F0781E01BC00E940A0CFB
:1022600081110FC080E090E00F900F900F900F90C1
:102270000F900F90DF91CF911F910F91FF90EF90F2
:10228000089580917E0090917F00843F914050F3AB
:1022900082E08093A2071092A307E4CFF801878120
:1022A000893118F40E9432109DCF0E940A0C8111CE
:1022B000C2CF0E94321010929E0710929F0783E0B7
:1022C000E8CF0E94321080919E0790919F07843F33
:1022D000F1E09F0708F0BCCF019680939E07909392
:1022E0009F07843F914009F0BDCFB2CF0E943210CA
:1022F000F8018781893108F4B5CFAECF10929C07E1
:102300000E94321093CF0E94321085E0C2CF80919C
:10231000A2079091A307059721F481E090919D0772
:10232000911180E008958091A0079091A1070895F0
:10233000823010F0833071F49FEF960F973050F495
:102340008295880F880F807C87B9606866B980E0C5
:1023500090E0089581E090E00895883098F4611548
:10236000710581F097B1907E982B97B9369A349B7E
:10237000FECF349A84B125B1FB018083218380E0B4
:1023800090E0089581E090E00895843008F06CC0FA
:10239000683008F069C0433008F066C021E030E0E2
:1023A000F90101C0EE0F6A95EAF76E2F413028F56A
:1023B00060958230A1F08330C9F0813039F08AB362
:1023C00086238ABB8BB386238BBB06C087B3862349
:1023D00087BB88B3862388BB80E090E0089584B3F0
:1023E000862384BB85B3862385BBF6CF81B3862342
:1023F00081BB82B3862382BBEFCFB1F4823061F020
:10240000833071F0813021F08AB38E2B8ABBE4CF08
:1024100087B38E2B87BBE0CF84B38E2B84BBDCCFFE
:1024200081B38E2B81BBD8CF9E2F9095823081F0C7
:102430008330A1F0813031F08AB389238ABB8BB31A
:102440008E2BC2CF87B3892387BB88B38E2BC3CF94
:1024500084B3892384BB85B38E2BC6CF81B38923F4
:1024600081BB82B38E2BC7CF81E090E0089584308A
:10247000C8F56830B8F54230A8F521E030E0F90140
:1024800001C0EE0F6A95EAF76E2F4130C1F4823039
:1024900061F0833081F0813021F08BB38E2B8BBBC8
:1024A00007C088B38E2B88BB03C085B38E2B85BB3A
:1024B00080E090E0089582B38E2B82BBF9CF6095C7
:1024C000823051F0833059F0813019F08BB386237C
:1024D000E6CF88B38623E7CF85B38623E8CF82B3E0
:1024E0008623EBCF81E090E00895FA018430E0F498
:1024F0006830D0F43097C1F0823091F0833091F0A1
:10250000813061F089B390E002C0959587956A9516
:10251000E2F78170808380E090E0089586B3F3CF86
:1025200083B3F1CF80B3EFCF81E090E008959B01BA
:10253000AC012115310541055105B9F060E072E1AA
:102540008AE790E00E94DA142051310941095109CB
:10255000569547953795279520B981B18C7F81B9DC
:1025600084E086BF80E090E0089581E090E00895E7
:1025700084EA86BF06B607FEFDCF91B1987F21E0C1
:1025800030E0983009F420E0C901089584E986BF5D
:102590000895880F83B984E886BF06B607FEFDCF8D
:1025A00091B1987F21E030E0983109F420E0C90131
:1025B000089583B984E886BF06B607FEFDCF91B1C2
:1025C000987F21E030E0983209F420E0C9010895B5
:1025D0008FB780688FBF80E090E00895813079F0F8
:1025E0008230C1F0811121C06430F8F485B78C7F4E
:1025F00085BF85B7862B85BF80E090E00895643065
:10260000A0F485B7837F85BF85B7660F660F682BFB
:1026100065BFF2CF623021F484B78F7B84BFECCFEB
:10262000633019F484B78064F9CF81E090E00895B5
:10263000813051F0823059F081110CC08AB780642A
:102640008ABF80E090E008958AB78068F9CF8AB7A2
:102650008062F6CF81E090E00895813069F08230A9
:1026600089F0811115C08AB780648ABF8BB78064F6
:102670008BBF80E090E008958AB780688ABF8BB7EF
:102680008068F6CF8AB780628ABF8BB78062F0CF4E
:1026900081E090E0089561157105B9F0813059F03D
:1026A000823071F0811111C06093A8077093A9075F
:1026B00080E090E008956093A6077093A707F8CF95
:1026C0006093A4077093A507F3CF81E090E008958D
:1026D0001F920F920FB60F9211242F933F934F9397
:1026E0005F936F937F938F939F93AF93BF93EF937A
:1026F000FF93E091A807F091A907309709F0099599
:10270000FF91EF91BF91AF919F918F917F916F91C9
:102710005F914F913F912F910F900FBE0F901F909F
:1027200018951F920F920FB60F9211242F933F937B
:102730004F935F936F937F938F939F93AF93BF93C9
:10274000EF93FF93E091A607F091A707309709F068
:102750000995FF91EF91BF91AF919F918F917F91DB
:102760006F915F914F913F912F910F900FBE0F90FE
:102770001F9018951F920F920FB60F9211242F934E
:102780003F934F935F936F937F938F939F93AF93F9
:10279000BF93EF93FF93E091A407F091A5073097C3
:1027A00009F00995FF91EF91BF91AF919F918F91A2
:1027B0007F916F915F914F913F912F910F900FBE3D
:1027C0000F901F901895843058F4BC9ABD9ABE980B
:1027D000BF9AC49A80658DB9709880E090E00895A2
:1027E00081E090E008956115710549F08FB9779BFC
:1027F000FECF8FB1FB01808380E090E0089581E0FF
:1028000090E0089588E083BF8CE78CBF12BE83B749
:10281000887F83BF80E090E00895AC0182E088BFAC
:1028200093B7936093BF20E030E02417350731F46D
:1028300083B7887F83BF80E090E0089508B601FEEB
:10284000FDCF88BF2F5F3F4FF0CF8EB5887F8EBD05
:102850008FB58C7F8FBD8EB5877E8EBD1DBC1CBC99
:102860008EB587608EBD80E090E008958CB59DB5F3
:1028700008951F920F920FB60F9211242F933F933A
:102880004F935F936F937F938F939F93AF93BF9378
:10289000EF93FF936CB18091AA079091AB070097DB
:1028A00011F00E94A408FF91EF91BF91AF919F9109
:1028B0008F917F916F915F914F913F912F910F90E9
:1028C0000FBE0F901F901895009770406040D1F098
:1028D0009B01AC0184E0220F331F441F551F8A95D2
:1028E000D1F760E072E18AE790E00E94DA142150AB
:1028F000310930BD29B986E880BD88E18AB980E018
:1029000090E0089581E090E008955D9BFECF8CB942
:1029100080E090E008950F931F93CF938C01C0E067
:10292000892B31F481E090E00BC00E948514CF5FC9
:10293000F801EC0FF11D80818111F7CF80E090E06C
:10294000CF911F910F910895813021F4579A80E023
:1029500090E0089510F45798FACF81E090E0089540
:102960008093AA079093AB0780E090E00895A29F20
:10297000B001B39FC001A39F700D811D1124911D53
:10298000B29F700D811D1124911D0895AA1BBB1BC0
:1029900051E107C0AA1FBB1FA617B70710F0A61B5F
:1029A000B70B881F991F5A95A9F780959095BC0180
:1029B000CD010895A1E21A2EAA1BBB1BFD010DC07B
:1029C000AA1FBB1FEE1FFF1FA217B307E407F507DF
:1029D00020F0A21BB30BE40BF50B661F771F881FBB
:1029E000991F1A9469F760957095809590959B0151
:1029F000AC01BD01CF010895EE0FFF1F0590F491CA
:102A0000E02D09940E94B714A59F900DB49F900DDE
:102A1000A49F800D911D11240895AEE0B0E0E3E184
:102A2000F5E10C94E31786E08C832B893C8929839C
:102A30003A838FEF9FE78D839E83AE01495E5F4FA0
:102A40006D897E89CE0101960E943115EF81F8854E
:102A50002B893C89E20FF31F10822E96E2E00C9442
:102A6000FF17ACE0B0E0E7E3F5E10C94D6175C01AA
:102A70006B017A01FC0116821782838181FFD3C129
:102A80002AE0522EF5012381F60123FD859123FFD3
:102A900081916F01811509F42CC1853239F423FD30
:102AA000959123FF91916F01953229F4B50190E042
:102AB0000E942C17E7CF30E0712C00E010E01032BC
:102AC00010F59B32C9F050F49032B9F09332C9F04E
:102AD0009E3261F516FD0DC1106405C09D3279F07E
:102AE000903399F41160F60123FD959123FF9191A4
:102AF0006F019111E4CF23C012601460F4CF18600D
:102B0000F2CF1061F0CF17FD1AC080ED890F8A3027
:102B1000F8F616FF05C0759C800D1124782EE3CFC2
:102B2000059D800D1124082F1062DDCF9C3611F415
:102B30001068D9CF9C3409F440C09836A1F2892F8F
:102B40008F7D85548330D8F1933609F45FC0933775
:102B500009F46AC0933509F476C0943619F09936B1
:102B600009F0A2C0F70117FF98C06191719181919E
:102B700091917F011F7697FF03C00E94CB171068C9
:102B80002AE030E04E014FEF841A940AA4010E941B
:102B90006D17682E681816FFD2C0812F8E7F6714BC
:102BA00008F0CCC014FF1DC112FD11C11E7E972C70
:102BB000812F867809F4CEC00FC131E094CF311552
:102BC00009F1F8E0EF0EF11C8FE3898391E0692EA3
:102BD000712C4E018FEF881A980A1F7713FD04C0DD
:102BE0006016710408F43FC06114710409F042C01A
:102BF000011509F447CFB50180E290E00E942C173F
:102C00000150F6CF44E0E40EF11CDECFF7018081E5
:102C10008983F2E0EF0EF11C81E0682E712C4E01E9
:102C20004FEF841A940AD9CFF701819091907F01D8
:102C3000672D70E016FD02C06FEF7FEFC4010E94A8
:102C400021173C01CACFF701819091907F01672D38
:102C500070E016FD02C06FEF7FEFC4010E941617EF
:102C60003C011068BBCFB50180E290E00E942C17B8
:102C70000150B6CFF40117FD859117FF81914F01E7
:102C8000B50190E00E942C1781E0011101C080E0A5
:102C9000081BF1E06F1A7108A7CF61917191872F1E
:102CA000880F880B982F65CF9537C9F41F7E1C8736
:102CB0002AE030E0FC85F7FF3BC0F701619171919C
:102CC000819191917F014E014FEF841A940AA401E2
:102CD0000E946D17682E68181C851F775CCF812FA6
:102CE000897F8C87903799F058F49835B9F09F36E2
:102CF000E1F0F501868197812C96EFE00C94F217B4
:102D00009837B9F714FD06C020E130E0D3CF9C8599
:102D100090619C87EC85E460EC87F6CF14FF02C0DD
:102D200016601C8720E132E0C5CF28E030E0C2CF3A
:102D3000F7016191719180E090E0C4CF182F962C3B
:102D400014FF36CFFE01E60DF11D8081803309F0BE
:102D500041C0197E13FD0EC010FF4FC0762C901697
:102D600018F4700E7918902E802F8919091508F41F
:102D700080E0980E901608F042C0091914FF41C077
:102D8000B50180E390E00E942C1712FF09C088E58E
:102D900090E011FD02C088E790E0B5010E942C1779
:102DA0006714D0F14E018FEF881A980A6A94FE01D9
:102DB0003296E60DF11D3F01F30182913F01B5010D
:102DC00090E00E942C1768147904B1F711CF972C6A
:102DD000182FB8CF12FD02C09394BCCF9394939454
:102DE000B9CF972C182FE4CEB50180E290E00E9475
:102DF0002C1783948016C0F3B7CF892CFBCF00E04B
:102E0000BDCF812F867861F280E211FD8BE217FD44
:102E10008DE2B50190E0C2CFB50180E390E00E9461
:102E20002C177A94BDCF8FEF9FEF66CFFC010590F2
:102E3000615070400110D8F7809590958E0F9F1FBC
:102E40000895FC016150704001900110D8F7809501
:102E500090958E0F9F1F0895A3E0B0E0E2E3F7E1A5
:102E60000C94E217182F99836A837B83DB011396F6
:102E70008C9181FD09C01FEFBFEFB983812F99812C
:102E80002396E3E00C94FE1782FF1BC0EA81FB81CE
:102E900026813781848195812817390754F4019060
:102EA000F081E02DCF010196AA81BB818D939D9386
:102EB0001083EA81FB8186819781019686839783BF
:102EC000DDCFAA81BB811896ED91FD911A97BD01C6
:102ED000812F0995892B69F3CECFFA01AA272830D3
:102EE00051F1203181F1E8946F936E7F6E5F7F4FD7
:102EF0008F4F9F4FAF4FB1E03ED0B4E03CD0670F53
:102F0000781F891F9A1FA11D680F791F8A1F911DA5
:102F1000A11D6A0F711D811D911DA11D20D009F4F5
:102F200068943F912AE0269F11243019305D319337
:102F3000DEF6CF010895462F4770405D4193B3E020
:102F40000FD0C9F7F6CF462F4F70405D4A3318F0C7
:102F5000495D31FD4052419302D0A9F7EACFB4E078
:102F6000A6959795879577956795BA95C9F7009730
:102F70006105710508959B01AC010A2E06945795D1
:102F8000479537952795BA95C9F7620F731F841F28
:102F9000951FA01D089590958095709561957F4F20
:102FA0008F4F9F4F08952F923F924F925F926F9253
:102FB0007F928F929F92AF92BF92CF92DF92EF92C9
:102FC000FF920F931F93CF93DF93CDB7DEB7CA1B4A
:102FD000DB0B0FB6F894DEBF0FBECDBF09942A8875
:102FE000398848885F846E847D848C849B84AA841D
:102FF000B984C884DF80EE80FD800C811B81AA81AA
:10300000B981CE0FD11D0FB6F894DEBF0FBECDBF74
:10301000ED010895F894FFCF0801140117011A017A
:103020001D012001230126012901170E240E300E57
:10303000440E2B0E2B0E490E2B0E2B0E2611E810D4
:0C3040004E1161117611CB100111CB1064
:10304C00040000000000000000000500000000006B
:10305C000000000003000000000000000000F4016C
:10306C004D4F44453A204D414E55414C004D4F4437
:10307C00453A204155544F004C3A002520523A0015
:10308C002520002E00410021545249503A204F5621
:10309C004552464C4F570021545249503A204F56F6
:1030AC00455243555252454E540021545249503AC0
:1030BC0020445259205245534552564F49520021F3
:1030CC00545249503A204452592052554E002154E2
:1030DC005249503A204E4F2043555252454E5400BF
:1030EC0021545249503A204D41582052554E544982
:1030FC004D450021545249503A204C4556454C20E0
:10310C0053454E534F520021545249503A204C458E
:10311C00414B0021545249503A204E4F20524953B2
:10312C00450046494C4C200049444C452000513A3E
:10313C0000554E4B4E4F574E004C4556454C3D2579
:10314C0075252520523D2575252520493D25756D74
:10315C00410D0A00464C4F573D25752E25754C2FB9
:10316C006D696E20564F4C3D256C754C0D0A005008
:10317C00554D503D25752056414C56453D257520E5
:10318C00484947483D2575204C4F573D25750D0A3C
:10319C000053544154453D257320545249503D250C
:1031AC00752052554E3D25752055503D256C750D9D
:1031BC000A003D3D3D2057415445522054414E4B51
:1031CC0020434F4E534F4C45203D3D3D0D0A00537F
:1031DC0054415455532020202020202D2053797306
:1031EC0074656D207374617475730D0A004C4556CB
:1031FC00454C3F2020202020202D20526F6F662030
:10320C0074616E6B206C6576656C0D0A00464C4FD4
:10321C00573F202020202020202D204375727265DE
:10322C006E7420666C6F770D0A00564F4C554D45E9
:10323C003F20202020202D20546F74616C20766F4D
:10324C006C756D650D0A0043555252454E543F2026
:10325C002020202D2050756D702063757272656E64
:10326C00740D0A004346473F2020202020202020B8
:10327C002D20436F6E66696775726174696F6E0D90
:10328C000A00545249503F202020202020202D207D
:10329C0041637469766520747269700D0A00464149
:1032AC00554C54533F20202020202D204661756C16
:1032BC007420686973746F72790D0A00434C52461E
:1032CC0041554C54532020202D20436C65617220B5
:1032DC006661756C7420686973746F72790D0A007D
:1032EC0041434B2020202020202020202D204163F2
:1032FC006B6E6F776C6564676520747269700D0A0C
:10330C00004D4F4445204155544F2F4D414E554192
:10331C004C202D204D6F646520636F6D6D616E6464
:10332C000D0A003D3D3D3D3D3D3D3D3D3D3D3D3D61
:10333C003D3D3D3D3D3D3D3D3D3D3D3D3D3D0D0A14
:10334C00004E4F204641554C54530D0A00455252E5
:10335C0020434D440D0A0048454C500053544154F1
:10336C005553005354415455533F004C4556454C0E
:10337C003F004C4556454C3D257525250D0A00460C
:10338C004C4F573F00464C4F573D25752E25752009
:10339C004C2F6D696E0D0A00564F4C554D453F0034
:1033AC00564F4C554D453D256C75204C0D0A004330
:1033BC00555252454E543F0043555252454E543D82
:1033CC002575206D410D0A004346473F0043464793
:1033DC003D33302C39302C36302C382C302E352CCB
:1033EC00312C31302C31352C3132300D0A00414327
:1033FC004B004F4B0D0A0045525220414354495645
:10340C00450D0A004641554C54533F00434C52461F
:10341C0041554C545300545249503F00545249505A
:10342C003D25750D0A004D4F4445204155544F0024
:10343C00455252204D4F4445202D20555345204D8B
:10344C004F444520425554544F4E0D0A004D4F44A5
:10345C0045204D414E55414C0050554D50204F4E3E
:10346C0000455252204D4F4445202D2055534520A8
:10347C0046534D20434F4E54524F4C0D0A0050555D
:10348C004D50204F46460056414C5645204F4E005D
:10349C0056414C5645204F464600534552564943DB
:1034AC0045204F4E00455252204D4F4445202D2073
:1034BC00555345205345525649434520434F4E548E
:1034CC00524F4C0D0A0053455256494345204F4626
:1034DC004600455252204C4F4E470D0A00494E496A
:1034EC00540049444C450046494C4C494E47005306
:1034FC004554544C494E47005245535F574149542B
:10350C000054524950504544005345525649434586
:10351C0000464C542C00FD04020507050F05180548
:06352C00210586002905BF
:00000001FF
