:100000000C942A000C9471100C949A100C94C31048
:100010000C9447000C9447000C9447000C94470044
:100020000C9447000C9447000C9447000C94470034
:100030000C9447000C9442110C9447000C94470018
:100040000C9447000C9447000C9447000C94470014
:100050000C94470011241FBECFE5D8E0DEBFCDBF12
:1000600012E0A0E6B0E0E0E4F4E202C005900D92F8
:10007000A235B107D9F724E0A2E5B2E001C01D9294
:10008000AD3AB207E1F70E949F010C9416120C944E
:100090000000CF93DF9300D000D0CDB7DEB78091C2
:1000A000EF029091F0026AE070E00E94CF11698344
:1000B0007A838B839C830E94CD0460E080E00E9461
:1000C000C00480E890E00E94AD048091EB0290E0D3
:1000D0000E94D70483E890E00E94AD048091EC0276
:1000E00090E00E94D70488E890E00E94AD0460E0B0
:1000F00081E00E94C0048AE890E00E94AD048981FA
:100100009A810E94D7048DE890E00E94AD048B8113
:100110009C810E94D7048FE890E00E94AD048091FA
:10012000F60280FF0AC084E990E00F900F900F90D4
:100130000F90DF91CF910C94AD0485E392E0F5CF61
:1001400080E00E94B40580E00C94A2060F931F93F8
:10015000CF93DF93CDB7DEB729970FB6F894DEBF04
:100160000FBECDBF8E010B5F1F4FB80180E00E9414
:10017000B60EB801892B31F48D819E818093E50202
:100180009093E60281E00E94B60E892B31F48D81B6
:100190009E818093E7029093E8028E01075F1F4FD4
:1001A000B80180E00E942805B801892B19F48985DF
:1001B0008093EB0281E00E942805892B19F4898540
:1001C0008093EC028DEE92E00E94CD03892B21F00A
:1001D0001092ED021092EE020E94050B8093EF0246
:1001E0009093F0020E941A0B28EE33E040E050E0BA
:1001F0000E94E3112093F1023093F2024093F30244
:100200005093F4020E941A049091F60280FB92F936
:100210009093F6020E941D049091F60280FB93F9E0
:100220009093F602CE0108960E94EB05892B09F007
:100230004DC0888581709091F60280FB90F9909373
:10024000F602CE0107960E94B306892B09F040C042
:100250008F8181709091F60280FB91F99093F60264
:100260008E010F5F1F4FC8010E94F705892B91F582
:1002700089819A818093F9029093FA028BEF92E040
:100280000E940C06892B41F01092FB021092FC0296
:100290001092FD021092FE02C8010E942106892BD5
:1002A000E1F489819A818093FF02909300030E9478
:1002B000990D8093F70229960FB6F894DEBF0FBE12
:1002C000CDBFDF91CF911F910F91089580E0B3CF03
:1002D00080E0C0CF80E090E0CDCF80E090E0E3CF41
:1002E0000E9436060E94DC0A80910103909102036D
:1002F000A0910303B09104030196A11DB11D809349
:10030000010390930203A0930303B09304030C949E
:10031000A60083E00E94AE020E94F2030E945A03EC
:100320000E94A60085EE92E00E945F0985EE92E0B1
:100330000E94A00D0E94990D8093F70208951092DB
:10034000E5021092E6021092E7021092E802109283
:10035000E9021092EA021092EB021092EC02109263
:10036000ED021092EE021092EF021092F002109243
:10037000F1021092F2021092F3021092F402109223
:10038000F5028091F602807F8093F6021092F702C8
:100390001092F8021092F9021092FA021092FB02E7
:1003A0001092FC021092FD021092FE021092FF02C7
:1003B00010920003109201031092020310920303A3
:1003C000109204030E940B1180E00E94240581E03A
:1003D0000E94EC100E9463060E948B050E94910609
:1003E0000E94DC030E94390383E00E9466020E949F
:1003F000C20A60EA76E881E090E00E94A00F0E94C5
:1004000059040E945A090E944C0B0E94820D82E5F9
:1004100092E00E94E1090E946C0760EA70E080E0CF
:100420000E94541062E080E00E94F70F80E00E947A
:10043000211080E00E9436100E94F10F0E94CF0C24
:100440004AE050E060E070E089E891E00E94E70C4B
:1004500044EF51E060E070E089E490E00E94E70C36
:1004600048EE53E060E070E080E791E00E94E70C26
:100470000E94A6000E94990D8093F7028AE090E006
:100480000E9416110E94350D0E94620D0E94010902
:100490000E94990D9C019091F602892F817091FD27
:1004A000826092FD846093FD88602530310521F4DF
:1004B00080610E947006E2CF2630310511F480621F
:1004C000F8CF27303105A9F78064F3CFCF93DF93BE
:1004D00000D00F92CDB7DEB7898340E064E00E9480
:1004E000CE0E8A839B8340E065E089810E94CE0E18
:1004F0002A813B81282B392B2A833B8340E063E010
:1005000089810E94CE0E2A813B81282B392B2A8398
:100510003B8341E064E089810E94400F2A813B8156
:10052000282B392B2A833B8341E065E089810E9497
:10053000400F2A813B81282B392B2A833B8341E0C2
:1005400063E089810E94400F2A813B81822B932B9B
:100550000F900F900F90DF91CF910895FF920F931E
:100560001F93CF93DF9300D0CDB7DEB78A8300E629
:1005700010E0F12CAE014F5F5F4FF80160818A817E
:100580000E947E0F91E08981811190E0F8018181C4
:10059000891336C084818530B0F58F5F84838530C0
:1005A00091F1F80182819381891709F444C0813067
:1005B00069F521E0208711861582168217828383D0
:1005C000F801858196818436910518F4019685831A
:1005D0009683F2E0FF1221C08091790090917A0019
:1005E00084369105D0F080917B00811116C084E0A3
:1005F00080937C0010927D0081E080937B000DC091
:1006000091831482CECFF8019283CBCF978123E0E0
:10061000911122E0208711868383F394065F1F4F98
:1006200083E0F812A7CF0F900F90DF91CF911F9129
:100630000F91FF900895813081F7C2CF83309105EB
:10064000A8F46115710591F02AE0289FF001299F17
:10065000F00D1124E05AFF4F80859185DB018D93C9
:100660009D931086118680E090E0089581E090E0EF
:10067000089510921203109213031092090310921E
:1006800005031092060310920703109208031092BC
:100690000A0310920B0310920C0310920D03109298
:1006A0000E0310920F03109210031092110380E0BA
:1006B00090E008958F929F92AF92BF92DF92EF9257
:1006C000FF920F931F93CF93DF9300D0CDB7DEB788
:1006D00019821A82BE016F5F7F4F82E00E94B60EC0
:1006E0008C01892B09F04AC029813A81A0E1B7E247
:1006F0000E94C0112FEF33E040E050E00E94E31170
:10070000D09009036D2D70E0C901A0E0B0E07B013D
:10071000EE0CFF1CF701E65FFC4F60817181861BC8
:10072000970BA109B1098090050390900603A09052
:100730000703B0900803880D991DAA1DBB1D61E039
:100740006D0D643008F060E0F701E65FFC4F208338
:1007500031838093050390930603A0930703B0931E
:1007600008036093090322E0B695A79597958795AE
:100770002A95D1F78093120390931303C8010F9029
:100780000F90DF91CF911F910F91FF90EF90DF902D
:10079000BF90AF909F908F900895009751F0209157
:1007A000120330911303FC012083318380E090E039
:1007B000089581E090E0089542E062E083E00E94C5
:1007C000CE0E892B19F081E090E0089542E066E0BA
:1007D00083E00E94CE0E0097B1F71092150310929D
:1007E00014030895CF93DF9300D0CDB7DEB71A82FC
:1007F0001982AE014E5F5F4F62E083E00E947E0F80
:10080000AE014F5F5F4F66E083E00E947E0F81E0A4
:100810009A81911180E08093150381E09981911173
:1008200080E08093140380E090E00F900F90DF91C0
:10083000CF91089580911503089580911403089530
:10084000CF93DF93D82FC62F0E94C10F892B39F485
:100850008EE30E94D20F892B41F00E94CF0FC1E09E
:10086000D0E0CE01DF91CF9108958D2F0E94E20F4D
:10087000892B99F78C2F0E94E20FEC01892B69F7E5
:100880000E94CF0FEECF682F80E00E942004EFE996
:10089000FFE03197F1F700C000000895682F80E471
:1008A0000E942004EFECF7E03197F1F700C0000060
:1008B0000895CF93DF932FE788E391E021508040A4
:1008C0009040E1F700C0000088E30E944304892BB8
:1008D00031F0C1E0D0E0CE01DF91CF9108958FE0FB
:1008E00097E20197F1F700C0000089E30E944304FA
:1008F000892B79F78FEC97E00197F1F700C00000A2
:1009000084E10E944304EC01892B19F780E70E94DF
:10091000430486E50E9443048CE60E9443049FEF53
:1009200021EE84E0915020408040E1F700C00000BB
:1009300088E30E9443048CE00E94430481E00E940B
:1009400043048FE097E20197F1F700C0000086E0D2
:100950000E944304C0CF0C944E04CF93DF93EC016C
:10096000892B31F481E090E008C021960E94AB040D
:1009700088818111FACF80E090E0DF91CF910895D6
:10098000823040F4603130F48111605C862F8068E1
:100990000C94430481E090E0089581E00E944304B8
:1009A000EFE0F7E23197F1F700C000000895EF9211
:1009B000FF920F931F93CF93DF9300D000D000D00E
:1009C000CDB7DEB79C01892B79F480E30F900F90AF
:1009D0000F900F900F900F90DF91CF911F910F917B
:1009E000FF90EF900C944E0440E0EAE0F0E07E01CE
:1009F0008FEFE81AF80AC901BF010E94CF11D70191
:100A0000A40FB11D805D8C93C9019B014F5F0A97B4
:100A100090F78701040F111DE016F10679F480E0CC
:100A200090E00F900F900F900F900F900F90DF912C
:100A3000CF911F910F91FF90EF900895F80182914F
:100A40008F010E94AB04E8CF66E081E00C94A10E18
:100A5000EF92FF920F931F93CF93DF9300D000D0BC
:100A600000D0CDB7DEB7182F7B01672B81F401E0F2
:100A700010E0C8010F900F900F900F900F900F9003
:100A8000DF91CF911F910F91FF90EF900895BE01DC
:100A90006F5F7F4F0E94B60E892B49F7BE016D5FD5
:100AA0007F4F812F0E94B60E892B09F7BE016B5F25
:100AB0007F4F812F0E94B60E8C01892BC1F6498190
:100AC0005A818B819C818417950728F0342F252F1C
:100AD000AC01832F922F2D813E814217530708F4DA
:100AE0009A012817390708F49C01A4E6B0E00E9497
:100AF000C0116B3923E9720721E08207910548F4A0
:100B00002FEF33E040E050E00E94E311F701208333
:100B1000B0CF24E6FBCF41E060E081E00E94CE0E42
:100B2000009709F540E060E081E00E94400F0097E7
:100B3000D1F41092220310921E0310921F03109200
:100B400020031092210310921A0310921B0310929B
:100B50001C0310921D03109216031092170310929B
:100B60001803109219030895CF93C82F81E090E0E5
:100B7000C23018F54C2F60E081E00E94400F0097D2
:100B8000E1F4209122032130D0F4C130A1F440914E
:100B900016035091170360911803709119034F5F6A
:100BA0005F4F6F4F7F4F409316035093170360932F
:100BB000180370931903C0932203CF910895D9F7B6
:100BC000C111F9CF10921E0310921F03109220033F
:100BD00010922103F0CF009739F020912203FC01FD
:100BE000208380E090E0089581E090E008950097F0
:100BF00081F040911E0350911F036091200370917A
:100C00002103FC01408351836283738380E090E081
:100C1000089581E090E00895009781F040911A03D3
:100C200050911B0360911C0370911D03FC014083D4
:100C300051836283738380E090E0089581E090E0C7
:100C40000895009781F04091160350911703609129
:100C5000180370911903FC014083518362837383ED
:100C600080E090E0089581E090E008958091220373
:100C7000813031F580911E0390911F03A0912003D4
:100C8000B09121030196A11DB11D80931E03909385
:100C90001F03A0932003B093210380911A03909126
:100CA0001B03A0911C03B0911D030196A11DB11D52
:100CB00080931A0390931B03A0931C03B0931D030E
:100CC00080E090E0089541E064E081E00E94CE0E73
:100CD000009729F440E064E081E00C94400F08950F
:100CE0000F931F93CF93DF930F92CDB7DEB7198287
:100CF000BE016F5F7F4F0E94FC108C01892B51F465
:100D000041E064E081E00E94400F40E064E081E067
:100D10000E94400FC8010F90DF91CF911F910F915A
:100D2000089541E062E081E00E94CE0E009749F410
:100D300040E062E081E00E94400F009711F41092C1
:100D400023030895CF93C82F81E090E0C23048F488
:100D50004C2F62E081E00E94400F009711F4C09395
:100D60002303CF910895009739F020912303FC01CC
:100D7000208380E090E0089581E090E0089500975E
:100D800041F0FC01E05CFF4F1082319610823196F9
:100D900010820895CF93DF93009749F02FB7F8940E
:100DA000FC01EE5BFF4F3081303430F02FBF81E02B
:100DB00090E0DF91CF910895DC01A05CBF4F3C91A2
:100DC000830F911DEC0168838C918F5F803408F054
:100DD00080E08C9380818F5F80832FBF80E090E0E4
:100DE000E8CFCF93DF93009761F06115710549F06B
:100DF0002FB7F894FC01EE5BFF4F3081311106C034
:100E00002FBF81E090E0DF91CF910895DC01AF5BCF
:100E1000BF4F3C91830F911DEC018881EB018883CA
:100E20008C918F5F803408F080E08C9380818150BA
:100E300080832FBF80E090E0E6CF009761F02FB76E
:100E4000F894FC01EE5BFF4F90812FBF81E091157C
:100E500019F080E0089581E00895AC0120E0892B2D
:100E600051F480E008958FE9890F8A3108F4905297
:100E70003913F7CF2F5FFB01E20FF11D3081FA012B
:100E8000E20FF11D90813111EECF9D3061F038F409
:100E9000911549F0995081E0923018F7089581E05A
:100EA0009032F9F6089581E00895DC01ED91FD910D
:100EB0001297309749F09081903239F087EF890F7F
:100EC000823018F09D3009F008953196ED93FD932E
:100ED0001297ECCF0C948E11CF93DF9381EE93E0B9
:100EE0000E94BF068EE493E00E94E1091092240361
:100EF00060E875E280E090E00E946D11EC01892BC2
:100F000059F481EE93E00E94B91181E00E94AD1185
:100F1000CE01DF91CF910895C1E0D0E0F9CF86ED09
:100F200090E00E9494118DED90E00E94941186EE65
:100F300090E00E9494118FEE90E00E94941187EF50
:100F400090E00E94941181E091E00E9494118CE065
:100F500091E00E94941183E191E00E94941189E153
:100F600091E00E94941183E291E00C9494118EE43C
:100F700093E00E94FB09811107C08FE291E00E947B
:100F8000941180E090E008956AE677E08EE493E0C3
:100F90000E94090AF6CF0F931F93CF93DF9300D0DF
:100FA00000D000D0CDB7DEB7009789F48BE391E095
:100FB0000E94941181E090E00F900F900F900F909D
:100FC0000F900F90DF91CF911F910F9108958D8316
:100FD0009E83CE0105960E9455070D811E81F80162
:100FE00098012F5D3F4F8081811531F08D3021F0C8
:100FF000C0F489508230B8F460E571E0C8010E9405
:101000002D07811107C067E571E0C8010E942D0717
:10101000811581F088E990E00E94941180E090E0D1
:10102000CBCF803249F331962E173F07E1F685E4A6
:1010300091E0BECF6FE571E0C8010E942D078115D8
:1010400019F00E948F07EACF64E671E0C8010E94A0
:101050002D07811519F088E691E0DECF6DE671E08D
:10106000C8010E942D07811561F00F900F900F901D
:101070000F900F900F90DF91CF911F910F910C94D3
:10108000B70765E771E0C8010E942D07811529F0B7
:101090008EE493E00E94040ADECF6FE771E0C8019E
:1010A0000E942D07811519F086E891E0B5CF60E91F
:1010B00071E0C8010E942D07811519F086E991E0C1
:1010C000ABCF61EA71E0C8010E942D07811519F0CC
:1010D00089EA91E0A1CF64EB71E0C8010E942D077D
:1010E000811519F08DEB91E097CF69EC71E0C801A3
:1010F0000E942D07811519F08EEC91E08DCF68EEDE
:1011000071E0C8010E942D078111A5CF62EF71E047
:10111000C8010E942D0781119ECF6EEF71E0C801BA
:101120000E942D07811197CF66E072E0C8010E94EE
:101130002D07811190CF6FE072E0C8010E942D074A
:10114000811189CF68E172E0C8010E942D078111E9
:1011500082CF62E272E0C8010E942D0781117BCF2D
:101160006DE272E0C8010E942D07811174CF69E31E
:1011700072E0C8010E942D07811519F08FE392E0FB
:101180004BCFF80180818F7D833509F00FCF8181AE
:101190008F7D853409F00ACF82818F7D843509F0F7
:1011A00005CF8381803219F0893009F0FFCEF80134
:1011B00084818F7D833509F0F9CE85818F7D8435DB
:1011C00009F0F4CE095F1F4F0B831C83CE010396F9
:1011D0000E9455078B819C8189839A83892B09F40E
:1011E000E5CECE0101960E945507E981FA81808102
:1011F00080538A3008F0DACE819180538A30E0F350
:101200002ACF0F931F93CF93DF9300D00F92CDB7C8
:10121000DEB78E010F5F1F4F81EE93E00E941D0726
:10122000811541F00F900F900F90DF91CF911F919A
:101230000F910895B80181EE93E00E94F1060A83B0
:101240001B83892B79F78981E09124038D3011F07C
:101250008A3069F4E11501F3F0E0EB5DFC4F108298
:1012600085E293E00E94CB0710922403D5CFE832A9
:1012700048F4AE2FB0E0AB5DBC4F8C93EF5FE093D2
:101280002403CACF85E491E00E94941181EE93E09B
:101290000E941D078111E8CF6A817B8181EE93E076
:1012A0000E94F106892B01F789818D30E9F28A309D
:1012B00069F7DACF1092240480E090E00895009757
:1012C00079F0FC0186818E3130F481E08093240432
:1012D00080E090E008958B35D8F310922404F8CF85
:1012E00081E090E008958091240408958F929F9268
:1012F000AF92BF92CF92DF92EF92FF921F93CF9364
:10130000DF93CDB7DEB72A970FB6F894DEBF0FBED6
:10131000CDBF6B017C014A0141155105C9F1C114D2
:10132000D104E104F104A1F480E3FA012A960FB696
:10133000F894DEBF0FBECDBFDF91CF911F91FF901C
:10134000EF90DF90CF90BF90AF909F908F900994D7
:1013500010E05E01FFEFAF1ABF0AB601C7012AE035
:1013600030E040E050E00E94E311F501E10FF11D93
:101370006083C601D70169017A011F5F0A97A10541
:10138000B10558F77501E10EF11CAE14BF0491F4DC
:101390002A960FB6F894DEBF0FBECDBFDF91CF9176
:1013A0001F91FF90EF90DF90CF90BF90AF909F90F4
:1013B0008F900895F70182917F01805DF401099576
:1013C000E4CF0097B9F0FC019C0120573F4F1082F9
:1013D000118212821382148215821682178210865D
:1013E0003996E217F30799F71082FC01EF56FF4F89
:1013F000119210820895009729F0FC01EE56FF4FDC
:101400008081089580E00895009711F00C94E1091F
:1014100008956F927F928F929F92AF92BF92CF92D8
:10142000DF92EF92FF920F931F93CF93DF93CDB78D
:10143000DEB728970FB6F894DEBF0FBECDBF8C0184
:101440006F8378870097A1F0672B91F05C0182E9A8
:10145000A80EB11CD5018C91811551F0912CF80189
:10146000E057FF4FED83FE83D5018C919816A8F0CD
:1014700028960FB6F894DEBF0FBECDBFDF91CF9197
:101480001F910F91FF90EF90DF90CF90BF90AF90A2
:101490009F908F907F906F900895AD81BE818C91C9
:1014A000815F89198F70F801B9E08B9FE00DF11D04
:1014B0001124808081819281A381B48189839A8360
:1014C000AB83BC8375806680E780F0848DE4C82E92
:1014D00082E0D82ED6018D916D01EF81F8850995B6
:1014E000F1E5CF16F2E0DF06A9F7692D70E080E0A4
:1014F00090E04F8158850E9476098CE2EF81F88553
:101500000995682D70E080E090E04F8158850E9439
:1015100076098CE2EF81F88509954F8158856981BC
:101520007A818B819C810E9476098CE2EF81F8851B
:101530000995672D70E080E090E04F8158850E940A
:1015400076098CE2EF81F8850995662D70E080E0E0
:1015500090E04F8158850E9476098CE2EF81F885F2
:101560000995B70180E090E04F8158850E94760987
:101570008DE0EF81F88509958AE0EF81F88509957E
:10158000939472CF40E061E081E00E94CE0E00971C
:1015900011F40E942E1110922B0410922C04109220
:1015A000290410922A041092250410922604109205
:1015B00027041092280408950E943F1120912B04C3
:1015C00030912C04AC01421B530B9A0180932B04E5
:1015D00090932C044093290430932A04809125048D
:1015E00090912604A0912704B0912804840F951FA0
:1015F000A11DB11D8093250490932604A093270478
:10160000B093280480E090E00895609129047091DF
:101610002A0480E090E022E0660F771F881F991F60
:101620002A95D1F723E030E040E050E00E94E3113A
:10163000C901089520912504309126044091270482
:1016400050912804A8EEB3E00E940B1222EC31E086
:1016500040E050E00E94E311B901CA0108951092E0
:101660003C0410923D0410923A0410923B041092F4
:1016700038041092390410923604109237041092F4
:1016800034041092350410923204109233041092F4
:10169000300410923104089510923E0410923F04D9
:1016A00010922D040E942F0B10922F0410922E04E2
:1016B00080E090E0089581E080932D0480E090E048
:1016C0000895CF93DF93FC01C0913E04D0913F0475
:1016D000209709F446C080912D04811591F0109255
:1016E0002D04C430D10591F180F4C230D10529F127
:1016F000C330D105C9F48781893118F0818983FF0E
:101700000AC0CE01DF91CF910895C630D105D1F046
:10171000C730D105F9F010923E0410923F040E94A8
:101720002F0BC0E0D0E0EDCF8681803618F48189A0
:1017300082FFF1CFC1E0D0E0E4CF80859185883E83
:101740009340F8F6818980FDDCCFE5CF8781893130
:10175000C0F2E1CF8081918101978E3F934088F65E
:10176000DACF918992FD13C08681833698F020915B
:101770003C0430913D04283C310548F42F5F3F4F35
:1017800020933C0430933D04283C310539F4C1E0FA
:10179000D0E013C010923C0410923D044085518566
:1017A00041346FE15607C8F120913A0430913B046F
:1017B0002233310588F0C2E0D0E01092320410925A
:1017C00033041092300410923104C0933E041092FE
:1017D0003F040E942F0B95CF2F5F3F4F20933A0479
:1017E00030933B042233310531F393FDC4C027818C
:1017F0002A3008F4C0C090FF31C0228533852A30DA
:10180000310538F52091360430913704283E63E0E5
:10181000360740F0C4E0D0E0D0CF10923A041092E6
:101820003B04E3CF2F5F3F4F2093360430933704C0
:10183000283E334079F3443F5140A0F420913804CE
:10184000309139042C3241E0340788F0C5E0D0E013
:10185000B4CF1092360410923704EDCF10923604B4
:1018600010923704109238041092390409C02F5F87
:101870003F4F20933804309339042C32314031F3F8
:10188000248935892538334008F078C0208131819A
:101890002115310519F02F3F334001F52091340413
:1018A00030913504243F41E0340718F0C7E0D0E020
:1018B00084CF2F5F3F4F2093340430933504243F6F
:1018C0003140A1F322893AEF320F323010F0233049
:1018D00051F4109232041092330419C0109234045F
:1018E00010923504EFCF90FD28C020913204309142
:1018F00033042115310581F480932F042F5F3F4F6E
:1019000020933204309333042037374149F010924A
:10191000300410923104F5CE203797E1390770F387
:1019200090912F048917A8F6292F281B330B2630F6
:10193000310578F2C8E0D0E040CF10923204109226
:101940003304209130043091310421153105C9F060
:10195000203E4EE23407B8F090912E049817D0F450
:10196000203E3E4208F4CDCE891B813009F0C9CE1D
:10197000C9E0D0E02ACFC3E0D0E01FCFC6E0D0E07E
:101980001CCF80932E042F5F3F4F20933004309361
:101990003104E2CF203E3E4208F4B3CEE9CFE1E489
:1019A000F4E0108211821282138214821582168250
:1019B00017821086118612863C9684E0E13AF80779
:1019C00081F781E08093400480E090E00895CF9219
:1019D000DF92EF92FF92CF93DF93EC016A017B01DC
:1019E000809140048115F1F12097E1F18AE0C81659
:1019F000D104E104F104B0F1BA01C7012AE030E0FA
:101A000040E050E00E94E311672B682B692B51F5F1
:101A1000E1E4F4E080E090E0228521111EC02CE09A
:101A2000289FF001299FF00D1124EF5BFB4FC0832D
:101A3000D183C282D382E482F582C682D782E086D5
:101A4000F186138681E0828780E090E0DF91CF917C
:101A5000FF90EF90DF90CF90089501963C968830EC
:101A60009105D1F681E090E0F1CF8091400481159D
:101A700041F1E1E4F4E021E082858130E9F48681FE
:101A80009781A085B1858A309105A105B10538F00F
:101A90000A97A109B10986839783A087B187892B0B
:101AA0008A2B8B2B49F482819381A481B581868313
:101AB0009783A087B18723873C9684E0E13AF807B3
:101AC000D9F60895CF93DF9380914004811589F072
:101AD000C1E4D4E08A85813039F48B85813021F4EA
:101AE0001B86E881F98109952C9684E0C13AD807D4
:101AF00089F7DF91CF91089580E00E94B40580E0DE
:101B00000C94A2061092A3041092A4041092A104B3
:101B10001092A20480E797E180937E0090937F006B
:101B200080E00E94B405009719F480E00C94A206AE
:101B300008958091A3049091A40408950C945B0BE4
:101B40000F931F93CF93DF9300D000D000D0CDB779
:101B5000DEB78C011D821E821B821C8219821A82B2
:101B600081E090E00115110509F490C0F801818928
:101B700080FD2BC080917E0090917F008037F7E13F
:101B80009F0728F4019680937E0090937F00BE010A
:101B90006B5F7F4F80E090E00E941E03BE016D5F8F
:101BA0007F4F81E090E00E941E03BE016F5F7F4F78
:101BB00082E090E00E941E03C8010E94610B892B05
:101BC00049F00E947C0D85E074C010927E00109256
:101BD0007F00DDCF89819A810397029710F40E94DC
:101BE0009E0DE091A304F091A4048D819E81039742
:101BF000B9F5E630F10599F40E947C0D81E08093FF
:101C0000A3041092A4040E947C0D1092A1041092CF
:101C1000A204F8018781893198F584E04AC0CF0198
:101C200001970297E8F40E947C0D86E08093A3045C
:101C30001092A4048B819C81039769F480917E00AB
:101C400090917F008037974130F081E00E94B40589
:101C500081E00E94A206F801818980FF15C044C07E
:101C6000E830F10508F0ADCFE85EFD4E0C940512AA
:101C70000E947C0D1092A1041092A20481E019C070
:101C80000E94730981110DC080E090E00F900F90C9
:101C90000F900F900F900F90DF91CF911F910F91A8
:101CA000089580917E0090917F008037974160F386
:101CB00082E08093A3041092A404E6CFF801878108
:101CC000893118F40E947C0DA8CF0E9473098111FC
:101CD00008C00E947C0D1092A1041092A20483E01F
:101CE000E8CF81E00E94B40581E00E94A206CCCF3B
:101CF0000E947C0D8091A1049091A204843FF1E0A8
:101D00009F0708F0B7CF01968093A1049093A20497
:101D1000843F914009F0B8CFADCF0E947C0DF8010F
:101D20008781893108F4B0CFA9CF0E947C0DC8010A
:101D30000E94610B892B09F4A1CFA6CF0E947C0DD4
:101D4000A3CF823010F0833071F49FEF960F97305D
:101D500050F48295880F880F807C87B9606866B9D7
:101D600080E090E0089581E090E00895883098F454
:101D70006115710581F097B1907E982B97B9369ACD
:101D8000349BFECF349A84B125B1FB01808321833B
:101D900080E090E0089581E090E00895843008F0BC
:101DA0006CC0683008F069C0433008F066C021E0BC
:101DB00030E0F90101C0EE0F6A95EAF76E2F41306D
:101DC00028F560958230A1F08330C9F0813039F078
:101DD0008AB386238ABB8BB386238BBB06C087B3AB
:101DE000862387BB88B3862388BB80E090E0089574
:101DF00084B3862384BB85B3862385BBF6CF81B3AA
:101E0000862381BB82B3862382BBEFCFB1F48230BD
:101E100061F0833071F0813021F08AB38E2B8ABB60
:101E2000E4CF87B38E2B87BBE0CF84B38E2B84BBEC
:101E3000DCCF81B38E2B81BBD8CF9E2F9095823083
:101E400081F08330A1F0813031F08AB389238ABBDD
:101E50008BB38E2BC2CF87B3892387BB88B38E2BDE
:101E6000C3CF84B3892384BB85B38E2BC6CF81B304
:101E7000892381BB82B38E2BC7CF81E090E0089588
:101E80008430C8F56830B8F54230A8F521E030E07C
:101E9000F90101C0EE0F6A95EAF76E2F4130C1F4E7
:101EA000823061F0833081F0813021F08BB38E2B52
:101EB0008BBB07C088B38E2B88BB03C085B38E2B2A
:101EC00085BB80E090E0089582B38E2B82BBF9CF72
:101ED0006095823051F0833059F0813019F08BB326
:101EE0008623E6CF88B38623E7CF85B38623E8CF62
:101EF00082B38623EBCF81E090E00895FA0184302D
:101F0000E0F46830D0F43097C1F0823091F0833043
:101F100091F0813061F089B390E002C0959587958A
:101F20006A95E2F78170808380E090E0089586B33F
:101F3000F3CF83B3F1CF80B3EFCF81E090E008958A
:101F40009B01AC012115310541055105B9F060E057
:101F500072E18AE790E00E94E311205131094109C2
:101F60005109569547953795279520B981B18C7FB2
:101F700081B984E086BF80E090E0089581E090E040
:101F8000089584EA86BF06B607FEFDCF91B1987F1B
:101F900021E030E0983009F420E0C901089584E997
:101FA00086BF0895880F83B984E886BF06B607FE0A
:101FB000FDCF91B1987F21E030E0983109F420E025
:101FC000C901089583B984E886BF06B607FEFDCF30
:101FD00091B1987F21E030E0983209F420E0C90106
:101FE00008958FB780688FBF80E090E008958130BA
:101FF00079F08230C1F0811121C06430F8F485B7E6
:102000008C7F85BF85B7862B85BF80E090E00895E3
:102010006430A0F485B7837F85BF85B7660F660FF0
:10202000682B65BFF2CF623021F484B78F7B84BF09
:10203000ECCF633019F484B78064F9CF81E090E08D
:102040000895813051F0823059F081110CC08AB767
:1020500080648ABF80E090E008958AB78068F9CFF5
:102060008AB78062F6CF81E090E00895813069F010
:10207000823089F0811115C08AB780648ABF8BB71E
:1020800080648BBF80E090E008958AB780688ABF43
:102090008BB78068F6CF8AB780628ABF8BB78062C1
:1020A000F0CF81E090E0089561157105B9F08130BD
:1020B00059F0823071F0811111C06093A9047093BE
:1020C000AA0480E090E008956093A7047093A804A8
:1020D000F8CF6093A5047093A604F3CF81E090E05D
:1020E00008951F920F920FB60F9211242F933F93D2
:1020F0004F935F936F937F938F939F93AF93BF9310
:10210000EF93FF93E091A904F091AA04309709F0AE
:102110000995FF91EF91BF91AF919F918F917F9121
:102120006F915F914F913F912F910F900FBE0F9044
:102130001F9018951F920F920FB60F9211242F9394
:102140003F934F935F936F937F938F939F93AF933F
:10215000BF93EF93FF93E091A704F091A804309709
:1021600009F00995FF91EF91BF91AF919F918F91E8
:102170007F916F915F914F913F912F910F900FBE83
:102180000F901F9018951F920F920FB60F92112467
:102190002F933F934F935F936F937F938F939F936F
:1021A000AF93BF93EF93FF93E091A504F091A60442
:1021B000309709F00995FF91EF91BF91AF919F91F1
:1021C0008F917F916F915F914F913F912F910F90E0
:1021D0000FBE0F901F901895843058F4BC9ABD9A8A
:1021E000BE98BF9AC49A80658DB9709880E090E0DF
:1021F000089581E090E008956115710549F08FB967
:10220000779BFECF8FB1FB01808380E090E0089543
:1022100081E090E0089588E083BF8CE78CBF12BE18
:1022200083B7887F83BF80E090E00895AC0182E0AF
:1022300088BF93B7936093BF20E030E02417350741
:1022400031F483B7887F83BF80E090E0089508B6BB
:1022500001FEFDCF88BF2F5F3F4FF0CF8EB5887F47
:102260008EBD8FB58C7F8FBD8EB5877E8EBD1DBC1C
:102270001CBC8EB587608EBD80E090E008958CB563
:102280009DB508951F920F920FB60F9211242F93B0
:102290003F934F935F936F937F938F939F93AF93EE
:1022A000BF93EF93FF936CB18091AB049091AC041A
:1022B000009711F00E94CA06FF91EF91BF91AF9174
:1022C0009F918F917F916F915F914F913F912F914E
:1022D0000F900FBE0F901F901895009770406040B0
:1022E000D1F09B01AC0184E0220F331F441F551F26
:1022F0008A95D1F760E072E18AE790E00E94E311ED
:102300002150310930BD29B986E880BD88E18AB9FC
:1023100080E090E0089581E090E008955D9BFECF1D
:102320008CB980E090E008950F931F93CF938C01B8
:10233000C0E0892B31F481E090E00BC00E948E1147
:10234000CF5FF801EC0FF11D80818111F7CF80E0A4
:1023500090E0CF911F910F910895813021F4579A09
:1023600080E090E0089510F45798FACF81E090E073
:1023700008958093AB049093AC0480E090E00895BE
:10238000A29FB001B39FC001A39F700D811D1124B6
:10239000911DB29F700D811D1124911D0895AA1BDE
:1023A000BB1B51E107C0AA1FBB1FA617B70710F040
:1023B000A61BB70B881F991F5A95A9F78095909572
:1023C000BC01CD010895A1E21A2EAA1BBB1BFD0181
:1023D0000DC0AA1FBB1FEE1FFF1FA217B307E40704
:1023E000F50720F0A21BB30BE40BF50B661F771F5C
:1023F000881F991F1A9469F760957095809590953C
:102400009B01AC01BD01CF010895EE0FFF1F0590A8
:10241000F491E02D09940E94C011A59F900DB49FE6
:10242000900DA49F800D911D11240895F894FFCF65
:10243000380E030E5E0E780E8D0E950E1A0E9E0E41
:102440000400000000000000000005000000000083
:1024500000000000030000000000000000007017F2
:102460004C3A002520523A002500463A002E004CF6
:102470002F6D200052554E002457542C4C3D302CCB
:10248000523D302C493D302C513D302C563D302CA6
:10249000503D302C56323D302C53543D494E49541A
:1024A0002C54523D302C52554E3D302C55503D3021
:1024B0002A33410D0A0048454C500D0A005354413F
:1024C0005455530D0A004C4556454C3F0D0A0046E5
:1024D0004C4F573F0D0A00564F4C554D453F0D0A86
:1024E0000043555252454E543F0D0A004346473F64
:1024F0000D0A0041434B0D0A004641554C54533FD1
:102500000D0A00434C524641554C54530D0A004E9F
:102510004F204641554C54530D0A0045525220431A
:102520004D440D0A00455252204C4F4E470D0A00B3
:10253000535441545553005354415455533F00484C
:10254000454C500041434B004F4B0D0A004641554E
:102550004C54533F00434C524641554C5453004C4D
:102560004556454C3F004C4556454C3D300D0A0004
:10257000464C4F573F00464C4F573D302E300D0ACA
:1025800000564F4C554D453F00564F4C554D453D1F
:10259000300D0A0043555252454E543F00435552A8
:1025A00052454E543D300D0A004346473F004346D6
:1025B000473D302C302C302C302C302C302C302C13
:1025C000302C302C300D0A004D4F444520415554DD
:1025D0004F004D4F4445204D414E55414C00505504
:1025E0004D50204F4E0050554D50204F46460056FE
:1025F000414C5645204F4E0056414C5645204F46C3
:10260000460053455256494345204F4E00534552CC
:1026100056494345204F464600545249503F0054C6
:102620005249503D302C4E4F4E450D0A00464C54F9
:022630002C007C
:00000001FF
