:100000000C942A000C94F0110C9419120C944212C6
:100010000C9447000C9447000C9447000C94470044
:100020000C9447000C9447000C9447000C94470034
:100030000C9447000C94C1120C9447000C94470098
:100040000C9447000C9447000C9447000C94470014
:100050000C94470011241FBECFE5D8E0DEBFCDBF12
:1000600012E0A0E6B0E0EAE4FFE202C005900D92E3
:10007000A835B107D9F724E0A8E5B2E001C01D9288
:10008000A63BB207E1F70E94C1010C9492170C94B1
:100090000000CF93DF9300D000D0CDB7DEB78091C2
:1000A000F7029091F8026AE070E00E944E136983B3
:1000B0007A838B839C830E94C20560E080E00E946B
:1000C000B50580E890E00E94A2058091F30290E0DF
:1000D0000E94CC0583E890E00E94A2058091F40282
:1000E00090E00E94CC0588E890E00E94A20560E0C4
:1000F00081E00E94B5058AE890E00E94A20589810E
:100100009A810E94CC058DE890E00E94A2058B8127
:100110009C810E94CC058FE890E00E94A20580910E
:10012000FE0280FF0AC084E990E00F900F900F90CC
:100130000F90DF91CF910C94A2058AE392E0F5CF66
:1001400080E00E94A90680E00C9497070F931F930C
:10015000CF93DF93CDB7DEB729970FB6F894DEBF04
:100160000FBECDBF8E010B5F1F4FB80180E00E9414
:100170003510B801892B31F48D819E818093ED0279
:100180009093EE0281E00E943510892B31F48D812D
:100190009E818093EF029093F0028E01075F1F4FC4
:1001A000B80180E00E941D06B801892B19F48985E9
:1001B0008093F30281E00E941D06892B19F4898542
:1001C0008093F40285EF92E00E94C404892B21F011
:1001D0001092F5021092F6020E944A0C8093F702E8
:1001E0009093F8020E945F0C28EE33E040E050E06C
:1001F0000E9462132093F9023093FA024093FB02AB
:100200005093FC020E940F059091FE0280FB92F930
:100210009093FE020E9412059091FE0280FB93F9DA
:100220009093FE02CE0108960E94E006892B09F009
:100230004DC0888581709091FE0280FB90F990936B
:10024000FE02CE0107960E94A807892B09F040C044
:100250008F8181709091FE0280FB91F99093FE0254
:100260008E010F5F1F4FC8010E94EC06892B91F58C
:1002700089819A81809301039093020383E093E044
:100280000E940107892B41F010920303109204038E
:100290001092050310920603C8010E941607892BCD
:1002A000E1F489819A8180930703909308030E9467
:1002B000F90E8093FF0229960FB6F894DEBF0FBEA9
:1002C000CDBFDF91CF911F910F91089580E0B3CF03
:1002D00080E0C0CF80E090E0CDCF80E090E0E3CF41
:1002E0000E942B070E94210C8091090390910A0320
:1002F000A0910B03B0910C030196A11DB11D809339
:10030000090390930A03A0930B03B0930C030C947E
:10031000A60083E00E94A5030E94E7040E94510406
:100320000E94A6008DEE92E00E94A40A8DEE92E05B
:100330000E94030F0E94F90E8093FF020E94141086
:100340008115D1F0809158029091590201968093C5
:1003500058029093590241E08431910520F084368F
:10036000910528F440E063E081E00C94BF10109206
:100370005802109259020895109258021092590290
:10038000F1CF1092ED021092EE021092EF02109255
:10039000F0021092F1021092F2021092F302109207
:1003A000F4021092F5021092F6021092F7021092E7
:1003B000F8021092F9021092FA021092FB021092C7
:1003C000FC021092FD028091FE02807F8093FE026B
:1003D0001092FF0210920003109201031092020388
:1003E0001092030310920403109205031092060367
:1003F00010920703109208031092090310920A0347
:1004000010920B0310920C030E948A1280E00E944B
:10041000190681E00E946B120E9458070E94800614
:100420000E94860741E063E081E00E944D1040E0B9
:1004300063E081E00E94BF100E94D1040E9430045A
:1004400083E00E945D0382E00E9422030E94070C69
:1004500060EA76E881E090E00E941F110E944E055C
:100460000E949F0A0E94950C0E94E00E8AE592E08D
:100470000E94260B0E94610860EA70E080E00E9402
:10048000D31162E080E00E94761180E00E94A0110A
:1004900080E00E94B5110E9470110E942D0E4AE06A
:1004A00050E060E070E089E891E00E94450E44EF82
:1004B00051E060E070E089E490E00E94450E48EE73
:1004C00053E060E070E080E791E00E94450E0E94FA
:1004D000A6000E94F90E8093FF028AE090E00E943D
:1004E00095120E94930E0E94C00E0E94460A0E941E
:1004F000F90E9C019091FE02892F817091FD82601E
:1005000092FD846093FD88602530310549F4806157
:100510000E9465076091F30282E00E949A02DDCF9B
:100520002630310511F48062F3CF2730310581F791
:100530008064EECFFF920F931F93CF93DF9300D091
:100540000F92CDB7DEB7898381E090E0653690F5F4
:100550006931C8F16233E0F16B34F0F111E06F35CD
:1005600008F410E001E0F02E41E062E089810E9491
:10057000BF108A839B834F2D63E089810E94BF1047
:100580002A813B81282B392B2A833B83402F64E02F
:1005900089810E94BF102A813B81282B392B2A8315
:1005A0003B83412F65E089810E94BF102A813B81F6
:1005B000822B932B0F900F900F90DF91CF911F9173
:1005C0000F91FF90089500E0F12C40E010E0CDCFB6
:1005D00000E0F12C41E0FACF00E0FF24F394FACFE1
:1005E000CF93DF9300D00F92CDB7DEB7898340E081
:1005F00062E00E94BF108A839B8340E063E08981B0
:100600000E94BF102A813B81282B392B2A833B83F0
:1006100040E064E089810E94BF102A813B81282B41
:10062000392B2A833B8340E065E089810E94BF101B
:100630002A813B81822B932B0F900F900F90DF919B
:10064000CF910895CF93DF9300D00F92CDB7DEB74F
:10065000898341E062E00E944D108A839B8341E0E0
:1006600063E089810E944D102A813B81282B392B20
:100670002A833B8341E064E089810E944D102A81F6
:100680003B81282B392B2A833B8341E065E089811C
:100690000E944D102A813B81282B392B2A833B83D2
:1006A00089810E94F0022A813B81822B932B0F903B
:1006B0000F900F90DF91CF910895CF93DF9300D0EB
:1006C0000F92CDB7DEB7898340E064E00E944D1001
:1006D0008A839B8340E065E089810E944D102A81D6
:1006E0003B81282B392B2A833B8340E063E08981BF
:1006F0000E944D102A813B81282B392B2A833B8372
:1007000041E064E089810E94BF102A813B81282B4F
:10071000392B2A833B8341E065E089810E94BF1029
:100720002A813B81282B392B2A833B8341E063E0DC
:1007300089810E94BF102A813B81822B932B0F90CD
:100740000F900F90DF91CF910895FF920F931F9319
:10075000CF93DF9300D0CDB7DEB78A8300E610E0F9
:10076000F12CAE014F5F5F4FF80160818A810E94DA
:10077000FD1091E08981811190E0F8018181891358
:1007800036C084818530B0F58F5F8483853091F1E8
:10079000F80182819381891709F444C0813069F599
:1007A00021E0208711861582168217828383F80143
:1007B000858196818436910518F401968583968308
:1007C000F2E0FF1221C08091790090917A00843686
:1007D0009105D0F080917B00811116C084E0809358
:1007E0007C0010927D0081E080937B000DC091839E
:1007F0001482CECFF8019283CBCF978123E0911161
:1008000022E0208711868383F394065F1F4F83E0E5
:10081000F812A7CF0F900F90DF91CF911F910F91FA
:10082000FF900895813081F7C2CF83309105A8F4FD
:100830006115710591F02AE0289FF001299FF00DC4
:100840001124E05AFF4F80859185DB018D939D93A4
:100850001086118680E090E0089581E090E0089590
:1008600010921A0310921B031092110310920D03A1
:1008700010920E0310920F031092100310921203A5
:100880001092130310921403109215031092160382
:1008900010921703109218031092190380E090E051
:1008A00008958F929F92AF92BF92DF92EF92FF9244
:1008B0000F931F93CF93DF9300D0CDB7DEB719828C
:1008C0001A82BE016F5F7F4F82E00E9435108C015B
:1008D000892B09F04AC029813A81A0E1B7E20E9440
:1008E0003F132FEF33E040E050E00E946213D090BE
:1008F00011036D2D70E0C901A0E0B0E07B01EE0CAA
:10090000FF1CF701EE5EFC4F60817181861B970B27
:10091000A109B10980900D0390900E03A0900F03E0
:10092000B0901003880D991DAA1DBB1D61E06D0DCF
:10093000643008F060E0F701EE5EFC4F2083318305
:1009400080930D0390930E03A0930F03B0931003B5
:100950006093110322E0B695A795979587952A9500
:10096000D1F780931A0390931B03C8010F900F9047
:10097000DF91CF911F910F91FF90EF90DF90BF908B
:10098000AF909F908F900895009741F024EC39E04C
:10099000FC012083318380E090E0089581E090E0C5
:1009A000089542E062E083E00E944D10892B19F027
:1009B00081E090E0089542E066E083E00E944D10FF
:1009C0000097B1F710921D0310921C030895CF9366
:1009D000DF9300D0CDB7DEB71A821982AE014E5F29
:1009E0005F4F62E083E00E94FD10AE014F5F5F4FFA
:1009F00066E083E00E94FD1081E09A81911180E021
:100A000080931D0381E09981911180E080931C0304
:100A100080E090E00F900F90DF91CF91089580914A
:100A20001D03089580911C030895CF93DF93D82F61
:100A3000C62F0E944011892B39F48EE30E94511178
:100A4000892B41F00E944E11C1E0D0E0CE01DF9130
:100A5000CF9108958D2F0E946111892B99F78C2FCA
:100A60000E946111EC01892B69F70E944E11EECFB3
:100A7000682F80E00E941505EFE9FFE03197F1F75C
:100A800000C000000895682F80E40E941505EFEC77
:100A9000F7E03197F1F700C000000895CF93DF939E
:100AA0002FE788E391E0215080409040E1F700C0BB
:100AB000000088E30E943805892B31F0C1E0D0E0C6
:100AC000CE01DF91CF9108958FE097E20197F1F782
:100AD00000C0000089E30E943805892B79F78FEC6C
:100AE00097E00197F1F700C0000084E10E9438050B
:100AF000EC01892B19F780E70E94380586E50E94F2
:100B000038058CE60E9438059FEF21EE84E0915075
:100B100020408040E1F700C0000088E30E943805D3
:100B20008CE00E94380581E00E9438058FE097E252
:100B30000197F1F700C0000086E00E943805C0CFA1
:100B40000C944305CF93DF93EC01892B31F481E0C2
:100B500090E008C021960E94A00588818111FACFFB
:100B600080E090E0DF91CF910895823040F46031D1
:100B700030F48111605C862F80680C94380581E028
:100B800090E0089581E00E943805EFE0F7E23197A8
:100B9000F1F700C000000895EF92FF920F931F93AA
:100BA000CF93DF9300D000D000D0CDB7DEB79C014B
:100BB000892B79F480E30F900F900F900F900F9096
:100BC0000F90DF91CF911F910F91FF90EF900C94B8
:100BD000430540E0EAE0F0E07E018FEFE81AF80A12
:100BE000C901BF010E944E13D701A40FB11D805D42
:100BF0008C93C9019B014F5F0A9790F78701040FFF
:100C0000111DE016F10679F480E090E00F900F904E
:100C10000F900F900F900F90DF91CF911F910F9138
:100C2000FF90EF900895F80182918F010E94A00536
:100C3000E8CF66E081E00C942010EF92FF920F93D2
:100C40001F93CF93DF9300D000D000D0CDB7DEB795
:100C5000182F7B01672B81F401E010E0C8010F9091
:100C60000F900F900F900F900F90DF91CF911F91E9
:100C70000F91FF90EF900895BE016F5F7F4F0E942C
:100C80003510892B49F7BE016D5F7F4F812F0E9480
:100C90003510892B09F7BE016B5F7F4F812F0E94B2
:100CA00035108C01892BC1F649815A818B819C8139
:100CB0008417950728F0342F252FAC01832F922F0E
:100CC0002D813E814217530708F49A0128173907EE
:100CD00008F49C01A4E6B0E00E943F136B3923E9BD
:100CE000720721E08207910548F42FEF33E040E0DE
:100CF00050E00E946213F7012083B0CF24E6FBCFBF
:100D000041E060E081E00E944D10009709F540E06D
:100D100060E081E00E94BF100097D1F410922A0396
:100D20001092260310922703109228031092290391
:100D30001092220310922303109224031092250391
:100D400010921E0310921F03109220031092210391
:100D50000895CF93C82F81E090E0C23018F54C2F52
:100D600060E081E00E94BF100097E1F420912A0327
:100D70002130D0F4C130A1F440911E0350911F03E3
:100D800060912003709121034F5F5F4F6F4F7F4F42
:100D900040931E0350931F0360932003709321031D
:100DA000C0932A03CF910895D9F7C111F9CF1092BA
:100DB0002603109227031092280310922903F0CFE4
:100DC000009739F020912A03FC01208380E090E015
:100DD000089581E090E00895009781F04091260306
:100DE000509127036091280370912903FC014083EF
:100DF00051836283738380E090E0089581E090E006
:100E00000895009781F0409122035091230360914F
:100E1000240370912503FC01408351836283738313
:100E200080E090E0089581E090E00895009781F0DF
:100E300040911E0350911F03609120037091210384
:100E4000FC01408351836283738380E090E00895C6
:100E500081E090E0089580912A03813031F58091FE
:100E6000260390912703A0912803B09129030196AE
:100E7000A11DB11D8093260390932703A0932803FF
:100E8000B09329038091220390912303A09124031E
:100E9000B09125030196A11DB11D8093220390936B
:100EA0002303A0932403B093250380E090E00895EA
:100EB00041E064E081E00E944D10009729F440E099
:100EC00064E081E00C94BF1008950F931F93CF93BB
:100ED000DF930F92CDB7DEB71982BE016F5F7F4FF0
:100EE0000E947B128C01892B51F441E064E081E087
:100EF0000E94BF1040E064E081E00E94BF10C80182
:100F00000F90DF91CF911F910F91089541E062E022
:100F100081E00E944D10009749F440E062E081E0DA
:100F20000E94BF10009711F410922B030895CF93E5
:100F3000C82F81E090E0C23048F44C2F62E081E09D
:100F40000E94BF10009711F4C0932B03CF91089516
:100F5000009739F020912B03FC01208380E090E082
:100F6000089581E090E00895009741F0FC01E05C75
:100F7000FF4F108231961082319610820895CF93E0
:100F8000DF93009749F02FB7F894FC01EE5BFF4F19
:100F90003081303430F02FBF81E090E0DF91CF918D
:100FA0000895DC01A05CBF4F3C91830F911DEC01C3
:100FB00068838C918F5F803408F080E08C9380810F
:100FC0008F5F80832FBF80E090E0E8CFCF93DF93E7
:100FD000009761F06115710549F02FB7F894FC0195
:100FE000EE5BFF4F3081311106C02FBF81E090E0F2
:100FF000DF91CF910895DC01AF5BBF4F3C91830F30
:10100000911DEC018881EB0188838C918F5F803486
:1010100008F080E08C938081815080832FBF80E036
:1010200090E0E6CF009761F02FB7F894FC01EE5BFB
:10103000FF4F90812FBF81E0911519F080E0089556
:1010400081E00895AC0120E0892B51F480E00895FF
:101050008FE9890F8A3108F490523913F7CF2F5F47
:10106000FB01E20FF11D3081FA01E20FF11D9081C9
:101070003111EECF9D3061F038F4911549F099505F
:1010800081E0923018F7089581E09032F9F60895E2
:1010900081E00895DC01ED91FD911297309749F0C0
:1010A0009081903239F087EF890F823018F09D30AF
:1010B00009F008953196ED93FD931297ECCF0C94BF
:1010C0000D13CF93DF9389EE93E00E94B40786E57A
:1010D00093E00E94260B10922C0360E875E280E0FA
:1010E00090E00E94EC12EC01892B59F489EE93E018
:1010F0000E94381381E00E942C13CE01DF91CF9122
:101100000895C1E0D0E0F9CF86ED90E00E9413137E
:101110008DED90E00E94131386EE90E00E94131371
:101120008FEE90E00E94131387EF90E00E9413135C
:1011300081E091E00E9413138CE091E00E94131370
:1011400083E191E00E94131389E191E00E9413135F
:1011500083E291E00C94131386E593E00E94400B28
:10116000811107C08FE291E00E94131380E090E0AC
:1011700008956FE578E086E593E00E944E0BF6CF88
:101180000F931F93CF93DF93CDB7DEB7A4970FB61E
:10119000F894DEBF0FBECDBF009789F48BE391E0DA
:1011A0000E94131381E090E0A4960FB6F894DEBF7E
:1011B0000FBECDBFDF91CF911F910F9108958BA3EB
:1011C0009CA3CE0183960E944A080BA11CA1F801A2
:1011D00098012F5D3F4F8081811531F08D3021F0D6
:1011E000C0F489508230B8F460E571E0C8010E9413
:1011F0002208811107C067E571E0C8010E9422083A
:10120000811581F088E990E00E94131380E090E05E
:10121000CBCF803249F33196E217F307E1F685E44C
:1012200091E0BECF6FE571E0C8010E9422088115F0
:1012300019F00E948408EACF64E671E0C8010E94B8
:101240002208811529F00E94FE0E88E691E0DCCF8D
:101250006DE671E0C8010E942208811561F0A49634
:101260000FB6F894DEBF0FBECDBFDF91CF911F91B7
:101270000F910C94AC0865E771E0C8010E94220848
:10128000811529F086E593E00E94490BDECF6FE7D8
:1012900071E0C8010E9422088115C9F08091F30213
:1012A0001F928F9386E891E09F938F938E010F5F3B
:1012B0001F4F1F930F930E949514C8010E94131390
:1012C0000F900F900F900F900F900F909FCF61E9AC
:1012D00071E0C8010E942208811531F16091F70286
:1012E0007091F80280E090E00E94071420E030E066
:1012F00040E251E40E9495139F938F937F936F93E5
:1013000087E991E09F938F938E010F5F1F4F1F938B
:101310000F930E949514C8010E9413130FB6F894FE
:10132000DEBF0FBECDBF72CF63EA71E0C8010E947D
:101330002208811579F08091FC028F938091FB0245
:101340008F938091FA028F938091F9028F938BEAA9
:1013500091E0D8CF68EB71E0C8010E9422088115A6
:1013600049F08091F6028F938091F5028F9381EC82
:1013700091E09ACF6EEC71E0C8010E9422088115BD
:1013800019F083ED91E040CF6DEE71E0C8010E944D
:10139000220881115ACF67EF71E0C8010E9422082C
:1013A000811153CF63E072E0C8010E9422088111CD
:1013B0004CCF6BE072E0C8010E942208811145CF3A
:1013C00064E172E0C8010E94220881113ECF6DE104
:1013D00072E0C8010E942208811137CF67E272E0F3
:1013E000C8010E942208811130CF62E372E0C80177
:1013F0000E942208811129CF6EE372E0C8010E9489
:101400002208811519F084E492E0FECEF801808173
:101410008F7D833509F0C2CE81818F7D853409F0BF
:10142000BDCE82818F7D843509F0B8CE8381803234
:1014300019F0893009F0B2CEF80184818F7D8335AF
:1014400009F0ACCE85818F7D843509F0A7CE095F88
:101450001F4F09A31AA3CE0181960E944A0889A1B1
:101460009AA189839A83892B09F498CECE0101969B
:101470000E944A08E981FA81808180538A3008F00D
:101480008DCE819180538A30E0F3DFCE0F931F938E
:10149000CF93DF9300D00F92CDB7DEB78E010F5FF1
:1014A0001F4F89EE93E00E941208811541F00F90C2
:1014B0000F900F90DF91CF911F910F910895B80178
:1014C00089EE93E00E94E6070A831B83892B79F754
:1014D0008981E0912C038D3011F08A3069F4E11597
:1014E00001F3F0E0E35DFC4F10828DE293E00E9497
:1014F000C00810922C03D5CFE83248F4AE2FB0E0EC
:10150000A35DBC4F8C93EF5FE0932C03CACF85E4BF
:1015100091E00E94131389EE93E00E94120881115A
:10152000E8CF6A817B8189EE93E00E94E607892BF0
:1015300001F789818D30E9F28A3069F7DACF1092AC
:101540002C0480E090E00895009779F0FC018681FA
:101550008E3130F481E080932C0480E090E0089597
:101560008B35D8F310922C04F8CF81E090E00895E9
:1015700080912C0408958F929F92AF92BF92CF9248
:10158000DF92EF92FF921F93CF93DF93CDB7DEB739
:101590002A970FB6F894DEBF0FBECDBF6B017C015A
:1015A0004A0141155105C9F1C114D104E104F10406
:1015B000A1F480E3FA012A960FB6F894DEBF0FBEBD
:1015C000CDBFDF91CF911F91FF90EF90DF90CF9033
:1015D000BF90AF909F908F90099410E05E01FFEF55
:1015E000AF1ABF0AB601C7012AE030E040E050E080
:1015F0000E946213F501E10FF11D6083C601D7015E
:1016000069017A011F5F0A97A105B10558F77501B5
:10161000E10EF11CAE14BF0491F42A960FB6F894B3
:10162000DEBF0FBECDBFDF91CF911F91FF90EF9036
:10163000DF90CF90BF90AF909F908F900895F7016B
:1016400082917F01805DF4010995E4CF0097B9F0A4
:10165000FC019C0120573F4F10821182128213829D
:10166000148215821682178210863996E217F307C4
:1016700099F71082FC01EF56FF4F119210820895E6
:10168000009729F0FC01EE56FF4F8081089580E01D
:101690000895009711F00C94260B08956F927F9295
:1016A0008F929F92AF92BF92CF92DF92EF92FF9272
:1016B0000F931F93CF93DF93CDB7DEB728970FB665
:1016C000F894DEBF0FBECDBF8C016F837887009783
:1016D000A1F0672B91F05C0182E9A80EB11CD50145
:1016E0008C91811551F0912CF801E057FF4FED835B
:1016F000FE83D5018C919816A8F028960FB6F89421
:10170000DEBF0FBECDBFDF91CF911F910F91FF9034
:10171000EF90DF90CF90BF90AF909F908F907F9091
:101720006F900895AD81BE818C91815F89198F7012
:10173000F801B9E08B9FE00DF11D112480808181BB
:101740009281A381B48189839A83AB83BC837580A2
:101750006680E780F08482E5C82E82E0D82ED6012C
:101760008D916D01EF81F8850995F6E5CF16F2E0D0
:10177000DF06A9F7692D70E080E090E04F81588581
:101780000E94BB0A8CE2EF81F8850995682D70E014
:1017900080E090E04F8158850E94BB0A8CE2EF8187
:1017A000F88509954F81588569817A818B819C8163
:1017B0000E94BB0A8CE2EF81F8850995672D70E0E5
:1017C00080E090E04F8158850E94BB0A8CE2EF8157
:1017D000F8850995662D70E080E090E04F8158858E
:1017E0000E94BB0A8CE2EF81F8850995B70180E081
:1017F00090E04F8158850E94BB0A8DE0EF81F8850B
:1018000009958AE0EF81F8850995939472CF40E0BD
:1018100061E081E00E944D10009711F40E94AD122A
:101820001092330410923404109231041092320456
:1018300010922D0410922E0410922F041092300456
:1018400008950E94BE122091330430913404AC01FB
:10185000421B530B9A0180933304909334044093BA
:1018600031043093320480912D0490912E04A09184
:101870002F04B0913004840F951FA11DB11D8093DA
:101880002D0490932E04A0932F04B093300480E095
:1018900090E00895609131047091320480E090E00E
:1018A00022E0660F771F881F991F2A95D1F723E042
:1018B00030E040E050E00E946213C9010895209199
:1018C0002D0430912E0440912F0450913004A8EE45
:1018D000B3E00E948A1322EC31E040E050E00E9425
:1018E0006213B901CA01089510924404109245048C
:1018F000109242041092430410924004109241044A
:1019000010923E0410923F0410923C0410923D0449
:1019100010923A0410923B04109238041092390449
:1019200010923704109236040895109246041092D3
:101930004704109235040E94740C80E090E00895F2
:101940008091460490914704892B19F081E080939F
:10195000350480E090E00895CF93DF93DC01C091DF
:101960004604D0914704892BC9F0209709F446C05A
:1019700080913504811591F0FE013197E930F10530
:1019800030F5EC56F84E0C94841316968C911697FD
:10199000803620F451968C9182FF19C0CE01DF91E0
:1019A000CF91089518968D919D911A97883E9340F6
:1019B000A8F751968C9180FDF1CF09C017968C91B4
:1019C0001797893158F351968C9183FDE7CF109288
:1019D000460410924704109235040E94740CC0E033
:1019E000D0E0DCCF17968C918931C0F2F0CF8D9189
:1019F0009D9101978E3F934088F6E9CF51969C9137
:101A0000519792FD15C016968C911697833698F0D3
:101A10002091440430914504283C310548F42F5F5F
:101A20003F4F2093440430934504283C310539F45A
:101A3000C1E0D0E016C010924404109245041896FC
:101A40004D915D911A9741346FE1560708F43FC0FC
:101A500020914204309143042233310598F0C2E0D2
:101A6000D0E010923A0410923B0410923804109285
:101A70003904C093460410924704109235040E9422
:101A8000740C8CCF2F5F3F4F20934204309343045C
:101A90002233310521F393FDCCC017962C91179773
:101AA0002A3008F4C6C090FF33C01A962D913D919C
:101AB0001C972A30310538F520913E0430913F04BF
:101AC000283E63E0360740F0C4E0D0E0CACF109271
:101AD000420410924304DFCF2F5F3F4F20933E0418
:101AE00030933F04283E334079F3443F5140A0F403
:101AF00020914004309141042C3241E0340788F0B9
:101B0000C5E0D0E0AECF10923E0410923F04EDCF7E
:101B100010923E0410923F0410924004109241042F
:101B200009C02F5F3F4F20934004309341042C3273
:101B3000314031F354962D913D91569725383340DD
:101B400008F07AC02D913D9112972115310519F0B9
:101B50002F3F334009F520913C0430913D04243F50
:101B600041E0340718F0C7E0D0E07BCF2F5F3F4F54
:101B700020933C0430933D04243F3140A1F352961E
:101B80002C913AEF320F323010F0233051F4109292
:101B90003A0410923B0419C010923C0410923D0488
:101BA000EECF90FD28C020913A0430913B042115DE
:101BB000310581F4809337042F5F3F4F20933A041F
:101BC00030933B042037374149F01092380410928B
:101BD0003904E4CE203797E1390770F39091370448
:101BE0008917A8F6292F281B330B2630310578F2E8
:101BF000C8E0D0E036CF10923A0410923B04209116
:101C000038043091390421153105C9F0203E4EE2E7
:101C10003407B8F0909136049817D0F4203E3E4235
:101C200008F4BCCE891B813009F0B8CEC9E0D0E001
:101C300020CFC3E0D0E015CFC6E0D0E012CF809334
:101C400036042F5F3F4F2093380430933904E2CF9E
:101C5000203E3E4208F4A2CEE9CFE9E4F4E010824F
:101C600011821282138214821582168217821086C4
:101C7000118612863C9684E0E93AF80781F781E004
:101C80008093480480E090E00895CF92DF92EF9235
:101C9000FF92CF93DF93EC016A017B0180914804AE
:101CA0008115F1F12097E1F18AE0C816D104E10431
:101CB000F104B0F1BA01C7012AE030E040E050E0A1
:101CC0000E946213672B682B692B51F5E9E4F4E05D
:101CD00080E090E0228521111EC02CE0289FF001B9
:101CE000299FF00D1124E75BFB4FC083D183C28293
:101CF000D382E482F582C682D782E086F18613869B
:101D000081E0828780E090E0DF91CF91FF90EF90BB
:101D1000DF90CF90089501963C9688309105D1F6DA
:101D200081E090E0F1CF80914804811541F1E9E430
:101D3000F4E021E082858130E9F486819781A085F5
:101D4000B1858A309105A105B10538F00A97A1093E
:101D5000B10986839783A087B187892B8A2B8B2B28
:101D600049F482819381A481B58186839783A0877A
:101D7000B18723873C9684E0E93AF807D9F60895BD
:101D8000CF93DF9380914804811589F0C9E4D4E0B2
:101D90008A85813039F48B85813021F41B86E88176
:101DA000F98109952C9684E0C93AD80789F7DF9123
:101DB000CF91089580E00E94A90680E00C949707D7
:101DC0001092AC041092AD041092AA041092AB04CD
:101DD00080E797E180937E0090937F001092A904A2
:101DE00080E00E94A906009719F480E00C94970700
:101DF00008958091AC049091AD04089581E08093A2
:101E0000A9040C94A00CEF92FF920F931F93CF9311
:101E1000DF9300D000D000D0CDB7DEB78C011D829B
:101E20001E821B821C8219821A8281E090E00115B9
:101E3000110509F4A1C0F801818980FD43C080919A
:101E40007E0090917F008037F7E19F0728F401968C
:101E500080937E0090937F00BE016B5F7F4F80E098
:101E600090E00E941504BE016D5F7F4F81E090E01D
:101E70000E941504BE016F5F7F4F82E090E00E94D8
:101E80001504C8010E94AC0C7C01892B79F00E94DA
:101E9000DA0E8091AC049091AD04059711F0109288
:101EA000A90485E08093AC041092AD0489819A81E5
:101EB0000397029710F40E94FE0EEF2841F00E9453
:101EC000DA0E58C010927E0010927F00C5CFE091CC
:101ED000AC04F091AD048D819E810397B9F5E63095
:101EE000F10599F40E94DA0E81E08093AC0410921F
:101EF000AD040E94DA0E1092AA041092AB04F8010D
:101F00008781893198F584E04CC0CF010197029711
:101F1000E8F40E94DA0E86E08093AC041092AD04DF
:101F20008B819C81039769F480917E0090917F0062
:101F30008037974130F081E00E94A90681E00E943D
:101F40009707F801818980FF15C046C0E830F10588
:101F500008F066C0E356F84E0C9484130E94DA0E23
:101F60001092AA041092AB0481E01BC00E94B80A30
:101F700081110FC080E090E00F900F900F900F90B4
:101F80000F900F90DF91CF911F910F91FF90EF90E5
:101F9000089580917E0090917F008037974150F3A3
:101FA00082E08093AC041092AD04E4CFF801878105
:101FB000893118F40E94DA0EA6CF0E94B80A811166
:101FC00008C00E94DA0E1092AA041092AB0483E0BB
:101FD000E8CF81E00E94A90681E00E949707CACF5E
:101FE0000E94DA0E8091AA049091AB04843FF1E044
:101FF0009F0708F0B5CF01968093AA049093AB0495
:10200000843F914009F0B6CFABCF0E94DA0EF801C1
:102010008781893108F4AECFA7CF0E94DA0EA4CF12
:102020000E94DA0E85E0BDCF8091AC049091AD04A2
:10203000059721F481E09091A904911180E0089521
:10204000823010F0833071F49FEF960F973050F488
:102050008295880F880F807C87B9606866B980E0B8
:1020600090E0089581E090E00895883098F461153B
:10207000710581F097B1907E982B97B9369A349B71
:10208000FECF349A84B125B1FB018083218380E0A7
:1020900090E0089581E090E00895843008F06CC0ED
:1020A000683008F069C0433008F066C021E030E0D5
:1020B000F90101C0EE0F6A95EAF76E2F413028F55D
:1020C00060958230A1F08330C9F0813039F08AB355
:1020D00086238ABB8BB386238BBB06C087B386233C
:1020E00087BB88B3862388BB80E090E0089584B3E3
:1020F000862384BB85B3862385BBF6CF81B3862335
:1021000081BB82B3862382BBEFCFB1F4823061F012
:10211000833071F0813021F08AB38E2B8ABBE4CFFB
:1021200087B38E2B87BBE0CF84B38E2B84BBDCCFF1
:1021300081B38E2B81BBD8CF9E2F9095823081F0BA
:102140008330A1F0813031F08AB389238ABB8BB30D
:102150008E2BC2CF87B3892387BB88B38E2BC3CF87
:1021600084B3892384BB85B38E2BC6CF81B38923E7
:1021700081BB82B38E2BC7CF81E090E0089584307D
:10218000C8F56830B8F54230A8F521E030E0F90133
:1021900001C0EE0F6A95EAF76E2F4130C1F482302C
:1021A00061F0833081F0813021F08BB38E2B8BBBBB
:1021B00007C088B38E2B88BB03C085B38E2B85BB2D
:1021C00080E090E0089582B38E2B82BBF9CF6095BA
:1021D000823051F0833059F0813019F08BB386236F
:1021E000E6CF88B38623E7CF85B38623E8CF82B3D3
:1021F0008623EBCF81E090E00895FA018430E0F48B
:102200006830D0F43097C1F0823091F0833091F093
:10221000813061F089B390E002C0959587956A9509
:10222000E2F78170808380E090E0089586B3F3CF79
:1022300083B3F1CF80B3EFCF81E090E008959B01AD
:10224000AC012115310541055105B9F060E072E19D
:102250008AE790E00E946213205131094109510937
:10226000569547953795279520B981B18C7F81B9CF
:1022700084E086BF80E090E0089581E090E00895DA
:1022800084EA86BF06B607FEFDCF91B1987F21E0B4
:1022900030E0983009F420E0C901089584E986BF50
:1022A0000895880F83B984E886BF06B607FEFDCF80
:1022B00091B1987F21E030E0983109F420E0C90124
:1022C000089583B984E886BF06B607FEFDCF91B1B5
:1022D000987F21E030E0983209F420E0C9010895A8
:1022E0008FB780688FBF80E090E00895813079F0EB
:1022F0008230C1F0811121C06430F8F485B78C7F41
:1023000085BF85B7862B85BF80E090E00895643057
:10231000A0F485B7837F85BF85B7660F660F682BEE
:1023200065BFF2CF623021F484B78F7B84BFECCFDE
:10233000633019F484B78064F9CF81E090E00895A8
:10234000813051F0823059F081110CC08AB780641D
:102350008ABF80E090E008958AB78068F9CF8AB795
:102360008062F6CF81E090E00895813069F082309C
:1023700089F0811115C08AB780648ABF8BB78064E9
:102380008BBF80E090E008958AB780688ABF8BB7E2
:102390008068F6CF8AB780628ABF8BB78062F0CF41
:1023A00081E090E0089561157105B9F0813059F030
:1023B000823071F0811111C06093B2047093B30444
:1023C00080E090E008956093B0047093B104F8CF7A
:1023D0006093AE047093AF04F3CF81E090E0089572
:1023E0001F920F920FB60F9211242F933F934F938A
:1023F0005F936F937F938F939F93AF93BF93EF936D
:10240000FF93E091B204F091B304309709F009957D
:10241000FF91EF91BF91AF919F918F917F916F91BC
:102420005F914F913F912F910F900FBE0F901F9092
:1024300018951F920F920FB60F9211242F933F936E
:102440004F935F936F937F938F939F93AF93BF93BC
:10245000EF93FF93E091B004F091B104309709F04D
:102460000995FF91EF91BF91AF919F918F917F91CE
:102470006F915F914F913F912F910F900FBE0F90F1
:102480001F9018951F920F920FB60F9211242F9341
:102490003F934F935F936F937F938F939F93AF93EC
:1024A000BF93EF93FF93E091AE04F091AF043097A8
:1024B00009F00995FF91EF91BF91AF919F918F9195
:1024C0007F916F915F914F913F912F910F900FBE30
:1024D0000F901F901895843058F4BC9ABD9ABE98FE
:1024E000BF9AC49A80658DB9709880E090E0089595
:1024F00081E090E008956115710549F08FB9779BEF
:10250000FECF8FB1FB01808380E090E0089581E0F1
:1025100090E0089588E083BF8CE78CBF12BE83B73C
:10252000887F83BF80E090E00895AC0182E088BF9F
:1025300093B7936093BF20E030E02417350731F460
:1025400083B7887F83BF80E090E0089508B601FEDE
:10255000FDCF88BF2F5F3F4FF0CF8EB5887F8EBDF8
:102560008FB58C7F8FBD8EB5877E8EBD1DBC1CBC8C
:102570008EB587608EBD80E090E008958CB59DB5E6
:1025800008951F920F920FB60F9211242F933F932D
:102590004F935F936F937F938F939F93AF93BF936B
:1025A000EF93FF936CB18091B4049091B5040097C0
:1025B00011F00E94BF07FF91EF91BF91AF919F91E2
:1025C0008F917F916F915F914F913F912F910F90DC
:1025D0000FBE0F901F901895009770406040D1F08B
:1025E0009B01AC0184E0220F331F441F551F8A95C5
:1025F000D1F760E072E18AE790E00E946213215017
:10260000310930BD29B986E880BD88E18AB980E00A
:1026100090E0089581E090E008955D9BFECF8CB935
:1026200080E090E008950F931F93CF938C01C0E05A
:10263000892B31F481E090E00BC00E940D13CF5F35
:10264000F801EC0FF11D80818111F7CF80E090E05F
:10265000CF911F910F910895813021F4579A80E016
:1026600090E0089510F45798FACF81E090E0089533
:102670008093B4049093B50480E090E00895A29F05
:10268000B001B39FC001A39F700D811D1124911D46
:10269000B29F700D811D1124911D0895AA1BBB1BB3
:1026A00051E107C0AA1FBB1FA617B70710F0A61B52
:1026B000B70B881F991F5A95A9F780959095BC0173
:1026C000CD010895A1E21A2EAA1BBB1BFD010DC06E
:1026D000AA1FBB1FEE1FFF1FA217B307E407F507D2
:1026E00020F0A21BB30BE40BF50B661F771F881FAE
:1026F000991F1A9469F760957095809590959B0144
:10270000AC01BD01CF010895EE0FFF1F0590F491BC
:10271000E02D09940E943F13A59F900DB49F900D4A
:10272000A49F800D911D112408950E94A9130C945B
:102730005B140E94541458F00E944D1440F029F488
:102740005F3F29F00C94441451110C948F140C9495
:102750004A140E946C1468F39923B1F3552391F342
:10276000951B550BBB27AA2762177307840738F000
:102770009F5F5F4F220F331F441FAA1FA9F335D05D
:102780000E2E3AF0E0E832D091505040E695001C11
:10279000CAF72BD0FE2F29D0660F771F881FBB1FCB
:1027A000261737074807AB07B0E809F0BB0B802DA9
:1027B000BF01FF2793585F4F3AF09E3F510578F0D5
:1027C0000C9444140C948F145F3FE4F3983ED4F3BC
:1027D000869577956795B795F7959F5FC9F7880FA9
:1027E000911D9695879597F90895E1E0660F771FFB
:1027F000881FBB1F621773078407BA0720F0621B8C
:10280000730B840BBA0BEE1F88F7E0950895E894DC
:1028100009C097FB3EF490958095709561957F4F28
:102820008F4F9F4F9923A9F0F92F96E9BB279395D6
:10283000F695879577956795B795F111F8CFFAF4E6
:10284000BB0F11F460FF1BC06F5F7F4F8F4F9F4F17
:1028500016C0882311F096E911C0772321F09EE875
:10286000872F762F05C0662371F096E8862F70E0DB
:1028700060E02AF09A95660F771F881FDAF7880FB5
:102880009695879597F9089597F99F6780E870E086
:1028900060E008959FEF80EC089500240A941616D6
:1028A000170618060906089500240A94121613063E
:1028B000140605060895092E0394000C11F48823CC
:1028C00052F0BB0F40F4BF2B11F460FF04C06F5FE8
:1028D0007F4F8F4F9F4F089557FD9058440F551FBE
:1028E00059F05F3F71F04795880F97FB991F61F092
:1028F0009F3F79F087950895121613061406551F09
:10290000F2CF4695F1DF08C0161617061806991F74
:10291000F1CF86957105610508940895E894BB2769
:1029200066277727CB0197F90895AEE0B0E0EBE991
:10293000F4E10C946B1786E08C832B893C89298306
:102940003A838FEF9FE78D839E83AE01495E5F4F91
:102950006D897E89CE0101960E94B914EF81F885B8
:102960002B893C89E20FF31F10822E96E2E00C9433
:102970008717ACE0B0E0EFEBF4E10C945E175C017C
:102980006B017A01FC0116821782838181FFD3C11A
:102990002AE0522EF5012381F60123FD859123FFC4
:1029A00081916F01811509F42CC1853239F423FD21
:1029B000959123FF91916F01953229F4B50190E033
:1029C0000E94B416E7CF30E0712C00E010E0103226
:1029D00010F59B32C9F050F49032B9F09332C9F03F
:1029E0009E3261F516FD0DC1106405C09D3279F06F
:1029F000903399F41160F60123FD959123FF919195
:102A00006F019111E4CF23C012601460F4CF1860FD
:102A1000F2CF1061F0CF17FD1AC080ED890F8A3018
:102A2000F8F616FF05C0759C800D1124782EE3CFB3
:102A3000059D800D1124082F1062DDCF9C3611F406
:102A40001068D9CF9C3409F440C09836A1F2892F80
:102A50008F7D85548330D8F1933609F45FC0933766
:102A600009F46AC0933509F476C0943619F09936A2
:102A700009F0A2C0F70117FF98C06191719181918F
:102A800091917F011F7697FF03C00E945317106832
:102A90002AE030E04E014FEF841A940AA4010E940C
:102AA000F516682E681816FFD2C0812F8E7F671426
:102AB00008F0CCC014FF1DC112FD11C11E7E972C61
:102AC000812F867809F4CEC00FC131E094CF311543
:102AD00009F1F8E0EF0EF11C8FE3898391E0692E94
:102AE000712C4E018FEF881A980A1F7713FD04C0CE
:102AF0006016710408F43FC06114710409F042C00B
:102B0000011509F447CFB50180E290E00E94B416A8
:102B10000150F6CF44E0E40EF11CDECFF7018081D6
:102B20008983F2E0EF0EF11C81E0682E712C4E01DA
:102B30004FEF841A940AD9CFF701819091907F01C9
:102B4000672D70E016FD02C06FEF7FEFC4010E9499
:102B5000A9163C01CACFF701819091907F01672DA2
:102B600070E016FD02C06FEF7FEFC4010E949E1659
:102B70003C011068BBCFB50180E290E00E94B41622
:102B80000150B6CFF40117FD859117FF81914F01D8
:102B9000B50190E00E94B41681E0011101C080E00F
:102BA000081BF1E06F1A7108A7CF61917191872F0F
:102BB000880F880B982F65CF9537C9F41F7E1C8727
:102BC0002AE030E0FC85F7FF3BC0F701619171918D
:102BD000819191917F014E014FEF841A940AA401D3
:102BE0000E94F516682E68181C851F775CCF812F10
:102BF000897F8C87903799F058F49835B9F09F36D3
:102C0000E1F0F501868197812C96EFE00C947A171C
:102C10009837B9F714FD06C020E130E0D3CF9C858A
:102C200090619C87EC85E460EC87F6CF14FF02C0CE
:102C300016601C8720E132E0C5CF28E030E0C2CF2B
:102C4000F7016191719180E090E0C4CF182F962C2C
:102C500014FF36CFFE01E60DF11D8081803309F0AF
:102C600041C0197E13FD0EC010FF4FC0762C901688
:102C700018F4700E7918902E802F8919091508F410
:102C800080E0980E901608F042C0091914FF41C068
:102C9000B50180E390E00E94B41612FF09C088E5F8
:102CA00090E011FD02C088E790E0B5010E94B416E3
:102CB0006714D0F14E018FEF881A980A6A94FE01CA
:102CC0003296E60DF11D3F01F30182913F01B501FE
:102CD00090E00E94B41668147904B1F711CF972CD4
:102CE000182FB8CF12FD02C09394BCCF9394939445
:102CF000B9CF972C182FE4CEB50180E290E00E9466
:102D0000B41683948016C0F3B7CF892CFBCF00E0B4
:102D1000BDCF812F867861F280E211FD8BE217FD35
:102D20008DE2B50190E0C2CFB50180E390E00E9452
:102D3000B4167A94BDCF8FEF9FEF66CFFC0105905C
:102D4000615070400110D8F7809590958E0F9F1FAD
:102D50000895FC016150704001900110D8F78095F2
:102D600090958E0F9F1F0895A3E0B0E0EAEBF6E187
:102D70000C946A17182F99836A837B83DB0113965F
:102D80008C9181FD09C01FEFBFEFB983812F99811D
:102D90002396E3E00C94861782FF1BC0EA81FB8137
:102DA00026813781848195812817390754F4019051
:102DB000F081E02DCF010196AA81BB818D939D9377
:102DC0001083EA81FB8186819781019686839783B0
:102DD000DDCFAA81BB811896ED91FD911A97BD01B7
:102DE000812F0995892B69F3CECFFA01AA272830C4
:102DF00051F1203181F1E8946F936E7F6E5F7F4FC8
:102E00008F4F9F4FAF4FB1E03ED0B4E03CD0670F43
:102E1000781F891F9A1FA11D680F791F8A1F911D96
:102E2000A11D6A0F711D811D911DA11D20D009F4E6
:102E300068943F912AE0269F11243019305D319328
:102E4000DEF6CF010895462F4770405D4193B3E011
:102E50000FD0C9F7F6CF462F4F70405D4A3318F0B8
:102E6000495D31FD4052419302D0A9F7EACFB4E069
:102E7000A6959795879577956795BA95C9F7009721
:102E80006105710508959B01AC010A2E06945795C2
:102E9000479537952795BA95C9F7620F731F841F19
:102EA000951FA01D089590958095709561957F4F11
:102EB0008F4F9F4F08952F923F924F925F926F9244
:102EC0007F928F929F92AF92BF92CF92DF92EF92BA
:102ED000FF920F931F93CF93DF93CDB7DEB7CA1B3B
:102EE000DB0B0FB6F894DEBF0FBECDBF09942A8866
:102EF000398848885F846E847D848C849B84AA840E
:102F0000B984C884DF80EE80FD800C811B81AA819A
:102F1000B981CE0FD11D0FB6F894DEBF0FBECDBF65
:102F2000ED010895F894FFCFC50CD20CDE0CF20C25
:102F3000D90CD90CF70CD90CD90CAE0F790FD60FD0
:0A2F4000F00F05100D10900F5F0F49
:102F4A00040000000000000000000500000000006E
:102F5A0000000000030000000000000000007017DD
:102F6A004C3A002520523A002500463A002E004CE1
:102F7A002F6D200052554E002457542C4C3D302CB6
:102F8A00523D302C493D302C513D302C563D302C91
:102F9A00503D302C56323D302C53543D494E495405
:102FAA002C54523D302C52554E3D302C55503D300C
:102FBA002A33410D0A0048454C500D0A005354412A
:102FCA005455530D0A004C4556454C3F0D0A0046D0
:102FDA004C4F573F0D0A00564F4C554D453F0D0A71
:102FEA000043555252454E543F0D0A004346473F4F
:102FFA000D0A0041434B0D0A004641554C54533FBC
:10300A000D0A00434C524641554C54530D0A004E8A
:10301A004F204641554C54530D0A00455252204305
:10302A004D440D0A00455252204C4F4E470D0A009E
:10303A00535441545553005354415455533F004837
:10304A00454C500041434B004F4B0D0A0046415539
:10305A004C54533F00434C524641554C5453004C38
:10306A004556454C3F004C4556454C3D25750D0A85
:10307A0000464C4F573F00464C4F573D252E316670
:10308A000D0A00564F4C554D453F00564F4C554D75
:10309A00453D256C750D0A0043555252454E543F25
:1030AA000043555252454E543D25750D0A0043467C
:1030BA00473F004346473D302C302C302C302C30D3
:1030CA002C302C302C302C302C300D0A004D4F4433
:1030DA0045204155544F004D4F4445204D414E55D2
:1030EA00414C0050554D50204F4E0050554D5020E8
:1030FA004F46460056414C5645204F4E0056414CCD
:10310A005645204F46460053455256494345204F9F
:10311A004E0053455256494345204F4646005452A5
:10312A0049503F00545249503D302C4E4F4E450DA8
:08313A000A00464C542C000071
:00000001FF
