:100000000C942A000C94FC030C9425040C944E04CC
:100010000C9447000C9447000C9447000C94470044
:100020000C9447000C9447000C9447000C94470034
:100030000C9447000C9447050C9447000C9447001F
:100040000C9447000C9447000C9447000C94470014
:100050000C94470011241FBECFE5D8E0DEBFCDBF12
:1000600012E0A0E6B0E0E0E6FBE002C005900D92F1
:10007000A838B107D9F722E0A8E8B2E001C01D9284
:10008000A93FB207E1F70E94BB000C94AE050C94A7
:1000900000005D9BFECF8CB90895CF93DF93EC01F8
:1000A0008881811103C0DF91CF91089521960E942C
:1000B0004900F6CF80E690E00C944D0083E690E096
:1000C0000E944D000C945A00CF92DF92EF92FF9263
:1000D0001F93CF93DF93CDB7DEB72B970FB6F8946E
:1000E000DEBF0FBECDBF6B017C0110E0C114D10497
:1000F000E104F10481F480E32B960FB6F894DEBF9F
:100100000FBECDBFDF91CF911F91FF90EF90DF9099
:10011000CF900C944900B601C7012AE030E040E0DE
:1001200050E00E948105FE013196E10FF11D605DF6
:100130006083C601D70169017A011F5F0A97A10593
:10014000B10548F711110EC02B960FB6F894DEBF1B
:100150000FBECDBFDF91CF911F91FF90EF90DF9049
:10016000CF9008951150FE013196E10FF11D80816D
:100170000E944900E7CF10BC83E389B988E18AB9BE
:1001800086E880BD8AE790E00E944D000E945A00F8
:100190008BE990E00E944D000E945A008AE790E0AF
:1001A0000E944D000E945A0088EB90E00E944D0092
:1001B0000E945A0081E00E9477040E94D80181E0E9
:1001C0000E94E50184EF91E00E94A10483E00E9477
:1001D000E50184EF91E00E94A10487E00E94E5011F
:1001E00084EF91E00E94A1048FE00E94E50184EF7A
:1001F00091E00E94A1048FEF0E94E50184EF91E05D
:100200000E94A10480E00E94E50184EF91E00E9439
:10021000A10481ED90E00E944D000E945A008DEEF5
:1002200090E00E944D000E945A0041E060E082E0B0
:100230000E944C0340E060E082E00E94BE030E9406
:10024000960441E060E082E00E94BE0388EE93E005
:100250000E94A10440E060E082E00E94BE0385E0CD
:1002600091E00E944D000E945A0080E291E00E94BD
:100270004D000E945A0082E30E94B90486E391E097
:100280000E944D000E945A0080ED97E00E94A10458
:100290000E94D90485E591E00E944D000E945A0019
:1002A0008EE691E00E944D000E945A0062E382E3D4
:1002B00090E00E94E20484E891E00E944D000E94D8
:1002C0005A0088EB9BE00E94A1040E942A058AEA5A
:1002D00091E00E944D000E945A0083EC91E00E9440
:1002E0004D000E945A000E942D0288ED91E00E946C
:1002F0004D000E945A00CAE088EE93E00E94A104DB
:100300000E94470284EF91E00E944D000E9470021B
:10031000BC0180E090E00E9464000E945A0089E0E5
:1003200092E00E944D000E947502BC0180E090E0C6
:100330000E9464000E945A008BE192E00E944D00EE
:100340000E948A020E9464000E945A000E945A0081
:10035000C15091F680E392E00E944D000E945A0045
:1003600088E492E00E944D000E945A000E949F0281
:1003700044E650E060E070E08EE590E00E94B70255
:10038000C4E68AE090E00E94A1040E9405030E9456
:100390003203C150B1F78DE592E00E944D000E94FA
:1003A0005A0085E792E00E944D000E945A00FFCF5C
:1003B00041E064E081E00E944C03009729F440E0B2
:1003C00064E081E00C94BE0308950F931F93CF93D4
:1003D000DF930F92CDB7DEB71982BE016F5F7F4FFB
:1003E0000E9487048C01892B51F441E064E081E094
:1003F0000E94BE0340E064E081E00E94BE03C801A9
:100400000F90DF91CF911F910F910895CF93DF93BC
:10041000009749F02FB7F894FC01EE5BFF4F308155
:10042000303430F02FBF81E090E0DF91CF9108951C
:10043000DC01A05CBF4F3C91830F911DEC016883F0
:100440008C918F5F803408F080E08C9380818F5F87
:1004500080832FBF80E090E0E8CF40E061E081E062
:100460000E944C03009711F40E94330510928E02F3
:1004700010928F0210928C0210928D0210928802BC
:100480001092890210928A0210928B0208950E94A3
:10049000440520918E0230918F02AC01421B530B18
:1004A0009A0180938E0290938F0240938C02309336
:1004B0008D028091880290918902A0918A02B09168
:1004C0008B02840F951FA11DB11D8093880290930C
:1004D0008902A0938A02B0938B0280E090E0089595
:1004E00080918C0290918D02089560918C027091A0
:1004F0008D0280E090E022E0660F771F881F991F31
:100500002A95D1F723E030E040E050E00E948105D9
:10051000C9010895209188023091890240918A0290
:1005200050918B02A8EEB3E00E94A30522EC31E0CB
:1005300040E050E00E948105B901CA010895E1E957
:10054000F2E01082118212821382148215821682C6
:1005500017821086118612863C9682E0E13FF807EA
:1005600081F781E08093900280E090E00895CF923F
:10057000DF92EF92FF92CF93DF93EC016A017B0150
:10058000809190028115F1F12097E1F18AE0C8167F
:10059000D104E104F104B0F1BA01C7012AE030E06E
:1005A00040E050E00E948105672B682B692B51F5D4
:1005B000E1E9F2E080E090E0228521111EC02CE00C
:1005C000289FF001299FF00D1124EF56FD4FC083A5
:1005D000D183C282D382E482F582C682D782E0864A
:1005E000F186138681E0828780E090E0DF91CF91F1
:1005F000FF90EF90DF90CF90089501963C96883061
:100600009105D1F681E090E0F1CF809190028115C3
:1006100041F1E1E9F2E021E082858130E9F486816F
:100620009781A085B1858A309105A105B10538F083
:100630000A97A109B10986839783A087B187892B7F
:100640008A2B8B2B49F482819381A481B581868387
:100650009783A087B18723873C9682E0E13FF80724
:10066000D9F60895CF93DF9380919002811589F098
:10067000C1E9D2E08A85813039F48B85813021F45B
:100680001B86E881F98109952C9682E0C13FD80745
:1006900089F7DF91CF910895843008F06CC06830FD
:1006A00008F069C0433008F066C021E030E0F9018D
:1006B00001C0EE0F6A95EAF76E2F413028F560957C
:1006C0008230A1F08330C9F0813039F08AB38623BB
:1006D0008ABB8BB386238BBB06C087B3862387BBBD
:1006E00088B3862388BB80E090E0089584B3862396
:1006F00084BB85B3862385BBF6CF81B3862381BBBC
:1007000082B3862382BBEFCFB1F4823061F08330B5
:1007100071F0813021F08AB38E2B8ABBE4CF87B38E
:100720008E2B87BBE0CF84B38E2B84BBDCCF81B311
:100730008E2B81BBD8CF9E2F9095823081F0833055
:10074000A1F0813031F08AB389238ABB8BB38E2B21
:10075000C2CF87B3892387BB88B38E2BC3CF84B323
:10076000892384BB85B38E2BC6CF81B3892381BBFC
:1007700082B38E2BC7CF81E090E008958430C8F516
:100780006830B8F54230A8F521E030E0F90101C049
:10079000EE0F6A95EAF76E2F4130C1F4823061F0B6
:1007A000833081F0813021F08BB38E2B8BBB07C05F
:1007B00088B38E2B88BB03C085B38E2B85BB80E0AE
:1007C00090E0089582B38E2B82BBF9CF6095823082
:1007D00051F0833059F0813019F08BB38623E6CF86
:1007E00088B38623E7CF85B38623E8CF82B38623F9
:1007F000EBCF81E090E008951F920F920FB60F9219
:1008000011242F933F934F935F936F937F938F9315
:100810009F93AF93BF93EF93FF93E091F502F09115
:10082000F602309709F00995FF91EF91BF91AF91D2
:100830009F918F917F916F915F914F913F912F91F8
:100840000F900FBE0F901F9018951F920F920FB62A
:100850000F9211242F933F934F935F936F937F9346
:100860008F939F93AF93BF93EF93FF93E091F30226
:10087000F091F402309709F00995FF91EF91BF9143
:10088000AF919F918F917F916F915F914F913F9128
:100890002F910F900FBE0F901F9018951F920F92DF
:1008A0000FB60F9211242F933F934F935F936F9343
:1008B0007F938F939F93AF93BF93EF93FF93E091B9
:1008C000F102F091F202309709F00995FF91EF9152
:1008D000BF91AF919F918F917F916F915F914F9158
:1008E0003F912F910F900FBE0F901F90189584305D
:1008F00058F4BC9ABD9ABE98BF9AC49A80658DB9C7
:10090000709880E090E0089581E090E0089561158E
:10091000710549F08FB9779BFECF8FB1FB018083C2
:1009200080E090E0089581E090E0089588E083BF42
:100930008CE78CBF12BE83B7887F83BF80E090E0D6
:100940000895AC0182E088BF93B7936093BF20E025
:1009500030E02417350731F483B7887F83BF80E008
:1009600090E0089508B601FEFDCF88BF2F5F3F4F8E
:10097000F0CF8536D8F4BB9A93B7986493BF93B7FA
:10098000906293BF93B79F7E93BFA0E0B0E060E01A
:10099000782FCD01AC0124E630E00E9481052CBF08
:1009A00083B7836083BF80E090E0089581E090E0AA
:1009B000089583B7887F83BF83B78F7C83BF80E030
:1009C00090E00895CF93C62F653608F040C09C0193
:1009D0002051310921313E44D0F58D9A2FB52C7F1D
:1009E0002FBD2FB522602FBD2EB528612EBD2FB58E
:1009F00020682FBD2FB52F7B2FBD9C0140E050E01C
:100A000060E472E48FE090E00E948105C901DA01A0
:100A1000019797BD86BD86B597B5A0E0B0E09C0173
:100A2000AD012F5F3F4F4F4F5F4FAC2F0E94A3058B
:100A300024E630E040E050E00E9481053BBD2ABD45
:100A40008EB582608EBD80E090E0CF91089581E008
:100A500090E0FBCF8EB5887F8EBD8FB58F738FBD35
:100A600080E090E008958EB5887F8EBD8FB58C7F35
:100A70008FBD8EB5877E8EBD1DBC1CBC8EB58760BC
:100A80008EBD80E090E008958CB59DB508951F92CD
:100A90000F920FB60F9211242F933F934F935F93B2
:100AA0006F937F938F939F93AF93BF93EF93FF9336
:100AB0006CB18091F7029091F802009711F00E94BA
:100AC0000602FF91EF91BF91AF919F918F917F911E
:100AD0006F915F914F913F912F910F900FBE0F90AB
:100AE0001F901895A29FB001B39FC001A39F700DE6
:100AF000811D1124911DB29F700D811D1124911D26
:100B00000895A1E21A2EAA1BBB1BFD010DC0AA1F4E
:100B1000BB1FEE1FFF1FA217B307E407F50720F066
:100B2000A21BB30BE40BF50B661F771F881F991FE1
:100B30001A9469F760957095809590959B01AC012A
:100B4000BD01CF0108950E947205A59F900DB49F2D
:100B5000900DA49F800D911D11240895F894FFCF4E
:100B60000D0A005363686564756C65722054617387
:100B70006B2052756E6E696E67003D3D3D3D3D3D9B
:100B80003D3D3D3D3D3D3D3D3D3D3D3D3D3D3D3D95
:100B90003D3D3D3D3D3D3D3D3D3D0041546D656725
:100BA0006133322044524956455220544553542013
:100BB00050524F4752414D00535049202B2037345B
:100BC00048433539352054455354205354415254E9
:100BD00000535049202B20373448433539352054B1
:100BE0004553542046494E49534845440054494DC5
:100BF0004552302044454C415920544553542053CC
:100C0000544152540054494D4552302044454C41C2
:100C10005920544553542046494E495348454400B1
:100C200054494D4552302050574D2054455354207F
:100C300053544152540054696D6572302050574DE1
:100C4000203D2035302070657263656E74206F6EB4
:100C5000205042330054494D4552302050574D20CA
:100C6000544553542046494E49534845440054493D
:100C70004D4552312050574D205445535420535424
:100C80004152540054696D6572312050574D203DDA
:100C900020353020487A2C2035302070657263650D
:100CA0006E74206F6E205044350054494D455231CA
:100CB0002050574D20544553542046494E495348DF
:100CC000454400464C4F574D4554455220544553DA
:100CD000542053544152540047656E6572617465E7
:100CE0002070756C736573206F6E20504231202F19
:100CF0002054310050756C736573207065722073D9
:100D000065636F6E64203D2000466C6F77204C2F2A
:100D10006D696E20783130203D2000546F74616C15
:100D2000206D696C6C696C6974657273203D20007C
:100D3000464C4F574D455445522054455354204638
:100D4000494E4953484544005343484544554C4552
:100D50005220544553542053544152540053434855
:100D60004544554C455220544553542046494E491C
:100D70005348454400414C4C20544553545320465D
:080D8000494E49534845440067
:00000001FF
