:100000000C942A000C94CF010C94F8010C9421025A
:100010000C9447000C9447000C9447000C94470044
:100020000C9447000C9447000C9447000C94470034
:100030000C9447000C9447000C9447000C94470024
:100040000C9447000C9447000C9447000C94470014
:100050000C94470011241FBECFE5D8E0DEBFCDBF12
:1000600010E0A0E6B0E0E6E0F6E002C005900D92F8
:10007000A036B107D9F720E0A0E6B0E001C01D929C
:10008000AE36B207E1F70E9449000C9401030C94CC
:10009000000081E00E944A020E947F000E946902E3
:1000A0000E94AD008FEF0E948C0081E090E00E94E2
:1000B0008C0280E00E948C0081E090E00E948C0223
:1000C000D0E0C0E081E090E00E948C020E94C70076
:1000D000D13028F089F00E940A01862F02C00E94C8
:1000E000F0000E948C00CF5F81E08D0FC33051F78C
:1000F000833030F7D82FE5CF0E94F500F2CF41E0F2
:1001000064E081E00E941F01009729F440E064E070
:1001100081E00C94910108950F931F93CF93DF9387
:100120000F92CDB7DEB71982BE016F5F7F4F0E947D
:100130005A028C01892B51F441E064E081E00E9475
:10014000910140E064E081E00E949101C8010F90BC
:10015000DF91CF911F910F91089540E061E081E020
:100160000E941F01009711F40E94B10210926600D4
:100170001092670010926400109265001092600067
:1001800010926100109262001092630008950E9424
:10019000C2022091660030916700AC01421B530BF4
:1001A0009A018093660090936700409364003093B7
:1001B00065008091600090916100A0916200B09113
:1001C0006300840F951FA11DB11D80936000909363
:1001D0006100A0936200B093630080E090E0089516
:1001E0008091640090916500089560916400709121
:1001F000650080E090E022E0660F771F881F991F5E
:100200002A95D1F723E030E040E050E00E94D4028C
:10021000C901089520916000309161004091620011
:1002200050916300A8EEB3E00E94F60222EC31E0A8
:1002300040E050E00E94D402B901CA010895843020
:1002400008F06CC0683008F069C0433008F066C040
:1002500021E030E0F90101C0EE0F6A95EAF76E2F58
:10026000413028F560958230A1F08330C9F08130AB
:1002700039F08AB386238ABB8BB386238BBB06C037
:1002800087B3862387BB88B3862388BB80E090E052
:10029000089584B3862384BB85B3862385BBF6CFBC
:1002A00081B3862381BB82B3862382BBEFCFB1F4B7
:1002B000823061F0833071F0813021F08AB38E2B6F
:1002C0008ABBE4CF87B38E2B87BBE0CF84B38E2B62
:1002D00084BBDCCF81B38E2B81BBD8CF9E2F909572
:1002E000823081F08330A1F0813031F08AB38923EC
:1002F0008ABB8BB38E2BC2CF87B3892387BB88B3CE
:100300008E2BC3CF84B3892384BB85B38E2BC6CFFA
:1003100081B3892381BB82B38E2BC7CF81E090E06C
:1003200008958430C8F56830B8F54230A8F521E06A
:1003300030E0F90101C0EE0F6A95EAF76E2F413007
:10034000C1F4823061F0833081F0813021F08BB3D1
:100350008E2B8BBB07C088B38E2B88BB03C085B3A5
:100360008E2B85BB80E090E0089582B38E2B82BBFC
:10037000F9CF6095823051F0833059F0813019F017
:100380008BB38623E6CF88B38623E7CF85B3862356
:10039000E8CF82B38623EBCF81E090E008951F92EF
:1003A0000F920FB60F9211242F933F934F935F93A9
:1003B0006F937F938F939F93AF93BF93EF93FF932D
:1003C000E0916C00F0916D00309709F00995FF9174
:1003D000EF91BF91AF919F918F917F916F915F91BD
:1003E0004F913F912F910F900FBE0F901F90189536
:1003F0001F920F920FB60F9211242F933F934F939A
:100400005F936F937F938F939F93AF93BF93EF937C
:10041000FF93E0916A00F0916B00309709F0099525
:10042000FF91EF91BF91AF919F918F917F916F91CC
:100430005F914F913F912F910F900FBE0F901F90A2
:1004400018951F920F920FB60F9211242F933F937E
:100450004F935F936F937F938F939F93AF93BF93CC
:10046000EF93FF93E0916800F0916900309709F0F5
:100470000995FF91EF91BF91AF919F918F917F91DE
:100480006F915F914F913F912F910F900FBE0F9001
:100490001F901895843058F4BC9ABD9ABE98BF9AA4
:1004A000C49A80658DB9709880E090E0089581E0ED
:1004B00090E008956115710549F08FB9779BFECFE3
:1004C0008FB1FB01808380E090E0089581E090E0AF
:1004D000089588E083BF8CE78CBF12BE83B7887F06
:1004E00083BF80E090E00895AC0182E088BF93B7BD
:1004F000936093BF20E030E02417350731F483B7D1
:10050000887F83BF80E090E0089508B601FEFDCFAC
:1005100088BF2F5F3F4FF0CFCF93DF9300D000D045
:10052000CDB7DEB789839A831B821C828B819C8125
:1005300029813A818217930749F480E090E00F9077
:100540000F900F900F90DF91CF91089588EE93E078
:100550000E9474022B813C812F5F3F4F2B833C8391
:10056000E5CF8EB5887F8EBD8FB58C7F8FBD8EB564
:10057000877E8EBD1DBC1CBC8EB587608EBD80E0A5
:1005800090E008958CB59DB50895A29FB001B39FEA
:10059000C001A39F700D811D1124911DB29F700D8C
:1005A000811D1124911D0895A1E21A2EAA1BBB1BC7
:1005B000FD010DC0AA1FBB1FEE1FFF1FA217B3072F
:1005C000E407F50720F0A21BB30BE40BF50B661F45
:1005D000771F881F991F1A9469F760957095809509
:1005E00090959B01AC01BD01CF0108950E94C50209
:1005F000A59F900DB49F900DA49F800D911D112477
:060600000895F894FFCFFD
:00000001FF
