:100000000C942A000C94CE130C94F7130C94201427
:100010000C9447000C9447000C9447000C94470044
:100020000C9447000C9447000C9447000C94470034
:100030000C9447000C949F140C9447000C944700B8
:100040000C9447000C9447000C9447000C94470014
:100050000C94470011241FBECFE5D8E0DEBFCDBF12
:1000600014E0A0E6B0E0E0E3F1E302C005900D92F9
:10007000AC3EB107D9F727E0ACEEB4E001C01D9269
:10008000A235B207E1F70E9490020C947C180C9400
:100090000000CF93DF93CDB7DEB728970FB6F89463
:1000A000DEBF0FBECDBF2091900530919105298311
:1000B0003A830E94AA108D839E8380918E05909131
:1000C0008F058B839C838091F1049091F2042D81A4
:1000D0003E812630310571F5069719F082E0809354
:1000E000F0048D819E818093F1049093F2040E942C
:1000F000A7068091F004811501F160E080E00E9484
:100100009A062D813E8180E890E02630310511F07D
:100110008DE890E00E9487068091F00481508093E2
:10012000F00428960FB6F894DEBF0FBECDBFDF9166
:10013000CF9108950697A9F6D1CF89819A816AE077
:1001400070E00E94381569837A838F8398878B814A
:100150009C8168EE73E00E9438156B837C838D83ED
:100160009E8360E080E00E949A0688E990E00E9409
:10017000870680918C0590E00E94B1068BE990E0A3
:100180000E94870680918D0590E00E94B10680EA6A
:1001900090E00E9487068B819C810E94B10683EAD1
:1001A00090E00E9487068D819E8164E670E00E9447
:1001B0003815CB010E94B10685EA90E00E948706BF
:1001C00060E081E00E949A060E94AA10059709F05B
:1001D00043C08091EE04833090F48F5F8093EE04EF
:1001E0008091EF0481113CC0E0919905E150E93024
:1001F00008F097CFF0E0E258F74E0C946E1580911E
:10020000EF041092EE0491E089278093EF04E8CF89
:1002100087EA90E028960FB6F894DEBF0FBECDBFF8
:10022000DF91CF910C94870687EB90E0F3CF8AECB7
:1002300090E0F0CF8FED90E0EDCF8EEE90E0EACF42
:1002400080E091E0E7CF83E191E0E4CF87E291E0C5
:10025000E1CF83E391E0DECF1092EE041092EF0441
:100260008091970580FF21C082E491E00E9487067B
:100270008EE491E00E94870689819A810E94B106EE
:1002800083EA90E00E9487068F8198850E94B106DC
:1002900081EA90E00E9487068091920590919305F3
:1002A0000E94B1068BE890E0B5CF88E491E0DECF04
:1002B00080E00E948E0780E00C947C080F931F93CF
:1002C000CF93DF93CDB7DEB729970FB6F894DEBF93
:1002D0000FBECDBF8E010B5F1F4FB80180E00E94A3
:1002E0001312B801892B31F48D819E81809386058C
:1002F0009093870581E00E941312892B31F48D8140
:100300009E8180938805909389058E01075F1F4F1A
:10031000B80180E00E940207B801892B19F4898591
:1003200080938C0581E00E940207892B19F489854E
:1003300080938D058EE895E00E94A705892B21F01A
:1003400010928E0510928F050E94F10D80939005FA
:10035000909391050E94060E28EE33E040E050E0B5
:100360000E944C1520939205309393054093940579
:10037000509395050E94F4059091970580FB92F9A2
:10038000909397050E94F7059091970580FB93F94C
:1003900090939705CE0108960E94C507892B09F016
:1003A0004DC0888581709091970580FB90F990935E
:1003B0009705CE0107960E948D08892B09F040C051
:1003C0008F8181709091970580FB91F990939705AB
:1003D0008E010F5F1F4FC8010E94D107892B91F535
:1003E00089819A8180939A0590939B058CE995E089
:1003F0000E94E607892B41F010929C0510929D0502
:1004000010929E0510929F05C8010E94FB07892B40
:10041000E1F489819A818093A0059093A1050E94BF
:10042000AA108093980529960FB6F894DEBF0FBEE8
:10043000CDBFDF91CF911F910F91089580E0B3CF91
:1004400080E0C0CF80E090E0CDCF80E090E0E3CFCF
:100450000E9410080E94C80D8091A2059091A305EA
:10046000A091A405B091A5050196A11DB11D809391
:10047000A2059093A305A093A405B093A5050C94A1
:100480005E0183E00E9488040E94CC050E9434052E
:100490000E945E0186E895E00E944B0C86E895E09C
:1004A0000E94D1100E94AA10809398050E94F91111
:1004B000809399050E94ED11811569F18091EC04FA
:1004C0009091ED0401968093EC049093ED0441E04B
:1004D0008431910520F08436910530F440E063E0EA
:1004E00081E00E949D1204C01092EC041092ED0471
:1004F0008091970541E080FF40E066E082E00E9445
:100500009D120E94AA1041E0059709F040E067E0C3
:1005100082E00C949D121092EC041092ED04DECF58
:100520001092860510928705109288051092890511
:1005300010928A0510928B0510928C0510928D05F1
:1005400010928E0510928F051092900510929105D1
:1005500010929205109293051092940510929505B1
:100560001092960580919705807F80939705109251
:1005700098051092990510929A0510929B05109279
:100580009C0510929D0510929E0510929F05109259
:10059000A0051092A1051092A2051092A305109239
:1005A000A4051092A50541E066E082E00E942B12AE
:1005B00040E066E082E00E949D1241E067E082E058
:1005C0000E942B1240E067E082E00E949D120E9490
:1005D000681480E00E94FE0681E00E9449140E9497
:1005E0003D080E9465070E946B0841E063E081E0DE
:1005F0000E942B1240E063E081E00E949D120E9465
:10060000B6050E94130583E00E94400482E00E9428
:1006100005040E94AE0D60EA76E881E090E00E9459
:10062000FD120E9433060E94460C0E943C0E0E945E
:100630008D1083EF94E00E94CD0C0E942E0968E596
:1006400071E080E00E94B11362E080E00E945413E8
:1006500080E00E947E1380E00E9493130E944E135C
:100660000E94D40F4AE050E060E070E081E492E044
:100670000E94EC0F44EF51E060E070E089E490E00C
:100680000E94EC0F48EE53E060E070E088E292E0F8
:100690000E94EC0F0E945E010E94AA1080939805B0
:1006A0008AE090E00E9473140E943A100E94671042
:1006B0000E94ED0B0E94AA109C0190919705892F32
:1006C000817091FD826092FD846093FD8860253089
:1006D000310549F480610E944A0860918C0582E0EE
:1006E0000E947D03DDCF2630310511F48062F3CF07
:1006F0002730310581F78064EECFFF920F931F936F
:10070000CF93DF9300D00F92CDB7DEB7898381E01E
:1007100090E0653690F56931C8F16233E0F16B34F1
:10072000F0F111E06F3508F410E001E0F02E41E047
:1007300062E089810E949D128A839B834F2D63E032
:1007400089810E949D122A813B81282B392B2A8383
:100750003B83402F64E089810E949D122A813B8166
:10076000282B392B2A833B83412F65E089810E9406
:100770009D122A813B81822B932B0F900F900F901B
:10078000DF91CF911F910F91FF90089500E0F12C20
:1007900040E010E0CDCF00E0F12C41E0FACF00E0E6
:1007A000FF24F394FACFCF93DF9300D00F92CDB70D
:1007B000DEB7898340E062E00E949D128A839B83BA
:1007C00040E063E089810E949D122A813B81282BB1
:1007D000392B2A833B8340E064E089810E949D128B
:1007E0002A813B81282B392B2A833B8340E065E01B
:1007F00089810E949D122A813B81822B932B0F902D
:100800000F900F90DF91CF910895CF93DF9300D099
:100810000F92CDB7DEB7898341E062E00E942B12D0
:100820008A839B8341E063E089810E942B122A81A5
:100830003B81282B392B2A833B8341E064E089816B
:100840000E942B122A813B81282B392B2A833B8340
:1008500041E065E089810E942B122A813B81282B8F
:10086000392B2A833B8389810E94D3032A813B81D0
:10087000822B932B0F900F900F90DF91CF910895C3
:10088000CF93DF9300D00F92CDB7DEB7898340E0DE
:1008900064E00E942B128A839B8340E065E089819B
:1008A0000E942B122A813B81282B392B2A833B83E0
:1008B00040E063E089810E942B122A813B81282B32
:1008C000392B2A833B8341E064E089810E949D1299
:1008D0002A813B81282B392B2A833B8341E065E029
:1008E00089810E949D122A813B81282B392B2A83E2
:1008F0003B8341E063E089810E949D122A813B8114
:10090000822B932B0F900F900F90DF91CF91089532
:10091000FF920F931F93CF93DF9300D0CDB7DEB735
:100920008A8300E610E0F12CAE014F5F5F4FF801C3
:1009300060818A810E94DB1291E08981811190E0BF
:10094000F8018181891336C084818530B0F58F5FCD
:100950008483853091F1F80182819381891709F4AC
:1009600044C0813069F521E0208711861582168206
:1009700017828383F801858196818436910518F466
:10098000019685839683F2E0FF1221C08091790061
:1009900090917A0084369105D0F080917B0081118E
:1009A00016C084E080937C0010927D0081E08093EB
:1009B0007B000DC091831482CECFF8019283CBCF00
:1009C000978123E0911122E0208711868383F3949D
:1009D000065F1F4F83E0F812A7CF0F900F90DF91B3
:1009E000CF911F910F91FF900895813081F7C2CF71
:1009F00083309105A8F46115710591F02AE0289FD4
:100A0000F001299FF00D1124E05AFF4F8085918558
:100A1000DB018D939D931086118680E090E0089510
:100A200081E090E008951092B3051092B405109201
:100A3000AA051092A6051092A7051092A80510927B
:100A4000A9051092AB051092AC051092AD0510925D
:100A5000AE051092AF051092B0051092B10510923C
:100A6000B20580E090E008958F929F92AF92BF927E
:100A7000DF92EF92FF920F931F93CF93DF9300D0FB
:100A8000CDB7DEB719821A82BE016F5F7F4F82E059
:100A90000E9413128C01892B09F04AC029813A81E6
:100AA000A0E1B7E20E941D152FEF33E040E050E0D7
:100AB0000E944C15D090AA056D2D70E0C901A0E0F0
:100AC000B0E07B01EE0CFF1CF701E555FA4F6081A9
:100AD0007181861B970BA109B1098090A6059090A2
:100AE000A705A090A805B090A905880D991DAA1D7D
:100AF000BB1D61E06D0D643008F060E0F701E55565
:100B0000FA4F208331838093A6059093A705A09385
:100B1000A805B093A9056093AA0522E0B695A7950C
:100B2000979587952A95D1F78093B3059093B4054F
:100B3000C8010F900F90DF91CF911F910F91FF90FF
:100B4000EF90DF90BF90AF909F908F9008950097A7
:100B500051F02091B3053091B405FC01208331831D
:100B600080E090E0089581E090E0089542E062E046
:100B700083E00E942B12892B19F081E090E0089508
:100B800042E066E083E00E942B120097B1F71092DA
:100B9000B6051092B5050895CF93DF9300D0CDB779
:100BA000DEB71A821982AE014E5F5F4F62E083E0CA
:100BB0000E94DB12AE014F5F5F4F66E083E00E9450
:100BC000DB1281E09A81911180E08093B60581E08B
:100BD0009981911180E08093B50580E090E00F90BD
:100BE0000F90DF91CF9108958091B605089580917F
:100BF000B5050895CF93DF93D82FC62F0E941E13FB
:100C0000892B39F48EE30E942F13892B41F00E9427
:100C10002C13C1E0D0E0CE01DF91CF9108958D2F4C
:100C20000E943F13892B99F78C2F0E943F13EC01F0
:100C3000892B69F70E942C13EECF682F80E00E9469
:100C4000FA05EFE9FFE03197F1F700C000000895E1
:100C5000682F80E40E94FA05EFECF7E03197F1F796
:100C600000C000000895CF93DF932FE788E391E061
:100C7000215080409040E1F700C0000088E30E94CE
:100C80001D06892B31F0C1E0D0E0CE01DF91CF917C
:100C900008958FE097E20197F1F700C0000089E323
:100CA0000E941D06892B79F78FEC97E00197F1F7E9
:100CB00000C0000084E10E941D06EC01892B19F799
:100CC00080E70E941D0686E50E941D068CE60E94B4
:100CD0001D069FEF21EE84E0915020408040E1F717
:100CE00000C0000088E30E941D068CE00E941D06E3
:100CF00081E00E941D068FE097E20197F1F700C0A6
:100D0000000086E00E941D06C0CF0C942806CF93F9
:100D1000DF93EC01892B31F481E090E008C021964B
:100D20000E94850688818111FACF80E090E0DF91F2
:100D3000CF910895823040F4603130F48111605CCD
:100D4000862F80680C941D0681E090E0089581E074
:100D50000E941D06EFE0F7E23197F1F700C00000B6
:100D60000895EF92FF920F931F93CF93DF9300D0DC
:100D700000D000D0CDB7DEB79C01892B79F480E399
:100D80000F900F900F900F900F900F90DF91CF91D9
:100D90001F910F91FF90EF900C94280640E0EAE03D
:100DA000F0E07E018FEFE81AF80AC901BF010E9446
:100DB0003815D701A40FB11D805D8C93C9019B012B
:100DC0004F5F0A9790F78701040F111DE016F10697
:100DD00079F480E090E00F900F900F900F900F90BB
:100DE0000F90DF91CF911F910F91FF90EF90089599
:100DF000F80182918F010E948506E8CF66E081E0CC
:100E00000C94FE11EF92FF920F931F93CF93DF93F9
:100E100000D000D000D0CDB7DEB7182F7B01672BF4
:100E200081F401E010E0C8010F900F900F900F9037
:100E30000F900F90DF91CF911F910F91FF90EF9046
:100E40000895BE016F5F7F4F0E941312892B49F7EF
:100E5000BE016D5F7F4F812F0E941312892B09F70E
:100E6000BE016B5F7F4F812F0E9413128C01892B73
:100E7000C1F649815A818B819C818417950728F09E
:100E8000342F252FAC01832F922F2D813E814217C5
:100E9000530708F49A012817390708F49C01A4E6BF
:100EA000B0E00E941D156B3923E9720721E082072B
:100EB000910548F42FEF33E040E050E00E944C15DC
:100EC000F7012083B0CF24E6FBCF41E060E081E072
:100ED0000E942B12009709F540E060E081E00E943B
:100EE0009D120097D1F41092C3051092BF05109285
:100EF000C0051092C1051092C2051092BB05109258
:100F0000BC051092BD051092BE051092B705109257
:100F1000B8051092B9051092BA050895CF93C82F5D
:100F200081E090E0C23018F54C2F60E081E00E9433
:100F30009D120097E1F42091C3052130D0F4C13017
:100F4000A1F44091B7055091B8056091B905709131
:100F5000BA054F5F5F4F6F4F7F4F4093B705509378
:100F6000B8056093B9057093BA05C093C305CF91D6
:100F70000895D9F7C111F9CF1092BF051092C0059D
:100F80001092C1051092C205F0CF009739F0209160
:100F9000C305FC01208380E090E0089581E090E0AB
:100FA0000895009781F04091BF055091C005609170
:100FB000C1057091C205FC01408351836283738334
:100FC00080E090E0089581E090E00895009781F03E
:100FD0004091BB055091BC056091BD057091BE0567
:100FE000FC01408351836283738380E090E0089525
:100FF00081E090E00895009781F04091B70550910D
:10100000B8056091B9057091BA05FC014083518320
:101010006283738380E090E0089581E090E008951A
:101020008091C305813031F58091BF059091C00555
:10103000A091C105B091C2050196A11DB11D80937B
:10104000BF059093C005A093C105B093C2058091E0
:10105000BB059091BC05A091BD05B091BE05019660
:10106000A11DB11D8093BB059093BC05A093BD0548
:10107000B093BE0580E090E0089541E064E081E037
:101080000E942B12009729F440E064E081E00C9468
:101090009D1208950F931F93CF93DF930F92CDB7B7
:1010A000DEB71982BE016F5F7F4F0E9459148C0119
:1010B000892B51F441E064E081E00E949D1240E000
:1010C00064E081E00E949D12C8010F90DF91CF91F2
:1010D0001F910F91089541E062E081E00E942B1280
:1010E000009749F440E062E081E00E949D12009781
:1010F00011F41092C4050895CF93C82F81E090E0B9
:10110000C23048F44C2F62E081E00E949D120097AB
:1011100011F4C093C405CF910895009739F0209140
:10112000C405FC01208380E090E0089581E090E018
:101130000895009741F0FC01E05CFF4F108231966A
:101140001082319610820895CF93DF93009749F073
:101150002FB7F894FC01EE5BFF4F3081303430F054
:101160002FBF81E090E0DF91CF910895DC01A05C7A
:10117000BF4F3C91830F911DEC0168838C918F5F71
:10118000803408F080E08C9380818F5F80832FBF54
:1011900080E090E0E8CFCF93DF93009761F0611596
:1011A000710549F02FB7F894FC01EE5BFF4F3081D9
:1011B000311106C02FBF81E090E0DF91CF910895FB
:1011C000DC01AF5BBF4F3C91830F911DEC01888127
:1011D000EB0188838C918F5F803408F080E08C93E2
:1011E0008081815080832FBF80E090E0E6CF009720
:1011F00061F02FB7F894FC01EE5BFF4F90812FBF99
:1012000081E0911519F080E0089581E00895AC0126
:1012100020E0892B51F480E008958FE9890F8A310D
:1012200008F490523913F7CF2F5FFB01E20FF11D45
:101230003081FA01E20FF11D90813111EECF892F3B
:101240008F7D41F087EF890F823020F081E09D3063
:1012500011F7089581E008950C94EB14CF93DF9378
:1012600082E896E00E9499088FEE95E00E94CD0CEE
:101270001092C50560E875E280E090E00E94CA1413
:10128000EC01892B59F482E896E00E94161581E062
:101290000E940A15CE01DF91CF910895C1E0D0E000
:1012A000F9CF0F931F93CF93DF930F92CDB7DEB794
:1012B0000E94F91189830E94AA10082F81E591E00C
:1012C0000E94F11480918C056AE00E942C150E9406
:1012D0002C1580E3890F0E94EB1480918C056AE045
:1012E0000E942C1580E3890F0E94EB148AE591E09F
:1012F0000E94F1148CE591E00E94F11480918D051B
:101300006AE00E942C150E942C1580E3890F0E9430
:10131000EB1480918D056AE00E942C1580E3890F03
:101320000E94EB148AE591E00E94F11480E691E0BE
:101330000E94F11480918E0590918F0568EE73E004
:101340000E943815CB016AE070E00E943815805D7C
:101350000E94EB1480918E0590918F0564E670E0F9
:101360000E943815CB016AE070E00E943815805D5C
:101370000E94EB1480918E0590918F056AE070E0D9
:101380000E943815CB016AE070E00E943815805D3C
:101390000E94EB1480918E0590918F056AE070E0B9
:1013A0000E943815805D0E94EB1488EC93E00E9447
:1013B000F11484E691E00E94F11480919705817008
:1013C000805D0E94EB148AE691E00E94F114809106
:1013D000970581FF46C081E30E94EB1482E791E00C
:1013E0000E94F1148091970582FF3DC081E30E9425
:1013F000EB1489E791E00E94F1148091970583FF37
:1014000034C081E30E94EB1481E893E00E94F11460
:101410008FE791E00E94F11489816AE00E942C1507
:1014200099830E942C1580E3890F0E94EB14898117
:10143000805D0E94EB1485E891E00E94F114802FFA
:1014400090E0053069F18630910588F4813091058E
:1014500009F18230910509F1892B79F08FEA91E049
:101460000EC080E3B9CF80E3C2CF80E3CBCFD9F009
:101470000797A1F787EA91E002C08DE891E00E940A
:10148000F11481E893E00F90DF91CF911F910F91BC
:101490000C94F11482E991E0F2CF87E991E0EFCF6B
:1014A0008FE991E0ECCF86E890E0E9CF87EB91E01F
:1014B0000E94F11484ED91E00E94F11482EF91E01A
:1014C0000E94F11482E192E00E94F1148FE292E016
:1014D0000E94F1148CE492E00E94F11489E692E0FB
:1014E0000E94F11487E892E00E94F11483EA92E0EE
:1014F0000E94F11481EC92E00E94F11485EE92E0DA
:101500000E94F11486E093E00E94F11488E293E0D7
:101510000C94F1148FEE95E00E94E70C811107C046
:1015200086E493E00E94F11480E090E008956CE27C
:1015300079E08FEE95E00E94F50CF6CF0F931F93A4
:10154000CF93DF93CDB7DEB7A0970FB6F894DEBF89
:101550000FBECDBFFC01892B89F482E593E00E9488
:10156000F11481E090E0A0960FB6F894DEBF0FBEB4
:10157000CDBFDF91CF911F910F9108958F01819180
:101580008032E1F397EF980F9230C0F38D30B1F3D2
:101590006CE573E0C8010E940709811529F00E94DB
:1015A000560A80E090E0DFCF61E673E0C8010E9458
:1015B0000709811107C068E673E0C8010E940709A6
:1015C000811519F00E945109ECCF60E773E0C80162
:1015D0000E9407098115C9F080918C051F928F9395
:1015E00087E793E09F938F938E010F5F1F4F1F93A9
:1015F0000F930E947F15C8010E94F1140F900F9065
:101600000F900F900F900F90CCCF64E873E0C8015B
:101610000E940709811501F1809190059091910533
:101620006AE070E00E9438159F938F937F936F93C9
:101630008AE893E09F938F938E010F5F1F4F1F9354
:101640000F930E947F15C8010E94F1140FB6F89401
:10165000DEBF0FBECDBFA5CF6DE973E0C8010E940C
:101660000709811579F0809195058F9380919405F4
:101670008F93809193058F93809192058F9385EA44
:1016800093E0D8CF64EB73E0C8010E94070981158D
:1016900049F080918F058F9380918E058F938DEB0C
:1016A00093E0A0CF6DEC73E0C8010E94070981159B
:1016B00029F082ED93E00E94F11473CF63EF73E0A1
:1016C000C8010E940709811551F00E94C010892BA2
:1016D00019F487EF93E0EFCF8CEF93E0ECCF69E064
:1016E00074E0C8010E940709811561F0A0960FB649
:1016F000F894DEBF0FBECDBFDF91CF911F910F9148
:101700000C948A0A61E174E0C8010E9407098115FE
:1017100029F08FEE95E00E94F00CDBCF6BE174E0D6
:10172000C8010E940709811539F0809199051F921F
:101730008F9381E294E056CF6BE274E0C8010E947F
:101740000709811519F085E394E0B5CF62E574E0EF
:10175000C8010E9407098111F6CF6EE574E0C80147
:101760000E940709811519F086E694E0A4CF63E88A
:1017700074E0C8010E9407098111F6CF6CE874E09B
:10178000C8010E9407098111EFCF65E974E0C80123
:101790000E9407098111E8CF6FE974E0C8010E9437
:1017A0000709811549F081E00E94AF10892B09F0EB
:1017B000F8CE8AEA94E07FCF6CEB74E0C8010E9417
:1017C0000709811509F4C9CE80E00E94AF10892B6A
:1017D00009F0E7CE88EC94E06ECF0F931F93CF9380
:1017E000DF9300D00F92CDB7DEB78E010F5F1F4F92
:1017F00082E896E00E94F708811541F00F900F9063
:101800000F90DF91CF911F910F910895B80182E859
:1018100096E00E94CB080A831B83892B79F7898184
:10182000E091C5058D3011F08A3069F4E11501F3BE
:10183000F0E0EA53FA4F108286EC95E00E949E0A8F
:101840001092C505D5CFE83248F4AE2FB0E0AA53C8
:10185000BA4F8C93EF5FE093C505CACF8BED94E050
:101860000E94F11482E896E00E94F7088111E8CF07
:101870006A817B8182E896E00E94CB08892B01F780
:1018800089818D30E9F28A3069F7DACF1092C50686
:1018900080E090E00895009779F0FC0186818E3118
:1018A00030F481E08093C50680E090E008958B35A8
:1018B000D8F31092C506F8CF81E090E008958091AA
:1018C000C50608958F929F92AF92BF92CF92DF92FA
:1018D000EF92FF921F93CF93DF93CDB7DEB72A9796
:1018E0000FB6F894DEBF0FBECDBF6B017C014A017D
:1018F00041155105C9F1C114D104E104F104A1F469
:1019000080E3FA012A960FB6F894DEBF0FBECDBF72
:10191000DF91CF911F91FF90EF90DF90CF90BF901C
:10192000AF909F908F90099410E05E01FFEFAF1A87
:10193000BF0AB601C7012AE030E040E050E00E9453
:101940004C15F501E10FF11D6083C601D701690156
:101950007A011F5F0A97A105B10558F77501E10EDD
:10196000F11CAE14BF0491F42A960FB6F894DEBFB2
:101970000FBECDBFDF91CF911F91FF90EF90DF9011
:10198000CF90BF90AF909F908F900895F701829174
:101990007F01805DF4010995E4CF0097B9F0FC0167
:1019A0009C0120573F4F10821182128213821482B1
:1019B00015821682178210863996E217F30799F777
:1019C0001082FC01EF56FF4F11921082089500978C
:1019D00029F0FC01EE56FF4F8081089580E00895C4
:1019E000009711F00C94CD0C08956F927F928F9216
:1019F0009F92AF92BF92CF92DF92EF92FF920F939E
:101A00001F93CF93DF93CDB7DEB728970FB6F89427
:101A1000DEBF0FBECDBF8C016F8378870097A1F02A
:101A2000672B91F05C0182E9A80EB11CD5018C9165
:101A3000811551F0912CF801E057FF4FED83FE83A3
:101A4000D5018C919816A8F028960FB6F894DEBFB1
:101A50000FBECDBFDF91CF911F910F91FF90EF90FF
:101A6000DF90CF90BF90AF909F908F907F906F90BE
:101A70000895AD81BE818C91815F89198F70F801C5
:101A8000B9E08B9FE00DF11D11248080818192814E
:101A9000A381B48189839A83AB83BC83758066807C
:101AA000E780F08486EEC82E84E0D82ED6018D9192
:101AB0006D01EF81F8850995FAEECF16F4E0DF06A7
:101AC000A9F7692D70E080E090E04F8158850E9471
:101AD000620C8CE2EF81F8850995682D70E080E05A
:101AE00090E04F8158850E94620C8CE2EF81F8856E
:101AF00009954F81588569817A818B819C810E94EB
:101B0000620C8CE2EF81F8850995672D70E080E02A
:101B100090E04F8158850E94620C8CE2EF81F8853D
:101B20000995662D70E080E090E04F8158850E9415
:101B3000620C8CE2EF81F8850995B70180E090E0B6
:101B40004F8158850E94620C8DE0EF81F8850995E0
:101B50008AE0EF81F8850995939472CF40E061E0C7
:101B600081E00E942B12009711F40E948B141092B6
:101B7000CC061092CD061092CA061092CB06109297
:101B8000C6061092C7061092C8061092C90608959C
:101B90000E949C142091CC063091CD06AC01421BD2
:101BA000530B9A018093CC069093CD064093CA06BE
:101BB0003093CB068091C6069091C706A091C806C7
:101BC000B091C906840F951FA11DB11D8093C60653
:101BD0009093C706A093C806B093C90680E090E032
:101BE00008956091CA067091CB0680E090E022E0F3
:101BF000660F771F881F991F2A95D1F723E030E0E1
:101C000040E050E00E944C15C90108952091C6069D
:101C10003091C7064091C8065091C906A8EEB3E0BE
:101C20000E94741522EC31E040E050E00E944C1517
:101C3000B901CA0108951092DD061092DE061092D5
:101C4000DB061092DC061092D9061092DA0610928A
:101C5000D7061092D8061092D5061092D60610928A
:101C6000D3061092D4061092D1061092D20610928A
:101C7000D0061092CF0608951092DF061092E0066B
:101C80001092CE060E941B0E80E090E00895809195
:101C9000DF069091E006892B19F081E08093CE0653
:101CA00080E090E00895CF93DF93DC01C091DF06E0
:101CB000D091E006892BC9F0209709F446C08091A5
:101CC000CE06811591F0FE013197E930F10530F52E
:101CD000E957F74E0C946E1516968C911697803630
:101CE00020F451968C9182FF19C0CE01DF91CF91E3
:101CF000089518968D919D911A97883E9340A8F764
:101D000051968C9180FDF1CF09C017968C91179751
:101D1000893158F351968C9183FDE7CF1092DF06FD
:101D20001092E0061092CE060E941B0EC0E0D0E09A
:101D3000DCCF17968C918931C0F2F0CF8D919D91B7
:101D400001978E3F934088F6E9CF51969C91519729
:101D500092FD15C016968C911697833698F02091B7
:101D6000DD063091DE06283C310548F42F5F3F4FF9
:101D70002093DD063093DE06283C310539F4C1E0BE
:101D8000D0E016C01092DD061092DE0618964D9136
:101D90005D911A9741346FE1560708F43FC02091D6
:101DA000DB063091DC062233310598F0C2E0D0E04A
:101DB0001092D3061092D4061092D1061092D20639
:101DC000C093DF061092E0061092CE060E941B0E12
:101DD0008CCF2F5F3F4F2093DB063093DC062233FE
:101DE000310521F393FDCCC017962C9117972A301B
:101DF00008F4C6C090FF33C01A962D913D911C97F0
:101E00002A30310538F52091D7063091D806283E82
:101E100063E0360740F0C4E0D0E0CACF1092DB06A2
:101E20001092DC06DFCF2F5F3F4F2093D706309311
:101E3000D806283E334079F3443F5140A0F4209126
:101E4000D9063091DA062C3241E0340788F0C5E03B
:101E5000D0E0AECF1092D7061092D806EDCF1092F8
:101E6000D7061092D8061092D9061092DA0609C049
:101E70002F5F3F4F2093D9063093DA062C32314042
:101E800031F354962D913D9156972538334008F003
:101E90007AC02D913D9112972115310519F02F3FF0
:101EA000334009F52091D5063091D606243F41E014
:101EB000340718F0C7E0D0E07BCF2F5F3F4F20936F
:101EC000D5063093D606243F3140A1F352962C918B
:101ED0003AEF320F323010F0233051F41092D30623
:101EE0001092D40619C01092D5061092D606EECFE5
:101EF00090FD28C02091D3063091D40621153105DC
:101F000081F48093D0062F5F3F4F2093D306309308
:101F1000D4062037374149F01092D1061092D206EC
:101F2000E4CE203797E1390770F39091D0068917F6
:101F3000A8F6292F281B330B2630310578F2C8E08C
:101F4000D0E036CF1092D3061092D4062091D1065D
:101F50003091D20621153105C9F0203E4EE23407FA
:101F6000B8F09091CF069817D0F4203E3E4208F486
:101F7000BCCE891B813009F0B8CEC9E0D0E020CFBB
:101F8000C3E0D0E015CFC6E0D0E012CF8093CF06FB
:101F90002F5F3F4F2093D1063093D206E2CF203EF1
:101FA0003E4208F4A2CEE9CFE2EEF6E010821182C2
:101FB000128213821482158216821782108611866D
:101FC00012863C9687E0E234F80781F781E080933F
:101FD000E10680E090E00895CF92DF92EF92FF92C9
:101FE000CF93DF93EC016A017B018091E1068115BB
:101FF000F1F12097E1F18AE0C816D104E104F1047F
:10200000B0F1BA01C7012AE030E040E050E00E94A0
:102010004C15672B682B692B51F5E2EEF6E080E05A
:1020200090E0228521111EC02CE0289FF001299FFD
:10203000F00D1124EE51F94FC083D183C282D382B7
:10204000E482F582C682D782E086F186138681E03B
:10205000828780E090E0DF91CF91FF90EF90DF905A
:10206000CF90089501963C9688309105D1F681E095
:1020700090E0F1CF8091E106811541F1E2EEF6E0CA
:1020800021E082858130E9F486819781A085B18540
:102090008A309105A105B10538F00A97A109B10967
:1020A00086839783A087B187892B8A2B8B2B49F452
:1020B00082819381A481B58186839783A087B1872C
:1020C00023873C9687E0E234F807D9F60895CF934A
:1020D000DF938091E106811589F0C2EED6E08A8512
:1020E000813039F48B85813021F41B86E881F981B8
:1020F00009952C9687E0C234D80789F7DF91CF91F4
:10210000089581E00E948E0781E00C947C0880E0B5
:102110000E948E0780E00C947C0810924807109271
:1021200049071092460710924707109244071092F1
:10213000450784EF91E080937E0090937F0010929A
:10214000430780E00E948E07009719F480E00C940A
:102150007C0808958091480790914907089581155A
:1021600051F00E94871087E090E08093480710921A
:10217000490780E008950E94871081E090E0F5CF44
:1021800081E0809343070E94470E009749F4109224
:1021900046071092470721E020934807109249070D
:1021A0000895EF92FF920F931F93CF93DF9300D088
:1021B00000D000D0CDB7DEB78C011D821E821B82FD
:1021C0001C8219821A8281E090E00115110509F440
:1021D000B1C0F801818980FD47C080917E00909157
:1021E0007F00843FF1E09F0728F4019680937E00F2
:1021F00090937F00BE016B5F7F4F80E090E00E9474
:10220000F804BE016D5F7F4F81E090E00E94F8040A
:10221000BE016F5F7F4F82E090E00E94F804C8012A
:102220000E94530E7C01892B99F00E9487108091A7
:10223000480790914907059731F010924307E092C3
:102240004607F092470785E08093480710924907B8
:1022500089819A810397029710F40E94C010EF2899
:1022600041F00E94871064C010927E0010927F009F
:10227000C1CFE0914807F09149078D819E81039776
:1022800009F042C0E630F105A9F4109242070E941D
:10229000871081E080934807109249070E948710B9
:1022A0001092440710924507F80187818931E0F5C3
:1022B00084E055C0CF010197029730F51092420794
:1022C0000E94871086E080934807109249078B810F
:1022D0009C81039789F480914207811175C0809198
:1022E0007E0090917F00843F914008F4BACF81E056
:1022F000809342070E94811080914207811509F462
:10230000B0CF0E94811014C0E830F10508F061C020
:10231000E057F74E0C946E150E94871010924407F8
:102320001092450781E01BC00E945F0C81110FC015
:1023300080E090E00F900F900F900F900F900F9013
:10234000DF91CF911F910F91FF90EF9008958091B1
:102350007E0090917F00843F914050F382E0809313
:10236000480710924907E4CFF8018781893118F4B2
:102370000E9487109DCF0E945F0C8111C2CF0E94E6
:102380008710109244071092450783E0E8CF0E941F
:1023900087108091440790914507843FF1E09F07A3
:1023A00008F0BCCF01968093440790934507843F83
:1023B000914009F0BDCFB2CF0E948710F80187810C
:1023C000893108F4B5CFAECF109242070E94871032
:1023D00093CF0E94871085E0C2CF809148079091EB
:1023E0004907059721F481E090914307911180E01E
:1023F000089580914607909147070895823010F024
:10240000833071F49FEF960F973050F48295880FC8
:10241000880F807C87B9606866B980E090E0089595
:1024200081E090E00895883098F46115710581F09D
:1024300097B1907E982B97B9369A349BFECF349AF9
:1024400084B125B1FB018083218380E090E0089571
:1024500081E090E00895843008F06CC0683008F0A6
:1024600069C0433008F066C021E030E0F90101C0E6
:10247000EE0F6A95EAF76E2F413028F560958230AD
:10248000A1F08330C9F0813039F08AB386238ABB4A
:102490008BB386238BBB06C087B3862387BB88B3E9
:1024A000862388BB80E090E0089584B3862384BBB4
:1024B00085B3862385BBF6CF81B3862381BB82B3E8
:1024C000862382BBEFCFB1F4823061F0833071F0AC
:1024D000813021F08AB38E2B8ABBE4CF87B38E2B59
:1024E00087BBE0CF84B38E2B84BBDCCF81B38E2B34
:1024F00081BBD8CF9E2F9095823081F08330A1F0A0
:10250000813031F08AB389238ABB8BB38E2BC2CF43
:1025100087B3892387BB88B38E2BC3CF84B389232A
:1025200084BB85B38E2BC6CF81B3892381BB82B395
:102530008E2BC7CF81E090E008958430C8F56830D5
:10254000B8F54230A8F521E030E0F90101C0EE0F06
:102550006A95EAF76E2F4130C1F4823061F0833022
:1025600081F0813021F08BB38E2B8BBB07C088B3F9
:102570008E2B88BB03C085B38E2B85BB80E090E09B
:10258000089582B38E2B82BBF9CF6095823051F0D3
:10259000833059F0813019F08BB38623E6CF88B3AE
:1025A0008623E7CF85B38623E8CF82B38623EBCF9C
:1025B00081E090E00895FA018430E0F46830D0F4CE
:1025C0003097C1F0823091F0833091F0813061F02A
:1025D00089B390E002C0959587956A95E2F781707E
:1025E000808380E090E0089586B3F3CF83B3F1CF8A
:1025F00080B3EFCF81E090E008959B01AC012115FD
:10260000310541055105B9F060E072E18AE790E0DB
:102610000E944C15205131094109510956954795A1
:102620003795279520B981B18C7F81B984E086BF29
:1026300080E090E0089581E090E0089584EA86BF0C
:1026400006B607FEFDCF91B1987F21E030E09830CB
:1026500009F420E0C901089584E986BF0895880F30
:1026600083B984E886BF06B607FEFDCF91B1987F97
:1026700021E030E0983109F420E0C901089583B9E0
:1026800084E886BF06B607FEFDCF91B1987F21E0B2
:1026900030E0983209F420E0C90108958FB78068CE
:1026A0008FBF80E090E00895813079F08230C1F0F2
:1026B000811121C06430F8F485B78C7F85BF85B760
:1026C000862B85BF80E090E008956430A0F485B744
:1026D000837F85BF85B7660F660F682B65BFF2CF16
:1026E000623021F484B78F7B84BFECCF633019F460
:1026F00084B78064F9CF81E090E00895813051F093
:10270000823059F081110CC08AB780648ABF80E0A2
:1027100090E008958AB78068F9CF8AB78062F6CFD3
:1027200081E090E00895813069F0823089F0811174
:1027300015C08AB780648ABF8BB780648BBF80E086
:1027400090E008958AB780688ABF8BB78068F6CF1B
:102750008AB780628ABF8BB78062F0CF81E090E059
:10276000089561157105B9F0813059F0823071F02A
:10277000811111C060934E0770934F0780E090E085
:10278000089560934C0770934D07F8CF60934A0704
:1027900070934B07F3CF81E090E008951F920F9262
:1027A0000FB60F9211242F933F934F935F936F9324
:1027B0007F938F939F93AF93BF93EF93FF93E0919A
:1027C0004E07F0914F07309709F00995FF91EF916F
:1027D000BF91AF919F918F917F916F915F914F9139
:1027E0003F912F910F900FBE0F901F9018951F9241
:1027F0000F920FB60F9211242F933F934F935F9335
:102800006F937F938F939F93AF93BF93EF93FF93B8
:10281000E0914C07F0914D07309709F00995FF9131
:10282000EF91BF91AF919F918F917F916F915F9148
:102830004F913F912F910F900FBE0F901F901895C1
:102840001F920F920FB60F9211242F933F934F9325
:102850005F936F937F938F939F93AF93BF93EF9308
:10286000FF93E0914A07F0914B07309709F00995E3
:10287000FF91EF91BF91AF919F918F917F916F9158
:102880005F914F913F912F910F900FBE0F901F902E
:102890001895843058F4BC9ABD9ABE98BF9AC49AD1
:1028A00080658DB9709880E090E0089581E090E0B7
:1028B00008956115710549F08FB9779BFECF8FB1EF
:1028C000FB01808380E090E0089581E090E008952E
:1028D00088E083BF8CE78CBF12BE83B7887F83BF3D
:1028E00080E090E00895AC0182E088BF93B79360E8
:1028F00093BF20E030E02417350731F483B7887F99
:1029000083BF80E090E0089508B601FEFDCF88BF48
:102910002F5F3F4FF0CF8EB5887F8EBD8FB58C7FF8
:102920008FBD8EB5877E8EBD1DBC1CBC8EB58760ED
:102930008EBD80E090E008958CB59DB508951F92FE
:102940000F920FB60F9211242F933F934F935F93E3
:102950006F937F938F939F93AF93BF93EF93FF9367
:102960006CB18091500790915107009711F00E942F
:10297000A408FF91EF91BF91AF919F918F917F91AB
:102980006F915F914F913F912F910F900FBE0F90DC
:102990001F901895009770406040D1F09B01AC01EA
:1029A00084E0220F331F441F551F8A95D1F760E042
:1029B00072E18AE790E00E944C152150310930BD48
:1029C00029B986E880BD88E18AB980E090E0089561
:1029D00081E090E008955D9BFECF8CB980E090E0AF
:1029E00008950F931F93CF938C01C0E0892B31F48E
:1029F00081E090E00BC00E94EB14CF5FF801EC0F78
:102A0000F11D80818111F7CF80E090E0CF911F917F
:102A10000F910895813021F4579A80E090E0089555
:102A200010F45798FACF81E090E008958093500712
:102A30009093510780E090E00895A29FB001B39F6A
:102A4000C001A39F700D811D1124911DB29F700DB7
:102A5000811D1124911D0895992778E0880F991FF1
:102A6000961708F0961B881F7A95C9F780950895E8
:102A7000AA1BBB1B51E107C0AA1FBB1FA617B707A4
:102A800010F0A61BB70B881F991F5A95A9F78095C0
:102A90009095BC01CD010895A1E21A2EAA1BBB1B83
:102AA000FD010DC0AA1FBB1FEE1FFF1FA217B3071A
:102AB000E407F50720F0A21BB30BE40BF50B661F30
:102AC000771F881F991F1A9469F7609570958095F4
:102AD00090959B01AC01BD01CF010895EE0FFF1F42
:102AE0000590F491E02D09940E941D15A59F900D6D
:102AF000B49F900DA49F800D911D11240895AEE008
:102B0000B0E0E5E8F5E10C94551886E08C832B895C
:102B10003C8929833A838FEF9FE78D839E83AE01A3
:102B2000495E5F4F6D897E89CE0101960E94A31593
:102B3000EF81F8852B893C89E20FF31F10822E96D6
:102B4000E2E00C947118ACE0B0E0E9EAF5E10C9435
:102B500048185C016B017A01FC011682178283819F
:102B600081FFD3C12AE0522EF5012381F60123FD16
:102B7000859123FF81916F01811509F42CC1853264
:102B800039F423FD959123FF91916F01953229F43A
:102B9000B50190E00E949E17E7CF30E0712C00E075
:102BA00010E0103210F59B32C9F050F49032B9F0B9
:102BB0009332C9F09E3261F516FD0DC1106405C057
:102BC0009D3279F0903399F41160F60123FD9591CF
:102BD00023FF91916F019111E4CF23C01260146023
:102BE000F4CF1860F2CF1061F0CF17FD1AC080ED5E
:102BF000890F8A30F8F616FF05C0759C800D1124E8
:102C0000782EE3CF059D800D1124082F1062DDCFB3
:102C10009C3611F41068D9CF9C3409F440C0983622
:102C2000A1F2892F8F7D85548330D8F1933609F432
:102C30005FC0933709F46AC0933509F476C09436BF
:102C400019F0993609F0A2C0F70117FF98C06191F9
:102C50007191819191917F011F7697FF03C00E942E
:102C60003D1810682AE030E04E014FEF841A940AB4
:102C7000A4010E94DF17682E681816FFD2C0812FAA
:102C80008E7F671408F0CCC014FF1DC112FD11C166
:102C90001E7E972C812F867809F4CEC00FC131E0BB
:102CA00094CF311509F1F8E0EF0EF11C8FE3898321
:102CB00091E0692E712C4E018FEF881A980A1F77C8
:102CC00013FD04C06016710408F43FC06114710460
:102CD00009F042C0011509F447CFB50180E290E048
:102CE0000E949E170150F6CF44E0E40EF11CDECFA7
:102CF000F70180818983F2E0EF0EF11C81E0682EFC
:102D0000712C4E014FEF841A940AD9CFF7018190AC
:102D100091907F01672D70E016FD02C06FEF7FEF8D
:102D2000C4010E9493173C01CACFF7018190919092
:102D30007F01672D70E016FD02C06FEF7FEFC401C9
:102D40000E9488173C011068BBCFB50180E290E07B
:102D50000E949E170150B6CFF40117FD859117FF11
:102D600081914F01B50190E00E949E1781E0011111
:102D700001C080E0081BF1E06F1A7108A7CF6191D4
:102D80007191872F880F880B982F65CF9537C9F4DD
:102D90001F7E1C872AE030E0FC85F7FF3BC0F7016F
:102DA00061917191819191917F014E014FEF841A50
:102DB000940AA4010E94DF17682E68181C851F77EB
:102DC0005CCF812F897F8C87903799F058F49835A4
:102DD000B9F09F36E1F0F501868197812C96EFE0FE
:102DE0000C9464189837B9F714FD06C020E130E060
:102DF000D3CF9C8590619C87EC85E460EC87F6CF0F
:102E000014FF02C016601C8720E132E0C5CF28E025
:102E100030E0C2CFF7016191719180E090E0C4CFC2
:102E2000182F962C14FF36CFFE01E60DF11D808180
:102E3000803309F041C0197E13FD0EC010FF4FC052
:102E4000762C901618F4700E7918902E802F891910
:102E5000091508F480E0980E901608F042C0091990
:102E600014FF41C0B50180E390E00E949E1712FF5D
:102E700009C088E590E011FD02C088E790E0B50147
:102E80000E949E176714D0F14E018FEF881A980A9E
:102E90006A94FE013296E60DF11D3F01F301829125
:102EA0003F01B50190E00E949E1768147904B1F7C4
:102EB00011CF972C182FB8CF12FD02C09394BCCF1E
:102EC00093949394B9CF972C182FE4CEB50180E258
:102ED00090E00E949E1783948016C0F3B7CF892C90
:102EE000FBCF00E0BDCF812F867861F280E211FD3B
:102EF0008BE217FD8DE2B50190E0C2CFB50180E312
:102F000090E00E949E177A94BDCF8FEF9FEF66CF1F
:102F1000FC010590615070400110D8F780959095A4
:102F20008E0F9F1F0895FC016150704001900110A9
:102F3000D8F7809590958E0F9F1F0895A3E0B0E07D
:102F4000E4EAF7E10C945418182F99836A837B8381
:102F5000DB0113968C9181FD09C01FEFBFEFB98390
:102F6000812F99812396E3E00C94701882FF1BC097
:102F7000EA81FB8126813781848195812817390771
:102F800054F40190F081E02DCF010196AA81BB811C
:102F90008D939D931083EA81FB81868197810196B1
:102FA00086839783DDCFAA81BB811896ED91FD9131
:102FB0001A97BD01812F0995892B69F3CECFFA01AC
:102FC000AA27283051F1203181F1E8946F936E7F68
:102FD0006E5F7F4F8F4F9F4FAF4FB1E03ED0B4E059
:102FE0003CD0670F781F891F9A1FA11D680F791F9A
:102FF0008A1F911DA11D6A0F711D811D911DA11DAB
:1030000020D009F468943F912AE0269F11243019BA
:10301000305D3193DEF6CF010895462F4770405D55
:103020004193B3E00FD0C9F7F6CF462F4F70405D04
:103030004A3318F0495D31FD4052419302D0A9F75F
:10304000EACFB4E0A6959795879577956795BA9559
:10305000C9F700976105710508959B01AC010A2E1F
:1030600006945795479537952795BA95C9F7620FF6
:10307000731F841F951FA01D0895909580957095CE
:1030800061957F4F8F4F9F4F08952F923F924F92A0
:103090005F926F927F928F929F92AF92BF92CF92E8
:1030A000DF92EF92FF920F931F93CF93DF93CDB7F1
:1030B000DEB7CA1BDB0B0FB6F894DEBF0FBECDBF69
:1030C00009942A88398848885F846E847D848C843A
:1030D0009B84AA84B984C884DF80EE80FD800C8143
:1030E0001B81AA81B981CE0FD11D0FB6F894DEBF26
:1030F0000FBECDBFED010895F894FFCF0801140174
:1031000017011A011D0120012301260129016C0E5E
:10311000790E850E990E800E800E9E0E800E800E0A
:103120008C114E11B411C711DC113111671131111D
:103130000400000000000000000005000000000086
:103140000000000003000000000000000000F40187
:103150004D4F44453A204D414E55414C004D4F4452
:10316000453A204155544F004C3A002520523A0030
:103170002520002E00410021545249503A204F563C
:103180004552464C4F570021545249503A204F5611
:10319000455243555252454E540021545249503ADB
:1031A00020445259205245534552564F495200210E
:1031B000545249503A204452592052554E002154FD
:1031C0005249503A204E4F2043555252454E5400DA
:1031D00021545249503A204D41582052554E54499D
:1031E0004D450021545249503A204C4556454C20FB
:1031F00053454E534F520021545249503A204C45AA
:10320000414B0021545249503A204E4F20524953CD
:10321000450046494C4C200049444C452000513A59
:10322000000D0A4C4556454C3D00250020523D00FE
:1032300020493D0050554D503D002056414C5645CB
:103240003D0020484947483D00204C4F573D005421
:103250005249503D002053544154453D00494E4988
:10326000540049444C450046494C4C494E47005493
:103270005249505045440053455256494345005524
:103280004E4B4E4F574E003D3D3D20574154455209
:103290002054414E4B20434F4E534F4C45203D3D13
:1032A0003D0D0A0053544154555320202020202026
:1032B0002D2053797374656D207374617475730D6B
:1032C0000A004C4556454C3F2020202020202D2030
:1032D000526F6F662074616E6B206C6576656C0D45
:1032E0000A00464C4F573F202020202020202D2030
:1032F00043757272656E7420666C6F770D0A0056A6
:103300004F4C554D453F20202020202D20546F74D8
:10331000616C20766F6C756D650D0A0043555252D5
:10332000454E543F202020202D2050756D70206385
:10333000757272656E740D0A004346473F20202067
:1033400020202020202D20436F6E666967757261F2
:1033500074696F6E0D0A00545249503F202020209E
:103360002020202D20416374697665207472697075
:103370000D0A004641554C54533F20202020202D5B
:10338000204661756C7420686973746F72790D0AD8
:1033900000434C524641554C54532020202D20438D
:1033A0006C656172206661756C7420686973746FF6
:1033B00072790D0A0041434B20202020202020203C
:1033C000202D2041636B6E6F776C65646765207498
:1033D0007269700D0A004D4F4445204155544F2FDE
:1033E0004D414E55414C202D204D6F646520636F3B
:1033F0006D6D616E640D0A003D3D3D3D3D3D3D3DC1
:103400003D3D3D3D3D3D3D3D3D3D3D3D3D3D3D3DEC
:103410003D3D3D0D0A004E4F204641554C54530D45
:103420000A0045525220434D440D0A0048454C5075
:1034300000535441545553005354415455533F0085
:103440004C4556454C3F004C4556454C3D25752551
:10345000250D0A00464C4F573F00464C4F573D251F
:10346000752E2575204C2F6D696E0D0A00564F4C38
:10347000554D453F00564F4C554D453D256C7520EB
:103480004C0D0A0043555252454E543F004355528D
:1034900052454E543D2575206D410D0A0043464767
:1034A0003F004346473D33302C39302C36302C38E2
:1034B0002C302E352C312C31302C31352C31323012
:1034C0000D0A0041434B004F4B0D0A00455252205C
:1034D0004143544956450D0A004641554C54533F0B
:1034E00000434C524641554C545300545249503FAE
:1034F00000545249503D25750D0A004D4F4445205A
:103500004155544F00455252204D4F4445202D20E7
:10351000555345204D4F444520425554544F4E0D70
:103520000A004D4F4445204D414E55414C005055E9
:103530004D50204F4E00455252204D4F4445202DB6
:10354000205553452046534D20434F4E54524F4C27
:103550000D0A0050554D50204F46460056414C56DE
:1035600045204F4E0056414C5645204F464600538D
:10357000455256494345204F4E0053455256494304
:1035800045204D4F4445204F4E0D0A00534552569D
:10359000494345204F46460053455256494345202E
:1035A0004D4F4445204F46460D0A00455252204C8F
:0C35B0004F4E470D0A00464C542C000002
:00000001FF
