:100000000C942A000C9462010C948B010C94B401A2
:100010000C9447000C9447000C9447000C94470044
:100020000C9447000C9447000C9447000C94470034
:100030000C9447000C945D020C9447000C9447000C
:100040000C9447000C9447000C9447000C94470014
:100050000C94470011241FBECFE5D8E0DEBFCDBF12
:1000600010E0A0E6B0E0E4E1F5E002C005900D92FA
:10007000A036B107D9F720E0A0E6B0E001C01D929C
:10008000A836B207E1F70E9449000C9488020C944C
:1000900000000E94FC0181E00E94DD010E945D00E1
:1000A0000E9444020E94580281E090E00E941F02D8
:1000B0000E9455020E946A00F5CF41E064E081E0B1
:1000C0000E94B200009729F440E064E081E00C94C3
:1000D000240108950F931F93CF93DF930F92CDB711
:1000E000DEB71982BE016F5F7F4F0E94ED018C0168
:1000F000892B51F441E064E081E00E94240140E05A
:1001000064E081E00E942401C8010F90DF91CF914B
:100110001F910F910895CF93DF93009749F02FB768
:10012000F894FC01EE5BFF4F3081303430F02FBF8C
:1001300081E090E0DF91CF910895DC01A05CBF4F9A
:100140003C91830F911DEC0168838C918F5F80340B
:1001500008F080E08C9380818F5F80832FBF80E0E8
:1001600090E0E8CF843008F06CC0683008F069C0D7
:10017000433008F066C021E030E0F90101C0EE0F25
:100180006A95EAF76E2F413028F560958230A1F02C
:100190008330C9F0813039F08AB386238ABB8BB3B0
:1001A00086238BBB06C087B3862387BB88B3862391
:1001B00088BB80E090E0089584B3862384BB85B338
:1001C000862385BBF6CF81B3862381BB82B386238A
:1001D00082BBEFCFB1F4823061F0833071F08130B7
:1001E00021F08AB38E2B8ABBE4CF87B38E2B87BBDB
:1001F000E0CF84B38E2B84BBDCCF81B38E2B81BB4D
:10020000D8CF9E2F9095823081F08330A1F081303D
:1002100031F08AB389238ABB8BB38E2BC2CF87B3CD
:10022000892387BB88B38E2BC3CF84B3892384BB38
:1002300085B38E2BC6CF81B3892381BB82B38E2B2E
:10024000C7CF81E090E008958430C8F56830B8F5F4
:100250004230A8F521E030E0F90101C0EE0F6A95C7
:10026000EAF76E2F4130C1F4823061F0833081F0C3
:10027000813021F08BB38E2B8BBB07C088B38E2BC4
:1002800088BB03C085B38E2B85BB80E090E00895CA
:1002900082B38E2B82BBF9CF6095823051F08330D0
:1002A00059F0813019F08BB38623E6CF88B38623CB
:1002B000E7CF85B38623E8CF82B38623EBCF81E0F7
:1002C00090E008951F920F920FB60F9211242F9372
:1002D0003F934F935F936F937F938F939F93AF93CE
:1002E000BF93EF93FF93E0916400F0916500309726
:1002F00009F00995FF91EF91BF91AF919F918F9177
:100300007F916F915F914F913F912F910F900FBE11
:100310000F901F9018951F920F920FB60F921124F5
:100320002F933F934F935F936F937F938F939F93FD
:10033000AF93BF93EF93FF93E0916200F09163005E
:10034000309709F00995FF91EF91BF91AF919F917F
:100350008F917F916F915F914F913F912F910F906E
:100360000FBE0F901F9018951F920F920FB60F920D
:1003700011242F933F934F935F936F937F938F93AA
:100380009F93AF93BF93EF93FF93E0916000F09141
:100390006100309709F00995FF91EF91BF91AF91FE
:1003A0009F918F917F916F915F914F913F912F918D
:1003B0000F900FBE0F901F901895843058F4BC9A80
:1003C000BD9ABE98BF9AC49A80658DB9709880E036
:1003D00090E0089581E090E008956115710549F07D
:1003E0008FB9779BFECF8FB1FB01808380E090E0D7
:1003F000089581E090E0089588E083BF8CE78CBF8A
:1004000012BE83B7887F83BF80E090E00895AC017F
:1004100082E088BF93B7936093BF20E030E0241759
:10042000350731F483B7887F83BF80E090E008957B
:1004300008B601FEFDCF88BF2F5F3F4FF0CFCF93AF
:10044000DF9300D000D0CDB7DEB789839A831B82BB
:100450001C828B819C8129813A818217930749F400
:1004600080E090E00F900F900F900F90DF91CF9170
:10047000089588EE93E00E9407022B813C812F5F54
:100480003F4F2B833C83E5CF8EB5887F8EBD8FB5E4
:100490008C7F8FBD8EB5877E8EBD1DBC1CBC8EB57E
:1004A00087608EBD80E090E008958CB59DB508957D
:1004B0001DBC1CBC80E090E008951F920F920FB607
:1004C0000F9211242F933F934F935F936F937F93DA
:1004D0008F939F93AF93BF93EF93FF936CB18091F2
:1004E000660090916700009711F00E948B00FF91C9
:1004F000EF91BF91AF919F918F917F916F915F919C
:100500004F913F912F910F900FBE0F901F90189514
:04051000F894FFCF8D
:00000001FF
